:020000040808EA
:10000000000008083CB50908000005000A000501C9
:080010000402CF000000000013
:100018004C76090809480A4908B5884205D0094AB2
:10002800824202D0121A15F092FC0748074A0021B2
:10003800121A15F0B2FC064808BD00BF00040020E3
:100048009CB309087805002078050020684800203E
:100058006848002070B513F0EBFC074B074C1E46B0
:10006800E41AA4080025A54204D056F8253098477C
:100078000135F8E770BD00BF0CB3090890B3090853
:1000880000F07CB808B501F067F8BDE8084013F047
:100098008DBC12F0F3BF12F0F1BF12F0F7BF12F0EF
:1000A800F5BF0078B0FA80F040097047012303706B
:1000B800704710B50446084615F09DFC236818449F
:1000C800206010BD70B5826804460D4622B1936861
:1000D800033323F003039360A2684AB1936850681E
:1000E800E918814204D802F10C009160184470BDEF
:1000F800E668AE4238BF2E4606F10C0012F0BEFF8D
:1001080078B1002383604660A36800F10C020360A5
:10011800E368A0605B00E36083681D448560D018D5
:1001280070BD70BD054B13F8022C22B1023313F8D1
:10013800031C8142F7D11046704700BF6E7609084C
:100148000246084619B10B6811461B6818477047E4
:1001580038B5084D2B6813F0010409D12846FFF77C
:10016800A0FF28B1044B28461C605C60FFF79EFF87
:10017800014838BDE0050020E405002030B5E1B0B5
:1001880013F028FD4FF4165113F00AFD41F28830A0
:1001980013F094FB3A4B3B4C186812F087FC012192
:1001A800062013F08DFE0021062013F09AFE20464B
:1001B8004FF4165101F000FA3349204601F005FAD0
:1001C8004FF4FA7013F07AFB3049204601F0FDF93C
:1001D8004FF4FA7013F072FB2D4B2E4C186812F086
:1001E80021FB2D4B8025186812F022F811F0B2FF80
:1001F8002A4913F0F6FA206811F060FF2A46002118
:10020800684615F0CAFB2A4600210DEB050015F0DB
:10021800C4FB2A46002140A815F0BFFB204B1868F4
:100228001B7900908DF8043013F0D4FC1D4913F0AD
:10023800C5FA0DEB05026946206811F066FF13F058
:10024800C9FC0DEB050113F0CCFA13F0C3FC13F055
:10025800BCFA13F0BFFC144913F0B0FA40AA0DEB36
:100268000501206811F05EFF13F0B4FC40A913F0FB
:10027800B8FA12F00BFD0D4B186061B030BD00BF2D
:100288008C2E0020902E00207B760908AD76090878
:10029800E82E0020E02E002008390020BE7609084C
:1002A800C6760908CC760908DD760908F805002025
:1002B80038B50446806830B14368E360056812F0D9
:1002C800E5FE2846F7E7A06038BD10B5044601688A
:1002D8001820FFF735FF10B100230360037263682D
:1002E8002BB11A680AB11346FBE7186010BD6060AD
:1002F80010BD38B50D46FFF7E8FF044640B1286841
:1003080014F0A4FAC4E9040108232372012038BDBB
:1003180038BD38B50D4644687CB1A16805B119B936
:100328004B1B5842584105E0284615F05AFBB0FAD5
:1003380080F0400908B92468EEE7204638BD10B5BA
:10034800044601682020FFF7FBFE10B1002303607C
:10035800037463682BB11A680AB11346FBE7186087
:1003680010BD606010BD70B5046805460E4614B92E
:10037800FFF7EEFE70BD21460820FFF7E1FEC8B189
:10038800002304604360044696B131462846FFF7CF
:10039800C0FF20B92846FFF7D2FF48B1866023681E
:1003A800002B19BF23460622002200230274836112
:1003B800204670BDFFF7CCFEE5E7000070B50546A6
:1003C80029B90C490430BDE87040FFF772BE436894
:1003D8004E1E0133436016F8010F6C6838B1FFF701
:1003E800A1FE08B1023400E001346C60F3E7013487
:1003F8006C6070BDEE76090810B503685A681C6811
:10040800A2423FBF541C5C6011705B683CBF002275
:100418001A70426834BF012300231344436010BD9F
:1004280030B50268556892E818009C4207D20B78EC
:100438002BB1631C536011F8013B2370F3E70023D1
:100448002370536842685B1B1344436030BD00004F
:10045800F8B505460C4619B90F49FFF7E1FFF8BD95
:100468002221FFF7C9FF013C14F8016F7EB1304625
:10047800FFF758FE074628B15C212846FFF7BCFF66
:10048800394600E031462846FFF7B6FFECE722215F
:100498002846FFF7B1FFF8BDEE7609080000000016
:1004A80070B51B4D06462B681A4C13F0010F1AD174
:1004B8002846FFF7F6FDB0B10DA3D3E9002328467F
:1004C800C4E90A230CA3D3E90023C4E90C230CA331
:1004D800D3E90023C4E90E230BA3D3E90023C4E91D
:1004E8001023FFF7E3FD04EBC604D4E9000170BD57
:1004F800176E05B5B5B89346F5F93FE9034F384D82
:10050800321D30F94877825A3CBF737FDD4F15752D
:10051800D0050020480400202DE9F74F6EA3D3E949
:100528000023064603C814F06BFC002860D0DFF8EF
:100538003CA208244FF4807700252046D6E900899C
:10054800FFF7AEFF02460B464046494614F058FCFA
:10055800002845D0DFF81882D8F80030D90735D4FC
:100568004046FFF79EFD002830D05DA3D3E9002365
:100578007D494046C1E900235BA3D3E90023C1E9D3
:1005880002235BA3D3E90023C1E904235AA3D3E9D7
:100598000023C1E906235AA3D3E90023C1E90823AC
:1005A80059A3D3E90023C1E90A2359A3D3E90023B6
:1005B800C1E90C2358A3D3E90023C1E90E2358A3AA
:1005C800D3E90023C1E91023FFF770FDDAE900231E
:1005D800D6E9000114F08EF9C6E900013D442DB2B8
:1005E800013C621C4FEA6707AAF1080AA5D103E09B
:1005F80005464FF480770824D6E9008900220023B5
:100608004046494614F006FC002861D046A3D3E9C9
:1006180000234046494614F0E9FB002858D00FF261
:10062800101BDBE900AB631C52D0D6E90023DFF8CE
:100638004491CDE90023D9F80030DFF83C8113F06C
:10064800010F2BD14846FFF72CFD38B33AA1D1E969
:10065800000123A3D3E90023C8E9080138A1D1E99F
:100668000001C8E90A0138A1D1E90001C8E90C0173
:1006780037A1D1E90001C8E90E0137A1D1E900018C
:10068800C8E910014846C8E9022335A3D3E9002385
:10069800C8E906ABC8E90423FFF708FDDDE9000156
:1006A80008EBC403D3E9002314F096FB60B120469D
:1006B800FFF7F6FE02460B46D6E9000114F01AF9D8
:1006C800C6E90001ED1B2DB2013C7F1064B2AAE718
:1006D800284603B0BDE8F08F00000000D012634147
:1006E8009A9999999999B93F7B14AE47E17A843FD1
:1006F8002D431CEBE2361A3F3A8C30E28E79453EA8
:10070800BC89D897B2D29C3C33A7A8D523F64939DF
:100718003DA7F444FD0FA5329D978CCF08BA5B2501
:10072800436FAC642806C80AF168E388B5F8E43E6C
:1007380048AFBC9AF2D77A3E1656E79EAF03D23C32
:1007480080688965D63980390DD13196FC53DA3203
:10075800C2DEB78145549125148BD77DB207FE0AB6
:10076800FCA9F1D24D62503F88050020C805002041
:10077800800500207C050020000400202DE9F347B7
:10078800044602A860E902230923A372FFF7C4FE06
:10079800DDE90089208149460646404614F082FB7F
:1007A800054603462B4F20600A21092B07D9A27A58
:1007B800B7FBF1F7013AA272B3FBF1F3F5E728466C
:1007C80014F022F802460B464046494613F0DEFE76
:1007D80080463846894614F017F802460B464046CC
:1007E800494614F087F88946804614F05BFB824638
:1007F80014F00AF802460B464046494613F0C6FE76
:1008080002460B4613F0C4FE14F04CFB50448742DA
:1008180001D960600AE000230135636025602EB1CC
:10082800092D81BF01360123268123600A216368CF
:10083800B3FBF1F201FB12333BB994F90A30002BF8
:1008480003DD013B6260A372F1E7204602B0BDE818
:10085800F08700BF00CA9A3BF0B519468BB0054631
:10086800104616461C4614F0ADFA08B94C4920E06B
:10087800002200233046214614F0AEFA20B16B68FE
:1008880004F1004401336B60002200233046214606
:1008980014F098FA88B9324623463046214613F0B8
:1008A80077FE02460B463046214614F08BFA20B1FB
:1008B8003C49281DFFF7FDFB6FE02346324601A89F
:1008C800FFF75CFF0AA9002301F8033D0E46019CCF
:1008D8000A23B4FBF3F203FB1244303401F8014D50
:1008E8001446002AF5D12F1D3846FFF7E2FB9DF983
:1008F8000E10E9B10AA800F8094D02460C46029B01
:100908004FF00A0C013C64B2B4F1FF3F08D0B3FBCE
:10091800FCFE0CFB1E33303300F8013D7346F1E753
:10092800C9B2511A2E2301F8013D3846FFF7C1FB21
:10093800BDF90C30002B18DA1B493846FFF7B9FB14
:100948003146BDF90C3000225B428DF825200A2083
:1009580093FBF0F200FB1233303301F8013D1346EC
:10096800002AF5D13846FFF7A4FBBDF90C30002B5F
:1009780013DD31466A680A2001326A6000228DF868
:10098800252093FBF0F200FB1233303301F8013DD0
:1009980013B2002BF5D138468CE70BB0F0BD00BF81
:1009A800F3760908FA760908F7760908F0B50378A6
:1009B80087B0013B0C46072B54D8DFE803F0282307
:1009C800492D2A0A1F04D0E902230846FFF744FFED
:1009D80048E04B68826801334B60556855B105F1B2
:1009E80008002146FFF7E2FF2D681DB16368013357
:1009F8006360F3E763680133636033E0806800F0A5
:100A080037F82FE081682046FFF7D8FC2AE0816894
:100A180025E04B6801334B6006AD002305F8033D24
:100A2800D0E90267304639460A22002314F0C4FD93
:100A3800303205F8012D0023304639460A2214F0D9
:100A4800BBFD06460F4656EA0703EBD1294606E0EA
:100A5800D0E902231343044B044908BF1946201D5B
:100A6800FFF727FB07B0F0BD0877090803770908E7
:100A780070B50C464B6801334B6045689DB12E46F6
:100A8800204656F8081FFFF799FC63682146013392
:100A9800636006F10800FFF789FF2D681DB16368E0
:100AA80001336360EAE763680133636070BD000087
:100AB800F0B519468BB00546104616461C4614F08C
:100AC80081F908B94C4921E000220023304621462B
:100AD80014F082F928B12D212846FFF78DFC04F186
:100AE8000044002200233046214614F06BF988B9EF
:100AF800324623463046214613F04AFD02460B464D
:100B08003046214614F05EF920B13C492846FFF7EB
:100B180087FC6FE02346324601A8FFF72FFE0AA99B
:100B2800002301F8033D0E46019C0A23B4FBF3F2AF
:100B380003FB1244303401F8014D1446002AF5D164
:100B48002846FFF76DFC9DF90E10E1B10AA800F8E0
:100B5800094D02460C46029B4FF00A0E013C64B256
:100B6800671C08D0B3FBFEF70EFB1733303300F8D1
:100B7800013D3B46F2E7C9B2511A2E2301F8013D67
:100B88002846FFF74DFCBDF90C30002B18DA1C493C
:100B98002846FFF745FC3146BDF90C3000225B4280
:100BA8008DF825200A2093FBF0F200FB1233303336
:100BB80001F8013D1346002AF5D12846FFF730FC1D
:100BC800BDF90C30002B15DD65212846FFF714FC14
:100BD80031460022BDF90C308DF825200A2093FB00
:100BE800F0F200FB1233303301F8013D13B2002B51
:100BF800F5D18BE70BB0F0BDF3760908FA76090852
:100C0800F7760908F0B5037887B0013B05460C462E
:100C1800072B58D8DFE803F02B264D312D0A220484
:100C2800D0E902230846FFF743FF4CE085685B21C3
:100C38002046FFF7E1FB6D685DB105F1080021462C
:100C4800FFF7E0FF2D6825B12C212046FFF7D4FBE4
:100C5800F2E75D212046FFF7CFFB34E0806800F023
:100C680039F830E081682046FFF7F2FB2BE0816815
:100C780026E02D212046FFF7BFFBD5E902670023B8
:100C880006AD05F8033D304639460A22002314F024
:100C980093FC303205F8012D0023304639460A22EC
:100CA80014F08AFC06460F4656EA0703EBD129469C
:100CB80006E0D0E902231343044B054908BF19464F
:100CC8002046FFF7ADFB07B0F0BD00BF0877090865
:100CD8000377090870B50C4605467B212046FFF7C7
:100CE8008BFB6D68ADB12E46204656F8081FFFF7FE
:100CF800AFFB3A212046FFF77FFB214606F10800AB
:100D0800FFF780FF2D6825B12C212046FFF774FBE3
:100D1800E8E77D212046FFF76FFB70BDF8B5047941
:100D28000546E4090E4610D000273C462B7903F00F
:100D38000F02C3F302135343BB4206DD2021286888
:100D480012F040FD01370444F0E73146286812F0FC
:100D580039FDA6F10A035E425E412B79204466F311
:100D6800C7132B71F8BD70B506464D1E002415F843
:100D7800011F21B13046FFF7D1FF0444F7E72046B1
:100D880070BD000008B5037803F0DF035B2B01D0CA
:100D9800002008BD41680B7903F00F020F2A03D029
:100DA800013262F303030B7102494068FFF7DBFF6E
:100DB80008BD00BF0F7709085B2970B505460E46C8
:100DC8001DD008D82C2915D03A2911D0222916D19E
:100DD8000123037214E07B2911D07D2901D05D29FC
:100DE8000DD12B7803F0DF035B2B12D100240AE02E
:100DF8000F4900E00F496868FFF7B5FF70BD284646
:100E0800FFF7C0FF044631466868FFF787FF2044B4
:100E180070BD69680B7913F00F0203D00F3262F3CB
:100E280003030B7104496868FFF79DFFEAE700BFF9
:100E3800029209080E7709080F77090838B5037A6E
:100E480004460D464BB1222902D103785C2B07D109
:100E580029466068FFF762FF05E0FFF7ADFF02E093
:100E680000230372F4E7257038BD10B50446006806
:100E7800FFF7E4FF63681844606010BDF8B50546E5
:100E880007684E1E002416F8011F21B13846FFF7E7
:100E9800D5FF0444F7E76B681C446C60F8BD00009C
:100EA800F8B505460C4619B90F49FFF7E7FFF8BD35
:100EB8002221FFF7DAFF013C14F8016F7EB13046BA
:100EC800FFF730F9074628B15C212846FFF7CDFF28
:100ED800394600E031462846FFF7C7FFECE72221F4
:100EE8002846FFF7C2FFF8BDEE760908F0B51946A7
:100EF8008BB00546104616461C4613F063FF08B92A
:100F08004C4921E0002200233046214613F064FFBB
:100F180028B12D212846FFF7A8FF04F1004400223C
:100F280000233046214613F04DFF88B93246234648
:100F38003046214613F02CFB02460B46304621462C
:100F480013F040FF20B13C492846FFF797FF6FE0B8
:100F58002346324601A8FFF711FC0AA9002301F82D
:100F6800033D0E46019C0A23B4FBF3F203FB124433
:100F7800303401F8014D1446002AF5D12846FFF710
:100F88007DFF9DF90E10E1B10AA800F8094D02464F
:100F98000C46029B4FF00A0E013C64B2671C08D055
:100FA800B3FBFEF70EFB1733303300F8013D3B4629
:100FB800F2E7C9B2511A2E2301F8013D2846FFF77E
:100FC8005DFFBDF90C30002B18DA1C492846FFF7E5
:100FD80055FF3146BDF90C3000225B428DF82520C3
:100FE8000A2093FBF0F200FB1233303301F8013D85
:100FF8001346002AF5D12846FFF740FFBDF90C300B
:10100800002B15DD65212846FFF72FFF314600220A
:10101800BDF90C308DF825200A2093FBF0F200FB77
:101028001233303301F8013D13B2002BF5D18BE7B1
:101038000BB0F0BDF3760908FA760908F7760908C7
:10104800F0B5037887B0013B05460C46072B58D806
:10105800DFE803F02B264D312D0A2204D0E90223C4
:101068000846FFF743FF4CE085685B212046FFF701
:10107800FCFE6D685DB105F108002146FFF7E0FF51
:101088002D6825B12C212046FFF7EFFEF2E75D2100
:101098002046FFF7EAFE34E0806800F039F830E0D7
:1010A80081682046FFF7FCFE2BE0816826E02D21B1
:1010B8002046FFF7DAFED5E90267002306AD05F8FA
:1010C800033D304639460A22002314F075FA3032BF
:1010D80005F8012D0023304639460A2214F06CFA2F
:1010E80006460F4656EA0703EBD1294606E0D0E943
:1010F80002231343044B054908BF19462046FFF74E
:10110800BDFE07B0F0BD00BF0877090803770908DE
:1011180070B50C4605467B212046FFF7A6FE6D6894
:10112800ADB12E46204656F8081FFFF7B9FE3A2102
:101138002046FFF79AFE214606F10800FFF780FFD8
:101148002D6825B12C212046FFF78FFEE8E77D2189
:101158002046FFF78AFE70BD2DE9F04F93B011F0DD
:1011680095FDAF4C2368C01A642840F2568111F0EF
:101178008DFDAC4B2060AC4C1978AC4811F0CEF921
:10118800AB4E206811F030F8322012F097FBA94DD1
:101198003168042205EB0111206811F073F83368F7
:1011A80001951A01AA5C0AB101333360206811F075
:1011B8002DF8019B3168042203EB0111206811F01E
:1011C80061F8336801991A018A5C12B1984A0133AF
:1011D8001360964B31681A68DFF894820393914242
:1011E800ACBFC8F80010C8F8002012F0F3FC0A22BF
:1011F800D8F8001012F04DFB8F4B186811F08EFDD7
:10120800002800F0FB808D4B00250E93DFF86492D8
:101218004FF4807310951193D8F800300EAC9D42AE
:1012280080F2E380039B864F1B6821469D42BCBF2A
:10123800012389F80030336808209D42BCBF012390
:101248003B7099F800303A785B0043EAC2035BB21E
:101258000293FEF775FF20B1002304604360044643
:101268000EE0DFF814A2774CDAF8003013F0010B27
:1012780005D15046FEF715FF002840F0C680714C96
:101288003B78ABB999F800308BB36F492046FFF72C
:101298006AF883460C276F43DFF8E0A10AEB0701E1
:1012A800FFF727F8391D51445846FFF722F81EE08A
:1012B80066492046FFF757F88346019B002703EB52
:1012C800051304930422049B5846059213F807A0BB
:1012D800FEF7FBFF059A034628B1027200215FFA68
:1012E8008AF0C3E904010137102FECD1CAE7584B43
:1012F8001B7833B9574F20463946FFF70AF8D0B95B
:1013080014E055492046FFF72EF883464FF0280A87
:101318000AFB05FA0027514B07EB0A011944584606
:101328000437FEF7E6FF242FF5D1E3E72046FFF761
:1013380006F838B187609DF9082004230374D31791
:10134800C0E906230DF12C0B09AB002759462046AE
:101358000B93DFF82CA10C97FFF78AFB0C9ADAF8AD
:101368000000511C049211F099FE049ACAF800007A
:1013780002440A9009AB09925946077020460B931C
:101388000C97FFF7A7FC029B1BB312F023FCA022CB
:1013980007902046324C8DF8202009A907AA0C9204
:1013A8008DF82C708DF83470CDF824B00A97FFF7BB
:1013B800AFFEDAF80010206811F064FA29492068B5
:1013C80011F060FA284BDAF800202849186811F063
:1013D80079FA0EA8FEF76CFF194A002313701C4A0D
:1013E80089F800301370013516E7134B186811F0AF
:1013F8009DFC124B20460E93FEF75AFF039A0023DA
:10140800C8F800303360136007E0C4F800B0C4F8CF
:1014180004B05046FEF74AFE32E713B0BDE8F08F3D
:10142800F8050020F005002008390020F405002008
:10143800FC050020842A00207C2A00206876090800
:10144800842E0020D80500201B7709081277090888
:10145800EC380020247709082E770908EC2E0020A4
:10146800E82E0020C87F09080C39002037770908C2
:10147800EC050020E42E0020D405002010390020BF
:10148800F038002008B511F081FB0021012011F08F
:10149800C5FD032011F0B2FD11F016F811F0F6FBAE
:1014A800014B186008BD00BF0006002070B590F819
:1014B8004A5004460DB1002070BDC06C03681B691A
:1014C80098470028F7D0E06C03685B699847C0B27A
:1014D8000A28144B144A16D119781468C9B26554ED
:1014E8001668124D124C1349AE4214BF0C600E60C0
:1014F8004FF000011970104908BF14604FF0010443
:1015080018BF15600C7014681A78D2B2511CC9B291
:101518001970A0541B78772B82BF024B77221A7060
:1015280070BD00BF08060020040600200906002040
:1015380081060020FC060020F9060020154A002339
:101548001370154A15491370154AC364116015497B
:10155800154A80F84A30116080F83D3080F83C30F8
:1015680043710371C37083704370037080F83A301D
:1015780080F8393080F8383080F83B30C380002359
:1015880043630363C362836243620362C36083602D
:10159800704700BFF9060020080600200906002051
:1015A8000406002081060020FC06002038B50D4600
:1015B800FFF7C4FFC56438BD08B5C06C12F0CEFB98
:1015C800BDE808400A2012F079B9C06C12F009B9D8
:1015D800014B1878704700BFF9060020024B002223
:1015E8001A70024B18687047F9060020FC060020A4
:1015F8002F290AD9392901D8303904E0A1F141034A
:10160800052B02D83739C8B2704700207047000050
:101618002DE9FF47044608460D4614F0ECF9071F6C
:10162800EB5D2A2B19D12E1816F8031C2046FFF75C
:10163800DFFF000182B216F8021C2046FFF7D8FF30
:10164800104480B202239F4204D9EA5C013350401F
:10165800DBB2F8E708B10020E8E2B649284614F002
:10166800FAF930B9B449284614F0F5F9002800F021
:1016780073812C21284614F0A6F9451C284614F03D
:101688002BF913F02FFC064613F076FF42F2107286
:10169800B0FBF2F3237002FB13036427B3FBF7F3E9
:1016A8006370B0FBF7F307FB1300A070304613F02C
:1016B800CDF80022A14B12F0E3FDA14B002213F05C
:1016C80019F913F0EFFB2C21E080284614F07BF980
:1016D800437805462C2B00F1010653D031460222EF
:1016E80001A814F0A5F94FF0000A0DF1100901A89E
:1016F80009F80AAD14F0F7F8924BE91C03FB00F85F
:101708000222AE1D01A814F093F90422314648467E
:1017180014F08EF901A88DF80AA014F0E4F8322527
:101728004543032095FBF0F5874808EB0503236143
:1017380098FBF0F013F0E0FC8046284613F0DCFC40
:10174800824913F02DFD0146404613F021FC8049E3
:10175800A060804613F0D8FD13F0E8FE05467843F4
:1017680013F0CAFC0146404613F010FC794913F007
:10177800CBFD0746284613F0BFFC0146384613F058
:1017880007FCA0612C21304614F01DF903465A7855
:1017980001302C2A10D0532A02BFA26902F100425C
:1017A800A2615B784E2B05D0532B03D02C2B7FF4F2
:1017B80052AF002384F838302C2114F004F9437810
:1017C80005462C2B00F1010651D03146032201A811
:1017D80014F02EF94FF0000801A88DF8078014F0D6
:1017E80082F8584F291D47430222EE1D01A814F024
:1017F8001FF9042231460DF1060014F019F901A869
:101808008DF80A8014F06FF832254543032095FBC4
:10181800F0F54D487B19636197FBF0F013F06CFC11
:101828000746284613F068FC484913F0B9FC0146FE
:10183800384613F0ADFB4649E060074613F064FDF7
:1018480013F074FE05466420684313F055FC014606
:10185800384613F09BFB3F4913F056FD07462846D0
:1018680013F04AFC0146384613F092FBE0612C2144
:10187800304614F0A8F803465A7801302C2A10D0C4
:10188800572A02BFE26902F10042E2615B78572BF6
:1018980005D0452B03D02C2B7FF4DDAE002384F834
:1018A80039302C2114F08FF84378451C2C2B04D0A8
:1018B800284614F014F884F83C0028462C2114F02B
:1018C80082F84378451C2C2B04D0284614F007F8DE
:1018D80084F83D0028462C2114F075F84378451CFF
:1018E8002C2B05D0284613F0F7FF13F0FBFA6063A2
:1018F80028462C2114F067F84378451C2C2B05D07A
:10190800284613F0E9FF13F0EDFA60622C2128460F
:1019180014F059F82C21013014F055F843782C2B89
:1019280000F08381013013F0D7FF13F0DBFA206257
:101938007BE100BF3E770908457709080000F03FC2
:1019480000408F4080969800A08601009C53C936BD
:101958000000C84200007042B649284614F07BF8DF
:1019680030B9B549284614F076F800283FF473AE2C
:101978002C21284614F027F8451C284613F0ACFF04
:1019880013F0B0FA064613F0F7FD42F21072B0FBFE
:10199800F2F3237002FB13036422B3FBF2F36370C8
:1019A800B0FBF2F302FB1300A070304612F04EFFBA
:1019B8000022A24B12F064FCA14B002212F09AFF05
:1019C80013F070FA2C21E080284613F0FCFF4378CE
:1019D800412B01D1012303E0562B7FF43CAE0023B9
:1019E80084F83B302C21013013F0EDFF4378054695
:1019F8002C2B00F1010652D03146022201A814F026
:101A080017F84FF000090DF1100801A808F80A9D11
:101A180013F069FF8B4FE91C47430222AE1D01A852
:101A280014F006F804223146404614F001F801A8E3
:101A38008DF80A9013F057FF32254543032095FB94
:101A4800F0F581487B19236197FBF0F013F054FB04
:101A58000746284613F050FB7C4913F0A1FB0146CA
:101A6800384613F095FA7A49A060074613F04CFC03
:101A780013F05CFD05466420684313F03DFB014606
:101A8800384613F083FA734913F03EFC074628469C
:101A980013F032FB0146384613F07AFAA0612C2184
:101AA800304613F090FF03465A7801302C2A10D0A4
:101AB800532A02BFA26902F10042A2615B784E2B51
:101AC80005D0532B03D02C2B7FF4C5AD002384F80D
:101AD80038302C2113F077FF437805462C2B00F182
:101AE800010651D03146032201A813F0A1FF4FF09F
:101AF800000801A88DF8078013F0F5FE514F291D45
:101B080047430222EE1D01A813F092FF042231463A
:101B18000DF1060013F08CFF01A88DF80A8013F070
:101B2800E2FE32254543032095FBF0F546487B1934
:101B3800636197FBF0F013F0DFFA0746284613F0CD
:101B4800DBFA424913F02CFB0146384613F020FA21
:101B58003F49E060074613F0D7FB13F0E7FC054662
:101B68006420684313F0C8FA0146384613F00EFAA9
:101B7800384913F0C9FB0746284613F0BDFA014659
:101B8800384613F005FAE0612C21304613F01BFFAC
:101B980003465A7801302C2A10D0572A02BFE2692E
:101BA80002F10042E2615B78572B05D0452B03D048
:101BB8002C2B7FF450AD002384F839302C2113F0FE
:101BC80002FF4378451C2C2B05D0284613F084FED1
:101BD80013F088F9A06228462C2113F0F4FE43780C
:101BE800451C2C2B05D0284613F076FE13F07AF905
:101BF800E0622C21284613F0E6FE43782C2B14D003
:101C0800013013F069FE13F04DF942F21072B0FB87
:101C1800F2F3637102FB13036422B3FBF2F3237143
:101C2800B0FBF2F302FB1300E070012004B0BDE842
:101C3800F08700BF4C770908537709080000F03F88
:101C480000408F4080969800A08601009C53C936BA
:101C58000000C8420000704210F098BF30B502245E
:101C6800017083700621F523C47504244270C38073
:101C7800012200230172017680F820400321072405
:101C8800027142748274C2740275827542768276D9
:101C9800C276C27780F8214043728372C37203739D
:101CA80043738373C373037401774377837780F82F
:101CB8002230044680F8231080F82720024680F856
:101CC800241080F8253080F8263000250139E56396
:101CD800A564656502F10202A2F85E30A2F86430DC
:101CE800A2F86A3004F10404F0D14FF0000380F840
:101CF800803030BD10B51E236B220121FFF7AEFFE7
:101D080010BD10B50446084613F0F6F9616F13F0DC
:101D180047FA10BD10B50446084613F0EDF9E16F17
:101D280013F03EFA10BD10B50446C08813F0E0F970
:101D38004FF0605113F034FA606710BD10B50446D7
:101D4800C07D13F0D5F94FF0605113F029FAA06760
:101D580010BD000090F82030043B0C2B14D8DFE8AD
:101D680003F0071313130A1313130D13131310009F
:101D7800064B1B6807E0054B5B6804E0034B9B6858
:101D880001E0024BDB68C367704700BF9004002086
:101D9800C388F52B07D0B3F5FA7F04D0B3F5FA6FF3
:101DA8001CBFF523C380C27D102A03D8084BD3403B
:101DB800DA0701D40223C37590F82020102A03D82B
:101DC800044BD340DB0702D4042380F8203070474B
:101DD800140101001011010010B50446012190F80A
:101DE800730012F06DF894F87300012112F079F87D
:101DF80094F87200012112F063F894F872000A4C0A
:101E0800012112F06EF8204611F08CF920460821C5
:101E180011F0E0F92046012111F08FF92046BDE8C4
:101E28001040002111F08CB970470020F8B50C461D
:101E380017461E46094D2046002112F052F807F0B9
:101E48003F01284611F0DAF93146284611F0D6F953
:101E58002046BDE8F840012112F043B87047002041
:101E6800F8B51E4690F8723002F03F028B429DF89A
:101E7800187042F0800503D1012F88BF45F0400556
:101E88008CB22046002112F02CF82946094811F09E
:101E9800B5F93546AB1B9F4206DD0021054811F018
:101EA800ADF905F8010BF5E72046012112F019F804
:101EB8000120F8BD704700201FB5012300930DF1E4
:101EC8000F03FFF7CDFF9DF80F0005B05DF804FB89
:101ED80008B512F065F8BDE8084011F0ABBF70B561
:101EE8000E4615461C4612F05BF8314611F0B4FF59
:101EF80012F056F8036829469B68984712F050F884
:101F0800036821469A68904712F04AF8BDE8704085
:101F180011F0AABF1346027810B4012A05D10A4667
:101F280010BC90F87310FFF7DABF2AB90A4610BC44
:101F380090F87310FFF77ABF10BC704710B503799B
:101F4800044613B1037A5B01DBB2E288B2F5FA7F8B
:101F580005D0B2F5FA6F04D143F0180301E043F05D
:101F68000803627A102102F003021A432046FFF7A1
:101F7800D1FF002211212046FFF7CCFFA37A002BC6
:101F8800E37A14BF802200222BB1237B03F00F03D6
:101F980043F040031A4312212046FFF7BBFFE37CBE
:101FA800002BA37C0CBF0022202213B142F01002A8
:101FB800D2B2637C0BB142F00802237D0BB142F030
:101FC80002021E212046FFF7A5FF637B002BA37B9F
:101FD8000CBF0022202213B142F01002D2B2E37BE0
:101FE8000BB142F008022046BDE810401321FFF76C
:101FF80091BF10B5C37E0446002B837E0CBF002220
:10200800202213B142F01002D2B2637E0BB142F02B
:1020180008021F212046FFF77DFFA27D12B1227E14
:102028005201D2B2E37D082B06D0102B07D0042B27
:1020380007D142F0100204E042F0180201E042F039
:10204800080294F91C302021002BA2BF03F00303DF
:102058001A4342F004022046FFF75CFF627F2AB170
:10206800A27F520102F0600242F080022046BDE8E1
:1020780010402121FFF74EBF1346027810B4012A01
:1020880005D10A4610BC90F87210FFF728BF2AB98C
:102098000A4610BC90F87210FFF7C8BE10BC704713
:1020A80010B590F822300446002B90F8233008BF72
:1020B80000224FEA431303F0600190F8213018BF63
:1020C80080229B0003F01C030B431A432021FFF7D7
:1020D800D3FF94F820302046083BDBB2082B96BF8C
:1020E800124A0022D25C2121FFF7C6FF94F825305E
:1020F8002046002B94F826300CBF0022202203F043
:1021080003031A432221FFF7B7FF94F8242020463F
:10211800920002F00C022321FFF7AEFF2046BDE833
:10212800104000222421FFF7A7BF00BFBB77090892
:1021380038B50C46154611F033FF214611F08CFED8
:1021480011F02EFF036829469B68984711F028FF75
:10215800002111F085FE11F023FF0122214611F024
:1021680078FE11F01DFF03685B699847C0B238BD5F
:102178000A460178012903D190F87310FFF7D8BFF8
:1021880019B990F87310FFF797BE002070470A46F8
:102198000178012903D190F87210FFF7C9BF19B966
:1021A80090F87210FFF788BE704738B50446437838
:1021B80080F87330837880F87230FFF7E9FDFFF715
:1021C800B2FD2046FFF7C6FD2046FFF7B7FD23788E
:1021D800012B03D12046FFF77BFE03E013B920460D
:1021E800FFF7FAFD0F212046FFF7D1FF0F21054623
:1021F8002046FFF7BDFF46F63D0345EA002005B23D
:102208009D420AD12046FFF799FE2046FFF7F1FECE
:102218002046FFF745FF284638BD002038BD2DE988
:10222800F04190460C461D469DF8186010F02EFDB2
:10223800074611F0B5FE214611F00EFE11F0B0FE72
:10224800036848F080019B68984711F0A9FE0021B7
:1022580011F006FE11F0A4FE2146324611F0F9FDF8
:10226800002407F57A77B4421ADA11F099FE036868
:102278001B69984740B111F093FE036804F1010807
:102288005B6998472855444610F000FDB842EAD9E2
:102298002C44FF23621B964205DD04F8013BF9E755
:1022A8000120BDE8F0810020BDE8F08137B50D467A
:1022B8000178012907D190F87310009313462A4634
:1022C800FFF7ADFF07E031B990F87310009313469C
:1022D8002A46FFF7C5FD03B030BD37B506236A4669
:1022E80028210446FFF7E2FF30B39DF800309DF83F
:1022F80001109DF8032043EA01219DF802309DF862
:10230800055043EA02229DF8043009B243EA052346
:1023180094F8805012B21BB2E185228663865DB1C3
:10232800B4F86650491BE185B4F86810521A228641
:10233800B4F86A209B1A638603B030BD13B5022334
:1023480001AA15210446FFF7B1FF30B19DF8052019
:102358009DF8043043EA0223638702B010BD37B505
:1023680006236A4618210446FFF7A0FF30B39DF8FC
:1023780000309DF801109DF8032043EA01219DF8E3
:1023880002309DF8055043EA02229DF8043009B254
:1023980043EA052394F8805012B21BB22185628566
:1023A800A3855DB1B4F86050491B2185B4F862106B
:1023B800521A6285B4F864209B1AA38503B030BD15
:1023C80037B50D460178012907D190F872100093AE
:1023D80013462A46FFF723FF07E031B990F8721039
:1023E800009313462A46FFF73BFD03B030BD13B5F3
:1023F80006236A4628210446FFF7E2FFA0B19DF8AC
:1024080001209DF8003043EA0223A3869DF80320AB
:102418009DF8023043EA0223E3869DF805209DF8E3
:10242800043043EA0223238702B010BD10F0AEBB8C
:1024380010F0ACBB10B50446283001F07FF928B184
:1024480004F50D70BDE8104001F078B910BD411ECB
:1024580000F10A020020430843EAC01011F8013FC6
:1024680018448A4200F0FF00F5D170472DE9F04783
:102478000378441C202B01D12046F9E70546704F0C
:1024880088602C1A2E4615F8013B0BB32F2B01D16F
:10249800031917E05C2B02D10020BDE8F087A3F1F7
:1024A8002204E4B21D2C03D827FA04F4E407F3D479
:1024B80003F0BF043C2CEFD0203B5E2BE1D9EBE7C7
:1024C8002F2D05D11E4613F8015B202DF8D1F9E711
:1024D800166003199842C0EB030809D013F8012DC0
:1024E8002E2AF7D0202AF5D0B8F1FF0FD4DC01E06E
:1024F8004FF00008C1F8048001F10C0301F1170244
:10250800202403F8014F9342FBD103461A1A13F80B
:10251800014B2E2CFAD0202CF8D0B2FA82F408F114
:10252800FF366409731C07D100274FF0070E3D469C
:10253800BA464FF0080909E0835D2E2BF4D0013E1E
:10254800F0E7835C202B04D1002401324245F8DBFC
:102558004BE02E2B02D1B242F6D103E0222B17D04A
:102568007C2B15D0A3F12A0CBCF1050F01D82D2B1B
:102578000ED1A3F13A0CBCF1050F09D9A3F15B0CFC
:10258800BCF1020F04D9A3F1210CBCF15D0F02D9F3
:10259800B2420ED149E0B24247D0754521D8A3F1E5
:1025A800610CBCF1190F08D8203BDBB249EA0707D8
:1025B8000AE0754515D800245F23A3F1410CBCF14E
:1025C800190F98BF49EA0A0A05F1010C5FFA8CFC59
:1025D8000D44BCF1060F6B7301D881F80CC0654639
:1025E800B3E7BEF10A0F17D100244B7B202B3FF431
:1025F80053AF3CB11AEA070F18BF02270F7001202A
:10260800BDE8F0870B7B0120087019447E234B73CB
:1026180031238B73BDE8F087B242E5DC32464FF0D8
:102628000A0E08254FF010098EE7BEF10A0FDBD01D
:1026380032464FF00A0E08254FF0100985E700BF13
:10264800010100312DE9F84306460D4691F80C903A
:1026580002247E2701F10D086968AA6863189BB2F5
:102668001144914206D012F8010B03EB4313434087
:102678009BB2F6E7B9F1030F28BF4FF0030909F140
:102688000402D2B203F00F01A818013A0929D2B204
:1026980094BF30313731914541734FEA1313F1D369
:1026A80005EB09035F730021304600F038FE012175
:1026B800304600F017FE014628B97078B0FA80F06D
:1026C8004009BDE8F88303784BB1C37A1B07EED401
:1026D8000B22404613F02CF90028E8D102E0012033
:1026E800BDE8F8830134A4B2642CB5D1BDE8F88301
:1026F8002DE9F04F89B003930B78059013F0700F14
:102708000E46914601D1002099E1059B1B78002BCC
:10271800F9D11378D2F804B09B0700F086810BF149
:102728000C030D27B3FBF7F70137FFB24FF0000892
:102738000021304600F0F3FD45464346444609F182
:102748000D02CDF80880CDF810800692726901213B
:1027580030460793C2F34F1A00F0C4FD079B20B917
:102768007378002B00F08E80CDE70278E52A00D040
:1027780042B9002D08BFD046BD423CBF0135EDB27D
:1027880022B97FE0BD4238BF002503E0E52A01D128
:102798000024DBE72E2AFBD0C17A0F2950D13CB99F
:1027A8005106D3D5437B02F01F040293234607E06A
:1027B800013BDBB29A42EBD1427B02999142E7D1CD
:1027C8005A1E4FF00D0C0CFB02FCE345E0D94FF00C
:1027D800000EBEF1040F5FFA8EF204D800EB4E0231
:1027E800B2F801200CE00A2A95BF0EF1FF320EF173
:1027F800010200EB420200EB420294BFD2889288A9
:10280800E34503D1002A18BF00249FE7FF2ABFD859
:10281800D2B2A2F141011929D9F8081098BF203283
:1028280011F80C100CF1010AA1F1410C98BFD2B2B9
:10283800BCF1190F9CBF2031C9B29142A8D1F6E072
:102848000A07A5D44CB1012B7FF45DAFFFF7FFFD5C
:10285800029B83427FF457AF0FE00B220699079340
:1028680013F066F8079B00287FF470AF99F80020F2
:10287800D10702D50122049268E7039B1A0640F1AA
:10288800CC8040E7039B03F04203422B7FF43BAF2D
:10289800002D08BFD046BD4202D3049BCBB91FE030
:1028A8000021304600F01EFD10B973785BB12AE7AD
:1028B8000135EDB2EFE7B3681B79012BEDD8103580
:1028C800EDB2AF42E9D9304600F0DEFB0028F2D184
:1028D80019E749463046FFF7B5FE00283FF413AF25
:1028E8004FEA4811304600F01AFD00283FF40BAFBC
:1028F8007C1EE4B225464FF0000A4FF00F0840E076
:102908000021304600F0EEFC074600283FF4FBAEFD
:10291800B268A54292F8283043F0010382F82830C3
:1029280014BF2A4645F04002027080F80B8080F8F8
:102938000CA009F10D000292FFF789FD029A787345
:1029480087F81AA087F81BA002F01F020D23013A8E
:10295800D9F808E05A430023934515D91EF8021008
:10296800042B5FFA83FC03F1010013D807EB430340
:10297800A3F801100D2802F101020346ECD1013D34
:10298800EDB2002DBCD10EE014BF4FF0FF31002195
:1029980089B2E5E7BCF10A0F94BF07EB430307EBE5
:1029A80040039980E6E7736929463046C3F34F1A16
:1029B80000F098FC074600283FF4A5AE20222946DF
:1029C80012F0EBFF4B4653F80D2F3A605A687A60C5
:1029D8001A893A819B7ABB7299F8003003F0180380
:1029E8003B73184B1B682BB107F10E0107F1100060
:1029F800984706E021233B7428237B740823BD7382
:102A0800FB733B8A7B823B83FB89FB82B26892F82B
:102A1800283043F0010382F828300094039B524683
:102A28003146059800F0C4FC09E001277EE60EF166
:102A3800010EBEF10D0F3FF489AED446C9E609B0C8
:102A4800BDE8F08F0C07002010F0A0B810F09EB879
:102A580010F09CB810F09AB803685B6918470368CF
:102A6800DB68184710B5037904466BB1012140793A
:102A780011F037FAFF212068FFF7EEFF206803689E
:102A88009B6898470023237110BD38B50579044623
:102A980055B90068E17903685B6898472946607909
:102AA80011F01FFA0123237138BDF8B504460D460D
:102AB800164610F0EBF807462068FFF7D0FFFF280E
:102AC800207207D110F0E2F8C01BB0F5967FF3D959
:102AD80011230CE0FE2801D00F2308E020683246BD
:102AE800036829461B699847207230B11C23204689
:102AF800A371FFF7B7FF0020F8BD2068FFF7AFFF0D
:102B08002068FFF7ACFF0120F8BD70B506460C46FB
:102B180010F0BCF805463068FFF7A1FFFF2806D083
:102B280010F0B4F8401BA042F5D3002070BD01207E
:102B380070BDF7B5037904460D4601920BB9FFF74E
:102B4800A4FF4FF416712046FFF7DFFF45F0400160
:102B58002068FFF781FF0DF107060DF1030716F84E
:102B680001192068FFF778FFBE42F8D1002D0CBF8D
:102B7800952187212068FFF76FFF0C2D02D120686F
:102B8800FFF76DFF00252068FFF769FF0306207235
:102B980003D50135B5F5807FF5D103B0F0BDF8B5A3
:102BA8001F4600234271437283710160044610F08E
:102BB8006DF806462068617903680A251B689847FE
:102BC80080212068E17103685B689847FF212068CD
:102BD800013DFFF741FF15F0FF05F7D120680368B5
:102BE8009B689847002211462046FFF7A2FF01285C
:102BF80007D010F04BF8801BB0F5FA6FF2D901231B
:102C080048E04FF4D57208212046FFF792FF0528C7
:102C180001D101230BE004252068FFF720FF013DC7
:102C280015F0FF052072F7D1AA2808D10223637294
:102C3800637A022B0CBF4FF08045002507E010F0A7
:102C480025F8801BB0F5FA6FDBD9022322E00022B9
:102C580037212046FFF76DFF2A4629212046FFF736
:102C680068FF024638B110F011F8801BB0F5FA6F12
:102C7800EDD90A230EE0637A022B05D02046FFF730
:102C8800F1FEE7710120F8BD3A212046FFF751FF18
:102C980030B108232046A371FFF7E4FE0020F8BDF9
:102CA8002068FFF7DCFE00F0C000C02804BF032343
:102CB80063722068FFF7D3FE2068FFF7D0FE206814
:102CC800FFF7CDFEDAE738B5437A1546032B18BF70
:102CD80049020A4611210446FFF72BFF10B10423CD
:102CE800A3710BE029464FF400722046FFF7DDFE82
:102CF800054618B12046FFF7B5FE03E02046FFF76A
:102D0800B1FE0025284638BD10B5437A0A46032B84
:102D180018BF4A0212210446FFF70BFF30B1052302
:102D28002046A371FFF79EFE002010BD012010BDB4
:102D380010B500220C210446FFF7FBFE30B1032337
:102D48002046A371FFF78EFE002010BD2046FFF736
:102D580089FE012010BDF8B5054616461F46FFF747
:102D6800D3FF98B10024A3B29F4206EB442108D9AF
:102D78004FF400722846FFF798FE01340028F2D17C
:102D880004E02846BDE8F840FFF7D2BF0020F8BDB0
:102D980038B5044615460068FFF75EFE20684FF414
:102DA8000072036829469B699847FF212068FFF74E
:102DB80053FEFF212068FFF74FFE2068FFF74FFE04
:102DC800207200F01F00052806D013232046A371A7
:102DD800FFF748FE002038BD012038BD38B5437ADA
:102DE8001546032B18BF49020A4618210446FFF767
:102DF800A0FE10B10623A3710AE02A46FE21204650
:102E0800FFF7C6FF054618B12046FFF72BFE03E083
:102E18002046FFF727FE0025284638BD70B5044632
:102E28000D460679FFF731FE4FF416712046FFF77D
:102E38006CFE10B91723A3710BE02A46FC2120462B
:102E4800FFF7A6FF054620B13EB92046FFF70AFE68
:102E580003E02046FFF706FE0025284670BD70B542
:102E6800044616460D4600223721FFF762FE324619
:102E780017212046FFF75DFE08B109230AE0637AAF
:102E88001921032B18BF6D022A462046FFF751FE71
:102E980030B107232046A371FFF7E4FD002070BD81
:102EA800012070BD38B50446FFF7EFFD4FF41671E9
:102EB8002046FFF72AFE70B1FD212068FFF7CCFD00
:102EC8004FF416712046FFF720FE054618B120463C
:102ED800FFF7C8FD05E01223A3712046FFF7C2FDE6
:102EE8000025284638BDF8B517461A4605461E4639
:102EF800FFF7B5FF70B10024B44207EB4421284620
:102F080004D0FFF78BFF28B10134F5E7BDE8F8409E
:102F1800FFF7C8BF2846FFF7A5FD0020F8BD0FF052
:102F280035BE0000014B01221A70704700070020CF
:102F3800704700000279024B53F8220010F0F7B8EE
:102F4800C477090870B506460C4603791A4D012165
:102F580055F8230010F0F1F83379002155F82300D3
:102F680010F0EEF8022C0CD9042C0CD9082C0CD932
:102F7800102C0CD9202C0CD9412C34BF28213021FD
:102F880008E0002106E0082104E0102102E01821F1
:102F980000E02021337955F8230010F01BF918239D
:102FA80003FB04F132793C2302FB011191FBF3F19D
:102FB800024B196070BD00BFC477090804070020E0
:102FC8000279034BFF2153F8220010F017B900BF14
:102FD800C47709080279024B53F8220010F00EB9A1
:102FE800C477090873B50C4B06790C4800250C4CBE
:102FF800009350F8260013460A462946257010F01B
:1030080003F92378002BFCD0064B186808B10FF0A1
:1030180035FE002002B070BD2D2F0808C4770908BE
:10302800000700200407002073B50D4B06790D48F2
:1030380000250D4C009350F8260013462A462570AB
:1030480010F0E2F82378002BFCD0084B186820B168
:1030580002B0BDE870400FF011BE02B070BD00BFF5
:103068002D2F0808C477090800070020040700204E
:103078000FF08CBD837800F1100263F07F0383703A
:103088000169806800F004BC2DE9F041037804462A
:1030980003F0200303F0FF050BB100262EE0426980
:1030A800184B9A42F9D8FFF7E5FF06460028F4D0F6
:1030B8002169A06800F08DFB0746A0680522394603
:1030C800283000F062FB80460028E6D029464FF4FD
:1030D800007212F062FC0125A0680279AA4209D99F
:1030E800036842465B68E91998470028D5D001353E
:1030F800EDB2F1E7636903EB422363613046BDE853
:10310800F08100BFFFFD1F0010B5044680680A4625
:103118002830A16900F039FB20B1A38803F00F0320
:1031280000EB431010BD70B5047805460E4684B90F
:103138002422214612F031FCAE60F379102B03D023
:10314800202B06D1402300E0202301202B70A870FB
:1031580070BD002070BD2DE9F74F037804468946FD
:1031680015464BB18278D10706D50CE05A4621693D
:1031780000F035FB00283DDA63784FF0FF3043F06C
:103188000203637098E01A0703D5E36962699B1A22
:1031980007E09A0608D5A3681A896369C3EB421346
:1031A8009BB29D4228BF1D462E464FF0000804F1F1
:1031B800100B002E35D02278636912F0200FC3F36C
:1031C800080AA0684FEA532102D0036A19441DE097
:1031D80090F8058001EA0808BAF1000F10D1B8F19B
:1031E800000F0DD1002BC1D153064CBF036A236ACF
:1031F800236105E004D1237813F0700F11D1BBE7E8
:103208002169A06800F0E5FA08EB0001A068BAF1AE
:10321800000F35D1B6F5007F32D3026B914202D14F
:103228002EE0A81B48E0B6F5806F1BD32778C6F3BD
:103238004723BF0606D40779C8EB0707FFB2BB428E
:1032480028BF3B4691424FEA432707D2A06802684D
:10325800D2F808A04A46D04760B98DE71A4491428F
:1032680021D3F3E703684A461B689847002883D0B0
:103278004FF400776369B9443B446361F61B98E7F0
:103288000022283000F081FA00283FF475AFCAF513
:103298000077B74228BF374600EB0A013A4648464E
:1032A80012F055FBE6E78DE80A00FFF7C3F89DE842
:1032B8000A000028CAD15FE703B0BDE8F08F73B5F4
:1032C80001220DF10701044646690569FFF743FF2E
:1032D800012809BF9DF807004FF0FF30666125619E
:1032E80002B070BD37B543690446C3F3431505B151
:1032F80069B901220DF107012046FFF72CFF40B202
:10330800012801D0002008E063691F3300E0203362
:10331800A0686361343000EB451003B030BD2DE97F
:10332800F0410E46017804460769002939D04569FD
:10333800B5423AD00EB9066131E00B0703D5C3692F
:103348009E422ED807E0880605D5A3681B89B6EBF0
:10335800431F26D823E0D4F808E06A1E9EF80630FA
:1033680003F10900731EC240C3409A4200D84DB908
:103378004A064CBFDEF82020226A22611D4604F16D
:1033880010080AE09B1AF9E742462169A06800F094
:1033980026FA002805F1FF3503DD002DF4D166611A
:1033A80003E027610020BDE8F0810120BDE8F0813D
:1033B800F8B50F4604461646002124221D4612F091
:1033C800ECFAB868A680A0603B6A06F00F02E360DA
:1033D800520100F134031344D97A0F0702D50020B3
:1033E8002070F8BD811891F83F1001F01701217085
:1033F800DB7A13F0180F08BF41F008019DF8183068
:1034080008BF217015F0320FE37003D0237813F052
:10341800110FE4D105F00F03A370036B0244A361FD
:10342800B2F84830B2F84E10EE0641EA034104D52E
:1034380071B100F068FA58B9D1E72162136DE36100
:10344800AB060AD5E1692046FFF769FF28B9C6E748
:10345800A37863F07F03A370F2E70120F8BD0000B2
:1034680038B5037804460BB9012038BD90F902300D
:10347800002B23DA0121FFF747FE054628B96378B8
:10348800002043F00103637038BD0378E52BF6D0C4
:1034980023781B0744BFE369C361238C4383638C90
:1034A8008382094B1B682BB100F11601183098472D
:1034B8002B8B6B82A37803F07F03A370A068FEF7C1
:1034C800B9FF0028DBD0CFE70C07002010B5044671
:1034D800FFF7C6FF0023237010BDF0B51F4693B059
:1034E80000238DF824308DF82530037806460C46E5
:1034F80001920BB100203DE00B7813F0700FF9D06A
:1035080013782F2B12D1019B1A782F2A02D101335D
:103518000193F8E7A1681AB93046FFF704FE29E0DD
:1035280009A8FFF700FE0028E4D009AC01AA03A906
:103538000198FEF79BFF0028DCD0019B1B789BB10C
:10354800012303AA21463046FFF7D2F80028D1D03C
:10355800354609AC0FCD0FC40FCD0FC42B683046CC
:103568002360FFF7B3FFE0E73B4603AA2146304656
:10357800FFF7BEF813B0F0BD2DE9F0470378044615
:103588001D078946904608D58378990705D55B07B6
:103598000BD5E169FFF7C3FE38B963784FF0FF3008
:1035A80043F001036370BDE8F0876369DB43984526
:1035B800F3D847464FF0000A6369002F00F0828075
:1035C800A068C3F30806457915EA53251CD1DEB96E
:1035D800216971B104F1100200F001F90028DCDB67
:1035E80040F08E802046FFF745FD002840F0888097
:1035F800D3E7236A3BB92046FFF73CFD0028CCD02F
:103608002369236200E023612169A06800F0E1F8E2
:10361800291816B9B7F5007F21D2C6F50075BD4245
:1036280028BF3D4636B96369E269934234BF012237
:10363800052200E00122A068283000F0A6F8002842
:10364800ABD030442A4649462E4412F080F9B6F5EC
:10365800007F31D1A068283000F070F818E0B7F585
:10366800806FA26816D31379106B5D1BEDB2C7F398
:103678004723AB4228BF2B4681424FEA432502D35A
:103688001844814236D3A0680268D6684A46B047D3
:1036980090B982E7136B994202BF4FF0FF3382F86B
:1036A80028A01363A0684A4603685B689847002807
:1036B8003FF473AF4FF400756369A9442B44636109
:1036C8007F1B79E7E2699342A27801D9E36102E0BE
:1036D8000E4B1B6813B162F07F02A270A3781A0721
:1036E80002D44046BDE8F0872046FFF7B9FE00281F
:1036F800F7D152E74FF0FF3082F828A01063C2E7F5
:103708002169A06800F065F8014683E70C070020EE
:103718000FF03CBA70B505460C46084649B112F0A0
:103728006AF92B68024621462846BDE87040DB68E6
:10373800184770BD0FF02ABA0FF028BAF8B5037809
:103748000446DA071ED5406804F10C0603683246C1
:103758005B68A1689847054608B9002513E02378F7
:103768009B0704D4237823F0010323700BE06068DF
:10377800A7680169036832465B683944984700289E
:10378800F0D1EAE701252846F8BD70B583680446FC
:103798008B420E46154614D0FFF7D0FF08B900201B
:1037A80070BD6B0703D500232370A66009E060682D
:1037B80004F10C02036831461B6898470028F2D1CF
:1037C800EDE72046237805F003051D4300F80C5B60
:1037D80070BD83790239406999400844704770B5D3
:1037E800C3790546202B0C46164612D18169022260
:1037F80001EBD41100F50D70FFF7C7FF10B94FF0BA
:10380800FF3070BD04F07F0450F8243023F070437B
:103818000FE0102BF3D18369C1F307210222194469
:1038280000F50D70FFF7B1FF0028E8D0E4B230F8DA
:103838001430EA6993429ABF33600120002070BDBA
:1038480038B5C3790C46202B15460FD18169032260
:1038580001EBD41100F50D70FFF797FF08B90020B0
:1038680038BD04F07F0440F824500FE0102BF6D147
:103878008369C1F307210322194400F50D70FFF78E
:1038880084FF0028EBD0E4B220F81450012038BDA2
:103898002DE9F341054690460F4609B9C66800E090
:1038A8000E463446EB6901349C4288BF022401AAC3
:1038B80021462846FFF793FF00280DDB01D0019B26
:1038C80013B1B442EED107E06FF0704221462846AA
:1038D800FFF7B6FF064608B9002610E037B12246C2
:1038E80039462846FFF7ACFF08B9F5E7EC606B6A84
:1038F800002BA4BF03F1FF336B62C8F800403046C9
:1039080002B0BDE8F08173B504460D4601AA294608
:103918002046FFF764FF061E01DA002012E00022AD
:1039280029462046FFF78CFF0028F6D0636A002B53
:10393800A4BF01336362E3689D4238BFE560019D1F
:10394800002EE3D102B070BD70B5044601230022F9
:10395800C3604FF0FF33C2710D46E06280F8282043
:103968000363C4F8380280F83422C0F83C32A1B1AD
:10397800042960D811462830FFF707FF00285AD0DD
:1039880000EB051393F8AE315B0654D11B3500EB01
:103998000515D5F80650002D4DD00022294604F112
:1039A8002800FFF7F2FE002845D0B0F80B30B3F539
:1039B800007F40D1037C022B3DD1C389002B3AD034
:1039C800417B09264B1E63710023A37121710123DA
:1039D8008B4207D0013E2ED0A2795B000132DBB2C8
:1039E800A271F5E7C28A02B9426A2261C6892E44E9
:1039F800A661B0F8113006EB420123812162B0F8CC
:103A08001120520102F2FF1201EB62226261B0F84A
:103A1800133003B9036AAD1A2B44A57923FA05F5C7
:103A28006B1CE3614FF0FF33636240F6F4739D4211
:103A380003D80C23E371002070BD4FF6F4739D4248
:103A480089BFC36A102323622023E371012070BD5C
:103A58000FF09CB80FF09AB87047000070B5054693
:103A68000C4616460FF0D8FD58B121463246284676
:103A78000FF0C0FD044638B128460FF0E9FB204698
:103A880070BD4FF0FF3070BD004870BD8097FFFFDC
:103A980070B504460D4616460FF0BEFD58B12046D7
:103AA8000FF09EFC28B13246294620460FF067FCED
:103AB80018B9024870BD4FF0FF3070BD0097FFFF86
:103AC80070B50E4615460C462B1B3344032B04D900
:103AD8000FF0CCF844F8040BF6E7AC0806EB8404C6
:103AE8003544AC4204D00FF0C1F804F8010BF8E7F4
:103AF800002070BD00B5ADF2044D0B46054A40F2FA
:103B0800FF31684606F094FA00200DF2044D5DF886
:103B180004FB00BF687E090838B50B4B846905466D
:103B280003607CB16368013B63605BB9236820462E
:103B38009B689847A368013BA3601BB9236820468C
:103B4800DB689847284638BD50AE090810B50446CA
:103B5800FFF7E2FF2046FCF7A0FA204610BD000060
:103B680038B5044600250FF0C9FCE561054904F1A4
:103B780038000FF0C8FD0123A56484F8823620467A
:103B880038BD00BF687E090838B504461D46059B48
:103B98000363002084F8810684F88006606302B11C
:103BA800A26419B104F138000FF0CFFD049BE0695D
:103BB8002365069BA4F84C50A4F8543008B1FCF7D0
:103BC8006EFAB4F85400FCF766FAE06138BD0000FC
:103BD8002DE9FF410446174698460E4600250FF08A
:103BE8008DFCE5610C4904F138000FF08CFD0123D0
:103BF80084F88236FF2302930F2300932046A5649E
:103C0800CDF804803B462A463146FFF7BDFF2046E3
:103C180004B0BDE8F08100BF687E0908F0B50D4624
:103C280002339BB26C1A15F8016BA4B23EB1B0F81E
:103C380054709F4203D95C1CD654A3B2F2E7191BF7
:103C48000A44211202F8021C02F8014C1846F0BD81
:103C580010B590F8814614B90FF0CCFC03E000F5DC
:103C6800347008F04DFF80B210BDF7B507468E4698
:103C78001E461D46002405F07F0302A9ED092144D4
:103C880018BF43F08003013401F8043CE4B2002D6E
:103C9800F1D1C4F10403D11802F803E0A54206DA11
:103CA80001A82B1B285C134458710135F6E7721CD8
:103CB80022443846FFF7CCFF05460EF0E7FF0134F3
:103CC8007862A019431B5842584103B0F0BD38B57B
:103CD8000446C369E0221A70C36900255D70022298
:103CE800C169FFF7B5FF94F88136BBB104F57A7066
:103CF80084F8805684F8815607F0D1F804F21C50F5
:103D080007F0CDF804F5CA600AF097FE04F5617073
:103D180009F0E6F804F5347009F04EF820460FF083
:103D28009DFB0EF0B3FF6062A06238BD37B590F816
:103D3800813604464BB920460FF052FB0028FAD0D2
:103D480020460FF0F4FAC0B217E090F880369BB125
:103D580000F5347501220DF10701284608F04AFEE6
:103D6800002806DA10F5D24FF4D02046FFF7AFFF4F
:103D780002E09DF8070000E0FF2003B030BD2DE908
:103D8800F0470546C4698A46FFF7D0FF4FF001089F
:103D980046462070EB69002793F8009009F0F00977
:103DA8002846FFF7C3FFEB69741C985500F07F03A2
:103DB80003FB08770306A4B2BFB24FEAC81801D5BF
:103DC8002646EDE7631EB9F1300F8AF8003013D1AB
:103DD8002846D5F81C80FFF7A9FF08F804002846F4
:103DE800D5F81C80FFF7A2FFF41C0236B6B2A4B2C5
:103DF80008F80600022300E000231B1B9EB2A3194B
:103E08009BB29F420BD92846FFF790FFB5F8543074
:103E1800A34284BFEB6918550134A4B2EFE7B5F8A3
:103E28005400A0422CBF20460020BDE8F08710B502
:103E380004460FF0F1FB94F881361BB9003018BF27
:103E4800012010BD94F8800610BD2DE9F14F0D9E9C
:103E580004468B4691469A469DF828809DF82C503A
:103E68009DF83070FFF7E3FF002848D0E36900228F
:103E78001A60E269052359462046FFF7CFFE6B1EFC
:103E8800012B12D8238CE26901339BB223841B12C5
:103E98001354411CE369228C89B2023080B25A540F
:103EA8001EB1238C5A1C22843380002291B28318BD
:103EB8008A459BB209D9B4F8546001329E4204D9AC
:103EC80019F80160E169CE54F0E7B8F1000F0CBFB2
:103ED800302131210FB141F00801022D02D141F00A
:103EE800040103E0012D08BF41F002012046053B13
:103EF800E2699BB201B0BDE8F04FFFF7B6BE01B072
:103F0800BDE8F08F1FB5089C0394002402949DF827
:103F18001C4001949DF818400094FFF796FF04B0E8
:103F280010BD7FB5054610460E46144611F063FDD8
:103F38000023029301930093224603463146284604
:103F4800FFF7E0FF04B070BD012A70B504460E46C5
:103F5800154620D8FFF76BFFE8B1238C01339BB2DD
:103F680003B901232384238CE2691B125371E3698B
:103F7800228C31469A71E26907232046FFF74EFEEC
:103F8800E36982211D54031FE2692046BDE87040A1
:103F98009BB2FFF76ABE002070BD0022FFF7D4BFB6
:103FA80010B50446FFF743FF28B12046FFF78FFE00
:103FB800E0690FF06BF804F138000FF05DFB204664
:103FC800FFF7AAFD204610BD08B50FF009FA00302A
:103FD80018BF012008BD2DE9F04F83B000AF04469B
:103FE800FFF725FF0646002800F0BE800EF04EFEC3
:103FF800226D4FF47A735343A26A0546821A9A4295
:1040080003D8626A821A934216D294F82C3023B1EC
:104018002046FFF75CFE0026A6E0E269C021117089
:10402800E26920465370E1690222FFF711FE01237D
:104038006562A56284F82C302046FFF7C5FF8146EB
:10404800002800F09180F91D2046FFF798FE0246EF
:10405800002800F08880E169A562087800F0F00384
:10406800302B58D1D4F830B0BBF1000F7BD097F883
:1040780007E0EA4601EB0E004678837803EB062357
:104088009BB203F1080020F00700ADEB000D684675
:1040980000261FFA86FC634508D90EEB060C8C44F3
:1040A8009CF803C000F806C00136F2E70026C654A3
:1040B80091F800800EF1030608F00608B8F1020F27
:1040C800CEEB020220D11E4411F806C00EF1050EF7
:1040D8000E447678D21A73441944053A06EB0C2636
:1040E800D847E36940221A70E369B6B283F80180C1
:1040F800E36932129A70E3690422DE70E1692046AE
:10410800FFF7A6FD656204E0033A1E44D21A314463
:10411800D847D54627E000F0E005402D0DD1646B67
:104128000CB3042A1FD110F0060F1CD18878CB7865
:1041380003EB002080B2A04715E0702B13D0902B22
:1041480011D0C02B0AD1D0230B70E36900225A701A
:10415800E16902222046FFF77BFD04E0D02B04BF73
:10416800002384F82C304E4630460C37BD46BDE857
:10417800F08F00002DE9F04F0546934600F5617475
:104188009946012385B080F8813605F534762046B6
:10419800039105F57A7A08F05DFE304608F082FB57
:1041A80005F21C57504606F075FE05F5CA683846F4
:1041B80006F070FE40460AF03BFC002235492046D6
:1041C80008F081FB5A460399504607F001FA002887
:1041D8005DDBB9F1000F02D10F9B5BB90CE00E9BC0
:1041E800002BF9D01A464946384607F0F1F900285D
:1041F800F2DA4CE0109B4BB900231A4619462046C8
:1042080008F02CFE8346002841D109E000230093E2
:10421800109A0F99404605F03BF80028ECD036E09C
:1042280003221146204608F09BFB5A461A492046AD
:1042380008F043FB0121204608F038FB5A4617498D
:10424800204608F03DFB5A465146204608F04FFBF1
:10425800B9F1000F06D00F9B23B1424639462046DC
:1042680008F042FB2146304608F06CFD044668B968
:104278000B4B0C4A05F5CB61304608F02DFB00943A
:10428800094B0A4A2946304608F020FB204605B06B
:10429800BDE8F08F613A0808FD3A0808C93A0808ED
:1042A800E1840808D3840808993A0808653A080898
:1042B80000B500F53470ADF5017D08F056FB0346F6
:1042C80038B1064A4FF40071684606F0CDF900206F
:1042D80000E001200DF5017D5DF804FB0478090874
:1042E80070B5044600F53476D4F8D432102B05D0D6
:1042F80030460DF03DF905460028F5D015F5D24FAA
:10430800F2D015F5D14FEFD004F57A7006F0C7FD5D
:1043180004F21C5006F0C3FD04F5CA600AF08DFBD8
:10432800D4F8D432102B09D194F8823643B1204600
:10433800FFF7BEFF20B94FF0FF3070BD284670BDB3
:10434800012384F88036002070BD00002DE9F04379
:104358008BB00446894617461E46DDF84880FFF7AD
:1043680066FD0546002840F0E780A16C002938D199
:104378000346B4F84C20A16B20460EF081FF94F858
:104388008136002B50D0A16B04F5347008F0B2FAD6
:104398002046FFF7A5FF002840F0CA8001232384A8
:1043A800684B06AA5968186803C2197A53F8090FA6
:1043B80011709A889B79ADF814208DF816309DF805
:1043C8005C300490042BE26931D10498531DC2F883
:1043D8000500BDF814109DF8162099809A710C23D9
:1043E8002EE006A80FF094FB2B46B4F84C2006A943
:1043F80020460FF08DF894F88136ABB1A16CC878DF
:104408004B780A780190897806A800914E490EF0F9
:104418004DFE06A904F5347008F06CFA2046FFF743
:104428005FFFB0FA80F040090028B7D180E006AB02
:1044380003CBC2F80500C2F809101B7853730E238A
:10444800B8F1000F0AD09DF850209DF84C10520189
:1044580042F0060242EAC102D2B200E002229DF80E
:10446800581009B902F0FD022FB116B942F08002C6
:1044780001E042F0C002E169581CCA54226DE169AA
:1044880012120A54E169206D9A1C88540333E269B8
:1044980049462046FFF7C2FBB8F1000F0BD0034690
:1044A800E26941462046FFF7B9FBE26903461599E0
:1044B8002046FFF7B3FB67B10346E2693946204659
:1044C800FFF7ACFB2EB10346E26931462046FFF701
:1044D800A5FB431F9BB2E26910212046FFF7C5FBED
:1044E8000EF0D4FB4FF47A776062A0622046FFF7A3
:1044F8006BFD064658B90EF0C9FBA36AC01A236DB6
:104508007B439842F2D92046FFF7E1FB0EE00DF11C
:104518000F012046FFF733FC042809D1E369DF784F
:1045280037B90EF0B3FB84F82C70A062354604E06E
:104538002046FFF7CCFB00E0002528460BB0BDE87D
:10454800F08300BFF4770908097809087FB50423C8
:10455800059301230493002303930293019300938B
:104568001A46FFF7F3FE07B05DF804FB0EF00EBB2A
:104578006C22002111F011BA38B100F16C0200234D
:10458800904202D003700130FAE7704708B56C22F8
:1045980011F0DDF908BD0000002303604360A1B9F4
:1045A800184B8360184BC360184B0361184B436169
:1045B800184B8361184BC361184B036203F17453A2
:1045C800A3F52303A3F6924318E0154B8360154B1C
:1045D800C36003F1794303F5740303F501630361D1
:1045E800114B4361114B836103F1D14303F5C013B0
:1045F80003F51E63C3610E4B03620E4B4362816673
:104608000020704767E6096A85AE67BB72F36E3CA7
:104618003AF54FA57F520E518C68059BABD9831F85
:10462800D89E05C107D57C3639590EF7310BC0FF26
:10463800A78FF964A44FFABE2DE9F04F031DCFB040
:1046480005931A46002352F8040F06AC44F82300D9
:104658000133082BF7D1084600220EAC11F822507E
:10466800C378043043EA056310F8035C43EA054362
:1046780010F8025C43EA052344F822300132102A7C
:10468800ECD10D9B9F4C00930C9E099B089FDDF875
:104698002CB0DDF81CE0DDF82880DDF818900FADAF
:1046A80004F1400A54F8040C4FEAF82255F8041CA7
:1046B80086EA0B0C82EAB812014482EA78620CEAB4
:1046C800080C8CEA060C0A44009962444FEA7930D7
:1046D8004EEA090C0A440CEA070C0EEA090180EAC2
:1046E800B9004CEA010180EAB9500844134429682A
:1046F800024420688BEA080C01440CEA030C4FEAD8
:10470800F3208CEA0B0C0E4480EAB31006EB0C0184
:1047180080EA73600E1806EB070C42EA09004FEABC
:10472800723702EA090187EAB20700EA0E0087EA4F
:10473800B2570843384430446968666883EA080712
:104748000E4407EA0C074FEAFC2187EA0807B3443E
:1047580081EABC110BEB070681EA7C6106EB010BD1
:104768004FEA703742EA000102EA000687EAB0071A
:1047780001EA090187EAB05731433944AE68A768AE
:104788005944DE443E4483EA0C0BB0440BEA0E0B5A
:104798004FEAFE268BEA030B86EABE16D84486EA61
:1047A8007E6646444FEA713B40EA010800EA010789
:1047B8008BEAB10B08EA02088BEAB15B48EA070802
:1047C800D844B044B144E768EE688CEA0E0B37442D
:1047D8000BEA090B8BEA0C0B3B4403EB0B074FEA84
:1047E800F92383EAB91383EA7963FE1893190093CE
:1047F8004FEA783741EA080301EA080287EAB8076E
:10480800034087EAB85713433B4433442A6926696F
:104818004FEA733B32449444009A8EEA09061640E4
:104828004FEAF22786EA0E0687EAB217B44487EA07
:1048380072670CEB070248EA030786180F4008EA7C
:1048480003008BEAB30B8BEAB35B07435F4417445F
:1048580060696A6920341044009A864489EA020C27
:104868000CEA060C8CEA090C0EEB0C004FEAF62E4B
:104878008EEAB61E8EEA766E00EB0E024FEA7730AD
:1048880043EA070E01EB020B0EEA080E03EA0701E2
:1048980080EAB70080EAB7504EEA010E8644964493
:1048A80054F8081CAA69A2451144009A894482EA6E
:1048B800060000EA0B0080EA020009EB00014FEA5B
:1048C800FB2989EABB1989EA7B6901EB09024FEAEE
:1048D8007E3047EA0E0980EABE0009EA030907EAC2
:1048E8000E0180EABE5049EA01098144904491448E
:1048F80005F120057FF4D6AE0022DFF80CA00EAC3F
:10490800049203E01C78090818780908A26B60680B
:104918004FEAF24585EA724585EA9225049A0DF137
:10492800380C5CF82220616A4FEAB04C0A448CEAE1
:10493800F01C4FEAF8218CEAD00C81EAB811154432
:1049480005EB0C0281EA786586EA0B0101EA0801A9
:10495800039281EA0602A918DAF840204EEA09050E
:104968000A4403993D4021640A4400990AF1200A47
:104978000A44D3184FEA7931009381EAB9010EEA63
:10498800090381EAB9512B430B441A44E36BA56828
:104998004FEAF34181EA734181EA9321A36A203403
:1049A800034419444FEAB54383EAF51383EAD50C67
:1049B80001EB0C03DAF8240000998BEA080C304468
:1049C8000CEA010C8CEA0B0CC1188C440099636248
:1049D8004FEAF12080EAB11080EA716000EB0C0127
:1049E800C81901904FEA723C42EA090002EA090735
:1049F8008CEAB20C00EA0E008CEAB25C38436044E0
:104A08000844039954F8147C4FEAF14686EA714643
:104A180086EA9126E1684FEAB74C29440E448CEAAD
:104A2800F71C00998CEAD70C664481EA080C0199B6
:104A3800A6620CEA010CDAF828108CEA080C594432
:104A48008D190199AC44019D4FEAF12181EAB51114
:104A580081EA756101EB0C0542EA00014FEA703CFE
:104A680005EB0E0B8CEAB00C02EA000E01EA090114
:104A78008CEAB05C41EA0E01614429444FEAF345EF
:104A880085EA734585EA9323256954F810CC2F44A9
:104A98003B444FEABC4787EAFC1787EADC0E03EB86
:104AA8000E079DE828005D4005EA0B055D40DAF831
:104AB8002C304FEA713E9844B84445444FEAFB28ED
:104AC80088EABB1888EA7B6808EB050303EB09054D
:104AD80040EA010802958EEAB10E00EA010508EAEB
:104AE80002088EEAB15E48EA0508F04498444FEAA5
:104AF800F64E63698EEA764E54F80C5C8EEA96267A
:104B08000CEB030E019B764483EA0B0C4FEAB54E7F
:104B1800029B8EEAF51E8EEAD5090CEA030C019B6E
:104B280006EB090EDAF830608CEA030C009B764439
:104B38001E44029BB444029E4FEAF32383EAB61351
:104B480083EA766303EB0C069319009341EA0803A2
:104B580001EA0802034013434FEAF74282EA774228
:104B6800E7624FEA783C82EA9727A2698CEAB80C98
:104B780054F8089C8CEAB85C1544029A63443344A0
:104B88002F448BEA02064FEAB945009A85EAF915DF
:104B980085EAD9051640DAF834203D44019F2A44B5
:104BA8003A4486EA0B061644009AC4F830E04FEA05
:104BB800F22787EAB21787EA7267BA1986184FEAA6
:104BC800733080EAB30048EA030780EAB35C0F4019
:104BD80008EA03000743674417444FEAFE4282EAA3
:104BE8007E4282EA9E2EE26954F8040C91440EEB50
:104BF80009024FEAB04989EAF01989EAD0099144D3
:104C0800029A65639646009AC4F838908EEA020CB8
:104C1800DAF838200CEA060C8CEA0E0C4A444FEA03
:104C2800F62E5A448EEAB61E62448EEA766E7244B6
:104C38004FEA773C43EA070E01EB020B0EEA080E37
:104C480003EA07018CEAB70C8CEAB75C4EEA010E5E
:104C5800E64496444FEAF542216882EA754282EAC0
:104C68009525039A4FEAB14C10448CEAF11CDAF806
:104C78003C2005448CEAD1010D4402992A4402EBF8
:104C88000109009A4FEA7E3082EA060101EA0B0127
:104C980051404FEAFB2282EABB12894482EA7B62D6
:104CA8004A4447EA0E0980EABE0009EA030907EA0E
:104CB8000E0180EABE5049EA0109814490449144BA
:104CC800049AE5630832302A04927FF41FAE009AF2
:104CD80009930D92CDF82880CDF82CB00C96CDF81C
:104CE8001890CDF81CE008970023059A52F8041F85
:104CF800059206AA52F8232001330A440599082B85
:104D08000A60F2D100204FB0BDE8F08F2DE9F041E4
:104D180004460E46154682B3036803F03F00134469
:104D28009A42236082BF63680133636080B1C0F137
:104D38004007BA421BD304F128083A46404410F011
:104D480006FE41462046FFF777FCB8B93E44ED1B06
:104D58002F46E91B3F2F314405D92046FFF76CFC4D
:104D680060B9403FF5E747B13D460E46002028347C
:104D78002A463146204410F0EAFD0020BDE8F081C3
:104D880070B504460368802203F03F03581C382896
:104D980023440D4683F8282004F1280604D8C0F1DE
:104DA8003802002130440EE0C0F1400200213044B6
:104DB80010F0F3FD31462046FFF73EFC002875D180
:104DC80001463046382210F0E8FD236861685A0F22
:104DD80042EAC102110EDB0084F86010110C84F85D
:104DE800611084F86320110A1A0E84F864201A0CE2
:104DF80084F865201A0A84F8621084F8673084F809
:104E0800662031462046FFF717FC034600284CD1A0
:104E1800E27A2A7062896A70A268120AAA70A26885
:104E2800EA70E27B2A71E2896A71E268120AAA7161
:104E3800E268EA71E27C2A72628A6A722269120A5C
:104E4800AA722269EA72E27D2A73E28A6A73626947
:104E5800120AAA736269EA73E27E2A74628B6A7420
:104E6800A269120AAA74A269EA74E27F2A75E28B1F
:104E78006A75E269120AAA75E269EA7594F823204C
:104E88002A76628C6A76226A120AAA76226AEA76F8
:104E9800A06E50B994F827302B77E38C6B77636A50
:104EA8001B0AAB77636AEB7770BD184670BDF0B527
:104EB8001F469DB0054601A80E461446FFF758FB4D
:104EC800394601A8FFF768FB014658B9294632461A
:104ED80001A8FFF71BFF014620B9214601A8FFF7EB
:104EE8004FFF014601A8FFF747FB08461DB0F0BD7C
:104EF8002DE9F04F0446A5B0006801930F4693468C
:104F0800309E04F0D9FF81460023039301238DF8D6
:104F18000F300DF15008002E5CD05A463946204615
:104F280004F008FF002856D12E9A0199204604F073
:104F380061FF00284FD1042203A9204604F05AFF3C
:104F4800002848D14146204604F064FF002842D199
:104F580004AD4A464146284610F0F9FC4FF0010AD4
:104F68002F9B9A451DD25A463946204604F0E2FE48
:104F780088BB4A462946204604F03CFF58BB2946D0
:104F8800204604F047FF30BB484507DA10F80820F0
:104F9800435D534000F808300130F5E70AF1010A93
:104FA800DEE74E45354628BF4D4641462A463198EC
:104FB80010F0CDFC319B761B2B44319304AA12F8D8
:104FC800013D0133DBB21370002BA4D103AB934234
:104FD800F5D1A0E7304625B0BDE8F08F2DE9F043C4
:104FE8001F46BDB00023069307930993446883685E
:104FF8004FF0040908931C4403680D46302B1646ED
:105008008DF8169040F0C98010AB0AAA214608A86E
:1050180000F065FD002858D10B9A092A4CD10C994B
:10502800614810F085FC002846D1129B119A249300
:1050380003EB0208109B302B40F0AF804B4617AAB9
:10504800414624A800F072FCF8B9249A179B1892DC
:105058001344414606AA24A8249300F094FCA0B95E
:10506800249B984522D007AA414624A800F08BFC2F
:1050780010B110F1620F08D1249B984516D02CAAC4
:10508800414624A800F073FD28B1A0F53C50002843
:1050980040F086800AE00DF116012CA802F00CF908
:1050A80050B9249B984501D0404879E09DF81600F6
:1050B80004F0BEFD814608B93D4871E013AB0DAA66
:1050C800214608A800F00BFD10B1A0F53C5067E0A0
:1050D8000DF117010DA802F0C1F80028ECD19DF8D8
:1050E800170000F049F980460028E5D04368DB083E
:1050F8000793139B042B52D1C368149A9A424ED13A
:1051080019A804F0A1FD2CA800F058F9149A1599D3
:1051180024A810F01CFC0122494619A804F0BAFD85
:105128000446002831D1079B0DF170090293069BB4
:10513800CDF80C900193179B3A4600933146189B83
:1051480019A8FFF7D5FE0446F8B941462CA800F087
:1051580009FB0446C8B9079A6BB2D20049462CA885
:1051680000F042F9044680B909AB0293469B149AB1
:105178000193459B24A900932CA8449B00F010FBA5
:10518800A4F53854002808BF002419A804F061FDCC
:105198002CA800F017F9204602E0064800E006486F
:1051A8003DB0BDE8F08300BF187909089AD0FFFF29
:1051B80080D1FFFF9ED0FFFF00D1FFFF10B1006834
:1051C80000B14069704710B5891A0024E3B29942CA
:1051D80004F1010402D903449954F7E710BD000013
:1051E800F0B500B3FAB1431813F8014CB4FA84F3DC
:1051F8005B09A14238BF43F001030F1B176000226F
:105208008A420BD0855CBA4284EA050634BF002581
:10521800012575432B43DBB20132F1E7002B03482C
:1052280008BF0020F0BD0248F0BD00BF009EFFFF90
:10523800009FFFFF802330B58354891A012300257E
:10524800994204D9C4180133A554DBB2F8E730BD3C
:1052580070B501238D1A00269D4206D9C41814443E
:10526800013304F8016CDBB2F6E7014401F8015C94
:1052780070BD000070B5F0B1EAB14E1E845DB4FA9D
:1052880084F30D1B5B09A1422CBF194643F00101B1
:1052980015600023B34209D2AB42C45C34BF00227C
:1052A800012262431143C9B20133F3E700290348DD
:1052B80008BF002070BD024870BD00BF009EFFFF00
:1052C800009FFFFF10B502440023141AA14202D91F
:1052D80002F8013BF9E710BD18B112B111600020C6
:1052E80070470148704700BF009FFFFFF0B5F0B15D
:1052F800EAB1002313600844802499B110F8015DD5
:105308000139002D0CBF1D4643F001056B4001FB20
:1053180003F617683E431660067873435C40E4B2B0
:105328002B46EAE7002C034808BF0020F0BD0248DE
:10533800F0BD00BF009EFFFF009FFFFF30B5A8B182
:10534800A2B10023136001448142A1EB00040FD0F5
:1053580011F8015D002D0CBF1D4643F001056B409F
:1053680063431468234313602B46EDE7014830BDBF
:10537800002030BD009FFFFF054B53F8042C22B1DD
:10538800083313F8101C8142F7D11046704700BF4C
:105398002C87090830B5084C63685BB19D692D7886
:1053A800854205D15D688D4202D15D78954201D074
:1053B8000834F1E7184630BD248709084022002147
:1053C80010F0EBBA10B5044668B1C06B18B1236889
:1053D8009B699B69984704F140020023944202D0DC
:1053E80023700134FAE710BD30B4C8B10468BCB109
:1053F8002569AD0702D46568954211D1012B426039
:10540800037204D06578032D01D0052D02D1A3695C
:10541800DB6802E023B9A3691B69C06B30BC18477D
:10542800014830BC704700BF009FFFFF38B50446F5
:10543800B0B10368A3B199B1102A0FD81869C00791
:1054480003D4DD68AA4201D20AE015462A4604F1CF
:10545800280010F07CFAA563002038BD014838BD4B
:10546800014838BD809FFFFF009FFFFF28B10368F8
:105478001BB100234362184670470148704700BFBC
:10548800009FFFFF2DE9F74FDDF830800F461546E6
:105498009946044608B95C48B2E00368002BFAD084
:1054A800B8F1000FF7D00023C8F80030FFF786FEE8
:1054B800236806465B78012B10D190427DD1C8F84D
:1054C800000023680A469B6994F908105D684B46FA
:1054D800AC46E06B03B0BDE8F04F6047062B0AD13D
:1054E800C8F800204B460A462946E06B03B0BDE8E1
:1054F800F04F04F0BBB9002861D0494508D1626A71
:10550800002AC8D1B5FBF0F200FB1252002AC2D122
:10551800022B56D194F90830606A2BB9E3682BB195
:10552800331A9D420FD804E0012B0CD1331A9D4247
:1055380009D220442A463946143010F008FA636A22
:105548001D44656237E010B3C0EB060A204452469A
:105558003946143010F0FBF9234653F8142B94F90C
:10556800081092698DE8080204F12803D2F808B0FF
:10557800E06B3246D847002842D1D8F80030B14411
:105588003344C8F8003057446062CAEB050595B14A
:10559800B5FBF6FA06FB1A5ABAF1000F13D0CAEB9C
:1055A80005055246791904F1140010F0D0F9636A20
:1055B8005344636295B9002022E0144820E014485F
:1055C8001EE014481CE094F90830002BE7D1E3688A
:1055D800002B0CBF4FF0000AB246E0E7236894F9AD
:1055E80008109B698DE880022A469E68E06B04F1EA
:1055F8002803B04720B9D8F800301D44C8F8005037
:1056080003B0BDE8F08F00BF009FFFFF809DFFFF44
:10561800809CFFFF809FFFFFF7B50E4615460446A6
:10562800002852D00368002B4FD0002A4DD0002309
:10563800136007687A78032A4DD0511F02294AD986
:10564800012A01D1636A16E0022A40D190F9083094
:10565800012B09D1C368002BF4D0A16B143001B918
:10566800F968626A98470BE0FFF7A8FD636A9842F9
:1056780006D0E2686ABB002B184808BF00202BE060
:105688002046FFF79BFD234653F8142B94F9081086
:1056980092698DE8480004F1280397680246E06B98
:1056A800B8470346B8B994F9082020464AB9FFF725
:1056B80085FD2A4601463046236903B0BDE8F0401F
:1056C8001847FFF77BFD286005E0054804E005481A
:1056D80002E0024800E0184603B0F0BD809DFFFFDD
:1056E800009FFFFF809FFFFF08B303685B78022BD2
:1056F8001DD104291DD8DFE801F003070D1115009D
:105708000D4BC3600D4B02E00D4BC3600D4B0361A5
:10571800002070470C4BC3600C4BF8E70C4BC36080
:105728000C4BF4E70C4A0023C3600261F0E70B4816
:1057380070470B48704700BFCF510808E951080867
:105748003D520808F5520808595208087D520808C1
:10575800CD52080845530808E1520808009FFFFF8A
:10576800809FFFFF38B504460D4681B178B14022CD
:10577800002110F012F9AB695B699847E06340B10A
:10578800256000212046FFF7AFFF002038BD024802
:1057980038BD024838BD00BF009FFFFF809EFFFF55
:1057A800F0B585B005461F460B9E0C9CFFF73EFEE4
:1057B800B0B92846FFF75AFE90B9009433460A9AC2
:1057C80039462846FFF75EFE50B9216803AA3144DE
:1057D8002846FFF721FF18B92268039B134423606A
:1057E80005B0F0BD2DE9F043076814467F78079DA2
:1057F800062F089E099ADDF828E0DDF82C90DDF8E0
:105808003080DDF834C012D1C9F800200893CDF8F3
:105818003480CDF830C0CDF82CE00A96099507946D
:105828000B46BDE8F0430121C06B04F00AB90148FA
:10583800BDE8F083809FFFFF30B5056887B06D78BD
:105848000C46062D0C9917D10E9D29600D9D0595C6
:105858000B9D0495109D03950F9D02950A9D8DE85B
:1058680028001346C06B224604F010F9044B10F1CF
:10587800120F08BF184600E0024807B030BD00BF4D
:10588800009DFFFF809FFFFF30B50368CD1A002DF4
:1058980002DC6FF05F0030BD1C7814F0800F04D17B
:1058A8005C1C04601B78136036E004F07F04013C44
:1058B800032C38D8DFE804F002091320012DE8D0C2
:1058C8005B7813600368023325E0022DE1DD5C7824
:1058D8009B7843EA04231360036803331BE0032D1A
:1058E800D7DD9C785D782402DB7844EA05441C43C4
:1058F8001460036804330EE0042DCADD9C785D78DB
:10590800240444EA05651C79DB782C4344EA032324
:1059180013600368053303600368C91A13688B4270
:10592800B7D8002030BD6FF0630030BD70B4046894
:105938000E1B002E07DD26789E4207D10134046035
:1059480070BCFFF7A1BF6FF05F0001E06FF061006E
:1059580070BC704737B50123154601AA0446FFF706
:10596800E5FF70B9019B012B09D123681B7800332F
:1059780018BF01232B6023680133236001E06FF017
:10598800630003B030BD37B50223154601AA0446AB
:10599800FFF7CCFFC8B9019B013B032B13D8236841
:1059A80093F90030002B0EDB28600198431E019309
:1059B80058B123682A681B7843EA02232B602368BE
:1059C80001332360F1E76FF0630003B030BD37B5F2
:1059D8000223154601AA0446FFF7A8FF40B9019A19
:1059E8002168284607F0A7FE2268019B134423601C
:1059F80003B030BD70B5032304460E461546FFF7C5
:105A080095FFD8B91368A3B1013B136023681B78CD
:105A1800072B137110D82368013323609360226821
:105A28002B6813449E42236014BF6FF0650000206A
:105A380070BD6FF05F0070BD6FF0630070BD38B56A
:105A4800032304461546FFF771FF58B913685A1E19
:105A5800012B2A6004D923685A1C2260187808B1DF
:105A68006FF0670038BD2DE9F34115461F4601AABE
:105A7800302304460E46FFF759FF68BB2268019B96
:105A880013449E421DD06FF0650025E023689E42B6
:105A98001AD91B7842462B6031463B462046FFF711
:105AA80045FFC8B92368AB6022686B6813449E42FF
:105AB8002360EBD9102101200FF01AFFE86048B1EC
:105AC800054605F10408E1E70020E86023689E42E6
