:020000040808EA
:1000000000000808BC8E0908000005000A00050170
:080010000402CF000000000013
:100018007C50090809480A4908B5884205D0094AA8
:10002800824202D0121A14F0EEFB0748074A002158
:10003800121A14F00EFC064808BD00BF0004002088
:100048000C8D09088805002088050020003C002048
:10005800003C002070B512F0F5FD074B074C1E461A
:10006800E41AA4080025A54204D056F8253098477C
:100078000135F8E770BD00BF708C0908008D0908CC
:1000880000F01EB908B501F049F8BDE8084012F0C3
:1000980097BD11F0E1BF11F0DFBF11F0E5BF11F01E
:1000A800E3BF0078B0FA80F040097047012303707D
:1000B8007047000038B5074B04460360806830B1CC
:1000C8004368E360056811F0CFFF2846F7E720464C
:1000D80038BD00BF985009080B68002B12BF0623D3
:1000E80000230021037081600120704770B5826889
:1000F80004460D4622B19368033323F0030393604B
:10010800A2684AB193685068E918814204D802F19C
:100118000C009160184470BDE668AE4238BF2E46A8
:1001280006F10C0011F098FF78B100238360466057
:10013800A36800F10C020360E368A0605B00E36061
:1001480083681D448560D01870BD70BD024608469E
:1001580019B10B6811461B68184770474268134667
:1001680083B111B11B680139FAE7934202D11B68C8
:100178004360704732B111688B4204BF196811603F
:100188001268F7E77047000038B5084D2B6813F080
:10019800010409D12846FFF784FF28B1044B2846FB
:1001A8001C605C60FFF782FF014838BDF005002045
:1001B800F405002010B5014604460820FFF7C6FFE5
:1001C80018B100230460436010BDFFF7DDFF10BDC8
:1001D80038B50546006810B9FFF7D6FF38BDFFF7F8
:1001E800E9FF296804461820FFF7B0FF10B1002383
:1001F800036003726B682BB11A680AB11346FBE7F8
:10020800186000E0686018B121460830FFF764FF05
:10021800204638BD406860B111B100680139FAE77D
:1002280000324FF0030318BF0122037202614161DB
:100238000120704738B50D4644687CB1A16805B106
:1002480019B94B1B5842584105E0284614F017FBD2
:10025800B0FA80F0400908B92468EEE7204638BDB6
:1002680010B5044601682020FFF770FF10B1002385
:100278000360037463682BB11A680AB11346FBE77D
:10028800186010BD606010BD70B5064600680D4668
:1002980010B9FFF779FF70BDFFF78CFF04466DB109
:1002A80029463046FFF7C6FF20B93046FFF7D8FF8A
:1002B80020B1856021461030FFF70EFF204670BD43
:1002C800F0B5E1B012F090FD4FF4165112F072FD46
:1002D80041F2883012F0FCFB6448654F036813F064
:1002E80001041CD1FFF7DDFEC8B1624D0820294684
:1002F800FFF72CFF10B1056044600CE05E4E5F4CC8
:10030800336813F0010505D13046FFF7CAFE00280F
:1003180040F0A480594838605448FFF7C7FE3B684E
:10032800574C584D23602B68574E13F0010F0BD1D3
:100338002846FFF7B6FE38B154492068FFF7A4FFF6
:1003480030602846FFF7B2FE3268514B514D1A60B3
:100358002B68514E13F0010F0BD12846FFF7A1FE71
:1003680038B14E492068FFF78FFF30602846FFF705
:100378009DFE32684A4B4B4D1A602B684A4E13F06B
:10038800010F0BD12846FFF78CFE38B1474920688A
:10039800FFF77AFF30602846FFF788FE444B326843
:1003A800444C1A6012F020FD0021022011F004FED6
:1003B80011F072FC206810F00DFD20AD80220021A4
:1003C800684614F046FA40AF80220021284614F00F
:1003D80040FA80220021384614F03BFA364B0026BA
:1003E80018681B7900908DF8043012F0FDFC334931
:1003F80012F08BFA2A466946206810F012FD12F0B6
:10040800F3FCAB5D2E4A0021013612F0BDFA102E26
:10041800F5D112F0E9FC12F07FFA12F0E5FC294957
:1004280012F073FA20683A46294610F007FD0024B6
:1004380012F0DAFC3B5D244A0021013412F0A4FAE0
:10044800102CF5D112F0D0FC12F066FA002102202F
:1004580011F0B2FD11F028FC61B0F0BD3046256006
:100468006560FFF723FE204655E700BF3C060020E5
:100478003406002024060020E4050020E8050020BA
:100488000406002038060020080600209C500908B1
:100498001C0600200006002014060020A5500908AC
:1004A800FC0500201806002020060020AE50090890
:1004B80010060020E02A0020B7500908BD5009089E
:1004C800AA510908CE500908DF50090800000000A9
:1004D80070B51B4D06462B681A4C13F0010F1AD144
:1004E8002846FFF7DEFDB0B10DA3D3E90023284667
:1004F800C4E90A230CA3D3E90023C4E90C230CA301
:10050800D3E90023C4E90E230BA3D3E90023C4E9EC
:100518001023FFF7CBFD04EBC604D4E9000170BD3E
:10052800176E05B5B5B89346F5F93FE9034F384D51
:10053800321D30F94877825A3CBF737FDD4F1575FD
:10054800E0050020480400202DE9F74F6EA3D3E909
:100558000023064603C813F0DBFB002860D0DFF851
:100568003CA208244FF4807700252046D6E900896C
:10057800FFF7AEFF02460B464046494613F0C8FB5C
:10058800002845D0DFF81882D8F80030D90735D4CC
:100598004046FFF786FD002830D05DA3D3E900234D
:1005A8007D494046C1E900235BA3D3E90023C1E9A3
:1005B80002235BA3D3E90023C1E904235AA3D3E9A7
:1005C8000023C1E906235AA3D3E90023C1E908237C
:1005D80059A3D3E90023C1E90A2359A3D3E9002386
:1005E800C1E90C2358A3D3E90023C1E90E2358A37A
:1005F800D3E90023C1E91023FFF758FDDAE9002306
:10060800D6E9000113F0FEF8C6E900013D442DB219
:10061800013C621C4FEA6707AAF1080AA5D103E06A
:1006280005464FF480770824D6E900890022002384
:100638004046494613F076FB002861D046A3D3E92B
:1006480000234046494613F059FB002858D00FF2C2
:10065800101BDBE900AB631C52D0D6E90023DFF89E
:100668004491CDE90023D9F80030DFF83C8113F03C
:10067800010F2BD14846FFF714FD38B33AA1D1E951
:10068800000123A3D3E90023C8E9080138A1D1E96F
:100698000001C8E90A0138A1D1E90001C8E90C0143
:1006A80037A1D1E90001C8E90E0137A1D1E900015C
:1006B800C8E910014846C8E9022335A3D3E9002355
:1006C800C8E906ABC8E90423FFF7F0FCDDE900013F
:1006D80008EBC403D3E9002313F006FB60B12046FE
:1006E800FFF7F6FE02460B46D6E9000113F08AF83A
:1006F800C6E90001ED1B2DB2013C7F1064B2AAE7E8
:10070800284603B0BDE8F08F00000000D012634116
:100718009A9999999999B93F7B14AE47E17A843FA0
:100728002D431CEBE2361A3F3A8C30E28E79453E77
:10073800BC89D897B2D29C3C33A7A8D523F64939AF
:100748003DA7F444FD0FA5329D978CCF08BA5B25D1
:10075800436FAC642806C80AF168E388B5F8E43E3C
:1007680048AFBC9AF2D77A3E1656E79EAF03D23C02
:1007780080688965D63980390DD13196FC53DA32D3
:10078800C2DEB78145549125148BD77DB207FE0A86
:10079800FCA9F1D24D62503F98050020D8050020F1
:1007A800900500208C050020000400202DE9F34767
:1007B800044602A860E902230923A372FFF7C4FED6
:1007C800DDE90089208149460646404613F0B4FA1F
:1007D800054603462B4F20600A21092B07D9A27A28
:1007E800B7FBF1F7013AA272B3FBF1F3F5E728463C
:1007F80012F092FF02460B464046494612F04EFE62
:1008080080463846894612F087FF02460B46404626
:10081800494612F0F7FF8946804613F08DFA824662
:1008280012F07AFF02460B464046494612F036FE61
:1008380002460B4612F034FE13F07EFA504487420B
:1008480001D960600AE000230135636025602EB19C
:10085800092D81BF01360123268123600A2163689F
:10086800B3FBF1F201FB12333BB994F90A30002BC8
:1008780003DD013B6260A372F1E7204602B0BDE8E8
:10088800F08700BF00CA9A3B10B50479E3091EBF80
:1008980004F00F02C4F302135343A1F10A025142B8
:1008A8005141027961F3C7120271581C10BDF0B5AD
:1008B8000379DB091DD00024234626464FF0200E7D
:1008C800027902F00F05C2F302126A43A24210DD58
:1008D8000268013417685568BD423FBF6F1C5760F6
:1008E80085F800E052682EBF0022167001221344DA
:1008F800E6E7026854681568AC423FBF651C55605E
:10090800217052683CBF00241470A1F10A0434BF5E
:100918000122002261426141047961F3C714047124
:100928009818F0BD70B506464D1E002415F8011F35
:1009380021B13046FFF7A8FF0444F7E7204670BD11
:1009480008B5037803F0DF035B2B01D0002008BD56
:1009580041680B7903F00F020F2A03D0013262F3CA
:1009680003030B7102494068FFF7DCFF08BD00BFB5
:10097800E35009085B2970B505460E461DD008D816
:100988002C2915D03A2911D0222916D10123037216
:1009980014E07B2911D07D2901D05D290DD12B7858
:1009A80003F0DF035B2B12D100240AE00F4900E0BB
:1009B8000F496868FFF7B6FF70BD2846FFF7C0FF0C
:1009C800044631466868FFF75FFF204470BD6968D8
:1009D8000B7913F00F0203D00F3262F303030B718C
:1009E80004496868FFF79EFFEAE700BF9A6B0908A9
:1009F800E2500908E350090838B5037A04460D4661
:100A08004BB1222902D103785C2B07D129466068B3
:100A1800FFF73AFF05E0FFF7ADFF02E0002303729E
:100A2800F4E7257038BD10B504460068FFF7E4FF09
:100A380063681844606010BDF8B5054607684E1E27
:100A4800002416F8011F21B13846FFF7D5FF0444EA
:100A5800F7E76B681C446C60F8BD000070B505468C
:100A68000C4619B91149FFF7E7FF70BD2221FFF7BE
:100A7800DAFF013C14F8011F71B10D4B13F8026C39
:100A88007EB1023313F8032C8A42F7D15C21284641
:100A9800FFF7C9FF314604E022212846FFF7C3FFCC
:100AA80070BD2846FFF7BFFFE4E700BFE65009081E
:100AB800ED500908F0B519468BB0054610461646A4
:100AC8001C4613F007F908B94C4921E0002200231D
:100AD8003046214613F008F928B12D212846FFF7A2
:100AE800A2FF04F10044002200233046214613F0FF
:100AF800F1F888B9324623463046214612F0D0FC38
:100B080002460B463046214613F0E4F820B13C4932
:100B18002846FFF791FF6FE02346324601A8FFF70A
:100B280045FE0AA9002301F8033D0E46019C0A234D
:100B3800B4FBF3F203FB1244303401F8014D1446C0
:100B4800002AF5D12846FFF777FF9DF90E10E1B18D
:100B58000AA800F8094D02460C46029B4FF00A0EFF
:100B6800013C64B2671C08D0B3FBFEF70EFB1733D9
:100B7800303300F8013D3B46F2E7C9B2511A2E2343
:100B880001F8013D2846FFF757FFBDF90C30002B4F
:100B980018DA1C492846FFF74FFF3146BDF90C30DB
:100BA80000225B428DF825200A2093FBF0F200FB1F
:100BB8001233303301F8013D1346002AF5D1284697
:100BC800FFF73AFFBDF90C30002B15DD65212846EB
:100BD800FFF729FF31460022BDF90C308DF825209A
:100BE8000A2093FBF0F200FB1233303301F8013D89
:100BF80013B2002BF5D18BE70BB0F0BDFA50090802
:100C080001510908FE500908F0B5037887B0013B87
:100C180005460C46072B58D8DFE803F02B264D3144
:100C28002D0A2204D0E902230846FFF743FF4CE0CF
:100C380085685B212046FFF7F6FE6D685DB105F11A
:100C480008002146FFF7E0FF2D6825B12C2120463A
:100C5800FFF7E9FEF2E75D212046FFF7E4FE34E006
:100C6800806800F039F830E081682046FFF7F6FE2A
:100C78002BE0816826E02D212046FFF7D4FED5E938
:100C88000267002306AD05F8033D304639460A22BF
:100C9800002313F0CFFA303205F8012D0023304637
:100CA80039460A2213F0C6FA06460F4656EA0703E3
:100CB800EBD1294606E0D0E902231343044B05494A
:100CC80008BF19462046FFF7B7FE07B0F0BD00BFC2
:100CD8000F5109080A51090870B50C4605467B21D1
:100CE8002046FFF7A0FE6D68ADB12E46204656F8A7
:100CF800081FFFF7B3FE3A212046FFF794FE21466E
:100D080006F10800FFF780FF2D6825B12C21204649
:100D1800FFF789FEE8E77D212046FFF784FE70BDD6
:100D280070B506464D1E002415F8011F21B1304646
:100D3800FFF7BDFD0444F7E7204670BD08B503780A
:100D480003F0DF035B2B01D0002008BD41680B795D
:100D580003F00F020F2A03D0013262F303030B7171
:100D680002494068FFF7DCFF08BD00BFE3500908EF
:100D78005B2970B505460E461DD008D82C2915D01C
:100D88003A2911D0222916D10123037214E07B29B4
:100D980011D07D2901D05D290DD12B7803F0DF0317
:100DA8005B2B12D100240AE00F4900E00F49686864
:100DB800FFF7B6FF70BD2846FFF7C0FF044631466F
:100DC8006868FFF774FD204470BD69680B7913F0FB
:100DD8000F0203D00F3262F303030B7104496868F2
:100DE800FFF79EFFEAE700BF9A6B0908E25009087F
:100DF800E350090838B5037A04460D464BB1222959
:100E080002D103785C2B07D129466068FFF74FFDB4
:100E180005E0FFF7ADFF02E000230372F4E7257059
:100E280038BD10B504460068FFF7E4FF636818444E
:100E3800606010BDF8B5054607684E1E002416F818
:100E4800011F21B13846FFF7D5FF0444F7E76B6867
:100E58001C446C60F8BD000070B505460C4619B915
:100E68001149FFF7E7FF70BD2221FFF7DAFF013CC8
:100E780014F8011F71B10D4B13F8026C7EB10233E7
:100E880013F8032C8A42F7D15C212846FFF7C9FFE3
:100E9800314604E022212846FFF7C3FF70BD2846EB
:100EA800FFF7BFFFE4E700BFE6500908ED50090867
:100EB800F0B519468BB00546104616461C4612F08A
:100EC80009FF08B94C4921E0002200233046214699
:100ED80012F00AFF28B12D212846FFF7A2FF04F1DE
:100EE8000044002200233046214612F0F3FE88B960
:100EF800324623463046214612F0D2FA02460B46C5
:100F08003046214612F0E6FE20B13C492846FFF75C
:100F180091FF6FE02346324601A8FFF747FC0AA974
:100F2800002301F8033D0E46019C0A23B4FBF3F2AB
:100F380003FB1244303401F8014D1446002AF5D160
:100F48002846FFF777FF9DF90E10E1B10AA800F8CF
:100F5800094D02460C46029B4FF00A0E013C64B252
:100F6800671C08D0B3FBFEF70EFB1733303300F8CD
:100F7800013D3B46F2E7C9B2511A2E2301F8013D63
:100F88002846FFF757FFBDF90C30002B18DA1C492B
:100F98002846FFF74FFF3146BDF90C3000225B426F
:100FA8008DF825200A2093FBF0F200FB1233303332
:100FB80001F8013D1346002AF5D12846FFF73AFF0C
:100FC800BDF90C30002B15DD65212846FFF729FFF8
:100FD80031460022BDF90C308DF825200A2093FBFC
:100FE800F0F200FB1233303301F8013D13B2002B4D
:100FF800F5D18BE70BB0F0BDFA500908015109088B
:10100800FE500908F0B5037887B0013B05460C4649
:10101800072B58D8DFE803F02B264D312D0A220480
:10102800D0E902230846FFF743FF4CE085685B21BF
:101038002046FFF7F6FE6D685DB105F10800214610
:10104800FFF7E0FF2D6825B12C212046FFF7E9FEC8
:10105800F2E75D212046FFF7E4FE34E0806800F007
:1010680039F830E081682046FFF7F6FE2BE081680A
:1010780026E02D212046FFF7D4FED5E9026700239C
:1010880006AD05F8033D304639460A22002313F021
:10109800D1F8303205F8012D0023304639460A22AE
:1010A80013F0C8F806460F4656EA0703EBD129465F
:1010B80006E0D0E902231343044B054908BF19464B
:1010C8002046FFF7B7FE07B0F0BD00BF0F51090873
:1010D8000A51090870B50C4605467B212046FFF7E2
:1010E800A0FE6D68ADB12E46204656F8081FFFF7E2
:1010F800B3FE3A212046FFF794FE214606F1080088
:10110800FFF780FF2D6825B12C212046FFF789FEC7
:10111800E8E77D212046FFF784FE70BD2DE9F04FFA
:101128008F4D904C8FB0286810F09EFD206810F00D
:101138009BFD8D4B186810F097FD8C4B01951A7824
:101148000294002A00F002810124894E894D3768F3
:1011580029463846FFF76EF820B93846FFF780F879
:1011680030B1856004230374E2B20023C0E906238A
:10117800814B1A781D46BAB1DFF81C927F4FDFF811
:101188001C820024D9F800309C420BDA3868FFF73B
:101198001FF8242202FB048221463868FFF73AF838
:1011A8000134EFE700232B70704B1A789B46002A16
:1011B80038D0DFF8ECA1DFF8DC810025DAF8003060
:1011C8009D422CDAD8F80000FFF702F82B46D8F831
:1011D80000206B4854680068A900F4B113B1246872
:1011E800013BFAE74758002F00F0B78013683846EC
:1011F800039313F056FB039B00F101091A68494653
:10120800126818469047039038B14A46394613F099
:10121800FAFA0222039B227223610135CEE70023EA
:101228008BF80030574B1A781D46B2B1DFF874912D
:10123800554FDFF874810024D9F800309C420ADA4F
:101248003868FEF7C5FF08EBC40221463868FEF788
:10125800E1FF0134F0E700232B70DFF850A14FF0D5
:101268000208DAF8000010F0FFFCB8F1000F14BF14
:10127800A0228022002405AB0BAD07AF09A9306876
:10128800079303938DF82020DFF824B109950C9774
:101298008DF82C408DF834400A94FFF71DFDDDF8D9
:1012A8002890DBF8000009F1010110F0E5FE326832
:1012B80000EB0901039B4FEA0818CBF800000591E1
:1012C800069009A9047048F080081046079309950C
:1012D8008DF820800C978DF82C408DF834400A94B6
:1012E800FFF7F8FE294BDBF800202949186810F0B1
:1012F800DDF9DAF8000010F0C7FC204D2146286817
:101308000134FEF72BFF1E2CF8D1224D0024214674
:1013180028680134FEF722FF1E2CF8D11A4D00244C
:10132800214628680134FEF719FF1E2CF8D1019BCD
:10133800186810F0A9FC029B186810F0A5FC0A4B6D
:10134800186810F0A1FC0FB0BDE8F08F002A7FF4F8
:10135800FBAE141C18BF0124F7E6022222725BE7D9
:10136800D4290020382B00200C2B0020E029002055
:101378000406002015510908082B0020100600203B
:10138800042B0020E42A0020FC050020342B002038
:101398001F5109081C060020782F00203C2B002034
:1013A800E4290020E8290020F0290020D029002085
:1013B800002B002008B510F08FFB0021012010F051
:1013C800F3FD032010F0E0FD0FF0A8FF10F004FC7F
:1013D800074B084A18600848084B0949036000236E
:1013E80083604FF48073C360BDE8084011F002BF0A
:1013F8000C060020880500202406002098500908C3
:10140800BD00080810F068BB70B50546044600F139
:10141800700620460349103411F0C9F9B442F8D1D6
:10142800284670BD0058090810F056BB10F054BB90
:1014380038B504460D46FFF7E7FF0023C4F8F4303B
:10144800256784F8F830204638BD10F045BB30B524
:101458000224017083700621F523C47504244270A8
:10146800C380012200230172017680F82040032105
:101478000724027142748274C274027582754276BE
:101488008276C276C27780F8214043728372C37233
:10149800037343738373C373037401774377837749
:1014A80080F82230044680F8231080F8272002466E
:1014B80080F8241080F8253080F82630002501397E
:1014C800E563A564656502F10202A2F85E30A2F840
:1014D8006430A2F86A3004F10404F0D14FF000033C
:1014E80080F8803030BD10B51E236B220121FFF734
:1014F800AEFF10BD10B50446C08812F0F3FC4FF0E3
:10150800605112F047FD606710BD10B50446C07DFC
:1015180012F0E8FC4FF0605112F03CFDA06710BDDE
:1015280090F82030043B0C2B14D8DFE803F00713A5
:1015380013130A1313130D1313131000064B1B6810
:1015480007E0054B5B6804E0034B9B6801E0024B36
:10155800DB68C367704700BF90040020C388F52B81
:1015680007D0B3F5FA7F04D0B3F5FA6F1CBFF523A3
:10157800C380C27D102A03D8084BD340DA0701D4B0
:101588000223C37590F82020102A03D8044BD340B7
:10159800DB0702D4042380F82030704714010100CF
:1015A8001011010010B50446012190F8730011F0E4
:1015B80091FD94F87300012111F09DFD94F87200DB
:1015C800012111F087FD94F872000A4C012111F0F5
:1015D80092FD204610F0ACFD2046082110F000FED8
:1015E8002046012110F0AFFD2046BDE81040002143
:1015F80010F0ACBDE03A0020F8B50C4617461E4680
:10160800094D2046002111F076FD07F03F012846DC
:1016180010F0FAFD3146284610F0F6FD2046BDE8E8
:10162800F840012111F067BDE03A0020F8B51E46E8
:1016380090F8723002F03F028B429DF8187042F029
:10164800800503D1012F88BF45F040058CB22046A4
:10165800002111F050FD2946094810F0D5FD354606
:10166800AB1B9F4206DD0021054810F0CDFD05F8B3
:10167800010BF5E72046012111F03DFD0120F8BDE1
:10168800E03A00201FB5012300930DF10F03FFF787
:10169800CDFF9DF80F0005B05DF804FB08B511F00B
:1016A80089FDBDE8084011F0CFBC70B50E4615465F
:1016B8001C4611F07FFD314611F0D8FC11F07AFD7F
:1016C800036829469B68984711F074FD0368214612
:1016D8009A68904711F06EFDBDE8704011F0CEBCDD
:1016E8001346027810B4012A05D10A4610BC90F8B6
:1016F8007310FFF7DABF2AB90A4610BC90F87310C6
:10170800FFF77ABF10BC704710B50379044613B1D0
:10171800037A5B01DBB2E288B2F5FA7F05D0B2F555
:10172800FA6F04D143F0180301E043F00803627A2A
:10173800102102F003021A432046FFF7D1FF0022CE
:1017480011212046FFF7CCFFA37A002BE37A14BFC0
:10175800802200222BB1237B03F00F0343F04003C8
:101768001A4312212046FFF7BBFFE37C002BA37C22
:101778000CBF0022202213B142F01002D2B2637CC7
:101788000BB142F00802237D0BB142F002021E2188
:101798002046FFF7A5FF637B002BA37B0CBF00222D
:1017A800202213B142F01002D2B2E37B0BB142F017
:1017B80008022046BDE810401321FFF791BF10B57D
:1017C800C37E0446002B837E0CBF0022202213B167
:1017D80042F01002D2B2637E0BB142F008021F2120
:1017E8002046FFF77DFFA27D12B1227E5201D2B2C0
:1017F800E37D082B06D0102B07D0042B07D142F02D
:10180800100204E042F0180201E042F0080294F9E4
:101818001C302021002BA2BF03F003031A4342F01F
:1018280004022046FFF75CFF627F2AB1A27F5201C3
:1018380002F0600242F080022046BDE810402121FB
:10184800FFF74EBF1346027810B4012A05D10A46A5
:1018580010BC90F87210FFF728BF2AB90A4610BCCE
:1018680090F87210FFF7C8BE10BC704710B590F81A
:1018780022300446002B90F8233008BF00224FEA9C
:10188800431303F0600190F8213018BF80229B00B9
:1018980003F01C030B431A432021FFF7D3FF94F8EE
:1018A80020302046083BDBB2082B96BF124A0022A4
:1018B800D25C2121FFF7C6FF94F825302046002B83
:1018C80094F826300CBF0022202203F003031A43A9
:1018D8002221FFF7B7FF94F824202046920002F057
:1018E8000C022321FFF7AEFF2046BDE8104000227E
:1018F8002421FFF7A7BF00BF5051090838B50C468F
:10190800154611F057FC214611F0B0FB11F052FCBE
:10191800036829469B68984711F04CFC002111F098
:10192800A9FB11F047FC0122214611F09CFB11F0A4
:1019380041FC03685B699847C0B238BD0A46017824
:10194800012903D190F87310FFF7D8BF19B990F89F
:101958007310FFF797BE002070470A4601780129E7
:1019680003D190F87210FFF7C9BF19B990F8721037
:10197800FFF788BE704738B50446437880F873305F
:10198800837880F87230FFF7E9FDFFF7B3FD204652
:10199800FFF7C6FD2046FFF7B8FD2378012B03D1DA
:1019A8002046FFF77BFE03E013B92046FFF7FAFD58
:1019B8000F212046FFF7D1FF0F2105462046FFF7EC
:1019C800BDFF46F63D0345EA002005B29D420AD117
:1019D8002046FFF799FE2046FFF7F1FE2046FFF765
:1019E80045FF284638BD002038BD2DE9F041904616
:1019F8000C461D469DF8186010F0EEF8074611F0E9
:101A0800D9FB214611F032FB11F0D4FB036848F0F2
:101A180080019B68984711F0CDFB002111F02AFB4B
:101A280011F0C8FB2146324611F01DFB002407F5D2
:101A38007A77B4421ADA11F0BDFB03681B6998473C
:101A480040B111F0B7FB036804F101085B699847DE
:101A58002855444610F0C0F8B842EAD92C44FF2370
:101A6800621B964205DD04F8013BF9E70120BDE859
:101A7800F0810020BDE8F08137B50D4601780129D5
:101A880007D190F87310009313462A46FFF7ADFF6D
:101A980007E031B990F87310009313462A46FFF710
:101AA800C5FD03B030BD37B506236A462821044674
:101AB800FFF7E2FF30B39DF800309DF801109DF864
:101AC800032043EA01219DF802309DF8055043EABE
:101AD80002229DF8043009B243EA052394F88050A5
:101AE80012B21BB2E185228663865DB1B4F86650F6
:101AF800491BE185B4F86810521A2286B4F86A20A6
:101B08009B1A638603B030BD13B5022301AA1521C1
:101B18000446FFF7B1FF30B19DF805209DF8043069
:101B280043EA0223638702B010BD37B506236A462D
:101B380018210446FFF7A0FF30B39DF800309DF848
:101B480001109DF8032043EA01219DF802309DF819
:101B5800055043EA02229DF8043009B243EA0523FE
:101B680094F8805012B21BB221856285A3855DB1BD
:101B7800B4F86050491B2185B4F86210521A628586
:101B8800B4F864209B1AA38503B030BD37B50D4661
:101B98000178012907D190F87210009313462A465C
:101BA800FFF723FF07E031B990F87210009313464E
:101BB8002A46FFF73BFD03B030BD13B506236A463E
:101BC80028210446FFF7E2FFA0B19DF801209DF807
:101BD800003043EA0223A3869DF803209DF80230D3
:101BE80043EA0223E3869DF805209DF8043043EA82
:101BF8000223238702B010BD0FF06EBF0FF06CBF39
:101C080010B50446283000F0CBFC28B104F50D705F
:101C1800BDE8104000F0C4BC10BD0FF05DBF0FF070
:101C28005BBF0FF059BF0FF057BF03685B691847D8
:101C38000368DB68184710B5037904466BB10121C6
:101C4800407911F058FAFF212068FFF7EEFF20686D
:101C580003689B6898470023237110BD38B5057940
:101C6800044655B90068E17903685B6898472946D6
:101C7800607911F040FA0123237138BDF8B50446A4
:101C88000D4616460FF0A8FF07462068FFF7D0FF5D
:101C9800FF28207207D10FF09FFFC01BB0F5967F79
:101CA800F3D911230CE0FE2801D00F2308E02068A7
:101CB8003246036829461B699847207230B11C23B5
:101CC8002046A371FFF7B7FF0020F8BD2068FFF793
:101CD800AFFF2068FFF7ACFF0120F8BD70B50646DE
:101CE8000C460FF079FF05463068FFF7A1FFFF2883
:101CF80006D00FF071FF401BA042F5D3002070BD45
:101D0800012070BDF7B5037904460D4601920BB961
:101D1800FFF7A4FF4FF416712046FFF7DFFF45F0E9
:101D280040012068FFF781FF0DF107060DF1030759
:101D380016F801192068FFF778FFBE42F8D1002D88
:101D48000CBF952187212068FFF76FFF0C2D02D16A
:101D58002068FFF76DFF00252068FFF769FF03067D
:101D6800207203D50135B5F5807FF5D103B0F0BDFC
:101D780038B5437A1546032B18BF49020A46112184
:101D88000446FFF7BFFF10B10423A3710BE02946F7
:101D98004FF400722046FFF771FF054618B1204640
:101DA800FFF749FF03E02046FFF745FF00252846D7
:101DB80038BD10B5437A0A46032B18BF4A021221D0
:101DC8000446FFF79FFF30B105232046A371FFF7B4
:101DD80032FF002010BD012010BD10B500220C21DB
:101DE8000446FFF78FFF30B103232046A371FFF7A6
:101DF80022FF002010BD2046FFF71DFF012010BD67
:101E0800F8B5054616461F46FFF7D3FF98B10024DC
:101E1800A3B29F4206EB442108D94FF4007228462A
:101E2800FFF72CFF01340028F2D104E02846BDE872
:101E3800F840FFF7D2BF0020F8BD38B50446154674
:101E48000068FFF7F2FE20684FF400720368294625
:101E58009B699847FF212068FFF7E7FEFF2120686C
:101E6800FFF7E3FE2068FFF7E3FE207200F01F0093
:101E7800052806D013232046A371FFF7DCFE0020B7
:101E880038BD012038BD38B5437A1546032B18BF35
:101E980049020A4618210446FFF734FF10B1062309
:101EA800A3710AE02A46FE212046FFF7C6FF054631
:101EB80018B12046FFF7BFFE03E02046FFF7BBFE40
:101EC8000025284638BD70B504460D460679FFF74B
:101ED800C5FE4FF416712046FFF700FF10B917230F
:101EE800A3710BE02A46FC212046FFF7A6FF054612
:101EF80020B13EB92046FFF79EFE03E02046FFF7DB
:101F08009AFE0025284670BD70B5044616460D4653
:101F180000223721FFF7F6FE324617212046FFF749
:101F2800F1FE08B109230AE0637A1921032B18BFCF
:101F38006D022A462046FFF7E5FE30B1072320460A
:101F4800A371FFF778FE002070BD012070BD38B581
:101F58000446FFF783FE4FF416712046FFF7BEFED6
:101F680070B1FD212068FFF760FE4FF4167120461E
:101F7800FFF7B4FE054618B12046FFF75CFE05E002
:101F88001223A3712046FFF756FE0025284638BDC8
:101F9800F8B517461A4605461E46FFF7B5FF70B155
:101FA8000024B44207EB4421284604D0FFF78BFFF6
:101FB80028B10134F5E7BDE8F840FFF7C8BF284667
:101FC800FFF739FE0020F8BD0FF086BD014B012256
:101FD8001A70704740060020704700000279024BD3
:101FE80053F8220010F0A9B85C51090870B50646EC
:101FF8000C4603791A4D012155F8230010F0A3F877
:102008003379002155F8230010F0A0F8022C0CD9E0
:10201800042C0CD9082C0CD9102C0CD9202C0CD938
:10202800412C34BF2821302108E0002106E0082196
:1020380004E0102102E0182100E02021337955F84E
:10204800230010F0CDF8182303FB04F132793C2368
:1020580002FB011191FBF3F1024B196070BD00BF47
:102068005C510908440600200279034BFF2153F80C
:10207800220010F0C9B800BF5C5109080279024B70
:1020880053F8220010F0C0B85C51090873B50C4B26
:1020980006790C4800250C4C009350F8260013468E
:1020A8000A462946257010F0B5F82378002BFCD095
:1020B800064B186808B10FF087FD002002B070BD0C
:1020C800D51F08085C510908400600204406002076
:1020D80073B50D4B06790D4800250D4C009350F84B
:1020E800260013462A46257010F094F82378002B12
:1020F800FCD0084B186820B102B0BDE870400FF062
:1021080063BD02B070BD00BFD51F08085C51090847
:1021180040060020440600200FF0DEBC837800F162
:10212800100263F07F0383700169806800F0E2BAEF
:1021380010B5044680680A462830A16900F057FAAD
:1021480020B1A38803F00F0300EB431010BD2DE965
:10215800F74F03780446894615464BB18278D10774
:1021680006D50CE05A46216900F06BFA00283DDAE2
:1021780063784FF0FF3043F00203637098E01A076A
:1021880003D5E36962699B1A07E09A0608D5A36834
:102198001A896369C3EB42139BB29D4228BF1D464F
:1021A8002E464FF0000804F1100B002E35D022788F
:1021B800636912F0200FC3F3080AA0684FEA53219D
:1021C80002D0036A19441DE090F8058001EA080866
:1021D800BAF1000F10D1B8F1000F0DD1002BC1D109
:1021E80053064CBF036A236A236105E004D12378B0
:1021F80013F0700F11D1BBE72169A06800F01BFA3A
:1022080008EB0001A068BAF1000F35D1B6F5007FE0
:1022180032D3026B914202D12EE0A81B48E0B6F5FA
:10222800806F1BD32778C6F34723BF0606D40779E8
:10223800C8EB0707FFB2BB4228BF3B4691424FEAB3
:10224800432707D2A0680268D2F808A04A46D047B8
:1022580060B98DE71A44914221D3F3E703684A46EF
:102268001B689847002883D04FF400776369B94406
:102278003B446361F61B98E70022283000F0B7F969
:1022880000283FF475AFCAF50077B74228BF374634
:1022980000EB0A013A46484612F0B5FAE6E78DE83F
:1022A8000A00FFF7ADFC9DE80A000028CAD15FE7E5
:1022B80003B0BDE8F08F73B501220DF107010446A4
:1022C80046690569FFF743FF012809BF9DF8070024
:1022D8004FF0FF306661256102B070BD2DE9F04115
:1022E8000E46017804460769002939D04569B54288
:1022F8003AD00EB9066131E00B0703D5C3699E4297
:102308002ED807E0880605D5A3681B89B6EB431FBE
:1023180026D823E0D4F808E06A1E9EF8063003F1B8
:102328000900731EC240C3409A4200D84DB94A06FC
:102338004CBFDEF82020226A22611D4604F11008F5
:102348000AE09B1AF9E742462169A06800F079F98A
:10235800002805F1FF3503DD002DF4D1666103E0A7
:1023680027610020BDE8F0810120BDE8F081000070
:1023780038B5037804460BB9012038BD90F902300E
:10238800002B23DA0121FFF7D3FE054628B963782D
:10239800002043F00103637038BD0378E52BF6D0C5
:1023A80023781B0744BFE369C361238C4383638C91
:1023B8008382094B1B682BB100F11601183098472E
:1023C8002B8B6B82A37803F07F03A370A068FFF7C1
:1023D80017FC0028DBD0CFE7480600202DE9F0479E
:1023E800037804461D078946904608D583789907DF
:1023F80005D55B070BD5E169FFF770FF38B963783E
:102408004FF0FF3043F001036370BDE8F087636964
:10241800DB439845F3D847464FF0000A6369002F1D
:1024280000F08280A068C3F30806457915EA5325B1
:102438001CD1DEB9216971B104F1100200F001F973
:102448000028DCDB40F08E802046FFF767FE00287E
:1024580040F08880D3E7236A3BB92046FFF75EFE49
:102468000028CCD02369236200E023612169A06899
:1024780000F0E1F8291816B9B7F5007F21D2C6F5A2
:102488000075BD4228BF3D4636B96369E26993428B
:1024980034BF0122052200E00122A068283000F0A4
:1024A800A6F80028ABD030442A4649462E4412F0FC
:1024B800AAF9B6F5007F31D1A068283000F070F88D
:1024C80018E0B7F5806FA26816D31379106B5D1BFF
:1024D800EDB2C7F34723AB4228BF2B4681424FEAF0
:1024E800432502D31844814236D3A0680268D668CF
:1024F8004A46B04790B982E7136B994202BF4FF042
:10250800FF3382F828A01363A0684A4603685B6813
:10251800984700283FF473AF4FF400756369A944E6
:102528002B4463617F1B79E7E2699342A27801D962
:10253800E36102E00E4B1B6813B162F07F02A270E8
:10254800A3781A0702D44046BDE8F0872046FFF773
:102558000FFF0028F7D152E74FF0FF3082F828A08C
:102568001063C2E72169A06800F065F8014683E7B7
:10257800480600200FF0B0BA70B505460C4608466C
:1025880049B112F08EF92B68024621462846BDE86B
:102598007040DB68184770BD0FF09EBA0FF09CBA08
:1025A800F8B503780446DA071ED5406804F10C062E
:1025B800036832465B68A1689847054608B9002554
:1025C80013E023789B0704D4237823F001032370B6
:1025D8000BE06068A7680169036832465B683944A4
:1025E80098470028F0D1EAE701252846F8BD70B5DC
:1025F800836804468B420E46154614D0FFF7D0FF79
:1026080008B9002070BD6B0703D500232370A660AE
:1026180009E0606804F10C02036831461B689847BA
:102628000028F2D1EDE72046237805F003051D4385
:1026380000F80C5B70BD8379023940699940084401
:10264800704770B5C3790546202B0C46164612D143
:102658008169022201EBD41100F50D70FFF7C7FF65
:1026680010B94FF0FF3070BD04F07F0450F82430EB
:1026780023F070430FE0102BF3D18369C1F30721D6
:102688000222194400F50D70FFF7B1FF0028E8D0C9
:10269800E4B230F81430EA6993429ABF33600120FB
:1026A800002070BD38B5C3790C46202B15460FD1D4
:1026B8008169032201EBD41100F50D70FFF797FF34
:1026C80008B9002038BD04F07F0440F824500FE01A
:1026D800102BF6D18369C1F307210322194400F5B1
:1026E8000D70FFF784FF0028EBD0E4B220F81450F7
:1026F800012038BD2DE9F341054690460F4609B93A
:10270800C66800E00E463446EB6901349C4288BF37
:10271800022401AA21462846FFF793FF00280DDB73
:1027280001D0019B13B1B442EED107E06FF07042C3
:1027380021462846FFF7B6FF064608B9002610E0EE
:1027480037B1224639462846FFF7ACFF08B9F5E706
:10275800EC606B6A002BA4BF03F1FF336B62C8F80F
:102768000040304602B0BDE8F0810FF0B5B90FF077
:10277800B3B9704770B505460C4616460FF0A0FF72
:1027880058B12146324628460FF088FF044638B132
:1027980028460FF0B2FD204670BD4FF0FF3070BDE7
:1027A800004870BD8097FFFF70B504460D46164679
:1027B8000FF086FF58B120460FF066FE28B132466A
:1027C800294620460FF02FFE18B9024870BD4FF079
:1027D800FF3070BD0097FFFF70B50E4615460C46DA
:1027E8002B1B3344032B04D90FF0E6F944F8040BF0
:1027F800F6E7AC0806EB84043544AC4204D00FF08D
:10280800DBF904F8010BF8E7002070BD00B5ADF264
:10281800044D0B46054A40F2FF31684606F094FA2B
:1028280000200DF2044D5DF804FB00BF00580908B4
:1028380038B50B4B8469054603607CB16368013B7E
:1028480063605BB9236820469B689847A368013B8F
:10285800A3601BB923682046DB689847284638BD23
:102868003888090810B50446FFF7E2FF2046FDF74F
:1028780014FC204610BD000038B5044600250FF0B2
:1028880091FEE561054904F138000FF090FF01233E
:10289800A56484F88236204638BD00BF0058090870
:1028A80038B504461D46059B0363002084F881065D
:1028B80084F88006606302B1A26419B104F138009B
:1028C8000FF0A2FF049BE0692365069BA4F84C5017
:1028D800A4F8543008B1FDF7E2FBB4F85400FDF752
:1028E800DAFBE06138BD00002DE9FF4104461746D8
:1028F80098460E4600250FF055FEE5610C4904F197
:1029080038000FF054FF012384F88236FF23029326
:102918000F2300932046A564CDF804803B462A4641
:102928003146FFF7BDFF204604B0BDE8F08100BF87
:1029380000580908F0B50D4602339BB26C1A15F819
:10294800016BA4B23EB1B0F854709F4203D95C1C2D
:10295800D654A3B2F2E7191B0A44211202F8021C4A
:1029680002F8014C1846F0BD10B590F8814614B92C
:102978000FF094FE03E000F5347008F04DFF80B2CC
:1029880010BDF7B507468E461E461D46002405F0C5
:102998007F0302A9ED09214418BF43F080030134E5
:1029A80001F8043CE4B2002DF1D1C4F10403D118BC
:1029B80002F803E0A54206DA01A82B1B285C1344A1
:1029C80058710135F6E7721C22443846FFF7CCFFF0
:1029D80005460FF001F901347862A019431B5842EB
:1029E800584103B0F0BD38B50446C369E0221A70F7
:1029F800C36900255D700222C169FFF7B5FF94F82D
:102A08008136BBB104F57A7084F8805684F8815613
:102A180007F0D1F804F21C5007F0CDF804F5CA60AD
:102A28000AF097FE04F5617009F0E6F804F53470D1
:102A380009F04EF820460FF065FD0FF0CDF8606202
:102A4800A06238BD37B590F8813604464BB92046A8
:102A58000FF01AFD0028FAD020460FF0BCFCC0B2D7
:102A680017E090F880369BB100F5347501220DF11E
:102A78000701284608F04AFE002806DA10F5D24F6A
:102A8800F4D02046FFF7AFFF02E09DF8070000E012
:102A9800FF2003B030BD2DE9F0470546C4698A46DA
:102AA800FFF7D0FF4FF0010846462070EB6900277A
:102AB80093F8009009F0F0092846FFF7C3FFEB6987
:102AC800741C985500F07F0303FB08770306A4B233
:102AD800BFB24FEAC81801D52646EDE7631EB9F123
:102AE800300F8AF8003013D12846D5F81C80FFF73C
:102AF800A9FF08F804002846D5F81C80FFF7A2FFB4
:102B0800F41C0236B6B2A4B208F80600022300E0AC
:102B180000231B1B9EB2A3199BB29F420BD92846C8
:102B2800FFF790FFB5F85430A34284BFEB691855FE
:102B38000134A4B2EFE7B5F85400A0422CBF2046F8
:102B48000020BDE8F08710B504460FF0B9FD94F8F1
:102B580081361BB9003018BF012010BD94F88006DB
:102B680010BD2DE9F14F0D9E04468B4691469A46BD
:102B78009DF828809DF82C509DF83070FFF7E3FFF2
:102B8800002848D0E36900221A60E2690523594603
:102B98002046FFF7CFFE6B1E012B12D8238CE2696B
:102BA80001339BB223841B121354411CE369228C0A
:102BB80089B2023080B25A541EB1238C5A1C228426
:102BC8003380002291B283188A459BB209D9B4F8A0
:102BD800546001329E4204D919F80160E169CE546B
:102BE800F0E7B8F1000F0CBF302131210FB141F0EF
:102BF8000801022D02D141F0040103E0012D08BFB4
:102C080041F002012046053BE2699BB201B0BDE8F4
:102C1800F04FFFF7B6BE01B0BDE8F08F1FB5089CB6
:102C28000394002402949DF81C4001949DF81840D8
:102C38000094FFF796FF04B010BD7FB50546104617
:102C48000E46144611F02DFE0023029301930093C3
:102C58002246034631462846FFF7E0FF04B070BD20
:102C6800012A70B504460E46154620D8FFF76BFFBB
:102C7800E8B1238C01339BB203B901232384238C4D
:102C8800E2691B125371E369228C31469A71E26939
:102C980007232046FFF74EFEE36982211D54031FD8
:102CA800E2692046BDE870409BB2FFF76ABE00208B
:102CB80070BD0022FFF7D4BF10B50446FFF743FFED
:102CC80028B12046FFF78FFEE0690FF0CDF904F137
:102CD80038000FF025FD2046FFF7AAFD204610BD5D
:102CE80008B50FF0D1FB003018BF012008BD2DE951
:102CF800F04F83B000AF0446FFF725FF06460028D3
:102D080000F0BE800EF068FF226D4FF47A735343D3
:102D1800A26A0546821A9A4203D8626A821A9342C4
:102D280016D294F82C3023B12046FFF75CFE00261B
:102D3800A6E0E269C0211170E26920465370E1699A
:102D48000222FFF711FE01236562A56284F82C3088
:102D58002046FFF7C5FF8146002800F09180F91D45
:102D68002046FFF798FE0246002800F08880E169B7
:102D7800A562087800F0F003302B58D1D4F830B0B1
:102D8800BBF1000F7BD097F807E0EA4601EB0E0095
:102D98004678837803EB06239BB203F1080020F002
:102DA8000700ADEB000D684600261FFA86FC634558
:102DB80008D90EEB060C8C449CF803C000F806C03A
:102DC8000136F2E70026C65491F800800EF103069A
:102DD80008F00608B8F1020FCEEB020220D11E441B
:102DE80011F806C00EF1050E0E447678D21A734417
:102DF8001944053A06EB0C26D847E36940221A70B5
:102E0800E369B6B283F80180E36932129A70E36924
:102E18000422DE70E1692046FFF7A6FD656204E042
:102E2800033A1E44D21A3144D847D54627E000F069
:102E3800E005402D0DD1646B0CB3042A1FD110F0AE
:102E4800060F1CD18878CB7803EB002080B2A0470E
:102E580015E0702B13D0902B11D0C02B0AD1D023A2
:102E68000B70E36900225A70E16902222046FFF7DD
:102E78007BFD04E0D02B04BF002384F82C304E46A1
:102E880030460C37BD46BDE8F08F00002DE9F04F05
:102E98000546934600F561749946012385B080F88C
:102EA800813605F534762046039105F57A7A08F0DF
:102EB8005DFE304608F082FB05F21C57504606F0CE
:102EC80075FE05F5CA68384606F070FE40460AF0F9
:102ED8003BFC00223549204608F081FB5A460399FD
:102EE800504607F001FA00285DDBB9F1000F02D166
:102EF8000F9B5BB90CE00E9B002BF9D01A46494694
:102F0800384607F0F1F90028F2DA4CE0109B4BB98B
:102F180000231A461946204608F02CFE834600284E
:102F280041D109E000230093109A0F99404605F01B
:102F38003BF80028ECD036E003221146204608F082
:102F48009BFB5A461A49204608F043FB01212046BC
:102F580008F038FB5A461749204608F03DFB5A4608
:102F68005146204608F04FFBB9F1000F06D00F9BE1
:102F780023B142463946204608F042FB21463046F6
:102F880008F06CFD044668B90B4B0C4A05F5CB619B
:102F9800304608F02DFB0094094B0A4A2946304672
:102FA80008F020FB204605B0BDE8F08F7B27080815
:102FB80015280808E1270808F9710808EB710808BE
:102FC800B12708087D27080800B500F53470ADF56D
:102FD800017D08F056FB034638B1064A4FF40071EC
:102FE800684606F0CDF9002000E001200DF5017DCE
:102FF8005DF804FB9C51090870B5044600F5347669
:10300800D4F8D432102B05D030460DF03DF90546E2
:103018000028F5D015F5D24FF2D015F5D14FEFD0E5
:1030280004F57A7006F0C7FD04F21C5006F0C3FDE3
:1030380004F5CA600AF08DFBD4F8D432102B09D1FC
:1030480094F8823643B12046FFF7BEFF20B94FF00F
:10305800FF3070BD284670BD012384F880360020FB
:1030680070BD00002DE9F0438BB004468946174631
:103078001E46DDF84880FFF766FD0546002840F04B
:10308800E780A16C002938D10346B4F84C20A16B25
:1030980020460FF049F994F88136002B50D0A16BE7
:1030A80004F5347008F0B2FA2046FFF7A5FF0028AF
:1030B80040F0CA8001232384684B06AA596818681F
:1030C80003C2197A53F8090F11709A889B79ADF8E1
:1030D80014208DF816309DF85C300490042BE269BA
:1030E80031D10498531DC2F80500BDF814109DF89D
:1030F800162099809A710C232EE006A80FF012FE74
:103108002B46B4F84C2006A920460FF055FA94F83F
:103118008136ABB1A16CC8784B780A780190897870
:1031280006A800914E490EF0AFFF06A904F53470C9
:1031380008F06CFA2046FFF75FFFB0FA80F040090C
:103148000028B7D180E006AB03CBC2F80500C2F86F
:1031580009101B7853730E23B8F1000F0AD09DF89D
:1031680050209DF84C10520142F0060242EAC1027A
:10317800D2B200E002229DF8581009B902F0FD020F
:103188002FB116B942F0800201E042F0C002E169B5
:10319800581CCA54226DE16912120A54E169206D63
:1031A8009A1C88540333E26949462046FFF7C2FB5C
:1031B800B8F1000F0BD00346E26941462046FFF7FD
:1031C800B9FBE269034615992046FFF7B3FB67B1DF
:1031D8000346E26939462046FFF7ACFB2EB10346A9
:1031E800E26931462046FFF7A5FB431F9BB2E2691F
:1031F80010212046FFF7C5FB0EF0EEFC4FF47A775E
:103208006062A0622046FFF76BFD064658B90EF0D3
:10321800E3FCA36AC01A236D7B439842F2D9204687
:10322800FFF7E1FB0EE00DF10F012046FFF733FC3D
:10323800042809D1E369DF7837B90EF0CDFC84F8AA
:103248002C70A062354604E02046FFF7CCFB00E076
:10325800002528460BB0BDE8F08300BF8C51090853
:10326800A15109087FB50423059301230493002382
:1032780003930293019300931A46FFF7F3FE07B0F6
:103288005DF804FB0EF028BC6C22002111F0E1BAB5
:1032980038B100F16C020023904202D00370013073
:1032A800FAE7704708B56C2211F0ADFA08BD0000C6
:1032B800002303604360A1B9184B8360184BC360B7
:1032C800184B0361184B4361184B8361184BC3615A
:1032D800184B036203F17453A3F52303A3F6924337
:1032E80018E0154B8360154BC36003F1794303F570
:1032F800740303F501630361114B4361114B83614F
:1033080003F1D14303F5C01303F51E63C3610E4BEC
:1033180003620E4B436281660020704767E6096AC4
:1033280085AE67BB72F36E3C3AF54FA57F520E51DE
:103338008C68059BABD9831FD89E05C107D57C3601
:1033480039590EF7310BC0FFA78FF964A44FFABEA5
:103358002DE9F04F031DCFB005931A46002352F80C
:10336800040F06AC44F823000133082BF7D10846B4
:1033780000220EAC11F82250C378043043EA0563EA
:1033880010F8035C43EA054310F8025C43EA05239E
:1033980044F822300132102AECD10D9B9F4C009347
:1033A8000C9E099B089FDDF82CB0DDF81CE0DDF8C9
:1033B8002880DDF818900FAD04F1400A54F8040C89
:1033C8004FEAF82255F8041C86EA0B0C82EAB81278
:1033D800014482EA78620CEA080C8CEA060C0A447A
:1033E800009962444FEA79304EEA090C0A440CEA23
:1033F800070C0EEA090180EAB9004CEA010180EAEB
:10340800B950084413442968024420688BEA080C20
:1034180001440CEA030C4FEAF3208CEA0B0C0E442F
:1034280080EAB31006EB0C0180EA73600E1806EB15
:10343800070C42EA09004FEA723702EA090187EAF3
:10344800B20700EA0E0087EAB2570843384430440E
:103458006968666883EA08070E4407EA0C074FEABA
:10346800FC2187EA0807B34481EABC110BEB070685
:1034780081EA7C6106EB010B4FEA703742EA0001F2
:1034880002EA000687EAB00701EA090187EAB057AD
:1034980031433944AE68A7685944DE443E4483EA60
:1034A8000C0BB0440BEA0E0B4FEAFE268BEA030B1B
:1034B80086EABE16D84486EA7E6646444FEA713BE1
:1034C80040EA010800EA01078BEAB10B08EA0208A2
:1034D8008BEAB15B48EA0708D844B044B144E768CE
:1034E800EE688CEA0E0B37440BEA090B8BEA0C0BDF
:1034F8003B4403EB0B074FEAF92383EAB91383EA4A
:103508007963FE18931900934FEA783741EA080364
:1035180001EA080287EAB807034087EAB857134365
:103528003B4433442A6926694FEA733B3244944446
:10353800009A8EEA090616404FEAF22786EA0E0636
:1035480087EAB217B44487EA72670CEB070248EAC5
:10355800030786180F4008EA03008BEAB30B8BEACF
:10356800B35B07435F44174460696A6920341044B9
:10357800009A864489EA020C0CEA060C8CEA090CCB
:103588000EEB0C004FEAF62E8EEAB61E8EEA766E29
:1035980000EB0E024FEA773043EA070E01EB020B0D
:1035A8000EEA080E03EA070180EAB70080EAB7507E
:1035B8004EEA010E8644964454F8081CAA69A245AE
:1035C8001144009A894482EA060000EA0B0080EA66
:1035D800020009EB00014FEAFB2989EABB1989EAD5
:1035E8007B6901EB09024FEA7E3047EA0E0980EA5F
:1035F800BE0009EA030907EA0E0180EABE5049EA5B
:10360800010981449044914405F120057FF4D6AE28
:103618000022DFF80CA00EAC049203E0B4510908B4
:10362800B0510908A26B60684FEAF24585EA724515
:1036380085EA9225049A0DF1380C5CF82220616A1B
:103648004FEAB04C0A448CEAF01C4FEAF8218CEAA5
:10365800D00C81EAB811154405EB0C0281EA7865B3
:1036680086EA0B0101EA0801039281EA0602A91819
:10367800DAF840204EEA09050A4403993D402164DE
:103688000A4400990AF1200A0A44D3184FEA79310A
:10369800009381EAB9010EEA090381EAB9512B4383
:1036A8000B441A44E36BA5684FEAF34181EA73417E
:1036B80081EA9321A36A2034034419444FEAB543AD
:1036C80083EAF51383EAD50C01EB0C03DAF824003E
:1036D80000998BEA080C30440CEA010C8CEA0B0CBC
:1036E800C1188C44009963624FEAF12080EAB11056
:1036F80080EA716000EB0C01C81901904FEA723C36
:1037080042EA090002EA09078CEAB20C00EA0E0054
:103718008CEAB25C384360440844039954F8147C3A
:103728004FEAF14686EA714686EA9126E1684FEA51
:10373800B74C29440E448CEAF71C00998CEAD70C44
:10374800664481EA080C0199A6620CEA010CDAF8D1
:1037580028108CEA080C59448D190199AC44019D34
:103768004FEAF12181EAB51181EA756101EB0C0597
:1037780042EA00014FEA703C05EB0E0B8CEAB00CF4
:1037880002EA000E01EA09018CEAB05C41EA0E0186
:10379800614429444FEAF34585EA734585EA932352
:1037A800256954F810CC2F443B444FEABC4787EABC
:1037B800FC1787EADC0E03EB0E079DE828005D4046
:1037C80005EA0B055D40DAF82C304FEA713E984463
:1037D800B84445444FEAFB2888EABB1888EA7B6866
:1037E80008EB050303EB090540EA010802958EEA98
:1037F800B10E00EA010508EA02088EEAB15E48EA5D
:103808000508F04498444FEAF64E63698EEA764E0E
:1038180054F80C5C8EEA96260CEB030E019B76445A
:1038280083EA0B0C4FEAB54E029B8EEAF51E8EEA30
:10383800D5090CEA030C019B06EB090EDAF8306097
:103848008CEA030C009B76441E44029BB444029EFF
:103858004FEAF32383EAB61383EA766303EB0C0695
:103868009319009341EA080301EA0802034013434D
:103878004FEAF74282EA7742E7624FEA783C82EA07
:103888009727A2698CEAB80C54F8089C8CEAB85CB3
:103898001544029A634433442F448BEA02064FEAE4
:1038A800B945009A85EAF91585EAD9051640DAF886
:1038B80034203D44019F2A443A4486EA0B061644C4
:1038C800009AC4F830E04FEAF22787EAB21787EA8D
:1038D8007267BA1986184FEA733080EAB30048EA6B
:1038E800030780EAB35C0F4008EA03000743674414
:1038F80017444FEAFE4282EA7E4282EA9E2EE2693D
:1039080054F8040C91440EEB09024FEAB04989EAD5
:10391800F01989EAD0099144029A65639646009A9B
:10392800C4F838908EEA020CDAF838200CEA060C53
:103938008CEA0E0C4A444FEAF62E5A448EEAB61E1A
:1039480062448EEA766E72444FEA773C43EA070E89
:1039580001EB020B0EEA080E03EA07018CEAB70C2A
:103968008CEAB75C4EEA010EE64496444FEAF5420B
:10397800216882EA754282EA9525039A4FEAB14C9A
:1039880010448CEAF11CDAF83C2005448CEAD10199
:103998000D4402992A4402EB0109009A4FEA7E304D
:1039A80082EA060101EA0B0151404FEAFB2282EA52
:1039B800BB12894482EA7B624A4447EA0E0980EADC
:1039C800BE0009EA030907EA0E0180EABE5049EA87
:1039D8000109814490449144049AE5630832302AED
:1039E80004927FF41FAE009A09930D92CDF82880B7
:1039F800CDF82CB00C96CDF81890CDF81CE00897AF
:103A08000023059A52F8041F059206AA52F82320AB
:103A180001330A440599082B0A60F2D100204FB0FF
:103A2800BDE8F08F2DE9F04104460E46154682B3F5
:103A3800036803F03F0013449A42236082BF63681F
:103A48000133636080B1C0F14007BA421BD304F16F
:103A580028083A46404410F0D6FE41462046FFF773
:103A680077FCB8B93E44ED1B2F46E91B3F2F314484
:103A780005D92046FFF76CFC60B9403FF5E747B130
:103A88003D460E46002028342A463146204410F090
:103A9800BAFE0020BDE8F08170B5044603688022B4
:103AA80003F03F03581C382823440D4683F8282088
:103AB80004F1280604D8C0F13802002130440EE091
:103AC800C0F140020021304410F0C3FE31462046C8
:103AD800FFF73EFC002875D101463046382210F029
:103AE800B8FE236861685A0F42EAC102110EDB0072
:103AF80084F86010110C84F8611084F86320110AAE
:103B08001A0E84F864201A0C84F865201A0A84F8BE
:103B1800621084F8673084F8662031462046FFF743
:103B280017FC034600284CD1E27A2A7062896A7031
:103B3800A268120AAA70A268EA70E27B2A71E28976
:103B48006A71E268120AAA71E268EA71E27C2A7272
:103B5800628A6A722269120AAA722269EA72E27D8C
:103B68002A73E28A6A736269120AAA736269EA733B
:103B7800E27E2A74628B6A74A269120AAA74A26924
:103B8800EA74E27F2A75E28B6A75E269120AAA75FD
:103B9800E269EA7594F823202A76628C6A76226AAA
:103BA800120AAA76226AEA76A06E50B994F82730EB
:103BB8002B77E38C6B77636A1B0AAB77636AEB77C7
:103BC80070BD184670BDF0B51F469DB0054601A8EA
:103BD8000E461446FFF758FB394601A8FFF768FB65
:103BE800014658B92946324601A8FFF71BFF01468E
:103BF80020B9214601A8FFF74FFF014601A8FFF7AA
:103C080047FB08461DB0F0BD2DE9F04F0446A5B0AE
:103C1800006801930F469346309E04F0D9FF814611
:103C28000023039301238DF80F300DF15008002E67
:103C38005CD05A463946204604F008FF002856D181
:103C48002E9A0199204604F061FF00284FD10422E2
:103C580003A9204604F05AFF002848D141462046CF
:103C680004F064FF002842D104AD4A464146284684
:103C780010F0C9FD4FF0010A2F9B9A451DD25A46F4
:103C88003946204604F0E2FE88BB4A4629462046CB
:103C980004F03CFF58BB2946204604F047FF30BBE0
:103CA800484507DA10F80820435D534000F808300B
:103CB8000130F5E70AF1010ADEE74E45354628BF2F
:103CC8004D4641462A46319810F09DFD319B761BA2
:103CD8002B44319304AA12F8013D0133DBB213706F
:103CE800002BA4D103AB9342F5D1A0E7304625B011
:103CF800BDE8F08F2DE9F0431F46BDB000230693C1
:103D080007930993446883684FF0040908931C4497
:103D180003680D46302B16468DF8169040F0C98082
:103D280010AB0AAA214608A800F065FD002858D162
:103D38000B9A092A4CD10C99614810F055FD0028BE
:103D480046D1129B119A249303EB0208109B302B47
:103D580040F0AF804B4617AA414624A800F072FCF9
:103D6800F8B9249A179B18921344414606AA24A826
:103D7800249300F094FCA0B9249B984522D007AA6C
:103D8800414624A800F08BFC10B110F1620F08D155
:103D9800249B984516D02CAA414624A800F073FD10
:103DA80028B1A0F53C50002840F086800AE00DF1CB
:103DB80016012CA802F00CF950B9249B984501D0A3
:103DC800404879E09DF8160004F0BEFD814608B928
:103DD8003D4871E013AB0DAA214608A800F00BFD81
:103DE80010B1A0F53C5067E00DF117010DA802F0E5
:103DF800C1F80028ECD19DF8170000F049F9804679
:103E08000028E5D04368DB080793139B042B52D1A5
:103E1800C368149A9A424ED119A804F0A1FD2CA89F
:103E280000F058F9149A159924A810F0ECFC012216
:103E3800494619A804F0BAFD0446002831D1079B69
:103E48000DF170090293069BCDF80C900193179B16
:103E58003A4600933146189B19A8FFF7D5FE044649
:103E6800F8B941462CA800F009FB0446C8B9079ADE
:103E78006BB2D20049462CA800F042F9044680B93A
:103E880009AB0293469B149A0193459B24A900937E
:103E98002CA8449B00F010FBA4F53854002808BF58
:103EA800002419A804F061FD2CA800F017F9204699
:103EB80002E0064800E006483DB0BDE8F08300BFD8
:103EC800B05209089AD0FFFF80D1FFFF9ED0FFFFB4
:103ED80000D1FFFF10B1006800B14069704710B50C
:103EE800891A0024E3B2994204F1010402D9034477
:103EF8009954F7E710BD0000F0B500B3FAB14318C4
:103F080013F8014CB4FA84F35B09A14238BF43F0BB
:103F180001030F1B176000228A420BD0855CBA424E
:103F280084EA050634BF0025012575432B43DBB21F
:103F38000132F1E7002B034808BF0020F0BD02481A
:103F4800F0BD00BF009EFFFF009FFFFF802330B53C
:103F58008354891A01230025994204D9C4180133CE
:103F6800A554DBB2F8E730BD70B501238D1A0026E1
:103F78009D4206D9C4181444013304F8016CDBB21D
:103F8800F6E7014401F8015C70BD000070B5F0B1BE
:103F9800EAB14E1E845DB4FA84F30D1B5B09A1429D
:103FA8002CBF194643F0010115600023B34209D222
:103FB800AB42C45C34BF0022012262431143C9B240
:103FC8000133F3E70029034808BF002070BD024809
:103FD80070BD00BF009EFFFF009FFFFF10B50244A9
:103FE8000023141AA14202D902F8013BF9E710BDD7
:103FF80018B112B11160002070470148704700BF26
:10400800009FFFFFF0B5F0B1EAB100231360084448
:10401800802499B110F8015D0139002D0CBF1D46AF
:1040280043F001056B4001FB03F617683E43166039
:10403800067873435C40E4B22B46EAE7002C034859
:1040480008BF0020F0BD0248F0BD00BF009EFFFF82
:10405800009FFFFF30B5A8B1A2B10023136001444F
:104068008142A1EB00040FD011F8015D002D0CBFB7
:104078001D4643F001056B406343146823431360F6
:104088002B46EDE7014830BD002030BD009FFFFF03
:10409800054B53F8042C22B1083313F8101C814245
:1040A800F7D11046704700BFC460090830B5084C06
:1040B80063685BB19D692D78854205D15D688D4245
:1040C80002D15D78954201D00834F1E7184630BD39
:1040D800BC6009084022002110F0BBBB10B50446A3
:1040E80068B1C06B18B123689B699B69984704F154
:1040F80040020023944202D023700134FAE710BD35
:1041080030B4C8B10468BCB12569AD0702D465688C
:10411800954211D1012B4260037204D06578032DBA
:1041280001D0052D02D1A369DB6802E023B9A36998
:104138001B69C06B30BC1847014830BC704700BFD2
:10414800009FFFFF38B50446B0B10368A3B199B129
:10415800102A0FD81869C00703D4DD68AA4201D213
:104168000AE015462A4604F1280010F04CFBA56326
:10417800002038BD014838BD014838BD809FFFFF89
:10418800009FFFFF28B103681BB100234362184654
:1041980070470148704700BF009FFFFF2DE9F74FA8
:1041A800DDF830800F4615469946044608B95C4844
:1041B800B2E00368002BFAD0B8F1000FF7D0002363
:1041C800C8F80030FFF786FE236806465B78012BA7
:1041D80010D190427DD1C8F8000023680A469B6937
:1041E80094F908105D684B46AC46E06B03B0BDE837
:1041F800F04F6047062B0AD1C8F800204B460A4604
:104208002946E06B03B0BDE8F04F04F0BBB90028C5
:1042180061D0494508D1626A002AC8D1B5FBF0F2DD
:1042280000FB1252002AC2D1022B56D194F9083051
:10423800606A2BB9E3682BB1331A9D420FD804E0AA
:10424800012B0CD1331A9D4209D220442A46394603
:10425800143010F0D8FA636A1D44656237E010B371
:10426800C0EB060A204452463946143010F0CBFA07
:10427800234653F8142B94F9081092698DE8080224
:1042880004F12803D2F808B0E06B3246D84700287A
:1042980042D1D8F80030B1443344C8F8003057440C
:1042A8006062CAEB050595B1B5FBF6FA06FB1A5A2A
:1042B800BAF1000F13D0CAEB05055246791904F17B
:1042C800140010F0A0FA636A5344636295B90020A1
:1042D80022E0144820E014481EE014481CE094F939
:1042E8000830002BE7D1E368002B0CBF4FF0000A21
:1042F800B246E0E7236894F908109B698DE88002CC
:104308002A469E68E06B04F12803B04720B9D8F824
:1043180000301D44C8F8005003B0BDE8F08F00BF5E
:10432800009FFFFF809DFFFF809CFFFF809FFFFF96
:10433800F7B50E4615460446002852D00368002BF0
:104348004FD0002A4DD00023136007687A78032ADB
:104358004DD0511F02294AD9012A01D1636A16E0BA
:10436800022A40D190F90830012B09D1C368002BEB
:10437800F4D0A16B143001B9F968626A98470BE070
:10438800FFF7A8FD636A984206D0E2686ABB002B73
:10439800184808BF00202BE02046FFF79BFD234666
:1043A80053F8142B94F9081092698DE8480004F129
:1043B800280397680246E06BB8470346B8B994F9F2
:1043C800082020464AB9FFF785FD2A4601463046AF
:1043D800236903B0BDE8F0401847FFF77BFD28606C
:1043E80005E0054804E0054802E0024800E01846F8
:1043F80003B0F0BD809DFFFF009FFFFF809FFFFF80
:1044080008B303685B78022B1DD104291DD8DFE8A7
:1044180001F003070D1115000D4BC3600D4B02E0B1
:104428000D4BC3600D4B0361002070470C4BC360FC
:104438000C4BF8E70C4BC3600C4BF4E70C4A002319
:10444800C3600261F0E70B4870470B48704700BF34
:10445800E73E0808013F0808553F08080D400808CE
:10446800713F0808953F0808E53F08085D400808BF
:10447800F93F0808009FFFFF809FFFFF38B50446FB
:104488000D4681B178B14022002110F0E2F9AB6904
:104498005B699847E06340B1256000212046FFF73B
:1044A800AFFF002038BD024838BD024838BD00BF04
:1044B800009FFFFF809EFFFFF0B585B005461F46B1
:1044C8000B9E0C9CFFF73EFEB0B92846FFF75AFE3C
:1044D80090B9009433460A9A39462846FFF75EFE9B
:1044E80050B9216803AA31442846FFF721FF18B9BB
:1044F8002268039B1344236005B0F0BD2DE9F04307
:10450800076814467F78079D062F089E099ADDF8EC
:1045180028E0DDF82C90DDF83080DDF834C012D1C9
:10452800C9F800200893CDF83480CDF830C0CDF814
:104538002CE00A96099507940B46BDE8F043012143
:10454800C06B04F00AB90148BDE8F083809FFFFF03
:1045580030B5056887B06D780C46062D0C9917D1D3
:104568000E9D29600D9D05950B9D0495109D039545
:104578000F9D02950A9D8DE828001346C06B2246C0
:1045880004F010F9044B10F1120F08BF184600E0B0
:10459800024807B030BD00BF009DFFFF809FFFFFAE
:1045A80030B50368CD1A002D02DC6FF05F0030BD16
:1045B8001C7814F0800F04D15C1C04601B78136015
:1045C80036E004F07F04013C032C38D8DFE804F01F
:1045D80002091320012DE8D05B78136003680233C9
:1045E80025E0022DE1DD5C789B7843EA0423136023
:1045F800036803331BE0032DD7DD9C785D78240224
:10460800DB7844EA05441C431460036804330EE075
:10461800042DCADD9C785D78240444EA05651C797C
:10462800DB782C4344EA03231360036805330360F3
:104638000368C91A13688B42B7D8002030BD6FF0E1
:10464800630030BD70B404680E1B002E07DD2678A9
:104658009E4207D10134046070BCFFF7A1BF6FF020
:104668005F0001E06FF0610070BC704737B501234F
:10467800154601AA0446FFF7E5FF70B9019B012B17
:1046880009D123681B78003318BF01232B602368E6
:104698000133236001E06FF0630003B030BD37B52C
:1046A8000223154601AA0446FFF7CCFFC8B9019BAF
:1046B800013B032B13D8236893F90030002B0EDB42
:1046C80028600198431E019358B123682A681B7813
:1046D80043EA02232B60236801332360F1E76FF07C
:1046E800630003B030BD37B50223154601AA04465E
:1046F800FFF7A8FF40B9019A2168284607F0A7FEEE
:104708002268019B1344236003B030BD70B50323B6
:1047180004460E461546FFF795FFD8B91368A3B1AE
:10472800013B136023681B78072B137110D823688B
:1047380001332360936022682B6813449E422360F0
:1047480014BF6FF06500002070BD6FF05F0070BD92
:104758006FF0630070BD38B5032304461546FFF7B4
:1047680071FF58B913685A1E012B2A6004D92368AF
:104778005A1C2260187808B16FF0670038BD2DE91F
:10478800F34115461F4601AA302304460E46FFF79B
:1047980059FF68BB2268019B13449E421DD06FF0ED
:1047A800650025E023689E421AD91B7842462B6093
:1047B80031463B462046FFF745FFC8B92368AB6042
:1047C80022686B6813449E422360EBD910210120B4
:1047D8000FF0FCFEE86048B1054605F10408E1E782
:1047E8000020E86023689E4202D0D8E76FF0690095
:1047F80002B0BDE8F081F7B517461D4601AA30237F
:1048080004460E46FFF71EFF00283AD12368F61A21
:10481800002E31DD3A461B78204642F8043B2668D4
:10482800019B1E4431460623FFF70CFF48BB236853
:10483800BB6022687B68D1188E42216006D105F1E1
:104848000C039D4216D028700135FAE7D35C2A463E
:1048580042F8043B23683146013323602046FFF7C2
:104868009FFE70B92368AB6022686B6813449E4250
:10487800236004D1002004E06FF05F0001E06FF0D6
:10488800650003B0F0BD1FB50023019302930393A5
:1048980001ABFFF7B0FF60B9019B052B00D033B91E
:1048A800029B002B14BF6FF06700002001E06FF03F
:1048B800670005B05DF804FB01F0EEBB01F0CCBB6E
:1048C80010B5044601F0BEFB2046BDE810400DF0CF
:1048D800CBBB10B55C2101200FF078FE044608B16F
:1048E80001F0ACFB204610BD02F0C2BB02F086BB53
:1048F80001F0B8BBFEF72CBDFEF7D4BC10B50446DA
:10490800FEF7C6FC2046BDE810400DF0ADBB10B563
:104918006C2101200FF05AFE044608B1FEF7B4FCE2
:10492800204610BD0123FFF74EB90023FFF74BB90E
:10493800FFF7B2B8FFF776B80121FEF7B9BC00213E
:10494800FEF7B6BC0AF028B90AF084B810B50446D8
:104958000AF076F82046BDE810400DF085BB10B58A
:10496800D82101200FF032FE044608B10AF064F89D
:10497800204610BD01230BF0CAB800230BF0C7B8BE
:104988000AF092BF0AF048BF01210AF069B8002175
:104998000AF066B801440023884202D0037001304F
:1049A800FAE770472DE9F04F95B01E9D04AE074613
:1049B8000C46914600214022304601930DF15008E3
:1049C8000FF047FF0023286848F8443D04F000F939
:1049D80082467CB354452846A34628BFD34604F0F4
:1049E80007F8024638BB019A4946284604F00AF8F7
:1049F800024600BB04224146284604F003F802465A
:104A0800C8B93146284604F007F8024698B93B462B
:104A18005A4507D013F8010BB15C0132414003F845
:104A2800011CF5E79DF80F30174401338DF80F305E
:104A3800A41ACEE7224630464021FFF7ABFF1046C6
:104A480015B0BDE8F08F00002DE9F3471D4600239F
:104A58000E469146DDF8288000930193044628B35A
:104A680003F072FF0646002863D020466A4601A973
:104A780001F09AFA044600285BD1304604F0A8F801
:104A8800009F0646074407F108037F2B51D810F111
:104A98000A024ED207F10A039A424AD89D4248D3E5
:104AA800A5F10A03DF1B0A2F06D842E08D4240D346
:104AB8006D1A0A2D3DD93EE0C246033F0AF8024B63
:104AC80001233A4688F80130FF2150460FF0C1FE15
:104AD8000AEB070330210AF807405970009FD97084
:104AE80007F1080232449A70FAB2111D03F1070A5D
:104AF8001971062159719A7101993A4650460FF079
:104B080082FE05220AEB07030AF8072004229F18F1
:104B18009A70DE705C703246494638460FF073FE74
:104B28003E4408EB05039E4219D029464046FFF74C
:104B380031FF0D4C13E04346EF1E03F8020B012230
:104B480088F80120FF213A4618460FF082FE0346F6
:104B5800C455A81E3246494618440FF054FE204654
:104B680002B0BDE8F08700BF80BFFFFFF8B500F1D5
:104B780008054768044628460E4607F062FC874247
:104B880017D16368B3F5806F13D80021284607F062
:104B980029FE00280DDD0021284607F008FC40B159
:104BA800EEB104F12C050021284607F01BFE002871
:104BB80001DC1A48F8BD0021284607F0F8FB002858
:104BC800F7D004F138050021284607F00BFE00282D
:104BD800EFDD0021284607F0EAFB0028E9D0002194
:104BE80004F1140007F0FEFD0028E2DDA6B1002163
:104BF80004F1440007F0F6FD0028DADD002104F195
:104C0800500007F0EFFD0028D3DD002104F15C001F
:104C180007F0E8FD0028CCDD0020F8BD80BFFFFFCD
:104C28002DE9F843099F044698460B9E0D9D49B10E
:104C380000F10809484607F00AFC50BB484607F04F
:104C480000FC6060B8F1000F01D147B90EE0089A86
:104C5800414604F12C0007F0FAFBD0B9F5E70A9AAF
:104C6800394604F1380007F0F2FB90B936B10C9AD6
:104C7800314604F1200007F0EAFB50B935B10E9A2D
:104C8800294604F1140007F0E2FB10B90020BDE842
:104C9800F883A0F58140BDE8F88300002DE9F04FC6
:104CA80000F1080B87B007460021584607F09AFD27
:104CB80007F12C0900218046484607F093FD07F1CB
:104CC800380A05900021504607F08CFD07F12003B3
:104CD800002105461846029307F084FD07F11403E6
:104CE800049000211846039307F07CFD059B049A65
:104CF8004BB125B12AB1061C18BF012613E02E4678
:104D080011E016460FE0B8F1000F03D144464646BD
:104D1800002224E0CDB91AB1F0B9064604460EE0E7
:104D28002E462C460DE0ADB192B9041C18BF0124E3
:104D3800B8F1000FECD0002BEAD1002DE8D1002A01
:104D4800E6D10028E4D0012209E01C461E46DFE730
:104D58000024EDE72C46DBE701262C4602E0002E76
:104D68003DD0002604940124B8F1000F0BD153B1B3
:104D78004DB152464946584607F053FE28BB58469F
:104D880007F05FFB786046B1CDF800A04B46029A69
:104D9800039958460AF08CFF07E0049B33B1029B45
:104DA800039A514648460BF07FF870B984B107F171
:104DB8005C03019307F150030093029A07F144033F
:104DC800514648460BF014FA10B1A0F581400CE0AA
:104DD8002146384607B0BDE8F04FFFF7C7BE0CB90B
:104DE80012B126460494BFE7014807B0BDE8F08F2A
:104DF80080BFFFFF70B504460E4615460021AC2261
:104E08000FF027FDC4F8A460C4F8A85070BD40682E
:104E18007047000070B500210446FFF7A7FE05465D
:104E2800B8B904F10806304607F0EBFA7F2810D924
:104E380014342946204607F0BAFA50B1204607F044
:104E4800E0FA012805D93146204607F086FC0028FB
:104E580000DB014D284670BD00BEFFFFF0B585B0F0
:104E68000446FFF7D7FF28BB01212046FFF77EFE47
:104E780000BB04F1140304F12C0504F1380604F115
:104E8800200702900190009332463B46294604F1E0
:104E980008000BF0E7F868B904F15C03019304F12A
:104EA800500300933A4604F14403314628460BF078
:104EB80059F800B1014805B0F0BD00BF00BEFFFFC2
:104EC80038B505460C46FFF7A5FF50B92046FFF751
:104ED800C5FF30B904F1080105F1080007F03DFCF1
:104EE80008B1054838BD04F1140105F1140007F0B4
:104EF80034FC0028F5D138BD00BEFFFF2DE9F04194
:104F08000C4686B0002105461746FFF72FFE0646D9
:104F180078BB03A807F0BCF921466A6803A807F024
:104F280096FA0446F0B905F10804214603A807F0EB
:104F380014FC002814DA05F1680303A9009305F1AD
:104F4800140223460846D5F8048007F0D8FF044623
:104F580040B94246394603A807F0AEFA044601E0D4
:104F68006FF0030403A807F09AF91CB1A4F585466D
:104F780000E0024E304606B0BDE8F08180BFFFFF7A
:104F88002DE9F04F0E46A5B00121044692461D4674
:104F9800FFF7ECFD0390002840F09B8106A807F07E
:104FA80077F909A807F074F90CA807F071F90FA8A8
:104FB80007F06EF92EB118A807F06AF91BA807F0D8
:104FC80067F912A807F064F915A807F061F91EA897
:104FD80007F05EF921A807F05BF96268294606A880
:104FE80007F035FA0746002840F0508104F108051B
:104FF800294606A807F0B1FB002880F2438106A9DC
:105008001EA807F08EF90746002840F03F8104F1FA
:10501800500304F144090493002E00F0C580D4F82D
:10502800A03023B304F18C0842464146404607F0BD
:10503800F8FC0746002840F029812A4641464046A8
:1050480007F02BFF0746002840F0208104F198085C
:1050580042464146404607F0E4FC0746002840F037
:1050680015812A464146404607F017FF37E00C23D2
:10507800059304F1980B04F18C08059B013B0593FB
:1050880000F02A816168534632460139584608F0D3
:10509800DAF90746002840F0F9802A465946404682
:1050A80008F04CF90746002840F0F08001214046FE
:1050B80007F098FB0028E0D12A465946404608F0F8
:1050C800E5F90746002840F0E18004F16803009301
:1050D80004F114022B464146404607F010FF0746EC
:1050E800002840F0D38006A904F18C02084607F096
:1050F80098FC0746002840F0C98006A92A460846B9
:1051080007F0CBFE0746002840F0C080012204F1DA
:105118002C0109A807F06FFC0746002840F0B6806C
:10512800012204F138010CA807F065FC07460028A5
:1051380040F0AC80534632461C210FA808F083F992
:105148000746002840F0A2800FAA09A918A807F06E
:1051580068FC0746002840F0998018A94A46084686
:1051680007F0F0FB0746002840F09080534632468F
:105178001C210FA808F067F90746002840F0868030
:105188000FAA0CA91BA807F04CFC074600287DD1E4
:105198001BA9049A084607F0D5FB0746002875D1D5
:1051A8001BAB04930DF1600904F1740304F12C089E
:1051B80000934A46434606A912A807F0A0FE0746F0
:1051C800002863D104F1800304F138090093049A9C
:1051D8004B4606A915A807F092FE0746002855D1A8
:1051E80015AA12A906A807F0CEFB074600284DD13C
:1051F80004F15C0206A912A807F013FC0746002870
:1052080044D1424612A906A807F047FE07460028DF
:105218003CD14A4606A912A807F003FC0746002815
:1052280034D112AA15A906A807F08CFB074668BB5B
:1052380066B904F16803009304F114022B4606A929
:1052480021A807F05CFE074600BB0FE006A904F1A1
:105258009802084607F0E5FB0746B8B906A92A46AA
:10526800084607F01AFE074680B9E2E71EA921A8FA
:1052780007F073FA48B962682E9906A807F01CF976
:10528800074603E06FF0030700E0164F09A807F090
:1052980006F80CA807F003F80FA807F000F82EB1DD
:1052A80018A806F0FCFF1BA806F0F9FF06A806F0F0
:1052B800F6FF12A806F0F3FF15A806F0F0FF21A8E4
:1052C80006F0EDFF1EA806F0EAFF3FB1A7F58643FA
:1052D80000E0054B039301E0044FD7E7039825B09E
:1052E800BDE8F08F80BCFFFF80BFFFFF80BBFFFFE2
:1052F8002DE9F04F012B8BB080468B460392049327
:10530800169F189E05D1D0F8A430012B01D0404833
:105318007AE0BBF1000FFAD098F8A80003F014FB6C
:1053280002900028F3D0D8F8044003F051FC430061
:1053380005934200BB1C13449F420546E7D89C4294
:10534800E5D32246002130460FF083FA06F1010921
:10535800002333702A4649460398D84710B1A0F570
:10536800894051E009EB050A5346159A14990298A9
:1053780003F05CFB002847D10590A01EC01B6B0002
:105388002844C01A01220AF80020104417993A4606
:10539800504407AF0FF037FA384603F0E1FA059B9F
:1053A80002991A46384603F001FB0246A8B905F1EE
:1053B800010A013CB244641B4A4600972B46214629
:1053C8005046FFF7EFFA024638B95246009723468F
:1053D80029464846FFF7E6FA024607A8029203F074
:1053E800C4FA029A7AB9049B2BB932463146404630
:1053F800FFF784FD08E000963346039A5946404675
:10540800FFF7BEFD00E010460BB0BDE8F08F00BF0F
:1054180080BFFFFF2DE9F74F9A46BAF1010F074603
:1054280089469346DDF830800D9B0E9E03D1D0F857
:10543800A420002A55D1B9F1000F52D0002B50D02A
:10544800002E4ED018F10B027C684AD2944248D301
:105458003546033C0022C8EB040405F8022BBAF1D8
:10546800000F18D1022272702C44A5421CD064226D
:1054780000920122294658460193C8472A78019B81
:105488008ABB009A013A009202D1A0F589402EE029
:105498000028EED0F9E7012272702C44FF22AC42BA
:1054A80002D005F8012BFAE72046002200F8012B6C
:1054B800194642460FF0A7F9BAF1000F07D1324654
:1054C8003146384603B0BDE8F04FFFF717BD334605
:1054D8005A46494638460C9603B0BDE8F04FFFF7E8
:1054E8004FBD044803E00028CFD10135BDE703B024
:1054F800BDE8F08F80BFFFFFF0B587B0D0F8A4708B
:105508000CAC70CC57B1012F10D102940024049632
:10551800039501940094FFF7EBFE08E00E960D95B5
:105528000C9407B0BDE8F040FFF774BF014807B01E
:10553800F0BD00BF00BFFFFF2DE9F04F012BADF21A
:10554800644D06468A4603929B4605D1D0F8A4309E
:10555800012B01D05C48B2E07768A7F11003B3F5DE
:105568007C7FF7D896F8A80003F0EEF9029000289F
:10557800F0D003F02DFB00F101084FEA4805AF42D7
:105588000446E7D30DF16009BBF1000F06D14A4686
:10559800DDF894143046FFF7B1FC08E0CDF8009030
:1055A800DDF89434039A51463046FFF7E9FC824609
:1055B80000283CD105AE304603F0D2F95246029994
:1055C800304603F0F3F9824608B130463BE007F174
:1055D800FF3BC844C4EB0B0B00965B464246214692
:1055E8000DF16100FFF7DEF9824658BB00962346AD
:1055F8000DF1610259464046FFF7D4F9824608BBCF
:1056080024E0885C80F0010050EA0E0351D1013299
:10561800114418AA8A1ADDF89C04BA1A82424BD897
:10562800DDF890040260DDF898040FF0ECF84FF410
:10563800806118A8FFF7AEF908A84021FFF7AAF97A
:1056480050463CE005A803F090F9F0E7304608AE74
:1056580003F08BF93346DDF88C24DDF888140298C2
:1056680003F0E4F982460028E1D150460DF16103C8
:1056780099F800E01919A04208D2325C11F800C06C
:10568800013082EA0C0C4CEA0E0EF4E721440024A7
:105698000E4622467D1B0D44B542B2D016F8010BCA
:1056A800044360422043C0F3C01080F0010002446C
:1056B800F2E7DFF818A0BAE7DFF814A0B7E70DF2B1
:1056C800644DBDE8F08F00BF80BFFFFF00BFFFFF44
:1056D80000BCFFFFF0B5012BADF20C4D1D4603D108
:1056E800D0F8A430002B7FD14768A7F11003B3F599
:1056F8007C7F79D802AE45B93246DDF82414FFF72D
:10570800FDFB0446002868D12FE00096DDF824341C
:10571800FFF736FC044600285FD1012D327825D1E9
:10572800014686467378FD1E83F002031343A9429F
:1057380012D272189078013142421043C0F3C0105F
:1057480080F001000443E4B262422243C2F3C01273
:1057580082F001029644EAE70DF10A020EF1010116
:10576800114412F80E2013431EE032787378FC1EA1
:1057780083F001031343002211469646A1420BD23F
:10578800701880780131FF2818BF42F0010282F0BA
:105798000100C0B28644F1E70DF10A0212F80E507A
:1057A8000EF1010111442B43BEF1070F8CBF1C46BB
:1057B80043F0010464B26CB98A1BDDF82C34BA1AC0
:1057C8009A4209D8DDF82034DDF828041A600FF071
:1057D8001AF802E0064C00E0064C30464FF48061AF
:1057E800FFF7D8F8204600E003480DF20C4DF0BD55
:1057F80000BFFFFF00BCFFFF80BFFFFFF0B587B011
:10580800D0F8A4E00CACF0CCBEF1000F0CD0BEF187
:10581800010F12D102940024059704960395019470
:105828000094FFF789FE09E00F970E960D950C94EA
:1058380007B0BDE8F040FFF74DBF014807B0F0BD25
:1058480000BFFFFF2DE9F04F012B9DB080468A462F
:10585800049205939DF89800299C05D1D8F8A430A6
:10586800012B01D05848ABE0BAF1000FFAD0D8F8B4
:10587800046030B103F068F80028F3D003F0A8F909
:10588800279098F8A80003F05FF883460028E9D02D
:1058980003F09EF94500AB1C9E420746E2D3324610
:1058A800002120460EF0D5FF3A460CA90498D047AF
:1058B80010B1A0F5894083E008F108030790184665
:1058C800039306F09EFD751B05F1FF39012225445F
:1058D800A14405F8022C0CA93A46069009AD4846A1
:1058E8000EF091FF284603F03BF8079B59461A46ED
:1058F800284603F05BF8024600284AD1284603F000
:1059080077F80246002844D109EB070B08225946CC
:10591800284603F077F8024600283AD1279A2899B2
:10592800284603F06FF8024698BB3A460CA9284669
:1059380003F068F8024660BB5946284603F06CF845
:10594800024630BB069B711E013B13F0070F0CBFCC
:1059580001200020C91B5A46091A00953B462044DD
:10596800FFF720F80246A0B90690039806F049FD13
:10597800C0EBC60023780130FF2646FA00F0184035
:10598800BC232070402109F817300CA8FFF702F853
:10599800069A2846039202F0E8FF039A7AB9059B13
:1059A8002BB9224621464046FFF7A8FA08E00094A2
:1059B8002346049A51464046FFF7E2FA00E01046B3
:1059C8001DB0BDE8F08F00BF80BFFFFF2DE9F34792
:1059D800012B89460BA90546924686C91C469DF8A7
:1059E800280003D1D5F8A430002B4BD100976B6861
:1059F800FFF72AF8002849D13CB93A4639462846E3
:105A080002B0BDE8F047FFF779BA6C68012021467B
:105A18000EF0DCFD0646B8B3214601200EF0D6FD97
:105A2800804618B930460CF01FFB2DE000963B4627
:105A3800524649462846FFF7A3FA0446D0B94246DB
:105A480031462846FFF75AFA044698B903460246F3
:105A58006D68AA4207D018F80200B95C01324140CB
:105A68000B43DBB2F5E723B9314638460EF0CBFEDF
:105A780000E0084C30460CF0F7FA40460CF0F4FA17
:105A8800204603E0044801E06FF00F0002B0BDE8D3
:105A9800F08700BF00BDFFFF80BFFFFFF0B5D0F863
:105AA800A4E006AD9DF81440E0CDBEF1000F0AD089
:105AB800BEF1010F0FD10897079606950594BDE82A
:105AC800F040FFF7BFBE0897079606950594BDE816
