:020000040808EA
:1000000000000808BCAA0908000005000A00050154
:080010000402CF000000000013
:10001800CC6B090809480A4908B5884205D0094A3D
:10002800824202D0121A14F054FF0748074A0021EE
:10003800121A14F074FF064808BD00BF000400201F
:100048001CA909087805002078050020C837002079
:10005800C837002070B512F0ADFF074B074C1E469D
:10006800E41AA4080025A54204D056F8253098477C
:100078000135F8E770BD00BF84A8090808A9090878
:1000880000F07CB808B501F063F8BDE8084012F04C
:100098004FBF12F09BB912F099B912F09FB912F044
:1000A8009DB90078B0FA80F04009704701230370C9
:1000B800704710B50446084614F05FFF23681844DB
:1000C800206010BD70B5826804460D4622B1936861
:1000D800033323F003039360A2684AB1936850681E
:1000E800E918814204D802F10C009160184470BDEF
:1000F800E668AE4238BF2E4606F10C0012F066F9EB
:1001080078B1002383604660A36800F10C020360A5
:10011800E368A0605B00E36083681D448560D018D5
:1001280070BD70BD054B13F8022C22B1023313F8D1
:10013800031C8142F7D11046704700BFEE6B0908D7
:100148000246084619B10B6811461B6818477047E4
:1001580038B5084D2B6813F0010409D12846FFF77C
:10016800A0FF28B1044B28461C605C60FFF79EFF87
:10017800014838BDE0050020E4050020F0B5E1B0F5
:1001880012F0EAFF4FF4165112F0CCFF41F288301A
:1001980012F056FE434B444C186811F02FFE012113
:1001A800062013F04FF90021062013F05CF94FF4F4
:1001B80016513E4801F054F93D493C4801F059F9BF
:1001C8004FF4FA7012F03CFE3A49384801F051F900
:1001D8004FF4FA7012F034FE374B20AD186811F066
:1001E8000DFA11F0B3F9354912F0B9FC206811F095
:1001F80061F980220021684614F091FE40AF802208
:100208000021284614F08BFE80220021384614F085
:1002180086FE2B4B002618681B7900908DF8043059
:1002280012F09AFF274912F087FC2A46694620688F
:1002380011F067F912F090FFAB5D234A00210136F7
:1002480012F0B1FD102EF5D112F086FF12F07BFCF2
:1002580012F082FF1D4912F06FFC20683A462946C9
:1002680011F05CF9002412F077FF3B5D184A002179
:10027800013412F098FD102CF5D112F06DFF12F038
:1002880062FC12F069FF044612F084F90A22014662
:10029800204612F09AFC11F0A1FE0E4B186061B0D6
:1002A800F0BD00BF782A0020CC2A00207C2A00203C
:1002B800FB6B09082D6C09085C2B00203E6C0908B3
:1002C800466C09084C6C09088E6D09085D6C0908B4
:1002D8006E6C0908F005002038B50446806830B116
:1002E8004368E360056812F079F82846F7E7A060EC
:1002F80038BDF8B5046806460F4614B9FFF728FF5D
:10030800F8BD21460820FFF71BFFE0B10023046079
:1003180043600446AFB17568C5B1A96819B13846DC
:1003280014F021FE20B12D68F6E71D604DB1AF60D5
:100338002368002B19BF23460622002200232A74B3
:10034800AB612046F8BDFFF703FFE2E731682020E4
:10035800FFF7F6FE054610B100232B602B74736877
:1003680023B11A68002AE0D01346FAE77560DDE782
:1003780010B5044601681820FFF7E2FE10B100230B
:100388000360037263682BB11A680AB11346FBE76E
:10039800186010BD606010BD38B50D46FFF7E8FF66
:1003A800044640B1286813F013FDC4E9040108238A
:1003B8002372012038BD38BD70B5054629B90C49EE
:1003C8000430BDE87040FFF774BE43684E1E013329
:1003D800436016F8010F6C6838B1FFF7A3FE08B147
:1003E800023400E001346C60F3E701346C6070BDE6
:1003F800716C090810B503685A681C68A2423FBFAF
:10040800541C5C6011705B683CBF00221A70426823
:1004180034BF012300231344436010BD30B5026884
:10042800556892E818009C4207D20B782BB1631CE0
:10043800536011F8013B2370F3E7002323705368DE
:1004480042685B1B1344436030BD0000F8B50546A5
:100458000C4619B90F49FFF7E1FFF8BD2221FFF754
:10046800C9FF013C14F8016F7EB13046FFF75AFE10
:10047800074628B15C212846FFF7BCFF394600E053
:1004880031462846FFF7B6FFECE722212846FFF75A
:10049800B1FFF8BD716C090870B51B4D06462B6895
:1004A8001A4C13F0010F1AD12846FFF7FAFDB0B124
:1004B8000DA3D3E900232846C4E90A230CA3D3E9F2
:1004C8000023C4E90C230CA3D3E90023C4E90E23B9
:1004D8000BA3D3E90023C4E91023FFF7E7FD04EBDE
:1004E800C604D4E9000170BD176E05B5B5B89346CA
:1004F800F5F93FE9034F384D321D30F94877825AF4
:100508003CBF737FDD4F1575D005002048040020DF
:100518002DE9F74F6EA3D3E90023064603C813F06D
:1005280031FF002860D0DFF83CA208244FF4807720
:1005380000252046D6E90089FFF7AEFF02460B46A4
:100548004046494613F01EFF002845D0DFF81882C0
:10055800D8F80030D90735D44046FFF7A2FD002867
:1005680030D05DA3D3E900237D494046C1E900238B
:100578005BA3D3E90023C1E902235BA3D3E90023EA
:10058800C1E904235AA3D3E90023C1E906235AA3E6
:10059800D3E90023C1E9082359A3D3E90023C1E91A
:1005A8000A2359A3D3E90023C1E90C2358A3D3E9AB
:1005B8000023C1E90E2358A3D3E90023C1E910237E
:1005C800FFF774FDDAE90023D6E9000113F054FCC3
:1005D800C6E900013D442DB2013C621C4FEA6707A1
:1005E800AAF1080AA5D103E005464FF4807708244C
:1005F800D6E90089002200234046494613F0CCFE84
:10060800002861D046A3D3E900234046494613F0A9
:10061800AFFE002858D00FF2101BDBE900AB631CBB
:1006280052D0D6E90023DFF84491CDE90023D9F868
:100638000030DFF83C8113F0010F2BD14846FFF75B
:1006480030FD38B33AA1D1E9000123A3D3E900234F
:10065800C8E9080138A1D1E90001C8E90A0138A1AF
:10066800D1E90001C8E90C0137A1D1E90001C8E9C5
:100678000E0137A1D1E90001C8E910014846C8E9CF
:10068800022335A3D3E90023C8E906ABC8E904234C
:10069800FFF70CFDDDE9000108EBC403D3E90023F3
:1006A80013F05CFE60B12046FFF7F6FE02460B46EB
:1006B800D6E9000113F0E0FBC6E90001ED1B2DB2FD
:1006C800013C7F1064B2AAE7284603B0BDE8F08F6A
:1006D80000000000D01263419A9999999999B93FFD
:1006E8007B14AE47E17A843F2D431CEBE2361A3F78
:1006F8003A8C30E28E79453EBC89D897B2D29C3C80
:1007080033A7A8D523F649393DA7F444FD0FA532F0
:100718009D978CCF08BA5B25436FAC642806C80A3E
:10072800F168E388B5F8E43E48AFBC9AF2D77A3E60
:100738001656E79EAF03D23C80688965D639803962
:100748000DD13196FC53DA32C2DEB781455491257A
:10075800148BD77DB207FE0AFCA9F1D24D62503F37
:1007680088050020C8050020800500207C050020A1
:10077800000400202DE9F347044602A860E902239B
:100788000923A372FFF7C4FEDDE9008920814946E9
:100798000646404613F048FE054603462B4F2060A8
:1007A8000A21092B07D9A27AB7FBF1F7013AA272FD
:1007B800B3FBF1F3F5E7284613F0E8FA02460B46D7
:1007C8004046494613F0A4F980463846894613F056
:1007D800DDFA02460B464046494613F04DFB894672
:1007E800804613F021FE824613F0D0FA02460B46EB
:1007F8004046494613F08CF902460B4613F08AF935
:1008080013F012FE5044874201D960600AE00023C9
:100818000135636025602EB1092D81BF01360123A2
:10082800268123600A216368B3FBF1F201FB1233CE
:100838003BB994F90A30002B03DD013B6260A372D7
:10084800F1E7204602B0BDE8F08700BF00CA9A3B36
:10085800F0B519468BB00546104616461C4613F0EF
:1008680073FD08B94C4920E0002200233046214698
:1008780013F074FD20B16B6804F1004401336B6020
:10088800002200233046214613F05EFD88B9324627
:1008980023463046214613F03DF902460B463046C2
:1008A800214613F051FD20B13C49281DFFF701FCFA
:1008B8006FE02346324601A8FFF75CFF0AA9002330
:1008C80001F8033D0E46019C0A23B4FBF3F203FB37
:1008D8001244303401F8014D1446002AF5D12F1D79
:1008E8003846FFF7E6FB9DF90E10E9B10AA800F8B3
:1008F800094D02460C46029B4FF00A0C013C64B2BB
:10090800B4F1FF3F08D0B3FBFCFE0CFB1E333033C1
:1009180000F8013D7346F1E7C9B2511A2E2301F8D8
:10092800013D3846FFF7C5FBBDF90C30002B18DA3E
:100938001B493846FFF7BDFB3146BDF90C30002294
:100948005B428DF825200A2093FBF0F200FB12335E
:10095800303301F8013D1346002AF5D13846FFF738
:10096800A8FBBDF90C30002B13DD31466A680A205C
:1009780001326A6000228DF8252093FBF0F200FB1B
:100988001233303301F8013D13B2002BF5D138464C
:100998008CE70BB0F0BD00BF766C09087D6C0908C8
:1009A8007A6C0908F0B5037887B0013B0C46072B31
:1009B80054D8DFE803F02823492D2A0A1F04D0E978
:1009C80002230846FFF744FF48E04B68826801337A
:1009D8004B60556855B105F108002146FFF7E2FF65
:1009E8002D681DB1636801336360F3E76368013301
:1009F800636033E0806800F037F82FE081682046B4
:100A0800FFF7DAFC2AE0816825E04B6801334B6088
:100A180006AD002305F8033DD0E9026730463946A4
:100A28000A22002314F08AF8303205F8012D002339
:100A3800304639460A2214F081F806460F4656EA2F
:100A48000703EBD1294606E0D0E902231343044B00
:100A5800044908BF1946201DFFF72BFB07B0F0BD5E
:100A68008B6C0908866C090870B50C464B68013315
:100A78004B6045689DB12E46204656F8081FFFF783
:100A88009BFC636821460133636006F10800FFF7A9
:100A980089FF2D681DB1636801336360EAE7636805
:100AA8000133636070BD0000F0B519468BB0054690
:100AB800104616461C4613F047FC08B94C4921E07D
:100AC800002200233046214613F048FC28B12D218E
:100AD8002846FFF78FFC04F100440022002330462B
:100AE800214613F031FC88B9324623463046214668
:100AF80013F010F802460B463046214613F024FC4A
:100B080020B13C492846FFF789FC6FE0234632466E
:100B180001A8FFF72FFE0AA9002301F8033D0E469E
:100B2800019C0A23B4FBF3F203FB1244303401F8AE
:100B3800014D1446002AF5D12846FFF76FFC9DF9B0
:100B48000E10E1B10AA800F8094D02460C46029BB6
:100B58004FF00A0E013C64B2671C08D0B3FBFEF7E5
:100B68000EFB1733303300F8013D3B46F2E7C9B2BC
:100B7800511A2E2301F8013D2846FFF74FFCBDF915
:100B88000C30002B18DA1C492846FFF747FC314681
:100B9800BDF90C3000225B428DF825200A2093FB1A
:100BA800F0F200FB1233303301F8013D1346002AFE
:100BB800F5D12846FFF732FCBDF90C30002B15DDC6
:100BC80065212846FFF716FC31460022BDF90C3096
:100BD8008DF825200A2093FBF0F200FB1233303306
:100BE80001F8013D13B2002BF5D18BE70BB0F0BD36
:100BF800766C09087D6C09087A6C0908F0B50378E9
:100C080087B0013B05460C46072B58D8DFE803F0B0
:100C18002B264D312D0A2204D0E902230846FFF77E
:100C280043FF4CE085685B212046FFF7E3FB6D68D6
:100C38005DB105F108002146FFF7E0FF2D6825B1F9
:100C48002C212046FFF7D6FBF2E75D212046FFF76F
:100C5800D1FB34E0806800F039F830E08168204644
:100C6800FFF7F4FB2BE0816826E02D212046FFF7F3
:100C7800C1FBD5E90267002306AD05F8033D304600
:100C880039460A22002313F059FF303205F8012DA6
:100C98000023304639460A2213F050FF06460F4615
:100CA80056EA0703EBD1294606E0D0E902231343AD
:100CB800044B054908BF19462046FFF7AFFB07B0AC
:100CC800F0BD00BF8B6C0908866C090870B50C462E
:100CD80005467B212046FFF78DFB6D68ADB12E469A
:100CE800204656F8081FFFF7B1FB3A212046FFF7C8
:100CF80081FB214606F10800FFF780FF2D6825B12A
:100D08002C212046FFF776FBE8E77D212046FFF7F8
:100D180071FB70BDF8B504790546E4090E4610D09C
:100D280000273C462B7903F00F02C3F30213534309
:100D3800BB4206DD2021286811F002FF0137044478
:100D4800F0E73146286811F0FBFEA6F10A035E427F
:100D58005E412B79204466F3C7132B71F8BD70B53B
:100D680006464D1E002415F8011F21B13046FFF735
:100D7800D1FF0444F7E7204670BD000008B50378AA
:100D880003F0DF035B2B01D0002008BD41680B791D
:100D980003F00F020F2A03D0013262F303030B7131
:100DA80002494068FFF7DBFF08BD00BF926C0908E5
:100DB8005B2970B505460E461DD008D82C2915D0DC
:100DC8003A2911D0222916D10123037214E07B2974
:100DD80011D07D2901D05D290DD12B7803F0DF03D7
:100DE8005B2B12D100240AE00F4900E00F49686824
:100DF800FFF7B5FF70BD2846FFF7C0FF0446314630
:100E08006868FFF787FF204470BD69680B7913F0A5
:100E18000F0203D00F3262F303030B7104496868B1
:100E2800FFF79DFFEAE700BF7A870908916C090878
:100E3800926C090838B5037A04460D464BB122294D
:100E480002D103785C2B07D129466068FFF762FF5F
:100E580005E0FFF7ADFF02E000230372F4E7257019
:100E680038BD10B504460068FFF7E4FF636818440E
:100E7800606010BDF8B5054607684E1E002416F8D8
:100E8800011F21B13846FFF7D5FF0444F7E76B6827
:100E98001C446C60F8BD0000F8B505460C4619B94D
:100EA8000F49FFF7E7FFF8BD2221FFF7DAFF013C02
:100EB80014F8016F7EB13046FFF734F9074628B1C0
:100EC8005C212846FFF7CDFF394600E03146284629
:100ED800FFF7C7FFECE722212846FFF7C2FFF8BD5E
:100EE800716C0908F0B519468BB0054610461646D0
:100EF8001C4613F029FA08B94C4921E000220023C6
:100F08003046214613F02AFA28B12D212846FFF74A
:100F1800A8FF04F10044002200233046214613F0C4
:100F280013FA88B9324623463046214612F0F2FDBC
:100F380002460B463046214613F006FA20B13C49DA
:100F48002846FFF797FF6FE02346324601A8FFF7D0
:100F580011FC0AA9002301F8033D0E46019C0A234F
:100F6800B4FBF3F203FB1244303401F8014D14468C
:100F7800002AF5D12846FFF77DFF9DF90E10E1B153
:100F88000AA800F8094D02460C46029B4FF00A0ECB
:100F9800013C64B2671C08D0B3FBFEF70EFB1733A5
:100FA800303300F8013D3B46F2E7C9B2511A2E230F
:100FB80001F8013D2846FFF75DFFBDF90C30002B15
:100FC80018DA1C492846FFF755FF3146BDF90C30A1
:100FD80000225B428DF825200A2093FBF0F200FBEB
:100FE8001233303301F8013D1346002AF5D1284663
:100FF800FFF740FFBDF90C30002B15DD65212846B1
:10100800FFF72FFF31460022BDF90C308DF825205F
:101018000A2093FBF0F200FB1233303301F8013D54
:1010280013B2002BF5D18BE70BB0F0BD766C090835
:101038007D6C09087A6C0908F0B5037887B0013B24
:1010480005460C46072B58D8DFE803F02B264D3110
:101058002D0A2204D0E902230846FFF743FF4CE09B
:1010680085685B212046FFF7FCFE6D685DB105F1E0
:1010780008002146FFF7E0FF2D6825B12C21204606
:10108800FFF7EFFEF2E75D212046FFF7EAFE34E0C6
:10109800806800F039F830E081682046FFF7FCFEF0
:1010A8002BE0816826E02D212046FFF7DAFED5E9FE
:1010B8000267002306AD05F8033D304639460A228B
:1010C800002313F03BFD303205F8012D0023304694
:1010D80039460A2213F032FD06460F4656EA070340
:1010E800EBD1294606E0D0E902231343044B054916
:1010F80008BF19462046FFF7BDFE07B0F0BD00BF88
:101108008B6C0908866C090870B50C4605467B216E
:101118002046FFF7A6FE6D68ADB12E46204656F86C
:10112800081FFFF7B9FE3A212046FFF79AFE21462D
:1011380006F10800FFF780FF2D6825B12C21204615
:10114800FFF78FFEE8E77D212046FFF78AFE70BD96
:101158002DE9F04F8FB0634D0AAE10F0C5FB0024A7
:1011680010F03EFC4FF48073314608200A950C9429
:101178000D93FEF7E5FF009518B14460066004463C
:101188000CE0594F594C3B6813F0010505D138461E
:10119800FEF787FF002840F09F80544C54492046B2
:1011A800FFF7A7F8534980462046FFF7A2F85249AF
:1011B80007462046FFF79DF88146DFF85CA1002529
:1011C8000AEB050148460435FFF7E6F8242DF7D168
:1011D800DFF8489100254FF0040A4046FFF7C8F8A9
:1011E80030B115F809200023C0E9042380F808A0CD
:1011F8000135082DF1D141493846DFF82481FFF740
:10120800CBF83F493846FFF7C7F80DF11C0AD8F864
:10121800000010F02BFF002505AF51462046DFF8EF
:10122800049107970895FFF71FFCDDF820B0D9F85F
:1012380000000BF1010111F0D9F800EB0B03059345
:10124800C9F8000006905146057020460797089592
:10125800FFF73CFD10F0C2FE2A4ADFF8CCB0136855
:10126800C01AB0F57A7F21D9019210F0B7FE019A21
:101278009BF800301060CBB111F06EFFA0230390F3
:101288008DF81030394603AB204608938DF81C5072
:101298008DF82450CDF814A00695FFF735FF1A4BAA
:1012A800D9F800201949186810F0B4FCD8F80000E3
:1012B80010F0E4FE3046FFF70FF8154A00231370CC
:1012C800144A8BF800301370009B30460A93FFF7DE
:1012D80003F80FB0BDE8F08F256065603846FEF76B
:1012E800E5FE5BE7E86B0908D4050020D805002077
:1012F800956C09089E6C0908A76C0908642B0020E6
:10130800682B0020F0050020602B0020B06C090835
:10131800702A0020402B0020182B0020D12A002002
:10132800682A0020442B0020D02A002008B510F09D
:10133800D5FD0021012011F019F8032011F006F85D
:1013480010F0A8FA10F04AFE014B186008BD00BF63
:10135800EC05002070B590F84A5004460DB1002005
:1013680070BDC06C03681B6998470028F7D0E06C13
:1013780003685B699847C0B20A28144B144A16D10F
:1013880019781468C9B265541668124D124C13497D
:10139800AE4214BF0C600E604FF000011970104986
:1013A80008BF14604FF0010418BF15600C70146872
:1013B8001A78D2B2511CC9B21970A0541B78772B75
:1013C80082BF024B77221A7070BD00BFF80500205B
:1013D800F4050020F905002071060020EC06002025
:1013E800E9060020154A00231370154A15491370A1
:1013F800154AC36411601549154A80F84A301160CE
:1014080080F83D3080F83C3043710371C3708370BD
:101418004370037080F83A3080F8393080F83830FB
:1014280080F83B30C380002343630363C362836255
:1014380043620362C3608360704700BFE90600200F
:10144800F8050020F9050020F405002071060020A9
:10145800EC06002038B50D46FFF7C4FFC56438BD5B
:1014680008B5C06C11F03CFFBDE808400A2011F037
:10147800E7BCC06C11F073BB014B1878704700BF14
:10148800E9060020024B00221A70024B18687047C8
:10149800E9060020EC0600202F290AD9392901D8AD
:1014A800303904E0A1F14103052B02D83739C8B21D
:1014B80070470020704700002DE9FF4704460846A2
:1014C8000D4613F05AFD071FEB5D2A2B19D12E1874
:1014D80016F8031C2046FFF7DFFF000182B216F85A
:1014E800021C2046FFF7D8FF104480B202239F4217
:1014F80004D9EA5C01335040DBB2F8E708B10020B8
:10150800E8E2B649284613F068FD30B9B4492846E0
:1015180013F063FD002800F073812C21284613F096
:1015280014FD451C284613F099FC12F09DFF064651
:1015380013F0E4FA42F21072B0FBF2F3237002FBEC
:1015480013036427B3FBF7F36370B0FBF7F307FBF0
:101558001300A070304612F03BFC0022A14B12F0A1
:1015680051F9A14B002212F087FC12F05DFF2C21EB
:10157800E080284613F0E9FC437805462C2B00F15F
:10158800010653D03146022201A813F013FD4FF093
:10159800000A0DF1100901A809F80AAD13F065FC5D
:1015A800924BE91C03FB00F80222AE1D01A813F0C0
:1015B80001FD04223146484613F0FCFC01A88DF8D1
:1015C8000AA013F052FC32254543032095FBF0F5A1
:1015D800874808EB0503236198FBF0F013F04EF8F9
:1015E8008046284613F04AF8824913F09BF80146D2
:1015F800404612F08FFF8049A060804613F046F9FC
:1016080013F056FA0546784313F038F80146404679
:1016180012F07EFF794913F039F90746284613F08E
:101628002DF80146384612F075FFA0612C2130468E
:1016380013F08BFC03465A7801302C2A10D0532A19
:1016480002BFA26902F10042A2615B784E2B05D06D
:10165800532B03D02C2B7FF452AF002384F838305F
:101668002C2113F072FC437805462C2B00F101065F
:1016780051D03146032201A813F09CFC4FF000081A
:1016880001A88DF8078013F0F0FB584F291D474338
:101698000222EE1D01A813F08DFC042231460DF143
:1016A800060013F087FC01A88DF80A8013F0DDFB13
:1016B80032254543032095FBF0F54D487B196361BE
:1016C80097FBF0F012F0DAFF0746284612F0D6FF33
:1016D800484913F027F80146384612F01BFF4649DF
:1016E800E060074613F0D2F813F0E2F905466420EB
:1016F800684312F0C3FF0146384612F009FF3F491C
:1017080013F0C4F80746284612F0B8FF01463846D9
:1017180012F000FFE0612C21304613F016FC03465E
:101728005A7801302C2A10D0572A02BFE26902F1F8
:101738000042E2615B78572B05D0452B03D02C2B58
:101748007FF4DDAE002384F839302C2113F0FDFB43
:101758004378451C2C2B04D0284613F082FB84F8D0
:101768003C0028462C2113F0F0FB4378451C2C2B19
:1017780004D0284613F075FB84F83D0028462C2138
:1017880013F0E3FB4378451C2C2B05D0284613F0B7
:1017980065FB12F069FE606328462C2113F0D5FB27
:1017A8004378451C2C2B05D0284613F057FB12F024
:1017B8005BFE60622C21284613F0C7FB2C21013008
:1017C80013F0C3FB43782C2B00F08381013013F016
:1017D80045FB12F049FE20627BE100BFB76C0908A7
:1017E800BE6C09080000F03F00408F4080969800CA
:1017F800A08601009C53C9360000C8420000704210
:10180800B649284613F0E9FB30B9B549284613F024
:10181800E4FB00283FF473AE2C21284613F095FB17
:10182800451C284613F01AFB12F01EFE064613F05C
:1018380065F942F21072B0FBF2F3237002FB130356
:101848006422B3FBF2F36370B0FBF2F302FB130004
:10185800A070304612F0BCFA0022A24B11F0D2FF61
:10186800A14B002212F008FB12F0DEFD2C21E080D3
:10187800284613F06AFB4378412B01D1012303E08A
:10188800562B7FF43CAE002384F83B302C210130EA
:1018980013F05BFB437805462C2B00F1010652D070
:1018A8003146022201A813F085FB4FF000090DF123
:1018B800100801A808F80A9D13F0D7FA8B4FE91C05
:1018C80047430222AE1D01A813F074FB04223146DF
:1018D800404613F06FFB01A88DF80A9013F0C5FA83
:1018E80032254543032095FBF0F581487B19236198
:1018F80097FBF0F012F0C2FE0746284612F0BEFE33
:101908007C4912F00FFF0146384612F003FE7A496F
:10191800A060074612F0BAFF13F0CAF80546642023
:10192800684312F0ABFE0146384612F0F1FD7349E8
:1019380012F0ACFF0746284612F0A0FE01463846D2
:1019480012F0E8FDA0612C21304613F0FEFA0346A0
:101958005A7801302C2A10D0532A02BFA26902F10A
:101968000042A2615B784E2B05D0532B03D02C2B61
:101978007FF4C5AD002384F838302C2113F0E5FA44
:10198800437805462C2B00F1010651D0314603223D
:1019980001A813F00FFB4FF0000801A88DF807808D
:1019A80013F063FA514F291D47430222EE1D01A887
:1019B80013F000FB042231460DF1060013F0FAFA89
:1019C80001A88DF80A8013F050FA32254543032008
:1019D80095FBF0F546487B19636197FBF0F012F030
:1019E8004DFE0746284612F049FE424912F09AFE7B
:1019F8000146384612F08EFD3F49E060074612F076
:101A080045FF13F055F805466420684312F036FE8A
:101A18000146384612F07CFD384912F037FF074678
:101A2800284612F02BFE0146384612F073FDE0619D
:101A38002C21304613F089FA03465A7801302C2AB3
:101A480010D0572A02BFE26902F10042E2615B78D6
:101A5800572B05D0452B03D02C2B7FF450AD0023FA
:101A680084F839302C2113F070FA4378451C2C2B5C
:101A780005D0284613F0F2F912F0F6FCA0622846C9
:101A88002C2113F062FA4378451C2C2B05D02846EC
:101A980013F0E4F912F0E8FCE0622C21284613F078
:101AA80054FA43782C2B14D0013013F0D7F912F0E4
:101AB800BBFC42F21072B0FBF2F3637102FB13033A
:101AC8006422B3FBF2F32371B0FBF2F302FB1300C1
:101AD800E070012004B0BDE8F08700BFC56C0908BC
:101AE800CC6C09080000F03F00408F4080969800B9
:101AF800A08601009C53C9360000C842000070420D
:101B080010F0ECB930B50224017083700621F5237A
:101B1800C47504244270C380012200230172017637
:101B280080F8204003210724027142748274C27431
:101B38000275827542768276C276C27780F8214035
:101B480043728372C372037343738373C3730374DF
:101B580001774377837780F82230044680F8231092
:101B680080F82720024680F8241080F8253080F875
:101B7800263000250139E563A564656502F1020296
:101B8800A2F85E30A2F86430A2F86A3004F10404C6
:101B9800F0D14FF0000380F8803030BD10B51E231F
:101BA8006B220121FFF7AEFF10BD10B504460846B1
:101BB80012F064FD616F12F0B5FD10BD10B504465A
:101BC800084612F05BFDE16F12F0ACFD10BD10B5D8
:101BD8000446C08812F04EFD4FF0605112F0A2FD8D
:101BE800606710BD10B50446C07D12F043FD4FF08C
:101BF800605112F097FDA06710BD000090F82030EA
:101C0800043B0C2B14D8DFE803F0071313130A1353
:101C180013130D1313131000064B1B6807E0054B35
:101C28005B6804E0034B9B6801E0024BDB68C36719
:101C3800704700BF90040020C388F52B07D0B3F588
:101C4800FA7F04D0B3F5FA6F1CBFF523C380C27DB9
:101C5800102A03D8084BD340DA0701D40223C375EE
:101C680090F82020102A03D8044BD340DB0702D475
:101C7800042380F82030704714010100101101007E
:101C880010B50446012190F8730011F0DBFB94F8BD
:101C98007300012111F0E7FB94F87200012111F0A3
:101CA800D1FB94F872000A4C012111F0DCFB2046AC
:101CB80010F0E8FB2046082110F03CFC20460121EA
:101CC80010F0EBFB2046BDE81040002110F0E8BB07
:101CD800D0360020F8B50C4617461E46094D20465A
:101CE800002111F0C0FB07F03F01284610F036FC38
:101CF8003146284610F032FC2046BDE8F840012164
:101D080011F0B1BBD0360020F8B51E4690F87230FD
:101D180002F03F028B429DF8187042F0800503D113
:101D2800012F88BF45F040058CB22046002111F0F4
:101D38009AFB2946094810F011FC3546AB1B9F4217
:101D480006DD0021054810F009FC05F8010BF5E750
:101D58002046012111F087FB0120F8BDD036002074
:101D68001FB5012300930DF10F03FFF7CDFF9DF879
:101D78000F0005B05DF804FB08B511F0D3FBBDE812
:101D8800084011F019BB70B50E4615461C4611F0F7
:101D9800C9FB314611F022FB11F0C4FB0368294648
:101DA8009B68984711F0BEFB036821469A689047E4
:101DB80011F0B8FBBDE8704011F018BB134602786B
:101DC80010B4012A05D10A4610BC90F87310FFF729
:101DD800DABF2AB90A4610BC90F87310FFF77ABF29
:101DE80010BC704710B50379044613B1037A5B0140
:101DF800DBB2E288B2F5FA7F05D0B2F5FA6F04D10A
:101E080043F0180301E043F00803627A102102F05E
:101E180003021A432046FFF7D1FF00221121204672
:101E2800FFF7CCFFA37A002BE37A14BF80220022AD
:101E38002BB1237B03F00F0343F040031A43122115
:101E48002046FFF7BBFFE37C002BA37C0CBF0022DE
:101E5800202213B142F01002D2B2637C0BB142F0DF
:101E68000802237D0BB142F002021E212046FFF733
:101E7800A5FF637B002BA37B0CBF0022202213B19C
:101E880042F01002D2B2E37B0BB142F008022046C6
:101E9800BDE810401321FFF791BF10B5C37E04467B
:101EA800002B837E0CBF0022202213B142F01002C7
:101EB800D2B2637E0BB142F008021F212046FFF721
:101EC8007DFFA27D12B1227E5201D2B2E37D082BA2
:101ED80006D0102B07D0042B07D142F0100204E0E3
:101EE80042F0180201E042F0080294F91C30202167
:101EF800002BA2BF03F003031A4342F0040220465A
:101F0800FFF75CFF627F2AB1A27F520102F06002F4
:101F180042F080022046BDE810402121FFF74EBF65
:101F28001346027810B4012A05D10A4610BC90F86D
:101F38007210FFF728BF2AB90A4610BC90F8721031
:101F4800FFF7C8BE10BC704710B590F822300446A1
:101F5800002B90F8233008BF00224FEA431303F008
:101F6800600190F8213018BF80229B0003F01C0309
:101F78000B431A432021FFF7D3FF94F82030204663
:101F8800083BDBB2082B96BF124A0022D25C212103
:101F9800FFF7C6FF94F825302046002B94F826302A
:101FA8000CBF0022202203F003031A432221FFF76B
:101FB800B7FF94F824202046920002F00C02232157
:101FC800FFF7AEFF2046BDE8104000222421FFF7AE
:101FD800A7BF00BF346D090838B50C46154611F087
:101FE800A1FA214611F0FAF911F09CFA0368294682
:101FF8009B68984711F096FA002111F0F3F911F057
:1020080091FA0122214611F0E6F911F08BFA0368E2
:102018005B699847C0B238BD0A460178012903D1E7
:1020280090F87310FFF7D8BF19B990F87310FFF73D
:1020380097BE002070470A460178012903D190F81D
:102048007210FFF7C9BF19B990F87210FFF788BE70
:10205800704738B50446437880F87330837880F841
:102068007230FFF7E9FDFFF7B2FD2046FFF7C6FD26
:102078002046FFF7B7FD2378012B03D12046FFF751
:102088007BFE03E013B92046FFF7FAFD0F21204637
:10209800FFF7D1FF0F2105462046FFF7BDFF46F6A3
:1020A8003D0345EA002005B29D420AD12046FFF7CC
:1020B80099FE2046FFF7F1FE2046FFF745FF284628
:1020C80038BD002038BD2DE9F04190460C461D462C
:1020D8009DF818600FF082FF074611F023FA214699
:1020E80011F07CF911F01EFA036848F080019B6832
:1020F800984711F017FA002111F074F911F012FA4B
:102108002146324611F067F9002407F57A77B44280
:102118001ADA11F007FA03681B69984740B111F001
:1021280001FA036804F101085B6998472855444699
:102138000FF054FFB842EAD92C44FF23621B9642A1
:1021480005DD04F8013BF9E70120BDE8F081002036
:10215800BDE8F08137B50D460178012907D190F81F
:102168007310009313462A46FFF7ADFF07E031B915
:1021780090F87310009313462A46FFF7C5FD03B085
:1021880030BD37B506236A4628210446FFF7E2FF2B
:1021980030B39DF800309DF801109DF8032043EA04
:1021A80001219DF802309DF8055043EA02229DF86E
:1021B800043009B243EA052394F8805012B21BB2E6
:1021C800E185228663865DB1B4F86650491BE185D6
:1021D800B4F86810521A2286B4F86A209B1A6386EB
:1021E80003B030BD13B5022301AA15210446FFF739
:1021F800B1FF30B19DF805209DF8043043EA022371
:10220800638702B010BD37B506236A461821044615
:10221800FFF7A0FF30B39DF800309DF801109DF83E
:10222800032043EA01219DF802309DF8055043EA56
:1022380002229DF8043009B243EA052394F880503D
:1022480012B21BB221856285A3855DB1B4F86050D6
:10225800491B2185B4F86210521A6285B4F86420CB
:102268009B1AA38503B030BD37B50D460178012907
:1022780007D190F87210009313462A46FFF723FF00
:1022880007E031B990F87210009313462A46FFF719
:102298003BFD03B030BD13B506236A46282104462A
:1022A800FFF7E2FFA0B19DF801209DF8003043EA56
:1022B8000223A3869DF803209DF8023043EA0223F7
:1022C800E3869DF805209DF8043043EA022323871E
:1022D80002B010BD0FF002BE0FF000BE10B50446EC
:1022E800283000F0CBFC28B104F50D70BDE8104093
:1022F80000F0C4BC10BD0FF0F1BD0FF0EFBD0FF042
:10230800EDBD0FF0EBBD03685B6918470368DB6838
:10231800184710B5037904466BB10121407911F0D3
:10232800A2F8FF212068FFF7EEFF206803689B688A
:1023380098470023237110BD38B50579044655B96F
:102348000068E17903685B6898472946607911F06D
:102358008AF80123237138BDF8B504460D461646A0
:102368000FF03CFE07462068FFF7D0FFFF282072D9
:1023780007D10FF033FEC01BB0F5967FF3D91123B8
:102388000CE0FE2801D00F2308E0206832460368DD
:1023980029461B699847207230B11C232046A37137
:1023A800FFF7B7FF0020F8BD2068FFF7AFFF2068F0
:1023B800FFF7ACFF0120F8BD70B506460C460FF0DC
:1023C8000DFE05463068FFF7A1FFFF2806D00FF085
:1023D80005FE401BA042F5D3002070BD012070BD52
:1023E800F7B5037904460D4601920BB9FFF7A4FF30
:1023F8004FF416712046FFF7DFFF45F040012068D3
:10240800FFF781FF0DF107060DF1030716F8011913
:102418002068FFF778FFBE42F8D1002D0CBF952148
:1024280087212068FFF76FFF0C2D02D12068FFF786
:102438006DFF00252068FFF769FF0306207203D5AA
:102448000135B5F5807FF5D103B0F0BD38B5437AD5
:102458001546032B18BF49020A4611210446FFF707
:10246800BFFF10B10423A3710BE029464FF400729B
:102478002046FFF771FF054618B12046FFF749FFD0
:1024880003E02046FFF745FF0025284638BD10B574
:10249800437A0A46032B18BF4A0212210446FFF763
:1024A8009FFF30B105232046A371FFF732FF0020BC
:1024B80010BD012010BD10B500220C210446FFF705
:1024C8008FFF30B103232046A371FFF722FF0020BE
:1024D80010BD2046FFF71DFF012010BDF8B50546C9
:1024E80016461F46FFF7D3FF98B10024A3B29F42B8
:1024F80006EB442108D94FF400722846FFF72CFF59
:1025080001340028F2D104E02846BDE8F840FFF77E
:10251800D2BF0020F8BD38B5044615460068FFF75D
:10252800F2FE20684FF40072036829469B699847B9
:10253800FF212068FFF7E7FEFF212068FFF7E3FE91
:102548002068FFF7E3FE207200F01F00052806D080
:1025580013232046A371FFF7DCFE002038BD0120BD
:1025680038BD38B5437A1546032B18BF49020A46C9
:1025780018210446FFF734FF10B10623A3710AE0BF
:102588002A46FE212046FFF7C6FF054618B1204619
:10259800FFF7BFFE03E02046FFF7BBFE00252846F5
:1025A80038BD70B504460D460679FFF7C5FE4FF4F1
:1025B80016712046FFF700FF10B91723A3710BE02F
:1025C8002A46FC212046FFF7A6FF054620B13EB962
:1025D8002046FFF79EFE03E02046FFF79AFE0025FF
:1025E800284670BD70B5044616460D4600223721B0
:1025F800FFF7F6FE324617212046FFF7F1FE08B135
:1026080009230AE0637A1921032B18BF6D022A46B1
:102618002046FFF7E5FE30B107232046A371FFF7F8
:1026280078FE002070BD012070BD38B50446FFF764
:1026380083FE4FF416712046FFF7BEFE70B1FD21F0
:102648002068FFF760FE4FF416712046FFF7B4FECE
:10265800054618B12046FFF75CFE05E01223A3717A
:102668002046FFF756FE0025284638BDF8B5174620
:102678001A4605461E46FFF7B5FF70B10024B4425E
:1026880007EB4421284604D0FFF78BFF28B101341B
:10269800F5E7BDE8F840FFF7C8BF2846FFF739FE61
:1026A8000020F8BD0FF01ABC014B01221A707047C8
:1026B800F0060020704700000279024B53F8220010
:1026C8000FF0E5BE406D090870B506460C46037963
:1026D8001A4D012155F823000FF0DFFE3379002150
:1026E80055F823000FF0DCFE022C0CD9042C0CD971
:1026F800082C0CD9102C0CD9202C0CD9412C34BF07
:102708002821302108E0002106E0082104E01021FA
:1027180002E0182100E02021337955F823000FF05A
:1027280009FF182303FB04F132793C2302FB011152
:1027380091FBF3F1024B196070BD00BF406D0908B1
:10274800F40600200279034BFF2153F822000FF012
:1027580005BF00BF406D09080279024B53F82200FB
:102768000FF0FCBE406D090873B50C4B06790C4898
:1027780000250C4C009350F8260013460A462946BB
:1027880025700FF0F1FE2378002BFCD0064B18685B
:1027980008B10FF01BFC002002B070BDB12608087C
:1027A800406D0908F0060020F406002073B50D4BB3
:1027B80006790D4800250D4C009350F82600134665
:1027C8002A4625700FF0D0FE2378002BFCD0084B4A
:1027D800186820B102B0BDE870400FF0F7BB02B036
:1027E80070BD00BFB1260808406D0908F00600203A
:1027F800F40600200FF072BB837800F1100263F03A
:102808007F0383700169806800F0E2BA10B504465E
:1028180080680A462830A16900F057FA20B1A388D9
:1028280003F00F0300EB431010BD2DE9F74F0378B9
:102838000446894615464BB18278D10706D50CE087
:102848005A46216900F06BFA00283DDA63784FF0A8
:10285800FF3043F00203637098E01A0703D5E36979
:1028680062699B1A07E09A0608D5A3681A89636902
:10287800C3EB42139BB29D4228BF1D462E464FF024
:10288800000804F1100B002E35D02278636912F08D
:10289800200FC3F3080AA0684FEA532102D0036A45
:1028A80019441DE090F8058001EA0808BAF1000F04
:1028B80010D1B8F1000F0DD1002BC1D153064CBF78
:1028C800036A236A236105E004D1237813F0700FAB
:1028D80011D1BBE72169A06800F01BFA08EB0001E1
:1028E800A068BAF1000F35D1B6F5007F32D3026B7C
:1028F800914202D12EE0A81B48E0B6F5806F1BD3A9
:102908002778C6F34723BF0606D40779C8EB07071D
:10291800FFB2BB4228BF3B4691424FEA432707D24A
:10292800A0680268D2F808A04A46D04760B98DE787
:102938001A44914221D3F3E703684A461B68984733
:10294800002883D04FF400776369B9443B4463613E
:10295800F61B98E70022283000F0B7F900283FF46A
:1029680075AFCAF50077B74228BF374600EB0A01B2
:102978003A46484612F0ADFAE6E78DE80A00FFF756
:10298800ADFC9DE80A000028CAD15FE703B0BDE8A6
:10299800F08F73B501220DF10701044646690569F8
:1029A800FFF743FF012809BF9DF807004FF0FF30EC
:1029B8006661256102B070BD2DE9F0410E460178CF
:1029C80004460769002939D04569B5423AD00EB99D
:1029D800066131E00B0703D5C3699E422ED807E094
:1029E800880605D5A3681B89B6EB431F26D823E0C4
:1029F800D4F808E06A1E9EF8063003F10900731E39
:102A0800C240C3409A4200D84DB94A064CBFDEF8CE
:102A18002020226A22611D4604F110080AE09B1A50
:102A2800F9E742462169A06800F079F9002805F124
:102A3800FF3503DD002DF4D1666103E02761002036
:102A4800BDE8F0810120BDE8F081000038B50378C9
:102A580004460BB9012038BD90F90230002B23DA67
:102A68000121FFF7D3FE054628B96378002043F01B
:102A78000103637038BD0378E52BF6D023781B0774
:102A880044BFE369C361238C4383638C8382094B0E
:102A98001B682BB100F11601183098472B8B6B82FD
:102AA800A37803F07F03A370A068FFF717FC002842
:102AB800DBD0CFE7F80600202DE9F047037804467D
:102AC8001D078946904608D58378990705D55B0781
:102AD8000BD5E169FFF770FF38B963784FF0FF3025
:102AE80043F001036370BDE8F0876369DB439845F1
:102AF800F3D847464FF0000A6369002F00F0828040
:102B0800A068C3F30806457915EA53251CD1DEB938
:102B1800216971B104F1100200F001F90028DCDB31
:102B280040F08E802046FFF767FE002840F088803E
:102B3800D3E7236A3BB92046FFF75EFE0028CCD0D6
:102B48002369236200E023612169A06800F0E1F8AD
:102B5800291816B9B7F5007F21D2C6F50075BD4210
:102B680028BF3D4636B96369E269934234BF012202
:102B7800052200E00122A068283000F0A6F800280D
:102B8800ABD030442A4649462E4412F0A2F9B6F595
:102B9800007F31D1A068283000F070F818E0B7F550
:102BA800806FA26816D31379106B5D1BEDB2C7F363
:102BB8004723AB4228BF2B4681424FEA432502D325
:102BC8001844814236D3A0680268D6684A46B0479E
:102BD80090B982E7136B994202BF4FF0FF3382F836
:102BE80028A01363A0684A4603685B6898470028D2
:102BF8003FF473AF4FF400756369A9442B446361D4
:102C08007F1B79E7E2699342A27801D9E36102E088
:102C18000E4B1B6813B162F07F02A270A3781A07EB
:102C280002D44046BDE8F0872046FFF70FFF002892
:102C3800F7D152E74FF0FF3082F828A01063C2E7BF
:102C48002169A06800F065F8014683E7F8060020CE
:102C58000FF044B970B505460C46084649B112F064
:102C68008CF92B68024621462846BDE87040DB688F
:102C7800184770BD0FF032B90FF030B9F8B50378C6
:102C88000446DA071ED5406804F10C06036832468C
:102C98005B68A1689847054608B9002513E02378C2
:102CA8009B0704D4237823F0010323700BE06068AA
:102CB800A7680169036832465B6839449847002869
:102CC800F0D1EAE701252846F8BD70B583680446C7
:102CD8008B420E46154614D0FFF7D0FF08B90020E6
:102CE80070BD6B0703D500232370A66009E06068F8
:102CF80004F10C02036831461B6898470028F2D19A
:102D0800EDE72046237805F003051D4300F80C5B2A
:102D180070BD83790239406999400844704770B59D
:102D2800C3790546202B0C46164612D1816902222A
:102D380001EBD41100F50D70FFF7C7FF10B94FF084
:102D4800FF3070BD04F07F0450F8243023F0704346
:102D58000FE0102BF3D18369C1F307210222194434
:102D680000F50D70FFF7B1FF0028E8D0E4B230F8A5
:102D78001430EA6993429ABF33600120002070BD85
:102D880038B5C3790C46202B15460FD1816903222B
:102D980001EBD41100F50D70FFF797FF08B900207B
:102DA80038BD04F07F0440F824500FE0102BF6D112
:102DB8008369C1F307210322194400F50D70FFF759
:102DC80084FF0028EBD0E4B220F81450012038BD6D
:102DD8002DE9F341054690460F4609B9C66800E05B
:102DE8000E463446EB6901349C4288BF022401AA8E
:102DF80021462846FFF793FF00280DDB01D0019BF1
:102E080013B1B442EED107E06FF070422146284674
:102E1800FFF7B6FF064608B9002610E037B122468C
:102E280039462846FFF7ACFF08B9F5E7EC606B6A4E
:102E3800002BA4BF03F1FF336B62C8F80040304693
:102E480002B0BDE8F0810FF049B80FF047B87047FD
:102E580070B505460C4616460FF09CFD58B1214644
:102E6800324628460FF084FD044638B128460FF054
:102E7800AEFB204670BD4FF0FF3070BD004870BDFE
:102E88008097FFFF70B504460D4616460FF082FD89
:102E980058B120460FF062FC28B132462946204638
:102EA8000FF02BFC18B9024870BD4FF0FF3070BD11
:102EB8000097FFFF70B50E4615460C462B1B334492
:102EC800032B04D90FF07AF844F8040BF6E7AC08A2
:102ED80006EB84043544AC4204D00FF06FF804F8D4
:102EE800010BF8E7002070BD00B5ADF2044D0B46AC
:102EF800054A40F2FF31684606F094FA00200DF2C8
:102F0800044D5DF804FB00BFE473090838B50B4BAA
:102F18008469054603607CB16368013B63605BB903
:102F2800236820469B689847A368013BA3601BB9A8
:102F380023682046DB689847284638BDC4A309089B
:102F480010B50446FFF7E2FF2046FDF7A6F8204635
:102F580010BD000038B5044600250FF08DFCE56172
:102F6800054904F138000FF08CFD0123A56484F8AD
:102F78008236204638BD00BFE473090838B50446D8
:102F88001D46059B0363002084F8810684F88006AB
:102F9800606302B1A26419B104F138000FF093FD27
:102FA800049BE0692365069BA4F84C50A4F85430B0
:102FB80008B1FDF774F8B4F85400FDF76CF8E06157
:102FC80038BD00002DE9FF410446174698460E46D5
:102FD80000250FF051FCE5610C4904F138000FF0B1
:102FE80050FD012384F88236FF2302930F230093B8
:102FF8002046A564CDF804803B462A463146FFF7B3
:10300800BDFF204604B0BDE8F08100BFE4730908A5
:10301800F0B50D4602339BB26C1A15F8016BA4B2D9
:103028003EB1B0F854709F4203D95C1CD654A3B289
:10303800F2E7191B0A44211202F8021C02F8014C9B
:103048001846F0BD10B590F8814614B90FF090FC01
:1030580003E000F5347008F04DFF80B210BDF7B5FD
:1030680007468E461E461D46002405F07F0302A92A
:10307800ED09214418BF43F08003013401F8043CF2
:10308800E4B2002DF1D1C4F10403D11802F803E031
:10309800A54206DA01A82B1B285C13445871013598
:1030A800F6E7721C22443846FFF7CCFF05460EF0BF
:1030B80095FF01347862A019431B5842584103B068
:1030C800F0BD38B50446C369E0221A70C36900250B
:1030D8005D700222C169FFF7B5FF94F88136BBB174
:1030E80004F57A7084F8805684F8815607F0D1F890
:1030F80004F21C5007F0CDF804F5CA600AF097FEF8
:1031080004F5617009F0E6F804F5347009F04EF83A
:1031180020460FF061FB0EF061FF6062A06238BDCF
:1031280037B590F8813604464BB920460FF016FBA8
:103138000028FAD020460FF0B8FAC0B217E090F88D
:1031480080369BB100F5347501220DF10701284640
:1031580008F04AFE002806DA10F5D24FF4D02046CF
:10316800FFF7AFFF02E09DF8070000E0FF2003B083
:1031780030BD2DE9F0470546C4698A46FFF7D0FF00
:103188004FF0010846462070EB69002793F800903D
:1031980009F0F0092846FFF7C3FFEB69741C98553E
:1031A80000F07F0303FB08770306A4B2BFB24FEA1F
:1031B800C81801D52646EDE7631EB9F1300F8AF825
:1031C800003013D12846D5F81C80FFF7A9FF08F86E
:1031D80004002846D5F81C80FFF7A2FFF41C02362D
:1031E800B6B2A4B208F80600022300E000231B1BB5
:1031F8009EB2A3199BB29F420BD92846FFF790FFB6
:10320800B5F85430A34284BFEB6918550134A4B211
:10321800EFE7B5F85400A0422CBF20460020BDE8D7
:10322800F08710B504460FF0B5FB94F881361BB94A
:10323800003018BF012010BD94F8800610BD2DE99C
:10324800F14F0D9E04468B4691469A469DF828807C
:103258009DF82C509DF83070FFF7E3FF002848D008
:10326800E36900221A60E269052359462046FFF700
:10327800CFFE6B1E012B12D8238CE26901339BB25F
:1032880023841B121354411CE369228C89B2023037
:1032980080B25A541EB1238C5A1C228433800022D7
:1032A80091B283188A459BB209D9B4F854600132A7
:1032B8009E4204D919F80160E169CE54F0E7B8F1EB
:1032C800000F0CBF302131210FB141F00801022D50
:1032D80002D141F0040103E0012D08BF41F00201D1
:1032E8002046053BE2699BB201B0BDE8F04FFFF70D
:1032F800B6BE01B0BDE8F08F1FB5089C039400244A
:1033080002949DF81C4001949DF818400094FFF722
:1033180096FF04B010BD7FB5054610460E4614460C
:1033280011F02BFE002302930193009322460346DB
:1033380031462846FFF7E0FF04B070BD012A70B59A
:1033480004460E46154620D8FFF76BFFE8B1238CDC
:1033580001339BB203B901232384238CE2691B1236
:103368005371E369228C31469A71E269072320463A
:10337800FFF74EFEE36982211D54031FE2692046D0
:10338800BDE870409BB2FFF76ABE002070BD002206
:10339800FFF7D4BF10B50446FFF743FF28B1204616
:1033A800FFF78FFEE0690FF019F804F138000FF00D
:1033B80021FB2046FFF7AAFD204610BD08B50FF0F7
:1033C800CDF9003018BF012008BD2DE9F04F83B0BA
:1033D80000AF0446FFF725FF0646002800F0BE8030
:1033E8000EF0FCFD226D4FF47A735343A26A054632
:1033F800821A9A4203D8626A821A934216D294F8C1
:103408002C3023B12046FFF75CFE0026A6E0E269D7
:10341800C0211170E26920465370E1690222FFF76A
:1034280011FE01236562A56284F82C302046FFF75F
:10343800C5FF8146002800F09180F91D2046FFF75E
:1034480098FE0246002800F08880E169A5620878A5
:1034580000F0F003302B58D1D4F830B0BBF1000F96
:103468007BD097F807E0EA4601EB0E0046788378B0
:1034780003EB06239BB203F1080020F00700ADEB35
:10348800000D684600261FFA86FC634508D90EEB36
:10349800060C8C449CF803C000F806C00136F2E71D
:1034A8000026C65491F800800EF1030608F00608BD
:1034B800B8F1020FCEEB020220D11E4411F806C06B
:1034C8000EF1050E0E447678D21A73441944053A63
:1034D80006EB0C26D847E36940221A70E369B6B2B6
:1034E80083F80180E36932129A70E3690422DE707E
:1034F800E1692046FFF7A6FD656204E0033A1E4431
:10350800D21A3144D847D54627E000F0E005402DCF
:103518000DD1646B0CB3042A1FD110F0060F1CD117
:103528008878CB7803EB002080B2A04715E0702B99
:1035380013D0902B11D0C02B0AD1D0230B70E36984
:1035480000225A70E16902222046FFF77BFD04E061
:10355800D02B04BF002384F82C304E4630460C375D
:10356800BD46BDE8F08F00002DE9F04F05469346B3
:1035780000F561749946012385B080F8813605F518
:1035880034762046039105F57A7A08F05DFE3046D8
:1035980008F082FB05F21C57504606F075FE05F54B
:1035A800CA68384606F070FE40460AF03BFC002226
:1035B8003549204608F081FB5A460399504607F0E2
:1035C80001FA00285DDBB9F1000F02D10F9B5BB94E
:1035D8000CE00E9B002BF9D01A464946384607F0F6
:1035E800F1F90028F2DA4CE0109B4BB900231A4697
:1035F8001946204608F02CFE8346002841D109E0F0
:1036080000230093109A0F99404605F03BF80028D4
:10361800ECD036E003221146204608F09BFB5A46C0
:103628001A49204608F043FB0121204608F038FBE0
:103638005A461749204608F03DFB5A46514620464F
:1036480008F04FFBB9F1000F06D00F9B23B142469B
:103658003946204608F042FB2146304608F06CFD0A
:10366800044668B90B4B0C4A05F5CB61304608F0A7
:103678002DFB0094094B0A4A2946304608F020FBE6
:10368800204605B0BDE8F08F572E0808F12E08082F
:10369800BD2E0808D5780808C77808088D2E0808B0
:1036A800592E080800B500F53470ADF5017D08F015
:1036B80056FB034638B1064A4FF40071684606F0D7
:1036C800CDF9002000E001200DF5017D5DF804FB37
:1036D800806D090870B5044600F53476D4F8D43204
:1036E800102B05D030460DF03FF905460028F5D0DF
:1036F80015F5D24FF2D015F5D14FEFD004F57A7009
:1037080006F0C7FD04F21C5006F0C3FD04F5CA60BC
:103718000AF08DFBD4F8D432102B09D194F88236F4
:1037280043B12046FFF7BEFF20B94FF0FF3070BD10
:10373800284670BD012384F88036002070BD000043
:103748002DE9F0438BB00446894617461E46DDF83E
:103758004880FFF766FD0546002840F0E780A16C29
:10376800002938D10346B4F84C20A16B20460EF04E
:1037780045FF94F88136002B50D0A16B04F53470C6
:1037880008F0B2FA2046FFF7A5FF002840F0CA80EB
:1037980001232384684B06AA5968186803C2197A5A
:1037A80053F8090F11709A889B79ADF814208DF899
:1037B80016309DF85C300490042BE26931D10498EE
:1037C800531DC2F80500BDF814109DF81620998005
:1037D8009A710C232EE006A80FF05CFC2B46B4F877
:1037E8004C2006A920460FF051F894F88136ABB169
:1037F800A16CC8784B780A780190897806A800915E
:103808004E490EF0FBFD06A904F5347008F06CFA79
:103818002046FFF75FFFB0FA80F040090028B7D1D3
:1038280080E006AB03CBC2F80500C2F809101B788C
:1038380053730E23B8F1000F0AD09DF850209DF85D
:103848004C10520142F0060242EAC102D2B200E034
:1038580002229DF8581009B902F0FD022FB116B9DD
:1038680042F0800201E042F0C002E169581CCA54EB
:10387800226DE16912120A54E169206D9A1C88547C
:103888000333E26949462046FFF7C2FBB8F1000F4F
:103898000BD00346E26941462046FFF7B9FBE269CF
:1038A800034615992046FFF7B3FB67B10346E26963
:1038B80039462046FFF7ACFB2EB10346E269314694
:1038C8002046FFF7A5FB431F9BB2E2691021204663
:1038D800FFF7C5FB0EF082FB4FF47A776062A062B7
:1038E8002046FFF76BFD064658B90EF077FBA36A32
:1038F800C01A236D7B439842F2D92046FFF7E1FBBB
:103908000EE00DF10F012046FFF733FC042809D122
:10391800E369DF7837B90EF061FB84F82C70A06298
:10392800354604E02046FFF7CCFB00E0002528469A
:103938000BB0BDE8F08300BF706D0908856D0908FC
:103948007FB5042305930123049300230393029373
:10395800019300931A46FFF7F3FE07B05DF804FBE6
:103968000EF0BCBA6C22002111F0D9BA38B100F1BE
:103978006C020023904202D003700130FAE77047CE
:1039880008B56C2211F0A5FA08BD000000230360F9
:103998004360A1B9184B8360184BC360184B03618F
:1039A800184B4361184B8361184BC361184B036272
:1039B80003F17453A3F52303A3F6924318E0154BC0
:1039C8008360154BC36003F1794303F5740303F572
:1039D80001630361114B4361114B836103F1D143CF
:1039E80003F5C01303F51E63C3610E4B03620E4B50
:1039F800436281660020704767E6096A85AE67BB47
:103A080072F36E3C3AF54FA57F520E518C68059BB8
:103A1800ABD9831FD89E05C107D57C3639590EF717
:103A2800310BC0FFA78FF964A44FFABE2DE9F04F00
:103A3800031DCFB005931A46002352F8040F06ACB5
:103A480044F823000133082BF7D1084600220EACB6
:103A580011F82250C378043043EA056310F8035C78
:103A680043EA054310F8025C43EA052344F8223090
:103A78000132102AECD10D9B9F4C00930C9E099BA0
:103A8800089FDDF82CB0DDF81CE0DDF82880DDF8B3
:103A980018900FAD04F1400A54F8040C4FEAF822CC
:103AA80055F8041C86EA0B0C82EAB812014482EA33
:103AB80078620CEA080C8CEA060C0A440099624405
:103AC8004FEA79304EEA090C0A440CEA070C0EEA70
:103AD800090180EAB9004CEA010180EAB9500844BA
:103AE80013442968024420688BEA080C01440CEA54
:103AF800030C4FEAF3208CEA0B0C0E4480EAB31057
:103B080006EB0C0180EA73600E1806EB070C42EA1C
:103B180009004FEA723702EA090187EAB20700EAA8
:103B28000E0087EAB257084338443044696866682B
:103B380083EA08070E4407EA0C074FEAFC2187EAE4
:103B48000807B34481EABC110BEB070681EA7C61E4
:103B580006EB010B4FEA703742EA000102EA000661
:103B680087EAB00701EA090187EAB05731433944C7
:103B7800AE68A7685944DE443E4483EA0C0BB0445F
:103B88000BEA0E0B4FEAFE268BEA030B86EABE16FB
:103B9800D84486EA7E6646444FEA713B40EA01080B
:103BA80000EA01078BEAB10B08EA02088BEAB15B6D
:103BB80048EA0708D844B044B144E768EE688CEA9C
:103BC8000E0B37440BEA090B8BEA0C0B3B4403EB57
:103BD8000B074FEAF92383EAB91383EA7963FE18DE
:103BE800931900934FEA783741EA080301EA08027B
:103BF80087EAB807034087EAB85713433B4433447E
:103C08002A6926694FEA733B32449444009A8EEA43
:103C1800090616404FEAF22786EA0E0687EAB21727
:103C2800B44487EA72670CEB070248EA0307861870
:103C38000F4008EA03008BEAB30B8BEAB35B074338
:103C48005F44174460696A6920341044009A8644C6
:103C580089EA020C0CEA060C8CEA090C0EEB0C0043
:103C68004FEAF62E8EEAB61E8EEA766E00EB0E024C
:103C78004FEA773043EA070E01EB020B0EEA080E13
:103C880003EA070180EAB70080EAB7504EEA010E5E
:103C98008644964454F8081CAA69A2451144009A1F
:103CA800894482EA060000EA0B0080EA020009EB78
:103CB80000014FEAFB2989EABB1989EA7B6901EB14
:103CC80009024FEA7E3047EA0E0980EABE0009EA97
:103CD800030907EA0E0180EABE5049EA0109814456
:103CE8009044914405F120057FF4D6AE0022DFF818
:103CF8000CA00EAC049203E0986D0908946D0908B5
:103D0800A26B60684FEAF24585EA724585EA92251A
:103D1800049A0DF1380C5CF82220616A4FEAB04C25
:103D28000A448CEAF01C4FEAF8218CEAD00C81EAAC
:103D3800B811154405EB0C0281EA786586EA0B0197
:103D480001EA0801039281EA0602A918DAF840207C
:103D58004EEA09050A4403993D4021640A44009942
:103D68000AF1200A0A44D3184FEA7931009381EA0C
:103D7800B9010EEA090381EAB9512B430B441A44ED
:103D8800E36BA5684FEAF34181EA734181EA932125
:103D9800A36A2034034419444FEAB54383EAF51370
:103DA80083EAD50C01EB0C03DAF8240000998BEABE
:103DB800080C30440CEA010C8CEA0B0CC1188C443A
:103DC800009963624FEAF12080EAB11080EA7160DD
:103DD80000EB0C01C81901904FEA723C42EA090055
:103DE80002EA09078CEAB20C00EA0E008CEAB25C1F
:103DF800384360440844039954F8147C4FEAF14668
:103E080086EA714686EA9126E1684FEAB74C29446A
:103E18000E448CEAF71C00998CEAD70C664481EAB8
:103E2800080C0199A6620CEA010CDAF828108CEA51
:103E3800080C59448D190199AC44019D4FEAF121B0
:103E480081EAB51181EA756101EB0C0542EA0001CE
:103E58004FEA703C05EB0E0B8CEAB00C02EA000E40
:103E680001EA09018CEAB05C41EA0E016144294487
:103E78004FEAF34585EA734585EA9323256954F8A3
:103E880010CC2F443B444FEABC4787EAFC1787EA2B
:103E9800DC0E03EB0E079DE828005D4005EA0B05E4
:103EA8005D40DAF82C304FEA713E9844B8444544F6
:103EB8004FEAFB2888EABB1888EA7B6808EB050309
:103EC80003EB090540EA010802958EEAB10E00EA03
:103ED800010508EA02088EEAB15E48EA0508F044DE
:103EE80098444FEAF64E63698EEA764E54F80C5CB5
:103EF8008EEA96260CEB030E019B764483EA0B0CA4
:103F08004FEAB54E029B8EEAF51E8EEAD5090CEAF9
:103F1800030C019B06EB090EDAF830608CEA030CFF
:103F2800009B76441E44029BB444029E4FEAF3234E
:103F380083EAB61383EA766303EB0C0693190093BE
:103F480041EA080301EA0802034013434FEAF74233
:103F580082EA7742E7624FEA783C82EA9727A269C9
:103F68008CEAB80C54F8089C8CEAB85C1544029AA0
:103F7800634433442F448BEA02064FEAB945009A5A
:103F880085EAF91585EAD9051640DAF834203D4462
:103F9800019F2A443A4486EA0B061644009AC4F85C
:103FA80030E04FEAF22787EAB21787EA7267BA1950
:103FB80086184FEA733080EAB30048EA030780EABC
:103FC800B35C0F4008EA03000743674417444FEA0D
:103FD800FE4282EA7E4282EA9E2EE26954F8040C8E
:103FE80091440EEB09024FEAB04989EAF01989EACF
:103FF800D0099144029A65639646009AC4F83890AD
:104008008EEA020CDAF838200CEA060C8CEA0E0C60
:104018004A444FEAF62E5A448EEAB61E62448EEAA5
:10402800766E72444FEA773C43EA070E01EB020BC7
:104038000EEA080E03EA07018CEAB70C8CEAB75CB3
:104048004EEA010EE64496444FEAF542216882EAB8
:10405800754282EA9525039A4FEAB14C10448CEADE
:10406800F11CDAF83C2005448CEAD1010D44029990
:104078002A4402EB0109009A4FEA7E3082EA0601DF
:1040880001EA0B0151404FEAFB2282EABB12894444
:1040980082EA7B624A4447EA0E0980EABE0009EADE
:1040A800030907EA0E0180EABE5049EA0109814482
:1040B80090449144049AE5630832302A04927FF4CC
:1040C8001FAE009A09930D92CDF82880CDF82CB038
:1040D8000C96CDF81890CDF81CE008970023059AA7
:1040E80052F8041F059206AA52F8232001330A4405
:1040F8000599082B0A60F2D100204FB0BDE8F08F77
:104108002DE9F04104460E46154682B3036803F0D4
:104118003F0013449A42236082BF6368013363609F
:1041280080B1C0F14007BA421BD304F128083A46CF
:10413800404410F0CEFE41462046FFF777FCB8B960
:104148003E44ED1B2F46E91B3F2F314405D920463D
:10415800FFF76CFC60B9403FF5E747B13D460E46B6
:10416800002028342A463146204410F0B2FE0020B0
:10417800BDE8F08170B504460368802203F03F0370
:10418800581C382823440D4683F8282004F12806B3
:1041980004D8C0F13802002130440EE0C0F14002DA
:1041A8000021304410F0BBFE31462046FFF73EFCAC
:1041B800002875D101463046382210F0B0FE236839
:1041C80061685A0F42EAC102110EDB0084F86010E0
:1041D800110C84F8611084F86320110A1A0E84F80F
:1041E80064201A0C84F865201A0A84F8621084F88E
:1041F800673084F8662031462046FFF717FC0346EF
:1042080000284CD1E27A2A7062896A70A268120A80
:10421800AA70A268EA70E27B2A71E2896A71E26890
:10422800120AAA71E268EA71E27C2A72628A6A72E8
:104238002269120AAA722269EA72E27D2A73E28A64
:104248006A736269120AAA736269EA73E27E2A745F
:10425800628B6A74A269120AAA74A269EA74E27F7C
:104268002A75E28B6A75E269120AAA75E269EA752B
:1042780094F823202A76628C6A76226A120AAA7631
:10428800226AEA76A06E50B994F827302B77E38C2F
:104298006B77636A1B0AAB77636AEB7770BD184666
:1042A80070BDF0B51F469DB0054601A80E461446E0
:1042B800FFF758FB394601A8FFF768FB014658B9D4
:1042C8002946324601A8FFF71BFF014620B92146BF
:1042D80001A8FFF74FFF014601A8FFF747FB084673
:1042E8001DB0F0BD2DE9F04F0446A5B0006801935C
:1042F8000F469346309E04F0D9FF8146002303936E
:1043080001238DF80F300DF15008002E5CD05A466D
:104318003946204604F008FF002856D12E9A019904
:10432800204604F061FF00284FD1042203A920464B
:1043380004F05AFF002848D14146204604F064FFA3
:10434800002842D104AD4A464146284610F0C1FD36
:104358004FF0010A2F9B9A451DD25A4639462046EE
:1043680004F0E2FE88BB4A462946204604F03CFF9A
:1043780058BB2946204604F047FF30BB484507DABA
:1043880010F80820435D534000F808300130F5E785
:104398000AF1010ADEE74E45354628BF4D4641463B
:1043A8002A46319810F095FD319B761B2B443193AA
:1043B80004AA12F8013D0133DBB21370002BA4D11B
:1043C80003AB9342F5D1A0E7304625B0BDE8F08FA6
:1043D8002DE9F0431F46BDB00023069307930993C8
:1043E800446883684FF0040908931C4403680D4629
:1043F800302B16468DF8169040F0C98010AB0AAAEB
:10440800214608A800F065FD002858D10B9A092A12
:104418004CD10C99614810F04DFD002846D1129BF3
:10442800119A249303EB0208109B302B40F0AF80C5
:104438004B4617AA414624A800F072FCF8B9249A02
:10444800179B18921344414606AA24A8249300F007
:1044580094FCA0B9249B984522D007AA414624A8D9
:1044680000F08BFC10B110F1620F08D1249B984525
:1044780016D02CAA414624A800F073FD28B1A0F557
:104488003C50002840F086800AE00DF116012CA867
:1044980002F00CF950B9249B984501D0404879E0C6
:1044A8009DF8160004F0BEFD814608B93D4871E04C
:1044B80013AB0DAA214608A800F00BFD10B1A0F51A
:1044C8003C5067E00DF117010DA802F0C1F8002873
:1044D800ECD19DF8170000F049F980460028E5D096
:1044E8004368DB080793139B042B52D1C368149AC3
:1044F8009A424ED119A804F0A1FD2CA800F058F951
:10450800149A159924A810F0E4FC0122494619A828
:1045180004F0BAFD0446002831D1079B0DF170095B
:104528000293069BCDF80C900193179B3A46009393
:104538003146189B19A8FFF7D5FE0446F8B941463D
:104548002CA800F009FB0446C8B9079A6BB2D20040
:1045580049462CA800F042F9044680B909AB0293F9
:10456800469B149A0193459B24A900932CA8449B2D
:1045780000F010FBA4F53854002808BF002419A83F
:1045880004F061FD2CA800F017F9204602E0064867
:1045980000E006483DB0BDE8F08300BF946E09080E
:1045A8009AD0FFFF80D1FFFF9ED0FFFF00D1FFFF11
:1045B80010B1006800B14069704710B5891A00242D
:1045C800E3B2994204F1010402D903449954F7E78C
:1045D80010BD0000F0B500B3FAB1431813F8014C50
:1045E800B4FA84F35B09A14238BF43F001030F1BFF
:1045F800176000228A420BD0855CBA4284EA05061D
:1046080034BF0025012575432B43DBB20132F1E7A6
:10461800002B034808BF0020F0BD0248F0BD00BFD2
:10462800009EFFFF009FFFFF802330B58354891A47
:1046380001230025994204D9C4180133A554DBB2DB
:10464800F8E730BD70B501238D1A00269D4206D9C2
:10465800C4181444013304F8016CDBB2F6E70144D2
:1046680001F8015C70BD000070B5F0B1EAB14E1EF2
:10467800845DB4FA84F30D1B5B09A1422CBF194673
:1046880043F0010115600023B34209D2AB42C45C78
:1046980034BF0022012262431143C9B20133F3E758
:1046A8000029034808BF002070BD024870BD00BF44
:1046B800009EFFFF009FFFFF10B502440023141A5D
:1046C800A14202D902F8013BF9E710BD18B112B1B5
:1046D8001160002070470148704700BF009FFFFF2E
:1046E800F0B5F0B1EAB1002313600844802499B111
:1046F80010F8015D0139002D0CBF1D4643F001057E
:104708006B4001FB03F617683E4316600678734357
:104718005C40E4B22B46EAE7002C034808BF0020BF
:10472800F0BD0248F0BD00BF009EFFFF009FFFFFE5
:1047380030B5A8B1A2B10023136001448142A1EBB6
:1047480000040FD011F8015D002D0CBF1D4643F089
:1047580001056B4063431468234313602B46EDE760
:10476800014830BD002030BD009FFFFF054B53F8C6
:10477800042C22B1083313F8101C8142F7D11046DB
:10478800704700BFA87C090830B5084C63685BB166
:104798009D692D78854205D15D688D4202D15D788D
:1047A800954201D00834F1E7184630BDA07C0908CD
:1047B8004022002110F0B3BB10B5044668B1C06BAD
:1047C80018B123689B699B69984704F1400200234C
:1047D800944202D023700134FAE710BD30B4C8B156
:1047E8000468BCB12569AD0702D46568954211D14A
:1047F800012B4260037204D06578032D01D0052D8A
:1048080002D1A369DB6802E023B9A3691B69C06B05
:1048180030BC1847014830BC704700BF009FFFFFFD
:1048280038B50446B0B10368A3B199B1102A0FD8BE
:104838001869C00703D4DD68AA4201D20AE0154608
:104848002A4604F1280010F044FBA563002038BD77
:10485800014838BD014838BD809FFFFF009FFFFF1A
:1048680028B103681BB1002343621846704701480A
:10487800704700BF009FFFFF2DE9F74FDDF830803C
:104888000F4615469946044608B95C48B2E00368E5
:10489800002BFAD0B8F1000FF7D00023C8F8003089
:1048A800FFF786FE236806465B78012B10D19042FD
:1048B8007DD1C8F8000023680A469B6994F908105E
:1048C8005D684B46AC46E06B03B0BDE8F04F60470F
:1048D800062B0AD1C8F800204B460A462946E06B49
:1048E80003B0BDE8F04F04F0BBB9002861D04945DA
:1048F80008D1626A002AC8D1B5FBF0F200FB125257
:10490800002AC2D1022B56D194F90830606A2BB91B
:10491800E3682BB1331A9D420FD804E0012B0CD168
:10492800331A9D4209D220442A463946143010F0E1
:10493800D0FA636A1D44656237E010B3C0EB060A1B
:10494800204452463946143010F0C3FA234653F82F
:10495800142B94F9081092698DE8080204F12803D1
:10496800D2F808B0E06B3246D847002842D1D8F8D0
:104978000030B1443344C8F8003057446062CAEB91
:10498800050595B1B5FBF6FA06FB1A5ABAF1000F00
:1049980013D0CAEB05055246791904F1140010F03A
:1049A80098FA636A5344636295B9002022E0144878
:1049B80020E014481EE014481CE094F90830002B4D
:1049C800E7D1E368002B0CBF4FF0000AB246E0E7DE
:1049D800236894F908109B698DE880022A469E682E
:1049E800E06B04F12803B04720B9D8F800301D4423
:1049F800C8F8005003B0BDE8F08F00BF009FFFFF6C
:104A0800809DFFFF809CFFFF809FFFFFF7B50E464C
:104A180015460446002852D00368002B4FD0002AC0
:104A28004DD00023136007687A78032A4DD0511FB0
:104A380002294AD9012A01D1636A16E0022A40D123
:104A480090F90830012B09D1C368002BF4D0A16B71
:104A5800143001B9F968626A98470BE0FFF7A8FDBE
:104A6800636A984206D0E2686ABB002B184808BF00
:104A780000202BE02046FFF79BFD234653F8142B1C
:104A880094F9081092698DE8480004F128039768A2
:104A98000246E06BB8470346B8B994F908202046A7
:104AA8004AB9FFF785FD2A4601463046236903B017
:104AB800BDE8F0401847FFF77BFD286005E0054892
:104AC80004E0054802E0024800E0184603B0F0BDE3
:104AD800809DFFFF009FFFFF809FFFFF08B30368D3
:104AE8005B78022B1DD104291DD8DFE801F00307EC
:104AF8000D1115000D4BC3600D4B02E00D4BC3604B
:104B08000D4B0361002070470C4BC3600C4BF8E75A
:104B18000C4BC3600C4BF4E70C4A0023C3600261E2
:104B2800F0E70B4870470B48704700BFC3450808BB
:104B3800DD45080831460808E94608084D460808D2
:104B480071460808C146080839470808D5460808C4
:104B5800009FFFFF809FFFFF38B504460D4681B1D7
:104B680078B14022002110F0DAF9AB695B69984707
:104B7800E06340B1256000212046FFF7AFFF002029
:104B880038BD024838BD024838BD00BF009FFFFF4E
:104B9800809EFFFFF0B585B005461F460B9E0C9C16
:104BA800FFF73EFEB0B92846FFF75AFE90B90094C9
:104BB80033460A9A39462846FFF75EFE50B92168FF
:104BC80003AA31442846FFF721FF18B92268039B3E
:104BD8001344236005B0F0BD2DE9F043076814467F
:104BE8007F78079D062F089E099ADDF828E0DDF8F2
:104BF8002C90DDF83080DDF834C012D1C9F80020DF
:104C08000893CDF83480CDF830C0CDF82CE00A9662
:104C1800099507940B46BDE8F0430121C06B04F0E9
:104C28000AB90148BDE8F083809FFFFF30B50568E9
:104C380087B06D780C46062D0C9917D10E9D29600A
:104C48000D9D05950B9D0495109D03950F9D02954F
:104C58000A9D8DE828001346C06B224604F010F91F
:104C6800044B10F1120F08BF184600E0024807B0C5
:104C780030BD00BF009DFFFF809FFFFF30B5036878
:104C8800CD1A002D02DC6FF05F0030BD1C7814F0E7
:104C9800800F04D15C1C04601B78136036E004F0BC
:104CA8007F04013C032C38D8DFE804F00209132004
:104CB800012DE8D05B7813600368023325E0022DEC
:104CC800E1DD5C789B7843EA0423136003680333CF
:104CD8001BE0032DD7DD9C785D782402DB7844EA5D
:104CE80005441C431460036804330EE0042DCADD38
:104CF8009C785D78240444EA05651C79DB782C43AC
:104D080044EA032313600368053303600368C91A80
:104D180013688B42B7D8002030BD6FF0630030BDF8
:104D280070B404680E1B002E07DD26789E4207D15A
:104D38000134046070BCFFF7A1BF6FF05F0001E0B1
:104D48006FF0610070BC704737B50123154601AAA2
:104D58000446FFF7E5FF70B9019B012B09D12368D1
:104D68001B78003318BF01232B60236801332360AD
:104D780001E06FF0630003B030BD37B5022315467C
:104D880001AA0446FFF7CCFFC8B9019B013B032BDE
:104D980013D8236893F90030002B0EDB28600198A4
:104DA800431E019358B123682A681B7843EA0223FB
:104DB8002B60236801332360F1E76FF0630003B0D1
:104DC80030BD37B50223154601AA0446FFF7A8FFF0
:104DD80040B9019A2168284607F0A7FE2268019B7E
:104DE8001344236003B030BD70B5032304460E4658
:104DF8001546FFF795FFD8B91368A3B1013B1360B7
:104E080023681B78072B137110D82368013323609C
:104E1800936022682B6813449E42236014BF6FF08E
:104E28006500002070BD6FF05F0070BD6FF063001B
:104E380070BD38B5032304461546FFF771FF58B90E
:104E480013685A1E012B2A6004D923685A1C226051
:104E5800187808B16FF0670038BD2DE9F3411546A1
:104E68001F4601AA302304460E46FFF759FF68BBC8
:104E78002268019B13449E421DD06FF0650025E017
:104E880023689E421AD91B7842462B6031463B461E
:104E98002046FFF745FFC8B92368AB6022686B68F6
:104EA80013449E422360EBD9102101200FF0E2FF4A
:104EB800E86048B1054605F10408E1E70020E8602C
:104EC80023689E4202D0D8E76FF0690002B0BDE8BF
:104ED800F081F7B517461D4601AA302304460E4651
:104EE800FFF71EFF00283AD12368F61A002E31DD9D
:104EF8003A461B78204642F8043B2668019B1E442C
:104F080031460623FFF70CFF48BB2368BB602268C5
:104F18007B68D1188E42216006D105F10C039D42B1
:104F280016D028700135FAE7D35C2A4642F8043BCC
:104F380023683146013323602046FFF79FFE70B98E
:104F48002368AB6022686B6813449E42236004D1D7
:104F5800002004E06FF05F0001E06FF0650003B02F
:104F6800F0BD1FB5002301930293039301ABFFF734
:104F7800B0FF60B9019B052B00D033B9029B002B11
:104F880014BF6FF06700002001E06FF0670005B004
:104F98005DF804FB01F0EEBB01F0CCBB10B5044694
:104FA80001F0BEFB2046BDE810400DF017BA10B561
:104FB8005C2101200FF05EFF044608B101F0ACFB54
:104FC800204610BD02F0C2BB02F086BB01F0B8BBA0
:104FD800FEF72CBDFEF7D4BC10B50446FEF7C6FCA0
:104FE8002046BDE810400DF0F9B910B56C2101203C
:104FF8000FF040FF044608B1FEF7B4FC204610BD90
:105008000123FFF74EB90023FFF74BB9FFF7B2B8FA
:10501800FFF776B80121FEF7B9BC0021FEF7B6BC50
:105028000AF02AB90AF084B810B504460AF076F8EE
:105038002046BDE810400DF0D1B910B5D8210120A7
:105048000FF018FF044608B10AF064F8204610BDB6
:1050580001230BF0CCB800230BF0C9B80AF094BFB9
:105068000AF04ABF01210AF06BB800210AF068B8BB
:1050780001440023884202D003700130FAE77047E8
:105088002DE9F04F95B01E9D04AE07460C4691469B
:1050980000214022304601930DF150080FF03FFFE8
:1050A8000023286848F8443D04F000F982467CB3A0
:1050B80054452846A34628BFD34604F007F80246BD
:1050C80038BB019A4946284604F00AF8024600BB54
:1050D80004224146284604F003F80246C8B931467E
:1050E800284604F007F8024698B93B465A4507D0C7
:1050F80013F8010BB15C0132414003F8011CF5E7DC
:105108009DF80F30174401338DF80F30A41ACEE7FD
:10511800224630464021FFF7ABFF104615B0BDE8E8
:10512800F08F00002DE9F3471D4600230E469146F7
:10513800DDF8288000930193044628B303F072FF3A
:105148000646002863D020466A4601A901F09AFA6B
:10515800044600285BD1304604F0A8F8009F0646B4
:10516800074407F108037F2B51D810F10A024ED2E9
:1051780007F10A039A424AD89D4248D3A5F10A0387
:10518800DF1B0A2F06D842E08D4240D36D1A0A2D44
:105198003DD93EE0C246033F0AF8024B01233A4696
:1051A80088F80130FF2150460FF0B9FE0AEB0703DB
:1051B80030210AF807405970009FD97007F108029A
:1051C80032449A70FAB2111D03F1070A19710621C7
:1051D80059719A7101993A4650460FF07AFE0522A4
:1051E8000AEB07030AF8072004229F189A70DE705A
:1051F8005C703246494638460FF06BFE3E4408EB79
:1052080005039E4219D029464046FFF731FF0D4C51
:1052180013E04346EF1E03F8020B012288F8012031
:10522800FF213A4618460FF07AFE0346C455A81ED9
:105238003246494618440FF04CFE204602B0BDE8FD
:10524800F08700BF80BFFFFFF8B500F10805476889
:10525800044628460E4607F062FC874217D1636869
:10526800B3F5806F13D80021284607F029FE0028DF
:105278000DDD0021284607F008FC40B1EEB104F12D
:105288002C050021284607F01BFE002801DC1A48DF
:10529800F8BD0021284607F0F8FB0028F7D004F1F4
:1052A80038050021284607F00BFE0028EFDD002115
:1052B800284607F0EAFB0028E9D0002104F1140091
:1052C80007F0FEFD0028E2DDA6B1002104F144004C
:1052D80007F0F6FD0028DADD002104F1500007F0A0
:1052E800EFFD0028D3DD002104F15C0007F0E8FDA4
:1052F8000028CCDD0020F8BD80BFFFFF2DE9F84372
:10530800099F044698460B9E0D9D49B100F1080976
:10531800484607F00AFC50BB484607F000FC6060AE
:10532800B8F1000F01D147B90EE0089A414604F1DF
:105338002C0007F0FAFBD0B9F5E70A9A394604F1D0
:10534800380007F0F2FB90B936B10C9A314604F1F7
:10535800200007F0EAFB50B935B10E9A294604F14E
:10536800140007F0E2FB10B90020BDE8F883A0F5AF
:105378008140BDE8F88300002DE9F04F00F1080BEB
:1053880087B007460021584607F09AFD07F12C0917
:1053980000218046484607F093FD07F1380A05903A
:1053A8000021504607F08CFD07F120030021054637
:1053B8001846029307F084FD07F1140304900021B6
:1053C8001846039307F07CFD059B049A4BB125B161
:1053D8002AB1061C18BF012613E02E4611E0164616
:1053E8000FE0B8F1000F03D144464646002224E0FE
:1053F800CDB91AB1F0B9064604460EE02E462C4641
:105408000DE0ADB192B9041C18BF0124B8F1000F2A
:10541800ECD0002BEAD1002DE8D1002AE6D10028F3
:10542800E4D0012209E01C461E46DFE70024EDE730
:105438002C46DBE701262C4602E0002E3DD0002654
:1054480004940124B8F1000F0BD153B14DB1524669
:105458004946584607F053FE28BB584607F05FFBFD
:10546800786046B1CDF800A04B46029A0399584699
:105478000AF08EFF07E0049B33B1029B039A514662
:1054880048460BF081F870B984B107F15C030193C9
:1054980007F150030093029A07F144035146484626
:1054A8000BF016FA10B1A0F581400CE02146384601
:1054B80007B0BDE8F04FFFF7C7BE0CB912B12646DA
:1054C8000494BFE7014807B0BDE8F08F80BFFFFF35
:1054D80070B504460E4615460021AC220FF01FFD9C
:1054E800C4F8A460C4F8A85070BD406870470000B4
:1054F80070B500210446FFF7A7FE0546B8B904F1C8
:105508000806304607F0EBFA7F2810D914342946EC
:10551800204607F0BAFA50B1204607F0E0FA012811
:1055280005D93146204607F086FC002800DB014DEE
:10553800284670BD00BEFFFFF0B585B00446FFF7F2
:10554800D7FF28BB01212046FFF77EFE00BB04F1F0
:10555800140304F12C0504F1380604F12007029025
:105568000190009332463B46294604F108000BF0AF
:10557800E9F868B904F15C03019304F1500300935E
:105588003A4604F14403314628460BF05BF800B173
:10559800014805B0F0BD00BF00BEFFFF38B50546A5
:1055A8000C46FFF7A5FF50B92046FFF7C5FF30B9F5
:1055B80004F1080105F1080007F03DFC08B10548B1
:1055C80038BD04F1140105F1140007F034FC00287B
:1055D800F5D138BD00BEFFFF2DE9F0410C4686B07D
:1055E800002105461746FFF72FFE064678BB03A89D
:1055F80007F0BCF921466A6803A807F096FA044642
:10560800F0B905F10804214603A807F014FC0028A6
:1056180014DA05F1680303A9009305F1140223467F
:105628000846D5F8048007F0D8FF044640B942463A
:10563800394603A807F0AEFA044601E06FF0030408
:1056480003A807F09AF91CB1A4F5854600E0024EBC
:10565800304606B0BDE8F08180BFFFFF2DE9F04F6E
:105668000E46A5B00121044692461D46FFF7ECFD03
:105678000390002840F09B8106A807F077F909A855
:1056880007F074F90CA807F071F90FA807F06EF984
:105698002EB118A807F06AF91BA807F067F912A835
:1056A80007F064F915A807F061F91EA807F05EF97C
:1056B80021A807F05BF96268294606A807F035FAC1
:1056C8000746002840F0508104F10805294606A83D
:1056D80007F0B1FB002880F2438106A91EA807F055
:1056E8008EF90746002840F03F8104F1500304F189
:1056F80044090493002E00F0C580D4F8A03023B3E9
:1057080004F18C0842464146404607F0F8FC07463B
:10571800002840F029812A464146404607F02BFFE1
:105728000746002840F0208104F198084246414687
:10573800404607F0E4FC0746002840F015812A4659
:105748004146404607F017FF37E00C23059304F164
:10575800980B04F18C08059B013B059300F02A8106
:105768006168534632460139584608F0DAF9074667
:10577800002840F0F9802A465946404608F04CF97E
:105788000746002840F0F0800121404607F098FBCA
:105798000028E0D12A465946404608F0E5F9074670
:1057A800002840F0E18004F16803009304F114023A
:1057B8002B464146404607F010FF0746002840F0B8
:1057C800D38006A904F18C02084607F098FC074626
:1057D800002840F0C98006A92A46084607F0CBFEF3
:1057E8000746002840F0C080012204F12C0109A8D6
:1057F80007F06FFC0746002840F0B680012204F14C
:1058080038010CA807F065FC0746002840F0AC807A
:10581800534632461C210FA808F083F90746002892
:1058280040F0A2800FAA09A918A807F068FC07464B
:10583800002840F0998018A94A46084607F0F0FB6E
:105848000746002840F09080534632461C210FA896
:1058580008F067F90746002840F086800FAA0CA9CF
:105868001BA807F04CFC074600287DD11BA9049A09
:10587800084607F0D5FB0746002875D11BAB0493F3
:105888000DF1600904F1740304F12C0800934A46F1
:10589800434606A912A807F0A0FE0746002863D1D0
:1058A80004F1800304F138090093049A4B4606A9D1
:1058B80015A807F092FE0746002855D115AA12A987
:1058C80006A807F0CEFB074600284DD104F15C027C
:1058D80006A912A807F013FC0746002844D142463F
:1058E80012A906A807F047FE074600283CD14A46F9
:1058F80006A912A807F003FC0746002834D112AA0B
:1059080015A906A807F08CFB074668BB66B904F121
:105918006803009304F114022B4606A921A807F096
:105928005CFE074600BB0FE006A904F19802084692
:1059380007F0E5FB0746B8B906A92A46084607F066
:105948001AFE074680B9E2E71EA921A807F073FAF4
:1059580048B962682E9906A807F01CF9074603E0C3
:105968006FF0030700E0164F09A807F006F80CA827
:1059780007F003F80FA807F000F82EB118A806F0F2
:10598800FCFF1BA806F0F9FF06A806F0F6FF12A810
:1059980006F0F3FF15A806F0F0FF21A806F0EDFFCA
:1059A8001EA806F0EAFF3FB1A7F5864300E0054BC5
:1059B800039301E0044FD7E7039825B0BDE8F08FC3
:1059C80080BCFFFF80BFFFFF80BBFFFF2DE9F04FCA
:1059D800012B8BB080468B4603920493169F189E2A
:1059E80005D1D0F8A430012B01D040487AE0BBF1B2
:1059F800000FFAD098F8A80003F014FB02900028D2
:105A0800F3D0D8F8044003F051FC4300059342005A
:105A1800BB1C13449F420546E7D89C42E5D3224667
:105A2800002130460FF07BFA06F10109002333709C
:105A38002A4649460398D84710B1A0F5894051E055
:105A480009EB050A5346159A1499029803F05CFB72
:105A5800002847D10590A01EC01B6B002844C01A1F
:105A680001220AF80020104417993A46504407AF1B
:105A78000FF02FFA384603F0E1FA059B02991A460F
:105A8800384603F001FB0246A8B905F1010A013CBA
:105A9800B244641B4A4600972B4621465046FFF7FE
:105AA800EFFA024638B95246009723462946484637
:105AB800FFF7E6FA024607A8029203F0C4FA029A30
:105AC8007AB9049B2BB9324631464046FFF784FD2C
