:020000040808EA
:10000000000008085CB40908000005000A000501AA
:080010000402CF000000000013
:100018006475090809480A4908B5884205D0094A9B
:10002800824202D0121A15F020FC0748074A002124
:10003800121A15F040FC064808BD00BF0004002055
:10004800BCB209087805002078050020D0370020C8
:10005800D037002070B513F079FC074B074C1E46CB
:10006800E41AA4080025A54204D056F8253098477C
:100078000135F8E770BD00BF24B20908A8B2090825
:1000880000F07CB808B501F077F8BDE8084013F037
:100098001BBC12F063BF12F061BF12F067BF12F011
:1000A80065BF0078B0FA80F04009704701230370FB
:1000B800704710B50446084615F02BFC2368184411
:1000C800206010BD70B5826804460D4622B1936861
:1000D800033323F003039360A2684AB1936850681E
:1000E800E918814204D802F10C009160184470BDEF
:1000F800E668AE4238BF2E4606F10C0012F02EFF1D
:1001080078B1002383604660A36800F10C020360A5
:10011800E368A0605B00E36083681D448560D018D5
:1001280070BD70BD054B13F8022C22B1023313F8D1
:10013800031C8142F7D11046704700BF8675090835
:100148000246084619B10B6811461B6818477047E4
:1001580038B5084D2B6813F0010409D12846FFF77C
:10016800A0FF28B1044B28461C605C60FFF79EFF87
:10017800014838BDE0050020E4050020F0B5E1B0F5
:1001880013F0B6FC4FF4165113F098FC41F2883086
:1001980013F022FB404B414C186812F0FFFB012181
:1001A800062013F01BFE0021062013F028FE4FF452
:1001B80016513B4801F094F93A49394801F099F948
:1001C8004FF4FA7013F008FB3749354801F091F9FC
:1001D8004FF4FA7013F000FB344B20AE186812F09D
:1001E80099FA334B40AD186811F0A4FF11F046FF9F
:1001F800304913F06EFA206811F0F4FE80220021D5
:10020800684615F058FB80220021304615F053FB54
:1002180080220021284615F04EFB274B002718683E
:100228001B7900908DF8043013F062FC234913F019
:100238003DFA32466946206811F0FBFE13F058FC7F
:10024800F35D1F4A0021013713F079FA102FF5D119
:1002580013F04EFC13F031FA13F04AFC194913F06D
:1002680025FA20682A46314611F0F0FE002413F0E2
:100278003FFC2B5D144A0021013413F060FA102C66
:10028800F5D113F035FC294613F023FA12F076FC69
:100298000E4B186061B0F0BD7C2A0020D02A0020E7
:1002A800802A002093750908C5750908182B0020B5
:1002B800602B0020D6750908DE750908E475090861
:1002C8002E770908F575090806760908F005002053
:1002D80038B50446806830B14368E360056812F0B9
:1002E80045FE2846F7E7A06038BD10B5044601680A
:1002F8001820FFF725FF10B100230360037263681D
:100308002BB11A680AB11346FBE7186010BD60608C
:1003180010BD38B50D46FFF7E8FF044640B1286820
:1003280014F022FAC4E9040108232372012038BD1D
:1003380038BD38B50D4644687CB1A16805B119B916
:100348004B1B5842584105E0284615F0D8FAB0FA38
:1003580080F0400908B92468EEE7204638BD10B59A
:10036800044601682020FFF7EBFE10B1002303606C
:10037800037463682BB11A680AB11346FBE7186067
:1003880010BD606010BD70B5046805460E4614B90E
:10039800FFF7DEFE70BD21460820FFF7D1FEC8B189
:1003A800002304604360044696B131462846FFF7AF
:1003B800C0FF20B92846FFF7D2FF48B186602368FE
:1003C800002B19BF234606220022002302748361F2
:1003D800204670BDFFF7BCFEE5E7000070B5054696
:1003E80029B90C490430BDE87040FFF762BE436884
:1003F8004E1E0133436016F8010F6C6838B1FFF7E1
:1004080091FE08B1023400E001346C60F3E7013476
:100418006C6070BD0976090810B503685A681C68D5
:10042800A2423FBF541C5C6011705B683CBF002255
:100438001A70426834BF012300231344436010BD7F
:1004480030B50268556892E818009C4207D20B78CC
:100458002BB1631C536011F8013B2370F3E70023B1
:100468002370536842685B1B1344436030BD00002F
:10047800F8B505460C4619B90F49FFF7E1FFF8BD75
:100488002221FFF7C9FF013C14F8016F7EB1304605
:10049800FFF748FE074628B15C212846FFF7BCFF56
:1004A800394600E031462846FFF7B6FFECE722213F
:1004B8002846FFF7B1FFF8BD0976090800000000DB
:1004C80070B51B4D06462B681A4C13F0010F1AD154
:1004D8002846FFF7E6FDB0B10DA3D3E9002328466F
:1004E800C4E90A230CA3D3E90023C4E90C230CA311
:1004F800D3E90023C4E90E230BA3D3E90023C4E9FD
:100508001023FFF7D3FD04EBC604D4E9000170BD46
:10051800176E05B5B5B89346F5F93FE9034F384D61
:10052800321D30F94877825A3CBF737FDD4F15750D
:10053800D0050020480400202DE9F74F6EA3D3E929
:100548000023064603C814F0E9FB002860D0DFF852
:100558003CA208244FF4807700252046D6E900897C
:10056800FFF7AEFF02460B464046494614F0D6FB5D
:10057800002845D0DFF81882D8F80030D90735D4DC
:100588004046FFF78EFD002830D05DA3D3E9002355
:100598007D494046C1E900235BA3D3E90023C1E9B3
:1005A80002235BA3D3E90023C1E904235AA3D3E9B7
:1005B8000023C1E906235AA3D3E90023C1E908238C
:1005C80059A3D3E90023C1E90A2359A3D3E9002396
:1005D800C1E90C2358A3D3E90023C1E90E2358A38A
:1005E800D3E90023C1E91023FFF760FDDAE900230E
:1005F800D6E9000114F00CF9C6E900013D442DB21A
:10060800013C621C4FEA6707AAF1080AA5D103E07A
:1006180005464FF480770824D6E900890022002394
:100628004046494614F084FB002861D046A3D3E92C
:1006380000234046494614F067FB002858D00FF2C3
:10064800101BDBE900AB631C52D0D6E90023DFF8AE
:100658004491CDE90023D9F80030DFF83C8113F04C
:10066800010F2BD14846FFF71CFD38B33AA1D1E959
:10067800000123A3D3E90023C8E9080138A1D1E97F
:100688000001C8E90A0138A1D1E90001C8E90C0153
:1006980037A1D1E90001C8E90E0137A1D1E900016C
:1006A800C8E910014846C8E9022335A3D3E9002365
:1006B800C8E906ABC8E90423FFF7F8FCDDE9000147
:1006C80008EBC403D3E9002314F014FB60B12046FF
:1006D800FFF7F6FE02460B46D6E9000114F098F83B
:1006E800C6E90001ED1B2DB2013C7F1064B2AAE7F8
:1006F800284603B0BDE8F08F00000000D012634127
:100708009A9999999999B93F7B14AE47E17A843FB0
:100718002D431CEBE2361A3F3A8C30E28E79453E87
:10072800BC89D897B2D29C3C33A7A8D523F64939BF
:100738003DA7F444FD0FA5329D978CCF08BA5B25E1
:10074800436FAC642806C80AF168E388B5F8E43E4C
:1007580048AFBC9AF2D77A3E1656E79EAF03D23C12
:1007680080688965D63980390DD13196FC53DA32E3
:10077800C2DEB78145549125148BD77DB207FE0A96
:10078800FCA9F1D24D62503F88050020C805002021
:10079800800500207C050020000400202DE9F34797
:1007A800044602A860E902230923A372FFF7C4FEE6
:1007B800DDE90089208149460646404614F000FBE1
:1007C800054603462B4F20600A21092B07D9A27A38
:1007D800B7FBF1F7013AA272B3FBF1F3F5E728464C
:1007E80013F0A0FF02460B464046494613F05CFE54
:1007F80080463846894613F095FF02460B46404628
:10080800494614F005F88946804614F0D9FA82461C
:1008180013F088FF02460B464046494613F044FE53
:1008280002460B4613F042FE14F0CAFA50448742BF
:1008380001D960600AE000230135636025602EB1AC
:10084800092D81BF01360123268123600A216368AF
:10085800B3FBF1F201FB12333BB994F90A30002BD8
:1008680003DD013B6260A372F1E7204602B0BDE8F8
:10087800F08700BF00CA9A3BF0B519468BB0054611
:10088800104616461C4614F02BFA08B94C4920E0CD
:10089800002200233046214614F02CFA20B16B6860
:1008A80004F1004401336B600022002330462146E6
:1008B80014F016FA88B9324623463046214613F01A
:1008C800F5FD02460B463046214614F009FA20B1E0
:1008D8003C49281DFFF7EDFB6FE02346324601A88F
:1008E800FFF75CFF0AA9002301F8033D0E46019CAF
:1008F8000A23B4FBF3F203FB1244303401F8014D30
:100908001446002AF5D12F1D3846FFF7D2FB9DF972
:100918000E10E9B10AA800F8094D02460C46029BE0
:100928004FF00A0C013C64B2B4F1FF3F08D0B3FBAE
:10093800FCFE0CFB1E33303300F8013D7346F1E733
:10094800C9B2511A2E2301F8013D3846FFF7B1FB11
:10095800BDF90C30002B18DA1B493846FFF7A9FB04
:100968003146BDF90C3000225B428DF825200A2063
:1009780093FBF0F200FB1233303301F8013D1346CC
:10098800002AF5D13846FFF794FBBDF90C30002B4F
:1009980013DD31466A680A2001326A6000228DF848
:1009A800252093FBF0F200FB1233303301F8013DB0
:1009B80013B2002BF5D138468CE70BB0F0BD00BF61
:1009C8000E7609081576090812760908F0B5037835
:1009D80087B0013B0C46072B54D8DFE803F02823E7
:1009E800492D2A0A1F04D0E902230846FFF744FFCD
:1009F80048E04B68826801334B60556855B105F192
:100A080008002146FFF7E2FF2D681DB16368013336
:100A18006360F3E763680133636033E0806800F084
:100A280037F82FE081682046FFF7D8FC2AE0816874
:100A380025E04B6801334B6006AD002305F8033D04
:100A4800D0E90267304639460A22002314F042FDF5
:100A5800303205F8012D0023304639460A2214F0B9
:100A680039FD06460F4656EA0703EBD1294606E04C
:100A7800D0E902231343044B044908BF1946201D3B
:100A8800FFF717FB07B0F0BD237609081E760908A3
:100A980070B50C464B6801334B6045689DB12E46D6
:100AA800204656F8081FFFF799FC63682146013372
:100AB800636006F10800FFF789FF2D681DB16368C0
:100AC80001336360EAE763680133636070BD000067
:100AD800F0B519468BB00546104616461C4614F06C
:100AE800FFF808B94C4921E000220023304621468E
:100AF80014F000F928B12D212846FFF78DFC04F1E8
:100B08000044002200233046214614F0E9F888B951
:100B1800324623463046214613F0C8FC02460B46AF
:100B28003046214614F0DCF820B13C492846FFF74E
:100B380087FC6FE02346324601A8FFF72FFE0AA97B
:100B4800002301F8033D0E46019C0A23B4FBF3F28F
:100B580003FB1244303401F8014D1446002AF5D144
:100B68002846FFF76DFC9DF90E10E1B10AA800F8C0
:100B7800094D02460C46029B4FF00A0E013C64B236
:100B8800671C08D0B3FBFEF70EFB1733303300F8B1
:100B9800013D3B46F2E7C9B2511A2E2301F8013D47
:100BA8002846FFF74DFCBDF90C30002B18DA1C491C
:100BB8002846FFF745FC3146BDF90C3000225B4260
:100BC8008DF825200A2093FBF0F200FB1233303316
:100BD80001F8013D1346002AF5D12846FFF730FCFD
:100BE800BDF90C30002B15DD65212846FFF714FCF4
:100BF80031460022BDF90C308DF825200A2093FBE0
:100C0800F0F200FB1233303301F8013D13B2002B30
:100C1800F5D18BE70BB0F0BD0E76090815760908FB
:100C280012760908F0B5037887B0013B05460C46F3
:100C3800072B58D8DFE803F02B264D312D0A220464
:100C4800D0E902230846FFF743FF4CE085685B21A3
:100C58002046FFF7E1FB6D685DB105F1080021460C
:100C6800FFF7E0FF2D6825B12C212046FFF7D4FBC4
:100C7800F2E75D212046FFF7CFFB34E0806800F003
:100C880039F830E081682046FFF7F2FB2BE08168F5
:100C980026E02D212046FFF7BFFBD5E90267002398
:100CA80006AD05F8033D304639460A22002314F004
:100CB80011FC303205F8012D0023304639460A224E
:100CC80014F008FC06460F4656EA0703EBD12946FE
:100CD80006E0D0E902231343044B054908BF19462F
:100CE8002046FFF7ADFB07B0F0BD00BF237609082B
:100CF8001E76090870B50C4605467B212046FFF78D
:100D08008BFB6D68ADB12E46204656F8081FFFF7DD
:100D1800AFFB3A212046FFF77FFB214606F108008A
:100D2800FFF780FF2D6825B12C212046FFF774FBC3
:100D3800E8E77D212046FFF76FFB70BDF8B5047921
:100D48000546E4090E4610D000273C462B7903F0EF
:100D58000F02C3F302135343BB4206DD2021286868
:100D680012F0A8FC01370444F0E73146286812F075
:100D7800A1FCA6F10A035E425E412B79204466F38A
:100D8800C7132B71F8BD70B506464D1E002415F823
:100D9800011F21B13046FFF7D1FF0444F7E7204691
:100DA80070BD000008B5037803F0DF035B2B01D0AA
:100DB800002008BD41680B7903F00F020F2A03D009
:100DC800013262F303030B7102494068FFF7DBFF4E
:100DD80008BD00BF2A7609085B2970B505460E468E
:100DE8001DD008D82C2915D03A2911D0222916D17E
:100DF8000123037214E07B2911D07D2901D05D29DC
:100E08000DD12B7803F0DF035B2B12D100240AE00D
:100E18000F4900E00F496868FFF7B5FF70BD284625
:100E2800FFF7C0FF044631466868FFF787FF204494
:100E380070BD69680B7913F00F0203D00F3262F3AB
:100E480003030B7104496868FFF79DFFEAE700BFD9
:100E58001A910908297609082A76090838B5037A03
:100E680004460D464BB1222902D103785C2B07D1E9
:100E780029466068FFF762FF05E0FFF7ADFF02E073
:100E880000230372F4E7257038BD10B504460068E6
:100E9800FFF7E4FF63681844606010BDF8B50546C5
:100EA80007684E1E002416F8011F21B13846FFF7C7
:100EB800D5FF0444F7E76B681C446C60F8BD00007C
:100EC800F8B505460C4619B90F49FFF7E7FFF8BD15
:100ED8002221FFF7DAFF013C14F8016F7EB130469A
:100EE800FFF720F9074628B15C212846FFF7CDFF18
:100EF800394600E031462846FFF7C7FFECE72221D4
:100F08002846FFF7C2FFF8BD09760908F0B519466B
:100F18008BB00546104616461C4613F0E1FE08B98C
:100F28004C4921E0002200233046214613F0E2FE1E
:100F380028B12D212846FFF7A8FF04F1004400221C
:100F480000233046214613F0CBFE88B932462346AB
:100F58003046214613F0AAFA02460B46304621468F
:100F680013F0BEFE20B13C492846FFF797FF6FE01B
:100F78002346324601A8FFF711FC0AA9002301F80D
:100F8800033D0E46019C0A23B4FBF3F203FB124413
:100F9800303401F8014D1446002AF5D12846FFF7F0
:100FA8007DFF9DF90E10E1B10AA800F8094D02462F
:100FB8000C46029B4FF00A0E013C64B2671C08D035
:100FC800B3FBFEF70EFB1733303300F8013D3B4609
:100FD800F2E7C9B2511A2E2301F8013D2846FFF75E
:100FE8005DFFBDF90C30002B18DA1C492846FFF7C5
:100FF80055FF3146BDF90C3000225B428DF82520A3
:101008000A2093FBF0F200FB1233303301F8013D64
:101018001346002AF5D12846FFF740FFBDF90C30EA
:10102800002B15DD65212846FFF72FFF31460022EA
:10103800BDF90C308DF825200A2093FBF0F200FB57
:101048001233303301F8013D13B2002BF5D18BE791
:101058000BB0F0BD0E760908157609081276090856
:10106800F0B5037887B0013B05460C46072B58D8E6
:10107800DFE803F02B264D312D0A2204D0E90223A4
:101088000846FFF743FF4CE085685B212046FFF7E1
:10109800FCFE6D685DB105F108002146FFF7E0FF31
:1010A8002D6825B12C212046FFF7EFFEF2E75D21E0
:1010B8002046FFF7EAFE34E0806800F039F830E0B7
:1010C80081682046FFF7FCFE2BE0816826E02D2191
:1010D8002046FFF7DAFED5E90267002306AD05F8DA
:1010E800033D304639460A22002314F0F3F9303222
:1010F80005F8012D0023304639460A2214F0EAF992
:1011080006460F4656EA0703EBD1294606E0D0E922
:1011180002231343044B054908BF19462046FFF72D
:10112800BDFE07B0F0BD00BF237609081E7609088A
:1011380070B50C4605467B212046FFF7A6FE6D6874
:10114800ADB12E46204656F8081FFFF7B9FE3A21E2
:101158002046FFF79AFE214606F10800FFF780FFB8
:101168002D6825B12C212046FFF78FFEE8E77D2169
:101178002046FFF78AFE70BD2DE9F04F91B011F0BF
:10118800FDFC754C2368C01AB0F57A7F40F2E18007
:1011980011F0F4FC714FDFF80C92206011F044F963
:1011A80011F09EF93D7899F800306D4E6D000DF103
:1011B800300845EAC30500244FF4807341460820EF
:1011C8000C960E940F93FEF7BBFF6DB20097019635
:1011D80020B14460C0F8008004460CE0614F624CC6
:1011E8003B6813F0010605D13846FEF75AFF002880
:1011F80040F0A9805C4C5D492046FFF7C4F85C4983
:1012080082462046FFF7BFF85A4906462046FFF7B0
:10121800BAF8594F834639462046FFF78AF820B96D
:101228002046FFF79CF830B1876004236AB2037444
:10123800D317C0E90623514B0027D919584604375C
:101248000293FFF766F8242F029BF6D14C4900273A
:10125800504617F801B00291FFF747F8029938B1E4
:101268004FF004035FFA8BF203720023C0E90423F2
:101278000137102FECD143493046FFF74AF842496D
:101288003046FFF746F8414B0DF1240B18680393DD
:10129800002611F0B3FC07AF59462046DFF808A135
:1012A80009970A96FFF7F4FB0A9ADAF80000511C2E
:1012B800029211F063FE029ACAF8000002440890F4
:1012C800079259460670204609970A96FFF712FDBD
:1012D800039B2DB3029312F00BFCA022059020462D
:1012E8002B4C8DF81820394605AA0A928DF82460EF
:1012F8008DF82C60CDF81CB00896FFF719FFDAF8C6
:101308000010206811F036FA2249206811F032FAEC
:101318002148DAF800202149006811F04BFA029BB5
:10132800186811F073FC4046FEF7D2FF1C4A0023F0
:101338001370009A89F800301370019B40460C9393
:10134800FEF7C6FF05E0266066603846FEF7AEFE8B
:1013580051E711B0BDE8F08FF0050020D42A002035
:1013680080750908D4050020D80500202D760908C5
:10137800367609083F760908487609081C2B0020AC
:10138800D52A0020682B00206C2B00206C2A002016
:10139800182B0020E47E0908642B002052760908E7
:1013A800442B0020742A0020482B002008B511F097
:1013B80065FB0021012011F0A1FD032011F08EFD35
:1013C80011F008F811F0DAFB014B186008BD00BFF6
:1013D800EC05002070B590F84A5004460DB1002085
:1013E80070BDC06C03681B6998470028F7D0E06C93
:1013F80003685B699847C0B20A28144B144A16D18F
:1014080019781468C9B265541668124D124C1349FC
:10141800AE4214BF0C600E604FF000011970104905
:1014280008BF14604FF0010418BF15600C701468F1
:101438001A78D2B2511CC9B21970A0541B78772BF4
:1014480082BF024B77221A7070BD00BFF8050020DA
:10145800F4050020F905002071060020EC060020A4
:10146800E9060020154A00231370154A1549137020
:10147800154AC36411601549154A80F84A3011604D
:1014880080F83D3080F83C3043710371C37083703D
:101498004370037080F83A3080F8393080F838307B
:1014A80080F83B30C380002343630363C3628362D5
:1014B80043620362C3608360704700BFE90600208F
:1014C800F8050020F9050020F40500207106002029
:1014D800EC06002038B50D46FFF7C4FFC56438BDDB
:1014E80008B5C06C12F0C8FBBDE808400A2012F02D
:1014F80073B9C06C12F0EDB8014B1878704700BF93
:10150800E9060020024B00221A70024B1868704747
:10151800E9060020EC0600202F290AD9392901D82C
:10152800303904E0A1F14103052B02D83739C8B29C
:1015380070470020704700002DE9FF470446084621
:101548000D4614F0E6F9071FEB5D2A2B19D12E186A
:1015580016F8031C2046FFF7DFFF000182B216F8D9
:10156800021C2046FFF7D8FF104480B202239F4296
:1015780004D9EA5C01335040DBB2F8E708B1002037
:10158800E8E2B649284614F0F4F930B9B4492846D7
:1015980014F0EFF9002800F073812C21284614F08C
:1015A800A0F9451C284614F025F913F029FC064635
:1015B80013F070FF42F21072B0FBF2F3237002FBDB
:1015C80013036427B3FBF7F36370B0FBF7F307FB70
:1015D8001300A070304613F0C7F80022A14B12F098
:1015E800DDFDA14B002213F013F913F0E9FB2C21C8
:1015F800E080284614F075F9437805462C2B00F155
:10160800010653D03146022201A814F09FF94FF089
:10161800000A0DF1100901A809F80AAD14F0F1F853
:10162800924BE91C03FB00F80222AE1D01A814F03E
:101638008DF904223146484614F088F901A88DF83E
:101648000AA014F0DEF832254543032095FBF0F597
:10165800874808EB0503236198FBF0F013F0DAFCE8
:101668008046284613F0D6FC824913F027FD014630
:10167800404613F01BFC8049A060804613F0D2FD61
:1016880013F0E2FE0546784313F0C4FC01464046D9
:1016980013F00AFC794913F0C5FD0746284613F0F4
:1016A800B9FC0146384613F001FCA0612C213046F4
:1016B80014F017F903465A7801302C2A10D0532A0F
:1016C80002BFA26902F10042A2615B784E2B05D0ED
:1016D800532B03D02C2B7FF452AF002384F83830DF
:1016E8002C2114F0FEF8437805462C2B00F1010656
:1016F80051D03146032201A814F028F94FF0000810
:1017080001A88DF8078014F07CF8584F291D47432D
:101718000222EE1D01A814F019F9042231460DF138
:10172800060014F013F901A88DF80A8014F069F87E
:1017380032254543032095FBF0F54D487B1963613D
:1017480097FBF0F013F066FC0746284613F062FC9E
:10175800484913F0B3FC0146384613F0A7FB464945
:10176800E060074613F05EFD13F06EFE0546642048
:10177800684313F04FFC0146384613F095FB3F4988
:1017880013F050FD0746284613F044FC014638463E
:1017980013F08CFBE0612C21304614F0A2F80346CC
:1017A8005A7801302C2A10D0572A02BFE26902F178
:1017B8000042E2615B78572B05D0452B03D02C2BD8
:1017C8007FF4DDAE002384F839302C2114F089F839
:1017D8004378451C2C2B04D0284614F00EF884F8C6
:1017E8003C0028462C2114F07CF84378451C2C2B0F
:1017F80004D0284614F001F884F83D0028462C212E
:1018080014F06FF84378451C2C2B05D0284613F0AC
:10181800F1FF13F0F5FA606328462C2114F061F803
:101828004378451C2C2B05D0284613F0E3FF13F012
:10183800E7FA60622C21284614F053F82C21013075
:1018480014F04FF843782C2B00F08381013013F00B
:10185800D1FF13F0D5FA20627BE100BF5976090861
:10186800607609080000F03F00408F40809698009D
:10187800A08601009C53C9360000C842000070428F
:10188800B649284614F075F830B9B549284614F019
:1018980070F800283FF473AE2C21284614F021F884
:1018A800451C284613F0A6FF13F0AAFA064613F0C3
:1018B800F1FD42F21072B0FBF2F3237002FB130346
:1018C8006422B3FBF2F36370B0FBF2F302FB130084
:1018D800A070304612F048FF0022A24B12F05EFCC6
:1018E800A14B002212F094FF13F06AFA2C21E08039
:1018F800284613F0F6FF4378412B01D1012303E07A
:10190800562B7FF43CAE002384F83B302C21013069
:1019180013F0E7FF437805462C2B00F1010652D05F
:101928003146022201A814F011F84FF000090DF118
:10193800100801A808F80A9D13F063FF8B4FE91CF3
:1019480047430222AE1D01A814F000F804223146D4
:10195800404613F0FBFF01A88DF80A9013F051FFE1
:1019680032254543032095FBF0F581487B19236117
:1019780097FBF0F013F04EFB0746284613F04AFB9E
:101988007C4913F09BFB0146384613F08FFA7A49DD
:10199800A060074613F046FC13F056FD0546642088
:1019A800684313F037FB0146384613F07DFA734954
:1019B80013F038FC0746284613F02CFB014638463E
:1019C80013F074FAA0612C21304613F08AFF034605
:1019D8005A7801302C2A10D0532A02BFA26902F18A
:1019E8000042A2615B784E2B05D0532B03D02C2BE1
:1019F8007FF4C5AD002384F838302C2113F071FF33
:101A0800437805462C2B00F1010651D031460322BC
:101A180001A813F09BFF4FF0000801A88DF807807C
:101A280013F0EFFE514F291D47430222EE1D01A876
:101A380013F08CFF042231460DF1060013F086FFE7
:101A480001A88DF80A8013F0DCFE322545430320F7
:101A580095FBF0F546487B19636197FBF0F013F0AE
:101A6800D9FA0746284613F0D5FA424913F026FB5F
:101A78000146384613F01AFA3F49E060074613F06A
:101A8800D1FB13F0E1FC05466420684313F0C2FA69
:101A98000146384613F008FA384913F0C3FB0746E5
:101AA800284613F0B7FA0146384613F0FFF9E0610B
:101AB8002C21304613F015FF03465A7801302C2AA2
:101AC80010D0572A02BFE26902F10042E2615B7856
:101AD800572B05D0452B03D02C2B7FF450AD00237A
:101AE80084F839302C2113F0FCFE4378451C2C2B4C
:101AF80005D0284613F07EFE13F082F9A06228462E
:101B08002C2113F0EEFE4378451C2C2B05D02846DB
:101B180013F070FE13F074F9E0622C21284613F0DC
:101B2800E0FE43782C2B14D0013013F063FE13F041
:101B380047F942F21072B0FBF2F3637102FB130330
:101B48006422B3FBF2F32371B0FBF2F302FB130040
:101B5800E070012004B0BDE8F08700BF677609088F
:101B68006E7609080000F03F00408F40809698008C
:101B7800A08601009C53C9360000C842000070428C
:101B880010F07CBF30B50224017083700621F52364
:101B9800C47504244270C3800122002301720176B7
:101BA80080F8204003210724027142748274C274B1
:101BB8000275827542768276C276C27780F82140B5
:101BC80043728372C372037343738373C37303745F
:101BD80001774377837780F82230044680F8231012
:101BE80080F82720024680F8241080F8253080F8F5
:101BF800263000250139E563A564656502F1020216
:101C0800A2F85E30A2F86430A2F86A3004F1040445
:101C1800F0D14FF0000380F8803030BD10B51E239E
:101C28006B220121FFF7AEFF10BD10B50446084630
:101C380013F0F0F9616F13F041FA10BD10B50446C6
:101C4800084613F0E7F9E16F13F038FA10BD10B544
:101C58000446C08813F0DAF94FF0605113F02EFAF9
:101C6800606710BD10B50446C07D13F0CFF94FF082
:101C7800605113F023FAA06710BD000090F82030DF
:101C8800043B0C2B14D8DFE803F0071313130A13D3
:101C980013130D1313131000064B1B6807E0054BB5
:101CA8005B6804E0034B9B6801E0024BDB68C36799
:101CB800704700BF90040020C388F52B07D0B3F508
:101CC800FA7F04D0B3F5FA6F1CBFF523C380C27D39
:101CD800102A03D8084BD340DA0701D40223C3756E
:101CE80090F82020102A03D8044BD340DB0702D4F5
:101CF800042380F8203070471401010010110100FE
:101D080010B50446012190F8730012F067F894F8B2
:101D18007300012112F073F894F87200012112F097
:101D28005DF894F872000A4C012112F068F8204618
:101D380011F070F92046082111F0C4F9204601215C
:101D480011F073F92046BDE81040002111F070B978
:101D5800D8360020F8B50C4617461E46094D2046D1
:101D6800002112F04CF807F03F01284611F0BEF9A7
:101D78003146284611F0BAF92046BDE8F84001215D
:101D880012F03DB8D8360020F8B51E4690F87230EB
:101D980002F03F028B429DF8187042F0800503D193
:101DA800012F88BF45F040058CB22046002112F073
:101DB80026F82946094811F099F93546AB1B9F4288
:101DC80006DD0021054811F091F905F8010BF5E74A
:101DD8002046012112F013F80120F8BDD836002062
:101DE8001FB5012300930DF10F03FFF7CDFF9DF8F9
:101DF8000F0005B05DF804FB08B512F05FF8BDE808
:101E0800084011F0A5BF70B50E4615461C4612F0E5
:101E180055F8314611F0AEFF12F050F80368294624
:101E28009B68984712F04AF8036821469A689047D9
:101E380012F044F8BDE8704011F0A4BF13460278D0
:101E480010B4012A05D10A4610BC90F87310FFF7A8
:101E5800DABF2AB90A4610BC90F87310FFF77ABFA8
:101E680010BC704710B50379044613B1037A5B01BF
:101E7800DBB2E288B2F5FA7F05D0B2F5FA6F04D189
:101E880043F0180301E043F00803627A102102F0DE
:101E980003021A432046FFF7D1FF002211212046F2
:101EA800FFF7CCFFA37A002BE37A14BF802200222D
:101EB8002BB1237B03F00F0343F040031A43122195
:101EC8002046FFF7BBFFE37C002BA37C0CBF00225E
:101ED800202213B142F01002D2B2637C0BB142F05F
:101EE8000802237D0BB142F002021E212046FFF7B3
:101EF800A5FF637B002BA37B0CBF0022202213B11C
:101F080042F01002D2B2E37B0BB142F00802204645
:101F1800BDE810401321FFF791BF10B5C37E0446FA
:101F2800002B837E0CBF0022202213B142F0100246
:101F3800D2B2637E0BB142F008021F212046FFF7A0
:101F48007DFFA27D12B1227E5201D2B2E37D082B21
:101F580006D0102B07D0042B07D142F0100204E062
:101F680042F0180201E042F0080294F91C302021E6
:101F7800002BA2BF03F003031A4342F004022046D9
:101F8800FFF75CFF627F2AB1A27F520102F0600274
:101F980042F080022046BDE810402121FFF74EBFE5
:101FA8001346027810B4012A05D10A4610BC90F8ED
:101FB8007210FFF728BF2AB90A4610BC90F87210B1
:101FC800FFF7C8BE10BC704710B590F82230044621
:101FD800002B90F8233008BF00224FEA431303F088
:101FE800600190F8213018BF80229B0003F01C0389
:101FF8000B431A432021FFF7D3FF94F820302046E3
:10200800083BDBB2082B96BF124A0022D25C212182
:10201800FFF7C6FF94F825302046002B94F82630A9
:102028000CBF0022202203F003031A432221FFF7EA
:10203800B7FF94F824202046920002F00C022321D6
:10204800FFF7AEFF2046BDE8104000222421FFF72D
:10205800A7BF00BFD676090838B50C46154611F05B
:102068002DFF214611F086FE11F028FF036829464E
:102078009B68984711F022FF002111F07FFE11F0B4
:102088001DFF0122214611F072FE11F017FF0368AF
:102098005B699847C0B238BD0A460178012903D167
:1020A80090F87310FFF7D8BF19B990F87310FFF7BD
:1020B80097BE002070470A460178012903D190F89D
:1020C8007210FFF7C9BF19B990F87210FFF788BEF0
:1020D800704738B50446437880F87330837880F8C1
:1020E8007230FFF7E9FDFFF7B2FD2046FFF7C6FDA6
:1020F8002046FFF7B7FD2378012B03D12046FFF7D1
:102108007BFE03E013B92046FFF7FAFD0F212046B6
:10211800FFF7D1FF0F2105462046FFF7BDFF46F622
:102128003D0345EA002005B29D420AD12046FFF74B
:1021380099FE2046FFF7F1FE2046FFF745FF2846A7
:1021480038BD002038BD2DE9F04190460C461D46AB
:102158009DF8186010F012FD074611F0AFFE2146F9
:1021680011F008FE11F0AAFE036848F080019B6890
:10217800984711F0A3FE002111F000FE11F09EFE19
:102188002146324611F0F3FD002407F57A77B44270
:102198001ADA11F093FE03681B69984740B111F0F1
:1021A8008DFE036804F101085B6998472855444689
:1021B80010F0E4FCB842EAD92C44FF23621B964293
:1021C80005DD04F8013BF9E70120BDE8F0810020B6
:1021D800BDE8F08137B50D460178012907D190F89F
:1021E8007310009313462A46FFF7ADFF07E031B995
:1021F80090F87310009313462A46FFF7C5FD03B005
:1022080030BD37B506236A4628210446FFF7E2FFAA
:1022180030B39DF800309DF801109DF8032043EA83
:1022280001219DF802309DF8055043EA02229DF8ED
:10223800043009B243EA052394F8805012B21BB265
:10224800E185228663865DB1B4F86650491BE18555
:10225800B4F86810521A2286B4F86A209B1A63866A
:1022680003B030BD13B5022301AA15210446FFF7B8
:10227800B1FF30B19DF805209DF8043043EA0223F0
:10228800638702B010BD37B506236A461821044695
:10229800FFF7A0FF30B39DF800309DF801109DF8BE
:1022A800032043EA01219DF802309DF8055043EAD6
:1022B80002229DF8043009B243EA052394F88050BD
:1022C80012B21BB221856285A3855DB1B4F8605056
:1022D800491B2185B4F86210521A6285B4F864204B
:1022E8009B1AA38503B030BD37B50D460178012987
:1022F80007D190F87210009313462A46FFF723FF80
:1023080007E031B990F87210009313462A46FFF798
:102318003BFD03B030BD13B506236A4628210446A9
:10232800FFF7E2FFA0B19DF801209DF8003043EAD5
:102338000223A3869DF803209DF8023043EA022376
:10234800E3869DF805209DF8043043EA022323879D
:1023580002B010BD10F092BB10F090BB10B504464F
:10236800283001F07FF928B104F50D70BDE8104060
:1023780001F078B910BD411E00F10A02002043089F
:1023880043EAC01011F8013F18448A4200F0FF00E8
:10239800F5D170472DE9F0470378441C202B01D173
:1023A8002046F9E70546704F88602C1A2E4615F826
:1023B800013B0BB32F2B01D1031917E05C2B02D182
:1023C8000020BDE8F087A3F12204E4B21D2C03D855
:1023D80027FA04F4E407F3D403F0BF043C2CEFD04D
:1023E800203B5E2BE1D9EBE72F2D05D11E4613F8D4
:1023F800015B202DF8D1F9E7166003199842C0EB6C
:10240800030809D013F8012D2E2AF7D0202AF5D079
:10241800B8F1FF0FD4DC01E04FF00008C1F80480E8
:1024280001F10C0301F11702202403F8014F934234
:10243800FBD103461A1A13F8014B2E2CFAD0202C84
:10244800F8D0B2FA82F408F1FF366409731C07D198
:1024580000274FF0070E3D46BA464FF0080909E03D
:10246800835D2E2BF4D0013EF0E7835C202B04D152
:10247800002401324245F8DB4BE02E2B02D1B24258
:10248800F6D103E0222B17D07C2B15D0A3F12A0C10
:10249800BCF1050F01D82D2B0ED1A3F13A0CBCF1DC
:1024A800050F09D9A3F15B0CBCF1020F04D9A3F104
:1024B800210CBCF15D0F02D9B2420ED149E0B24203
:1024C80047D0754521D8A3F1610CBCF1190F08D884
:1024D800203BDBB249EA07070AE0754515D8002416
:1024E8005F23A3F1410CBCF1190F98BF49EA0A0A0E
:1024F80005F1010C5FFA8CFC0D44BCF1060F6B73FF
:1025080001D881F80CC06546B3E7BEF10A0F17D1B0
:1025180000244B7B202B3FF453AF3CB11AEA070F42
:1025280018BF02270F700120BDE8F0870B7B012040
:10253800087019447E234B7331238B73BDE8F087F1
:10254800B242E5DC32464FF00A0E08254FF010097A
:102558008EE7BEF10A0FDBD032464FF00A0E08258F
:102568004FF0100985E700BF010100312DE9F8435C
:1025780006460D4691F80C9002247E2701F10D08BD
:102588006968AA6863189BB21144914206D012F890
:10259800010B03EB431343409BB2F6E7B9F1030F7A
:1025A80028BF4FF0030909F10402D2B203F00F016A
:1025B800A818013A0929D2B294BF30313731914570
:1025C80041734FEA1313F1D305EB09035F7300213D
:1025D800304600F038FE0121304600F017FE014673
:1025E80028B97078B0FA80F04009BDE8F88303781C
:1025F8004BB1C37A1B07EED40B22404613F026F9E1
:102608000028E8D102E00120BDE8F8830134A4B233
:10261800642CB5D1BDE8F8832DE9F04F89B0039358
:102628000B78059013F0700F0E46914601D10020EB
:1026380099E1059B1B78002BF9D11378D2F804B0E7
:102648009B0700F086810BF10C030D27B3FBF7F70E
:102658000137FFB24FF000080021304600F0F3FDCB
:1026680045464346444609F10D02CDF80880CDF8A9
:10267800108006927269012130460793C2F34F1AFF
:1026880000F0C4FD079B20B97378002B00F08E8002
:10269800CDE70278E52A00D042B9002D08BFD04620
:1026A800BD423CBF0135EDB222B97FE0BD4238BF23
:1026B800002503E0E52A01D10024DBE72E2AFBD020
:1026C800C17A0F2950D13CB95106D3D5437B02F0CA
:1026D8001F040293234607E0013BDBB29A42EBD189
:1026E800427B02999142E7D15A1E4FF00D0C0CFB28
:1026F80002FCE345E0D94FF0000EBEF1040F5FFA8B
:102708008EF204D800EB4E02B2F801200CE00A2A3F
:1027180095BF0EF1FF320EF1010200EB420200EB11
:10272800420294BFD2889288E34503D1002A18BF99
:1027380000249FE7FF2ABFD8D2B2A2F1410119298C
:10274800D9F8081098BF203211F80C100CF1010AC2
:10275800A1F1410C98BFD2B2BCF1190F9CBF203136
:10276800C9B29142A8D1F6E00A07A5D44CB1012B11
:102778007FF45DAFFFF7FFFD029B83427FF457AF05
:102788000FE00B220699079313F060F8079B0028C7
:102798007FF470AF99F80020D10702D50122049286
:1027A80068E7039B1A0640F1CC8040E7039B03F0DF
:1027B8004203422B7FF43BAF002D08BFD046BD42F9
:1027C80002D3049BCBB91FE00021304600F01EFD68
:1027D80010B973785BB12AE70135EDB2EFE7B3685A
:1027E8001B79012BEDD81035EDB2AF42E9D930464F
:1027F80000F0DEFB0028F2D119E749463046FFF722
:10280800B5FE00283FF413AF4FEA4811304600F0F8
:102818001AFD00283FF40BAF7C1EE4B225464FF0AA
:10282800000A4FF00F0840E00021304600F0EEFCAF
:10283800074600283FF4FBAEB268A54292F828305C
:1028480043F0010382F8283014BF2A4645F04002BD
:10285800027080F80B8080F80CA009F10D0002923C
:10286800FFF789FD029A787387F81AA087F81BA0EA
:1028780002F01F020D23013AD9F808E05A43002359
:10288800934515D91EF80210042B5FFA83FC03F157
:10289800010013D807EB4303A3F801100D2802F138
:1028A80001020346ECD1013DEDB2002DBCD10EE092
:1028B80014BF4FF0FF31002189B2E5E7BCF10A0FE0
:1028C80094BF07EB430307EB40039980E6E773697E
:1028D80029463046C3F34F1A00F098FC07460028F3
:1028E8003FF4A5AE2022294612F0E5FF4B4653F8E7
:1028F8000D2F3A605A687A601A893A819B7ABB72BE
:1029080099F8003003F018033B73184B1B682BB180
:1029180007F10E0107F11000984706E021233B74E8
:1029280028237B740823BD73FB733B8A7B823B831C
:10293800FB89FB82B26892F8283043F0010382F8E1
:1029480028300094039B52463146059800F0C4FC99
:1029580009E001277EE60EF1010EBEF10D0F3FF4EE
:1029680089AED446C9E609B0BDE8F08FFC06002060
:1029780010F084B810F082B810F080B810F07EB86B
:1029880003685B6918470368DB68184710B5037963
:1029980004466BB10121407911F031FAFF2120681A
:1029A800FFF7EEFF206803689B68984700232371B0
:1029B80010BD38B50579044655B90068E179036852
:1029C8005B6898472946607911F019FA0123237149
:1029D80038BDF8B504460D46164610F0CFF8074640
:1029E8002068FFF7D0FFFF28207207D110F0C6F843
:1029F800C01BB0F5967FF3D911230CE0FE2801D057
:102A08000F2308E020683246036829461B69984767
:102A1800207230B11C232046A371FFF7B7FF0020B6
:102A2800F8BD2068FFF7AFFF2068FFF7ACFF012073
:102A3800F8BD70B506460C4610F0A0F8054630689B
:102A4800FFF7A1FFFF2806D010F098F8401BA0421E
:102A5800F5D3002070BD012070BDF7B50379044699
:102A68000D4601920BB9FFF7A4FF4FF416712046EB
:102A7800FFF7DFFF45F040012068FFF781FF0DF108
:102A880007060DF1030716F801192068FFF778FF0C
:102A9800BE42F8D1002D0CBF952187212068FFF791
:102AA8006FFF0C2D02D12068FFF76DFF002520680D
:102AB800FFF769FF0306207203D50135B5F5807F5E
:102AC800F5D103B0F0BDF8B51F460023427143723B
:102AD80083710160044610F051F806462068617958
:102AE80003680A251B68984780212068E1710368FC
:102AF8005B689847FF212068013DFFF741FF15F00B
:102B0800FF05F7D1206803689B68984700221146A3
:102B18002046FFF7A2FF012807D010F02FF8801BEE
:102B2800B0F5FA6FF2D9012348E04FF4D5720821C5
:102B38002046FFF792FF052801D101230BE0042569
:102B48002068FFF720FF013D15F0FF052072F7D13F
:102B5800AA2808D102236372637A022B0CBF4FF0B4
:102B68008045002507E010F009F8801BB0F5FA6FE2
:102B7800DBD9022322E0002237212046FFF76DFF30
:102B88002A4629212046FFF768FF024638B10FF090
:102B9800F5FF801BB0F5FA6FEDD90A230EE0637AD2
:102BA800022B05D02046FFF7F1FEE7710120F8BDA2
:102BB8003A212046FFF751FF30B108232046A37180
:102BC800FFF7E4FE0020F8BD2068FFF7DCFE00F008
:102BD800C000C02804BF032363722068FFF7D3FE38
:102BE8002068FFF7D0FE2068FFF7CDFEDAE738B59A
:102BF800437A1546032B18BF49020A461121044699
:102C0800FFF72BFF10B10423A3710BE029464FF403
:102C180000722046FFF7DDFE054618B12046FFF793
:102C2800B5FE03E02046FFF7B1FE0025284638BD73
:102C380010B5437A0A46032B18BF4A0212210446EC
:102C4800FFF70BFF30B105232046A371FFF79EFE67
:102C5800002010BD012010BD10B500220C21044633
:102C6800FFF7FBFE30B103232046A371FFF78EFE6A
:102C7800002010BD2046FFF789FE012010BDF8B5E1
:102C8800054616461F46FFF7D3FF98B10024A3B2A6
:102C98009F4206EB442108D94FF400722846FFF7FB
:102CA80098FE01340028F2D104E02846BDE8F84037
:102CB800FFF7D2BF0020F8BD38B5044615460068B6
:102CC800FFF75EFE20684FF40072036829469B698F
:102CD8009847FF212068FFF753FEFF212068FFF780
:102CE8004FFE2068FFF74FFE207200F01F000528F6
:102CF80006D013232046A371FFF748FE002038BDF5
:102D0800012038BD38B5437A1546032B18BF490250
:102D18000A4618210446FFF7A0FE10B10623A37146
:102D28000AE02A46FE212046FFF7C6FF054618B1ED
:102D38002046FFF72BFE03E02046FFF727FE00257D
:102D4800284638BD70B504460D460679FFF731FEB2
:102D58004FF416712046FFF76CFE10B91723A371C4
:102D68000BE02A46FC212046FFF7A6FF054620B1C6
:102D78003EB92046FFF70AFE03E02046FFF706FEAD
:102D88000025284670BD70B5044616460D4600223B
:102D98003721FFF762FE324617212046FFF75DFE16
:102DA80008B109230AE0637A1921032B18BF6D02C1
:102DB8002A462046FFF751FE30B107232046A3716B
:102DC800FFF7E4FD002070BD012070BD38B5044652
:102DD800FFF7EFFD4FF416712046FFF72AFE70B19A
:102DE800FD212068FFF7CCFD4FF416712046FFF750
:102DF80020FE054618B12046FFF7C8FD05E012235E
:102E0800A3712046FFF7C2FD0025284638BDF8B556
:102E180017461A4605461E46FFF7B5FF70B100244F
:102E2800B44207EB4421284604D0FFF78BFF28B1B2
:102E38000134F5E7BDE8F840FFF7C8BF2846FFF7BB
:102E4800A5FD0020F8BD0FF019BE0000014B0122BE
:102E58001A707047F0060020704700000279024B94
:102E680053F8220010F0DBB8E076090870B5064682
:102E78000C4603791A4D012155F8230010F0D5F8B6
:102E88003379002155F8230010F0D2F8022C0CD920
:102E9800042C0CD9082C0CD9102C0CD9202C0CD9AA
:102EA800412C34BF2821302108E0002106E0082108
:102EB80004E0102102E0182100E02021337955F8C0
:102EC800230010F0FFF8182303FB04F132793C23A8
:102ED80002FB011191FBF3F1024B196070BD00BFB9
:102EE800E0760908F40600200279034BFF2153F825
:102EF800220010F0FBB800BFE07609080279024B07
:102F080053F8220010F0F2B8E076090873B50C4BBC
:102F180006790C4800250C4C009350F826001346FF
:102F28000A462946257010F0E7F82378002BFCD0D4
:102F3800064B186808B10FF019FE002002B070BDEA
:102F4800552E0808E0760908F0060020F40600204F
:102F580073B50D4B06790D4800250D4C009350F8BC
:102F6800260013462A46257010F0C6F82378002B51
:102F7800FCD0084B186820B102B0BDE870400FF0D3
:102F8800F5BD02B070BD00BF552E0808E0760908EF
:102F9800F0060020F40600200FF070BD837800F1E1
:102FA800100263F07F0383700169806800F004BC3D
:102FB8002DE9F0410378044603F0200303F0FF05F0
:102FC8000BB100262EE04269184B9A42F9D8FFF758
:102FD800E5FF06460028F4D02169A06800F08DFBC3
:102FE8000746A06805223946283000F062FB804673
:102FF8000028E6D029464FF4007212F05CFC012547
:10300800A0680279AA4209D9036842465B68E919AF
:1030180098470028D5D00135EDB2F1E7636903EB95
:10302800422363613046BDE8F08100BFFFFD1F0009
:1030380010B5044680680A462830A16900F039FBBB
:1030480020B1A38803F00F0300EB431010BD70B547
:10305800047805460E4684B92422214612F02BFC3A
:10306800AE60F379102B03D0202B06D1402300E06B
:10307800202301202B70A87070BD002070BD2DE9A1
:10308800F74F03780446894615464BB18278D10735
:1030980006D50CE05A46216900F035FB00283DDAD8
:1030A80063784FF0FF3043F00203637098E01A072B
:1030B80003D5E36962699B1A07E09A0608D5A368F5
:1030C8001A896369C3EB42139BB29D4228BF1D4610
:1030D8002E464FF0000804F1100B002E35D0227850
:1030E800636912F0200FC3F3080AA0684FEA53215E
:1030F80002D0036A19441DE090F8058001EA080827
:10310800BAF1000F10D1B8F1000F0DD1002BC1D1C9
:1031180053064CBF036A236A236105E004D1237870
:1031280013F0700F11D1BBE72169A06800F0E5FA30
:1031380008EB0001A068BAF1000F35D1B6F5007FA1
:1031480032D3026B914202D12EE0A81B48E0B6F5BB
:10315800806F1BD32778C6F34723BF0606D40779A9
:10316800C8EB0707FFB2BB4228BF3B4691424FEA74
:10317800432707D2A0680268D2F808A04A46D04779
:1031880060B98DE71A44914221D3F3E703684A46B0
:103198001B689847002883D04FF400776369B944C7
:1031A8003B446361F61B98E70022283000F081FA5F
:1031B80000283FF475AFCAF50077B74228BF3746F5
:1031C80000EB0A013A46484612F04FFBE6E78DE865
:1031D8000A00FFF7C3F89DE80A000028CAD15FE794
:1031E80003B0BDE8F08F73B501220DF10701044665
:1031F80046690569FFF743FF012809BF9DF80700E5
:103208004FF0FF306661256102B070BD37B5436984
:103218000446C3F3431505B169B901220DF107014D
:103228002046FFF72CFF40B2012801D0002008E01B
:1032380063691F3300E02033A0686361343000EB1A
:10324800451003B030BD2DE9F0410E460178044623
:103258000769002939D04569B5423AD00EB90661E7
:1032680031E00B0703D5C3699E422ED807E08806D4
:1032780005D5A3681B89B6EB431F26D823E0D4F8ED
:1032880008E06A1E9EF8063003F10900731EC2406A
:10329800C3409A4200D84DB94A064CBFDEF82020F8
:1032A800226A22611D4604F110080AE09B1AF9E718
:1032B80042462169A06800F026FA002805F1FF358A
:1032C80003DD002DF4D1666103E027610020BDE82D
:1032D800F0810120BDE8F081F8B50F460446164696
:1032E800002124221D4612F0E6FAB868A680A060E4
:1032F8003B6A06F00F02E360520100F13403134405
:10330800D97A0F0702D500202070F8BD811891F8EE
:103318003F1001F017012170DB7A13F0180F08BF76
:1033280041F008019DF8183008BF217015F0320FE0
:10333800E37003D0237813F0110FE4D105F00F03E5
:10334800A370036B0244A361B2F84830B2F84E1080
:10335800EE0641EA034104D571B100F068FA58B9A4
:10336800D1E72162136DE361AB060AD5E169204616
:10337800FFF769FF28B9C6E7A37863F07F03A37056
:10338800F2E70120F8BD000038B5037804460BB910
:10339800012038BD90F90230002B23DA0121FFF714
:1033A80047FE054628B96378002043F0010363709F
:1033B80038BD0378E52BF6D023781B0744BFE369B3
:1033C800C361238C4383638C8382094B1B682BB1B5
:1033D80000F11601183098472B8B6B82A37803F005
:1033E8007F03A370A068FEF7B9FF0028DBD0CFE702
:1033F800FC06002010B50446FFF7C6FF0023237023
:1034080010BDF0B51F4693B000238DF824308DF819
:103418002530037806460C4601920BB100203DE0AA
:103428000B7813F0700FF9D013782F2B12D1019B62
:103438001A782F2A02D101330193F8E7A1681AB943
:103448003046FFF704FE29E009A8FFF700FE002830
:10345800E4D009AC01AA03A90198FEF79BFF002854
:10346800DCD0019B1B789BB1012303AA214630467F
:10347800FFF7D2F80028D1D0354609AC0FCD0FC4DC
:103488000FCD0FC42B6830462360FFF7B3FFE0E78A
:103498003B4603AA21463046FFF7BEF813B0F0BDFD
:1034A8002DE9F047037804461D078946904608D55C
:1034B8008378990705D55B070BD5E169FFF7C3FE4C
:1034C80038B963784FF0FF3043F001036370BDE80B
:1034D800F0876369DB439845F3D847464FF0000A05
:1034E8006369002F00F08280A068C3F3080645795D
:1034F80015EA53251CD1DEB9216971B104F1100216
:1035080000F001F90028DCDB40F08E802046FFF750
:1035180045FD002840F08880D3E7236A3BB9204660
:10352800FFF73CFD0028CCD02369236200E023612B
:103538002169A06800F0E1F8291816B9B7F5007FED
:1035480021D2C6F50075BD4228BF3D4636B963692C
:10355800E269934234BF0122052200E00122A068FB
:10356800283000F0A6F80028ABD030442A46494657
:103578002E4412F07AF9B6F5007F31D1A0682830D0
:1035880000F070F818E0B7F5806FA26816D31379C9
:10359800106B5D1BEDB2C7F34723AB4228BF2B4628
:1035A80081424FEA432502D31844814236D3A068AA
:1035B8000268D6684A46B04790B982E7136B9942C9
:1035C80002BF4FF0FF3382F828A01363A0684A4671
:1035D80003685B68984700283FF473AF4FF40075A1
:1035E8006369A9442B4463617F1B79E7E2699342CD
:1035F800A27801D9E36102E00E4B1B6813B162F0B7
:103608007F02A270A3781A0702D44046BDE8F0876B
:103618002046FFF7B9FE0028F7D152E74FF0FF30F8
:1036280082F828A01063C2E72169A06800F065F855
:10363800014683E7FC0600200FF020BA70B5054666
:103648000C46084649B112F064F92B680246214637
:103658002846BDE87040DB68184770BD0FF00EBA09
:103668000FF00CBAF8B503780446DA071ED540689F
:1036780004F10C06036832465B68A1689847054662
:1036880008B9002513E023789B0704D4237823F096
:10369800010323700BE06068A7680169036832467C
:1036A8005B68394498470028F0D1EAE701252846A5
:1036B800F8BD70B5836804468B420E46154614D093
:1036C800FFF7D0FF08B9002070BD6B0703D50023B2
:1036D8002370A66009E0606804F10C0203683146B3
:1036E8001B6898470028F2D1EDE72046237805F0BB
:1036F80003051D4300F80C5B70BD837902394069EE
:1037080099400844704770B5C3790546202B0C468C
:10371800164612D18169022201EBD41100F50D7011
:10372800FFF7C7FF10B94FF0FF3070BD04F07F04FA
:1037380050F8243023F070430FE0102BF3D1836945
:10374800C1F307210222194400F50D70FFF7B1FFFC
:103758000028E8D0E4B230F81430EA6993429ABFFE
:1037680033600120002070BD38B5C3790C46202B8A
:1037780015460FD18169032201EBD41100F50D70B4
:10378800FFF797FF08B9002038BD04F07F0440F820
:1037980024500FE0102BF6D18369C1F307210322CF
:1037A800194400F50D70FFF784FF0028EBD0E4B250
:1037B80020F81450012038BD2DE9F3410546904604
:1037C8000F4609B9C66800E00E463446EB69013475
:1037D8009C4288BF022401AA21462846FFF793FF8E
:1037E80000280DDB01D0019B13B1B442EED107E0F4
:1037F8006FF0704221462846FFF7B6FF064608B923
:10380800002610E037B1224639462846FFF7ACFFBC
:1038180008B9F5E7EC606B6A002BA4BF03F1FF332E
:103828006B62C8F80040304602B0BDE8F08173B55D
:1038380004460D4601AA29462046FFF764FF061EE6
:1038480001DA002012E0002229462046FFF78CFF0B
:103858000028F6D0636A002BA4BF01336362E368D3
:103868009D4238BFE560019D002EE3D102B070BDD6
:1038780070B5044601230022C3604FF0FF33C271C4
:103888000D46E06280F828200363C4F8380280F807
:103898003422C0F83C32A1B1042960D8114628303E
:1038A800FFF707FF00285AD000EB051393F8AE3155
:1038B8005B0654D11B3500EB0515D5F80650002DD5
:1038C8004DD00022294604F12800FFF7F2FE002817
:1038D80045D0B0F80B30B3F5007F40D1037C022B04
:1038E8003DD1C389002B3AD0417B09264B1E637119
:1038F8000023A371217101238B4207D0013E2ED0F2
:10390800A2795B000132DBB2A271F5E7C28A02B983
:10391800426A2261C6892E44A661B0F8113006EBCE
:10392800420123812162B0F81120520102F2FF12F4
:1039380001EB62226261B0F8133003B9036AAD1A71
:103948002B44A57923FA05F56B1CE3614FF0FF338F
:10395800636240F6F4739D4203D80C23E3710020A0
:1039680070BD4FF6F4739D4289BFC36A102323626A
:103978002023E371012070BD0FF080B80FF07EB8EE
:103988007047000070B505460C4616460FF0BCFDA2
:1039980058B12146324628460FF0A4FD044638B1F6
:1039A80028460FF0CDFB204670BD4FF0FF3070BDAC
:1039B800004870BD8097FFFF70B504460D46164657
:1039C8000FF0A2FD58B120460FF082FC28B1324614
:1039D800294620460FF04BFC18B9024870BD4FF03D
:1039E800FF3070BD0097FFFF70B50E4615460C46B8
:1039F8002B1B3344032B04D90FF0B0F844F8040B05
:103A0800F6E7AC0806EB84043544AC4204D00FF06A
:103A1800A5F804F8010BF8E7002070BD00B5ADF279
:103A2800044D0B46054A40F2FF31684606F094FA09
:103A380000200DF2044D5DF804FB00BF847D0908E9
:103A480038B50B4B8469054603607CB16368013B5C
:103A580063605BB9236820469B689847A368013B6D
:103A6800A3601BB923682046DB689847284638BD01
:103A780068AD090810B50446FFF7E2FF2046FCF7D9
:103A88000CFB204610BD000038B5044600250FF099
:103A9800ADFCE561054904F138000FF0ACFD0123E8
:103AA800A56484F88236204638BD00BF847D0908A5
:103AB80038B504461D46059B0363002084F881063B
:103AC80084F88006606302B1A26419B104F1380079
:103AD8000FF0B3FD049BE0692365069BA4F84C50E6
:103AE800A4F8543008B1FCF7DAFAB4F85400FCF73B
:103AF800D2FAE06138BD00002DE9FF4104461746BF
:103B080098460E4600250FF071FCE5610C4904F15A
:103B180038000FF070FD012384F88236FF230293EA
:103B28000F2300932046A564CDF804803B462A461F
:103B38003146FFF7BDFF204604B0BDE8F08100BF65
:103B4800847D0908F0B50D4602339BB26C1A15F84E
:103B5800016BA4B23EB1B0F854709F4203D95C1C0B
:103B6800D654A3B2F2E7191B0A44211202F8021C28
:103B780002F8014C1846F0BD10B590F8814614B90A
:103B88000FF0B0FC03E000F5347008F04DFF80B290
:103B980010BDF7B507468E461E461D46002405F0A3
:103BA8007F0302A9ED09214418BF43F080030134C3
:103BB80001F8043CE4B2002DF1D1C4F10403D1189A
:103BC80002F803E0A54206DA01A82B1B285C13447F
:103BD80058710135F6E7721C22443846FFF7CCFFCE
:103BE80005460EF0CBFF01347862A019431B5842FA
:103BF800584103B0F0BD38B50446C369E0221A70D5
:103C0800C36900255D700222C169FFF7B5FF94F80A
:103C18008136BBB104F57A7084F8805684F88156F1
:103C280007F0D1F804F21C5007F0CDF804F5CA608B
:103C38000AF097FE04F5617009F0E6F804F53470AF
:103C480009F04EF820460FF081FB0EF097FF6062F6
:103C5800A06238BD37B590F8813604464BB9204686
:103C68000FF036FB0028FAD020460FF0D8FAC0B281
:103C780017E090F880369BB100F5347501220DF1FC
:103C88000701284608F04AFE002806DA10F5D24F48
:103C9800F4D02046FFF7AFFF02E09DF8070000E0F0
:103CA800FF2003B030BD2DE9F0470546C4698A46B8
:103CB800FFF7D0FF4FF0010846462070EB69002758
:103CC80093F8009009F0F0092846FFF7C3FFEB6965
:103CD800741C985500F07F0303FB08770306A4B211
:103CE800BFB24FEAC81801D52646EDE7631EB9F101
:103CF800300F8AF8003013D12846D5F81C80FFF71A
:103D0800A9FF08F804002846D5F81C80FFF7A2FF91
:103D1800F41C0236B6B2A4B208F80600022300E08A
:103D280000231B1B9EB2A3199BB29F420BD92846A6
:103D3800FFF790FFB5F85430A34284BFEB691855DC
:103D48000134A4B2EFE7B5F85400A0422CBF2046D6
:103D58000020BDE8F08710B504460FF0D5FB94F8B5
:103D680081361BB9003018BF012010BD94F88006B9
:103D780010BD2DE9F14F0D9E04468B4691469A469B
:103D88009DF828809DF82C509DF83070FFF7E3FFD0
:103D9800002848D0E36900221A60E26905235946E1
:103DA8002046FFF7CFFE6B1E012B12D8238CE26949
:103DB80001339BB223841B121354411CE369228CE8
:103DC80089B2023080B25A541EB1238C5A1C228404
:103DD8003380002291B283188A459BB209D9B4F87E
:103DE800546001329E4204D919F80160E169CE5449
:103DF800F0E7B8F1000F0CBF302131210FB141F0CD
:103E08000801022D02D141F0040103E0012D08BF91
:103E180041F002012046053BE2699BB201B0BDE8D2
:103E2800F04FFFF7B6BE01B0BDE8F08F1FB5089C94
:103E38000394002402949DF81C4001949DF81840B6
:103E48000094FFF796FF04B010BD7FB505461046F5
:103E58000E46144611F05DFD002302930193009372
:103E68002246034631462846FFF7E0FF04B070BDFE
:103E7800012A70B504460E46154620D8FFF76BFF99
:103E8800E8B1238C01339BB203B901232384238C2B
:103E9800E2691B125371E369228C31469A71E26917
:103EA80007232046FFF74EFEE36982211D54031FB6
:103EB800E2692046BDE870409BB2FFF76ABE002069
:103EC80070BD0022FFF7D4BF10B50446FFF743FFCB
:103ED80028B12046FFF78FFEE0690FF047F804F19C
:103EE80038000FF041FB2046FFF7AAFD204610BD21
:103EF80008B50FF0EDF9003018BF012008BD2DE915
:103F0800F04F83B000AF0446FFF725FF06460028B0
:103F180000F0BE800EF032FE226D4FF47A735343E8
:103F2800A26A0546821A9A4203D8626A821A9342A2
:103F380016D294F82C3023B12046FFF75CFE0026F9
:103F4800A6E0E269C0211170E26920465370E16978
:103F58000222FFF711FE01236562A56284F82C3066
:103F68002046FFF7C5FF8146002800F09180F91D23
:103F78002046FFF798FE0246002800F08880E16995
:103F8800A562087800F0F003302B58D1D4F830B08F
:103F9800BBF1000F7BD097F807E0EA4601EB0E0073
:103FA8004678837803EB06239BB203F1080020F0E0
:103FB8000700ADEB000D684600261FFA86FC634536
:103FC80008D90EEB060C8C449CF803C000F806C018
:103FD8000136F2E70026C65491F800800EF1030678
:103FE80008F00608B8F1020FCEEB020220D11E44F9
:103FF80011F806C00EF1050E0E447678D21A7344F5
:104008001944053A06EB0C26D847E36940221A7092
:10401800E369B6B283F80180E36932129A70E36902
:104028000422DE70E1692046FFF7A6FD656204E020
:10403800033A1E44D21A3144D847D54627E000F047
:10404800E005402D0DD1646B0CB3042A1FD110F08C
:10405800060F1CD18878CB7803EB002080B2A047EC
:1040680015E0702B13D0902B11D0C02B0AD1D02380
:104078000B70E36900225A70E16902222046FFF7BB
:104088007BFD04E0D02B04BF002384F82C304E467F
:1040980030460C37BD46BDE8F08F00002DE9F04FE3
:1040A8000546934600F561749946012385B080F86A
:1040B800813605F534762046039105F57A7A08F0BD
:1040C8005DFE304608F082FB05F21C57504606F0AC
:1040D80075FE05F5CA68384606F070FE40460AF0D7
:1040E8003BFC00223549204608F081FB5A460399DB
:1040F800504607F001FA00285DDBB9F1000F02D144
:104108000F9B5BB90CE00E9B002BF9D01A46494671
:10411800384607F0F1F90028F2DA4CE0109B4BB969
:1041280000231A461946204608F02CFE834600282C
:1041380041D109E000230093109A0F99404605F0F9
:104148003BF80028ECD036E003221146204608F060
:104158009BFB5A461A49204608F043FB012120469A
:1041680008F038FB5A461749204608F03DFB5A46E6
:104178005146204608F04FFBB9F1000F06D00F9BBF
:1041880023B142463946204608F042FB21463046D4
:1041980008F06CFD044668B90B4B0C4A05F5CB6179
:1041A800304608F02DFB0094094B0A4A2946304650
:1041B80008F020FB204605B0BDE8F08F89390808D3
:1041C800253A0808F139080809840808FB83080813
:1041D800C13908088D39080800B500F53470ADF507
:1041E800017D08F056FB034638B1064A4FF40071CA
:1041F800684606F0CDF9002000E001200DF5017DAC
:104208005DF804FB2077090870B5044600F534769C
:10421800D4F8D432102B05D030460DF03DF90546C0
:104228000028F5D015F5D24FF2D015F5D14FEFD0C3
:1042380004F57A7006F0C7FD04F21C5006F0C3FDC1
:1042480004F5CA600AF08DFBD4F8D432102B09D1DA
:1042580094F8823643B12046FFF7BEFF20B94FF0ED
:10426800FF3070BD284670BD012384F880360020D9
:1042780070BD00002DE9F0438BB00446894617460F
:104288001E46DDF84880FFF766FD0546002840F029
:10429800E780A16C002938D10346B4F84C20A16B03
:1042A80020460EF065FF94F88136002B50D0A16BA4
:1042B80004F5347008F0B2FA2046FFF7A5FF00288D
:1042C80040F0CA8001232384684B06AA59681868FD
:1042D80003C2197A53F8090F11709A889B79ADF8BF
:1042E80014208DF816309DF85C300490042BE26998
:1042F80031D10498531DC2F80500BDF814109DF87B
:10430800162099809A710C232EE006A80FF08EFBD8
:104318002B46B4F84C2006A920460FF071F894F803
:104328008136ABB1A16CC8784B780A78019089784E
:1043380006A800914E490EF029FE06A904F534702E
:1043480008F06CFA2046FFF75FFFB0FA80F04009EA
:104358000028B7D180E006AB03CBC2F80500C2F84D
:1043680009101B7853730E23B8F1000F0AD09DF87B
:1043780050209DF84C10520142F0060242EAC10258
:10438800D2B200E002229DF8581009B902F0FD02ED
:104398002FB116B942F0800201E042F0C002E16993
:1043A800581CCA54226DE16912120A54E169206D41
:1043B8009A1C88540333E26949462046FFF7C2FB3A
:1043C800B8F1000F0BD00346E26941462046FFF7DB
:1043D800B9FBE269034615992046FFF7B3FB67B1BD
:1043E8000346E26939462046FFF7ACFB2EB1034687
:1043F800E26931462046FFF7A5FB431F9BB2E269FD
:1044080010212046FFF7C5FB0EF0B8FB4FF47A7772
:104418006062A0622046FFF76BFD064658B90EF0B1
:10442800ADFBA36AC01A236D7B439842F2D920469C
:10443800FFF7E1FB0EE00DF10F012046FFF733FC1B
:10444800042809D1E369DF7837B90EF097FB84F8BF
:104458002C70A062354604E02046FFF7CCFB00E054
:10446800002528460BB0BDE8F08300BF1077090887
:10447800257709087FB504230593012304930023B6
:1044880003930293019300931A46FFF7F3FE07B0D4
:104498005DF804FB0EF0F2BA6C22002111F00BBAA1
:1044A80038B100F16C020023904202D00370013051
:1044B800FAE7704708B56C2211F0D7F908BD00007B
:1044C800002303604360A1B9184B8360184BC36095
:1044D800184B0361184B4361184B8361184BC36138
:1044E800184B036203F17453A3F52303A3F6924315
:1044F80018E0154B8360154BC36003F1794303F54E
:10450800740303F501630361114B4361114B83612C
:1045180003F1D14303F5C01303F51E63C3610E4BCA
:1045280003620E4B436281660020704767E6096AA2
:1045380085AE67BB72F36E3C3AF54FA57F520E51BC
:104548008C68059BABD9831FD89E05C107D57C36DF
:1045580039590EF7310BC0FFA78FF964A44FFABE83
:104568002DE9F04F031DCFB005931A46002352F8EA
:10457800040F06AC44F823000133082BF7D1084692
:1045880000220EAC11F82250C378043043EA0563C8
:1045980010F8035C43EA054310F8025C43EA05237C
:1045A80044F822300132102AECD10D9B9F4C009325
:1045B8000C9E099B089FDDF82CB0DDF81CE0DDF8A7
:1045C8002880DDF818900FAD04F1400A54F8040C67
:1045D8004FEAF82255F8041C86EA0B0C82EAB81256
:1045E800014482EA78620CEA080C8CEA060C0A4458
:1045F800009962444FEA79304EEA090C0A440CEA01
:10460800070C0EEA090180EAB9004CEA010180EAC8
:10461800B950084413442968024420688BEA080CFE
:1046280001440CEA030C4FEAF3208CEA0B0C0E440D
:1046380080EAB31006EB0C0180EA73600E1806EBF3
:10464800070C42EA09004FEA723702EA090187EAD1
:10465800B20700EA0E0087EAB257084338443044EC
:104668006968666883EA08070E4407EA0C074FEA98
:10467800FC2187EA0807B34481EABC110BEB070663
:1046880081EA7C6106EB010B4FEA703742EA0001D0
:1046980002EA000687EAB00701EA090187EAB0578B
:1046A80031433944AE68A7685944DE443E4483EA3E
:1046B8000C0BB0440BEA0E0B4FEAFE268BEA030BF9
:1046C80086EABE16D84486EA7E6646444FEA713BBF
:1046D80040EA010800EA01078BEAB10B08EA020880
:1046E8008BEAB15B48EA0708D844B044B144E768AC
:1046F800EE688CEA0E0B37440BEA090B8BEA0C0BBD
:104708003B4403EB0B074FEAF92383EAB91383EA27
:104718007963FE18931900934FEA783741EA080342
:1047280001EA080287EAB807034087EAB857134343
:104738003B4433442A6926694FEA733B3244944424
:10474800009A8EEA090616404FEAF22786EA0E0614
:1047580087EAB217B44487EA72670CEB070248EAA3
:10476800030786180F4008EA03008BEAB30B8BEAAD
:10477800B35B07435F44174460696A692034104497
:10478800009A864489EA020C0CEA060C8CEA090CA9
:104798000EEB0C004FEAF62E8EEAB61E8EEA766E07
:1047A80000EB0E024FEA773043EA070E01EB020BEB
:1047B8000EEA080E03EA070180EAB70080EAB7505C
:1047C8004EEA010E8644964454F8081CAA69A2458C
:1047D8001144009A894482EA060000EA0B0080EA44
:1047E800020009EB00014FEAFB2989EABB1989EAB3
:1047F8007B6901EB09024FEA7E3047EA0E0980EA3D
:10480800BE0009EA030907EA0E0180EABE5049EA38
:10481800010981449044914405F120057FF4D6AE06
:104828000022DFF80CA00EAC049203E038770908E8
:1048380034770908A26B60684FEAF24585EA724549
:1048480085EA9225049A0DF1380C5CF82220616AF9
:104858004FEAB04C0A448CEAF01C4FEAF8218CEA83
:10486800D00C81EAB811154405EB0C0281EA786591
:1048780086EA0B0101EA0801039281EA0602A918F7
:10488800DAF840204EEA09050A4403993D402164BC
:104898000A4400990AF1200A0A44D3184FEA7931E8
:1048A800009381EAB9010EEA090381EAB9512B4361
:1048B8000B441A44E36BA5684FEAF34181EA73415C
:1048C80081EA9321A36A2034034419444FEAB5438B
:1048D80083EAF51383EAD50C01EB0C03DAF824001C
:1048E80000998BEA080C30440CEA010C8CEA0B0C9A
:1048F800C1188C44009963624FEAF12080EAB11034
:1049080080EA716000EB0C01C81901904FEA723C13
:1049180042EA090002EA09078CEAB20C00EA0E0032
:104928008CEAB25C384360440844039954F8147C18
:104938004FEAF14686EA714686EA9126E1684FEA2F
:10494800B74C29440E448CEAF71C00998CEAD70C22
:10495800664481EA080C0199A6620CEA010CDAF8AF
:1049680028108CEA080C59448D190199AC44019D12
:104978004FEAF12181EAB51181EA756101EB0C0575
:1049880042EA00014FEA703C05EB0E0B8CEAB00CD2
:1049980002EA000E01EA09018CEAB05C41EA0E0164
:1049A800614429444FEAF34585EA734585EA932330
:1049B800256954F810CC2F443B444FEABC4787EA9A
:1049C800FC1787EADC0E03EB0E079DE828005D4024
:1049D80005EA0B055D40DAF82C304FEA713E984441
:1049E800B84445444FEAFB2888EABB1888EA7B6844
:1049F80008EB050303EB090540EA010802958EEA76
:104A0800B10E00EA010508EA02088EEAB15E48EA3A
:104A18000508F04498444FEAF64E63698EEA764EEC
:104A280054F80C5C8EEA96260CEB030E019B764438
:104A380083EA0B0C4FEAB54E029B8EEAF51E8EEA0E
:104A4800D5090CEA030C019B06EB090EDAF8306075
:104A58008CEA030C009B76441E44029BB444029EDD
:104A68004FEAF32383EAB61383EA766303EB0C0673
:104A78009319009341EA080301EA0802034013432B
:104A88004FEAF74282EA7742E7624FEA783C82EAE5
:104A98009727A2698CEAB80C54F8089C8CEAB85C91
:104AA8001544029A634433442F448BEA02064FEAC2
:104AB800B945009A85EAF91585EAD9051640DAF864
:104AC80034203D44019F2A443A4486EA0B061644A2
:104AD800009AC4F830E04FEAF22787EAB21787EA6B
:104AE8007267BA1986184FEA733080EAB30048EA49
:104AF800030780EAB35C0F4008EA030007436744F2
:104B080017444FEAFE4282EA7E4282EA9E2EE2691A
:104B180054F8040C91440EEB09024FEAB04989EAB3
:104B2800F01989EAD0099144029A65639646009A79
:104B3800C4F838908EEA020CDAF838200CEA060C31
:104B48008CEA0E0C4A444FEAF62E5A448EEAB61EF8
:104B580062448EEA766E72444FEA773C43EA070E67
:104B680001EB020B0EEA080E03EA07018CEAB70C08
:104B78008CEAB75C4EEA010EE64496444FEAF542E9
:104B8800216882EA754282EA9525039A4FEAB14C78
:104B980010448CEAF11CDAF83C2005448CEAD10177
:104BA8000D4402992A4402EB0109009A4FEA7E302B
:104BB80082EA060101EA0B0151404FEAFB2282EA30
:104BC800BB12894482EA7B624A4447EA0E0980EABA
:104BD800BE0009EA030907EA0E0180EABE5049EA65
:104BE8000109814490449144049AE5630832302ACB
:104BF80004927FF41FAE009A09930D92CDF8288095
:104C0800CDF82CB00C96CDF81890CDF81CE008978C
:104C18000023059A52F8041F059206AA52F8232089
:104C280001330A440599082B0A60F2D100204FB0DD
:104C3800BDE8F08F2DE9F04104460E46154682B3D3
:104C4800036803F03F0013449A42236082BF6368FD
:104C58000133636080B1C0F14007BA421BD304F14D
:104C680028083A46404410F000FE41462046FFF727
:104C780077FCB8B93E44ED1B2F46E91B3F2F314462
:104C880005D92046FFF76CFC60B9403FF5E747B10E
:104C98003D460E46002028342A463146204410F06E
:104CA800E4FD0020BDE8F08170B504460368802269
:104CB80003F03F03581C382823440D4683F8282066
:104CC80004F1280604D8C0F13802002130440EE06F
:104CD800C0F140020021304410F0EDFD314620467D
:104CE800FFF73EFC002875D101463046382210F007
:104CF800E2FD236861685A0F42EAC102110EDB0027
:104D080084F86010110C84F8611084F86320110A8B
:104D18001A0E84F864201A0C84F865201A0A84F89C
:104D2800621084F8673084F8662031462046FFF721
:104D380017FC034600284CD1E27A2A7062896A700F
:104D4800A268120AAA70A268EA70E27B2A71E28954
:104D58006A71E268120AAA71E268EA71E27C2A7250
:104D6800628A6A722269120AAA722269EA72E27D6A
:104D78002A73E28A6A736269120AAA736269EA7319
:104D8800E27E2A74628B6A74A269120AAA74A26902
:104D9800EA74E27F2A75E28B6A75E269120AAA75DB
:104DA800E269EA7594F823202A76628C6A76226A88
:104DB800120AAA76226AEA76A06E50B994F82730C9
:104DC8002B77E38C6B77636A1B0AAB77636AEB77A5
:104DD80070BD184670BDF0B51F469DB0054601A8C8
:104DE8000E461446FFF758FB394601A8FFF768FB43
:104DF800014658B92946324601A8FFF71BFF01466C
:104E080020B9214601A8FFF74FFF014601A8FFF787
:104E180047FB08461DB0F0BD2DE9F04F0446A5B08C
:104E2800006801930F469346309E04F0D9FF8146EF
:104E38000023039301238DF80F300DF15008002E45
:104E48005CD05A463946204604F008FF002856D15F
:104E58002E9A0199204604F061FF00284FD10422C0
:104E680003A9204604F05AFF002848D141462046AD
:104E780004F064FF002842D104AD4A464146284662
:104E880010F0F3FC4FF0010A2F9B9A451DD25A46A9
:104E98003946204604F0E2FE88BB4A4629462046A9
:104EA80004F03CFF58BB2946204604F047FF30BBBE
:104EB800484507DA10F80820435D534000F80830E9
:104EC8000130F5E70AF1010ADEE74E45354628BF0D
:104ED8004D4641462A46319810F0C7FC319B761B57
:104EE8002B44319304AA12F8013D0133DBB213704D
:104EF800002BA4D103AB9342F5D1A0E7304625B0EF
:104F0800BDE8F08F2DE9F0431F46BDB0002306939E
:104F180007930993446883684FF0040908931C4475
:104F280003680D46302B16468DF8169040F0C98060
:104F380010AB0AAA214608A800F065FD002858D140
:104F48000B9A092A4CD10C99614810F07FFC002873
:104F580046D1129B119A249303EB0208109B302B25
:104F680040F0AF804B4617AA414624A800F072FCD7
:104F7800F8B9249A179B18921344414606AA24A804
:104F8800249300F094FCA0B9249B984522D007AA4A
:104F9800414624A800F08BFC10B110F1620F08D133
:104FA800249B984516D02CAA414624A800F073FDEE
:104FB80028B1A0F53C50002840F086800AE00DF1A9
:104FC80016012CA802F00CF950B9249B984501D081
:104FD800404879E09DF8160004F0BEFD814608B906
:104FE8003D4871E013AB0DAA214608A800F00BFD5F
:104FF80010B1A0F53C5067E00DF117010DA802F0C3
:10500800C1F80028ECD19DF8170000F049F9804656
:105018000028E5D04368DB080793139B042B52D183
:10502800C368149A9A424ED119A804F0A1FD2CA87D
:1050380000F058F9149A159924A810F016FC0122CA
:10504800494619A804F0BAFD0446002831D1079B47
:105058000DF170090293069BCDF80C900193179BF4
:105068003A4600933146189B19A8FFF7D5FE044627
:10507800F8B941462CA800F009FB0446C8B9079ABC
:105088006BB2D20049462CA800F042F9044680B918
:1050980009AB0293469B149A0193459B24A900935C
:1050A8002CA8449B00F010FBA4F53854002808BF36
:1050B800002419A804F061FD2CA800F017F9204677
:1050C80002E0064800E006483DB0BDE8F08300BFB6
:1050D800347809089AD0FFFF80D1FFFF9ED0FFFFE8
:1050E80000D1FFFF10B1006800B14069704710B5EA
:1050F800891A0024E3B2994204F1010402D9034455
:105108009954F7E710BD0000F0B500B3FAB14318A1
:1051180013F8014CB4FA84F35B09A14238BF43F099
:1051280001030F1B176000228A420BD0855CBA422C
:1051380084EA050634BF0025012575432B43DBB2FD
:105148000132F1E7002B034808BF0020F0BD0248F8
:10515800F0BD00BF009EFFFF009FFFFF802330B51A
:105168008354891A01230025994204D9C4180133AC
:10517800A554DBB2F8E730BD70B501238D1A0026BF
:105188009D4206D9C4181444013304F8016CDBB2FB
:10519800F6E7014401F8015C70BD000070B5F0B19C
:1051A800EAB14E1E845DB4FA84F30D1B5B09A1427B
:1051B8002CBF194643F0010115600023B34209D200
:1051C800AB42C45C34BF0022012262431143C9B21E
:1051D8000133F3E70029034808BF002070BD0248E7
:1051E80070BD00BF009EFFFF009FFFFF10B5024487
:1051F8000023141AA14202D902F8013BF9E710BDB5
:1052080018B112B11160002070470148704700BF03
:10521800009FFFFFF0B5F0B1EAB100231360084426
:10522800802499B110F8015D0139002D0CBF1D468D
:1052380043F001056B4001FB03F617683E43166017
:10524800067873435C40E4B22B46EAE7002C034837
:1052580008BF0020F0BD0248F0BD00BF009EFFFF60
:10526800009FFFFF30B5A8B1A2B10023136001442D
:105278008142A1EB00040FD011F8015D002D0CBF95
:105288001D4643F001056B406343146823431360D4
:105298002B46EDE7014830BD002030BD009FFFFFE1
:1052A800054B53F8042C22B1083313F8101C814223
:1052B800F7D11046704700BF4886090830B5084C3A
:1052C80063685BB19D692D78854205D15D688D4223
:1052D80002D15D78954201D00834F1E7184630BD17
:1052E800408609084022002110F0E5BA10B50446AE
:1052F80068B1C06B18B123689B699B69984704F132
:1053080040020023944202D023700134FAE710BD12
:1053180030B4C8B10468BCB12569AD0702D465686A
:10532800954211D1012B4260037204D06578032D98
:1053380001D0052D02D1A369DB6802E023B9A36976
:105348001B69C06B30BC1847014830BC704700BFB0
:10535800009FFFFF38B50446B0B10368A3B199B107
:10536800102A0FD81869C00703D4DD68AA4201D2F1
:105378000AE015462A4604F1280010F076FAA563DB
:10538800002038BD014838BD014838BD809FFFFF67
:10539800009FFFFF28B103681BB100234362184632
:1053A80070470148704700BF009FFFFF2DE9F74F86
:1053B800DDF830800F4615469946044608B95C4822
:1053C800B2E00368002BFAD0B8F1000FF7D0002341
:1053D800C8F80030FFF786FE236806465B78012B85
:1053E80010D190427DD1C8F8000023680A469B6915
:1053F80094F908105D684B46AC46E06B03B0BDE815
:10540800F04F6047062B0AD1C8F800204B460A46E1
:105418002946E06B03B0BDE8F04F04F0BBB90028A3
:1054280061D0494508D1626A002AC8D1B5FBF0F2BB
:1054380000FB1252002AC2D1022B56D194F908302F
:10544800606A2BB9E3682BB1331A9D420FD804E088
:10545800012B0CD1331A9D4209D220442A463946E1
:10546800143010F002FA636A1D44656237E010B325
:10547800C0EB060A204452463946143010F0F5F9BC
:10548800234653F8142B94F9081092698DE8080202
:1054980004F12803D2F808B0E06B3246D847002858
:1054A80042D1D8F80030B1443344C8F800305744EA
:1054B8006062CAEB050595B1B5FBF6FA06FB1A5A08
:1054C800BAF1000F13D0CAEB05055246791904F159
:1054D800140010F0CAF9636A5344636295B9002056
:1054E80022E0144820E014481EE014481CE094F917
:1054F8000830002BE7D1E368002B0CBF4FF0000AFF
:10550800B246E0E7236894F908109B698DE88002A9
:105518002A469E68E06B04F12803B04720B9D8F802
:1055280000301D44C8F8005003B0BDE8F08F00BF3C
:10553800009FFFFF809DFFFF809CFFFF809FFFFF74
:10554800F7B50E4615460446002852D00368002BCE
:105558004FD0002A4DD00023136007687A78032AB9
:105568004DD0511F02294AD9012A01D1636A16E098
:10557800022A40D190F90830012B09D1C368002BC9
:10558800F4D0A16B143001B9F968626A98470BE04E
:10559800FFF7A8FD636A984206D0E2686ABB002B51
:1055A800184808BF00202BE02046FFF79BFD234644
:1055B80053F8142B94F9081092698DE8480004F107
:1055C800280397680246E06BB8470346B8B994F9D0
:1055D800082020464AB9FFF785FD2A46014630468D
:1055E800236903B0BDE8F0401847FFF77BFD28604A
:1055F80005E0054804E0054802E0024800E01846D6
:1056080003B0F0BD809DFFFF009FFFFF809FFFFF5D
:1056180008B303685B78022B1DD104291DD8DFE885
:1056280001F003070D1115000D4BC3600D4B02E08F
:105638000D4BC3600D4B0361002070470C4BC360DA
:105648000C4BF8E70C4BC3600C4BF4E70C4A0023F7
:10565800C3600261F0E70B4870470B48704700BF12
:10566800F750080811510808655108081D52080824
:1056780081510808A5510808F55108086D52080815
:1056880009520808009FFFFF809FFFFF38B50446B6
:105698000D4681B178B14022002110F00CF9AB69B8
:1056A8005B699847E06340B1256000212046FFF719
:1056B800AFFF002038BD024838BD024838BD00BFE2
:1056C800009FFFFF809EFFFFF0B585B005461F468F
:1056D8000B9E0C9CFFF73EFEB0B92846FFF75AFE1A
:1056E80090B9009433460A9A39462846FFF75EFE79
:1056F80050B9216803AA31442846FFF721FF18B999
:105708002268039B1344236005B0F0BD2DE9F043E4
:10571800076814467F78079D062F089E099ADDF8CA
:1057280028E0DDF82C90DDF83080DDF834C012D1A7
:10573800C9F800200893CDF83480CDF830C0CDF8F2
:105748002CE00A96099507940B46BDE8F043012121
:10575800C06B04F00AB90148BDE8F083809FFFFFE1
:1057680030B5056887B06D780C46062D0C9917D1B1
:105778000E9D29600D9D05950B9D0495109D039523
:105788000F9D02950A9D8DE828001346C06B22469E
:1057980004F010F9044B10F1120F08BF184600E08E
:1057A800024807B030BD00BF009DFFFF809FFFFF8C
:1057B80030B50368CD1A002D02DC6FF05F0030BDF4
:1057C8001C7814F0800F04D15C1C04601B781360F3
:1057D80036E004F07F04013C032C38D8DFE804F0FD
:1057E80002091320012DE8D05B78136003680233A7
:1057F80025E0022DE1DD5C789B7843EA0423136001
:10580800036803331BE0032DD7DD9C785D78240201
:10581800DB7844EA05441C431460036804330EE053
:10582800042DCADD9C785D78240444EA05651C795A
:10583800DB782C4344EA03231360036805330360D1
:105848000368C91A13688B42B7D8002030BD6FF0BF
:10585800630030BD70B404680E1B002E07DD267887
:105868009E4207D10134046070BCFFF7A1BF6FF0FE
:105878005F0001E06FF0610070BC704737B501232D
:10588800154601AA0446FFF7E5FF70B9019B012BF5
:1058980009D123681B78003318BF01232B602368C4
:1058A8000133236001E06FF0630003B030BD37B50A
:1058B8000223154601AA0446FFF7CCFFC8B9019B8D
:1058C800013B032B13D8236893F90030002B0EDB20
:1058D80028600198431E019358B123682A681B78F1
:1058E80043EA02232B60236801332360F1E76FF05A
:1058F800630003B030BD37B50223154601AA04463C
:10590800FFF7A8FF40B9019A2168284607F0A7FECB
:105918002268019B1344236003B030BD70B5032394
:1059280004460E461546FFF795FFD8B91368A3B18C
:10593800013B136023681B78072B137110D8236869
:1059480001332360936022682B6813449E422360CE
:1059580014BF6FF06500002070BD6FF05F0070BD70
:105968006FF0630070BD38B5032304461546FFF792
:1059780071FF58B913685A1E012B2A6004D923688D
:105988005A1C2260187808B16FF0670038BD2DE9FD
:10599800F34115461F4601AA302304460E46FFF779
:1059A80059FF68BB2268019B13449E421DD06FF0CB
:1059B800650025E023689E421AD91B7842462B6071
:1059C80031463B462046FFF745FFC8B92368AB6020
:1059D80022686B6813449E422360EBD91021012092
:1059E8000FF014FFE86048B1054605F10408E1E747
:1059F8000020E86023689E4202D0D8E76FF0690073
:105A080002B0BDE8F081F7B517461D4601AA30235C
:105A180004460E46FFF71EFF00283AD12368F61AFF
:105A2800002E31DD3A461B78204642F8043B2668B2
:105A3800019B1E4431460623FFF70CFF48BB236831
:105A4800BB6022687B68D1188E42216006D105F1BF
:105A58000C039D4216D028700135FAE7D35C2A461C
:105A680042F8043B23683146013323602046FFF7A0
:105A78009FFE70B92368AB6022686B6813449E422E
:105A8800236004D1002004E06FF05F0001E06FF0B4
:105A9800650003B0F0BD1FB5002301930293039383
:105AA80001ABFFF7B0FF60B9019B052B00D033B9FC
:105AB800029B002B14BF6FF06700002001E06FF01D
:105AC800670005B05DF804FB01F0EEBB01F0CCBB4C
