:02000004080AE8
:1000000000000A080CF40A080000050006000501BB
:080010000402CF000000000013
:10001800B4D50A0809480A4908B5884205D0094AEA
:10002800824202D0121A0DF072FA0748074A0021DC
:10003800121A0DF092FA064808BD00BF000300200E
:100048007CF30A0868030020680300208031002040
:100058008031002070B50CF081FD074B074C1E461F
:10006800E41AA4080025A54204D056F8253098477C
:100078000135F8E770BD00BFFCF20A0868F30A080A
:1000880000F062B808B500F077F8BDE808400CF059
:1000980023BD0CF059B90CF057B90CF05DB90CF050
:1000A8005BB90078B0FA80F040097047012303700B
:1000B80070470000B0B5154602F1080323F00703A6
:1000C80084B000AFADEB030D68460DF020FA0024B4
:1000D800694638460DF805400CF0EBFB14493846E4
:1000E8000CF01AFC054618B122462146FF2013E001
:1000F800104938460CF010FC044610B12A46FF217E
:1001080009E00D4938460CF007FCFF2210B12146E2
:10011800204601E0114610460CF08AFC4FF47A7034
:100128000CF064FC38460CF07DFB1037BD46B0BDC2
:10013800C8D50A08CCD50A08D2D50A0810B504468D
:1001480000F00CF9204610BD10B50BF0DDFF084C8F
:100158002368C01A074B984205D900200CF0ECF828
:100168000BF0D2FF20600120BDE810400CF050BC1D
:10017800000E0020005C2605C8200CF037BC0000EB
:1001880010B50A4C0BF0A8FF094B42F2B3220949FB
:1001980020460BF0D9FE084A084920460CF0B4FE68
:1001A8000BF0B2FF064B186010BD00BF70030020B3
:1001B800BD000A0830D60A086803002045010A086D
:1001C800000E002038B50B4B8469054603607CB1EE
:1001D8006368013B63605BB9236820469B68984766
:1001E800A368013BA3601BB923682046DB689847D6
:1001F800284638BDDCF00A0810B50446FFF7E2FFD0
:100208002046FFF74AFF204610BD000038B50446D7
:1002180000250CF045FAE561054904F138000CF0B9
:1002280048FB0123A56484F88236204638BD00BF08
:1002380074DA0A0838B504461D46059B0363002096
:1002480084F8810684F88006606302B1A26419B15B
:1002580004F138000CF04FFB049BE0692365069B12
:10026800A4F84C50A4F8543008B1FFF718FFB4F8BC
:100278005400FFF710FFE06138BD00002DE9FF4191
:100288000446174698460E4600250CF009FAE56123
:100298000C4904F138000CF00CFB012384F8823679
:1002A800FF2302930F2300932046A564CDF8048012
:1002B8003B462A463146FFF7BDFF204604B0BDE85D
:1002C800F08100BF74DA0A0810B590F8814614B9B5
:1002D8000CF066FA03E000F5347006F043FF80B2D4
:1002E80010BD38B50446C369E0221A70C3690025F9
:1002F8005D700222C169FFF7E7FF94F88136BBB150
:1003080004F57A7084F8805684F8815605F097FAD7
:1003180004F21C5005F093FA04F5CA6008F0C0FD19
:1003280004F5617007F015F804F5347006F0C3FFA2
:1003380020460CF063F90BF0E7FE6062A06238BD5E
:1003480010B504460CF03EFA94F881361BB900301B
:1003580018BF012010BD94F8800610BD10B50446E2
:10036800FFF7EEFF28B12046FFF7BBFFE0690BF06F
:10037800F3FF04F138000CF055FA2046FFF722FF8E
:10038800204610BD0BF0A8BE6C2200210DF0E5B888
:1003980038B100F16C020023904202D003700130A2
:1003A800FAE7704708B56C220DF0B1F808BD0000F7
:1003B800002303604360A1B9184B8360184BC360E6
:1003C800184B0361184B4361184B8361184BC36189
:1003D800184B036203F17453A3F52303A3F6924366
:1003E80018E0154B8360154BC36003F1794303F59F
:1003F800740303F501630361114B4361114B83617E
:1004080003F1D14303F5C01303F51E63C3610E4B1B
:1004180003620E4B436281660020704767E6096AF3
:1004280085AE67BB72F36E3C3AF54FA57F520E510D
:100438008C68059BABD9831FD89E05C107D57C3630
:1004480039590EF7310BC0FFA78FF964A44FFABED4
:100458002DE9F04F031DCFB005931A46002352F83B
:10046800040F06AC44F823000133082BF7D10846E3
:1004780000220EAC11F82250C378043043EA056319
:1004880010F8035C43EA054310F8025C43EA0523CD
:1004980044F822300132102AECD10D9B9F4C009376
:1004A8000C9E099B089FDDF82CB0DDF81CE0DDF8F8
:1004B8002880DDF818900FAD04F1400A54F8040CB8
:1004C8004FEAF82255F8041C86EA0B0C82EAB812A7
:1004D800014482EA78620CEA080C8CEA060C0A44A9
:1004E800009962444FEA79304EEA090C0A440CEA52
:1004F800070C0EEA090180EAB9004CEA010180EA1A
:10050800B950084413442968024420688BEA080C4F
:1005180001440CEA030C4FEAF3208CEA0B0C0E445E
:1005280080EAB31006EB0C0180EA73600E1806EB44
:10053800070C42EA09004FEA723702EA090187EA22
:10054800B20700EA0E0087EAB2570843384430443D
:100558006968666883EA08070E4407EA0C074FEAE9
:10056800FC2187EA0807B34481EABC110BEB0706B4
:1005780081EA7C6106EB010B4FEA703742EA000121
:1005880002EA000687EAB00701EA090187EAB057DC
:1005980031433944AE68A7685944DE443E4483EA8F
:1005A8000C0BB0440BEA0E0B4FEAFE268BEA030B4A
:1005B80086EABE16D84486EA7E6646444FEA713B10
:1005C80040EA010800EA01078BEAB10B08EA0208D1
:1005D8008BEAB15B48EA0708D844B044B144E768FD
:1005E800EE688CEA0E0B37440BEA090B8BEA0C0B0E
:1005F8003B4403EB0B074FEAF92383EAB91383EA79
:100608007963FE18931900934FEA783741EA080393
:1006180001EA080287EAB807034087EAB857134394
:100628003B4433442A6926694FEA733B3244944475
:10063800009A8EEA090616404FEAF22786EA0E0665
:1006480087EAB217B44487EA72670CEB070248EAF4
:10065800030786180F4008EA03008BEAB30B8BEAFE
:10066800B35B07435F44174460696A6920341044E8
:10067800009A864489EA020C0CEA060C8CEA090CFA
:100688000EEB0C004FEAF62E8EEAB61E8EEA766E58
:1006980000EB0E024FEA773043EA070E01EB020B3C
:1006A8000EEA080E03EA070180EAB70080EAB750AD
:1006B8004EEA010E8644964454F8081CAA69A245DD
:1006C8001144009A894482EA060000EA0B0080EA95
:1006D800020009EB00014FEAFB2989EABB1989EA04
:1006E8007B6901EB09024FEA7E3047EA0E0980EA8E
:1006F800BE0009EA030907EA0E0180EABE5049EA8A
:10070800010981449044914405F120057FF4D6AE57
:100718000022DFF80CA00EAC049203E070D60A08A1
:100728006CD60A08A26B60684FEAF24585EA724502
:1007380085EA9225049A0DF1380C5CF82220616A4A
:100748004FEAB04C0A448CEAF01C4FEAF8218CEAD4
:10075800D00C81EAB811154405EB0C0281EA7865E2
:1007680086EA0B0101EA0801039281EA0602A91848
:10077800DAF840204EEA09050A4403993D4021640D
:100788000A4400990AF1200A0A44D3184FEA793139
:10079800009381EAB9010EEA090381EAB9512B43B2
:1007A8000B441A44E36BA5684FEAF34181EA7341AD
:1007B80081EA9321A36A2034034419444FEAB543DC
:1007C80083EAF51383EAD50C01EB0C03DAF824006D
:1007D80000998BEA080C30440CEA010C8CEA0B0CEB
:1007E800C1188C44009963624FEAF12080EAB11085
:1007F80080EA716000EB0C01C81901904FEA723C65
:1008080042EA090002EA09078CEAB20C00EA0E0083
:100818008CEAB25C384360440844039954F8147C69
:100828004FEAF14686EA714686EA9126E1684FEA80
:10083800B74C29440E448CEAF71C00998CEAD70C73
:10084800664481EA080C0199A6620CEA010CDAF800
:1008580028108CEA080C59448D190199AC44019D63
:100868004FEAF12181EAB51181EA756101EB0C05C6
:1008780042EA00014FEA703C05EB0E0B8CEAB00C23
:1008880002EA000E01EA09018CEAB05C41EA0E01B5
:10089800614429444FEAF34585EA734585EA932381
:1008A800256954F810CC2F443B444FEABC4787EAEB
:1008B800FC1787EADC0E03EB0E079DE828005D4075
:1008C80005EA0B055D40DAF82C304FEA713E984492
:1008D800B84445444FEAFB2888EABB1888EA7B6895
:1008E80008EB050303EB090540EA010802958EEAC7
:1008F800B10E00EA010508EA02088EEAB15E48EA8C
:100908000508F04498444FEAF64E63698EEA764E3D
:1009180054F80C5C8EEA96260CEB030E019B764489
:1009280083EA0B0C4FEAB54E029B8EEAF51E8EEA5F
:10093800D5090CEA030C019B06EB090EDAF83060C6
:100948008CEA030C009B76441E44029BB444029E2E
:100958004FEAF32383EAB61383EA766303EB0C06C4
:100968009319009341EA080301EA0802034013437C
:100978004FEAF74282EA7742E7624FEA783C82EA36
:100988009727A2698CEAB80C54F8089C8CEAB85CE2
:100998001544029A634433442F448BEA02064FEA13
:1009A800B945009A85EAF91585EAD9051640DAF8B5
:1009B80034203D44019F2A443A4486EA0B061644F3
:1009C800009AC4F830E04FEAF22787EAB21787EABC
:1009D8007267BA1986184FEA733080EAB30048EA9A
:1009E800030780EAB35C0F4008EA03000743674443
:1009F80017444FEAFE4282EA7E4282EA9E2EE2696C
:100A080054F8040C91440EEB09024FEAB04989EA04
:100A1800F01989EAD0099144029A65639646009ACA
:100A2800C4F838908EEA020CDAF838200CEA060C82
:100A38008CEA0E0C4A444FEAF62E5A448EEAB61E49
:100A480062448EEA766E72444FEA773C43EA070EB8
:100A580001EB020B0EEA080E03EA07018CEAB70C59
:100A68008CEAB75C4EEA010EE64496444FEAF5423A
:100A7800216882EA754282EA9525039A4FEAB14CC9
:100A880010448CEAF11CDAF83C2005448CEAD101C8
:100A98000D4402992A4402EB0109009A4FEA7E307C
:100AA80082EA060101EA0B0151404FEAFB2282EA81
:100AB800BB12894482EA7B624A4447EA0E0980EA0B
:100AC800BE0009EA030907EA0E0180EABE5049EAB6
:100AD8000109814490449144049AE5630832302A1C
:100AE80004927FF41FAE009A09930D92CDF82880E6
:100AF800CDF82CB00C96CDF81890CDF81CE00897DE
:100B08000023059A52F8041F059206AA52F82320DA
:100B180001330A440599082B0A60F2D100204FB02E
:100B2800BDE8F08F2DE9F04104460E46154682B324
:100B3800036803F03F0013449A42236082BF63684E
:100B48000133636080B1C0F14007BA421BD304F19E
:100B580028083A4640440CF0DAFC41462046FFF7A4
:100B680077FCB8B93E44ED1B2F46E91B3F2F3144B3
:100B780005D92046FFF76CFC60B9403FF5E747B15F
:100B88003D460E46002028342A46314620440CF0C3
:100B9800BEFC0020BDE8F08170B5044603688022E1
:100BA80003F03F03581C382823440D4683F82820B7
:100BB80004F1280604D8C0F13802002130440EE0C0
:100BC800C0F14002002130440CF0C7FC31462046F9
:100BD800FFF73EFC002875D10146304638220CF05C
:100BE800BCFC236861685A0F42EAC102110EDB009F
:100BF80084F86010110C84F8611084F86320110ADD
:100C08001A0E84F864201A0C84F865201A0A84F8ED
:100C1800621084F8673084F8662031462046FFF772
:100C280017FC034600284CD1E27A2A7062896A7060
:100C3800A268120AAA70A268EA70E27B2A71E289A5
:100C48006A71E268120AAA71E268EA71E27C2A72A1
:100C5800628A6A722269120AAA722269EA72E27DBB
:100C68002A73E28A6A736269120AAA736269EA736A
:100C7800E27E2A74628B6A74A269120AAA74A26953
:100C8800EA74E27F2A75E28B6A75E269120AAA752C
:100C9800E269EA7594F823202A76628C6A76226AD9
:100CA800120AAA76226AEA76A06E50B994F827301A
:100CB8002B77E38C6B77636A1B0AAB77636AEB77F6
:100CC80070BD184670BDF0B51F469DB0054601A819
:100CD8000E461446FFF758FB394601A8FFF768FB94
:100CE800014658B92946324601A8FFF71BFF0146BD
:100CF80020B9214601A8FFF74FFF014601A8FFF7D9
:100D080047FB08461DB0F0BD10B1006800B140694E
:100D1800704710B5891A0024E3B2994204F101041E
:100D280002D903449954F7E710BD0000F0B500B3A9
:100D3800FAB1431813F8014CB4FA84F35B09A142E1
:100D480038BF43F001030F1B176000228A420BD003
:100D5800855CBA4284EA050634BF0025012575433F
:100D68002B43DBB20132F1E7002B034808BF002018
:100D7800F0BD0248F0BD00BF009EFFFF009FFFFFCF
:100D8800802330B58354891A01230025994204D958
:100D9800C4180133A554DBB2F8E730BD70B50123A0
:100DA8008D1A00269D4206D9C4181444013304F84C
:100DB800016CDBB2F6E7014401F8015C70BD00008C
:100DC80070B5F0B1EAB14E1E845DB4FA84F30D1B20
:100DD8005B09A1422CBF194643F0010115600023AD
:100DE800B34209D2AB42C45C34BF00220122624341
:100DF8001143C9B20133F3E70029034808BF0020B3
:100E080070BD024870BD00BF009EFFFF009FFFFF3E
:100E180010B502440023141AA14202D902F8013B7A
:100E2800F9E710BD18B112B11160002070470148F0
:100E3800704700BF009FFFFFF0B5F0B1EAB1002393
:100E480013600844802499B110F8015D0139002D20
:100E58000CBF1D4643F001056B4001FB03F6176804
:100E68003E431660067873435C40E4B22B46EAE7DB
:100E7800002C034808BF0020F0BD0248F0BD00BFA9
:100E8800009EFFFF009FFFFF30B5A8B1A2B100236D
:100E9800136001448142A1EB00040FD011F8015DF9
:100EA800002D0CBF1D4643F001056B4063431468D9
:100EB800234313602B46EDE7014830BD002030BDC9
:100EC800009FFFFF054B53F8042C22B1083313F899
:100ED800101C8142F7D11046704700BF84E20A080F
:100EE80030B5084C63685BB19D692D78854205D1A2
:100EF8005D688D4202D15D78954201D00834F1E7F2
:100F0800184630BD7CE20A0810B5044668B1C06BCB
:100F180018B123689B699B69984704F14002002334
:100F2800944202D023700134FAE710BD30B4C8B13E
:100F38000468BCB12569AD0702D46568954211D132
:100F4800012B4260037204D06578032D01D0052D72
:100F580002D1A369DB6802E023B9A3691B69C06BEE
:100F680030BC1847014830BC704700BF009FFFFFE6
:100F780038B50446B0B10368A3B199B1102A0FD8A7
:100F88001869C00703D4DD68AA4201D20AE01546F1
:100F98002A4604F128000CF0BAFAA563002038BDEF
:100FA800014838BD014838BD809FFFFF009FFFFF03
:100FB80028B103681BB100234362184670470148F3
:100FC800704700BF009FFFFF2DE9F74FDDF8308025
:100FD8000F4615469946044608B95C48B2E00368CE
:100FE800002BFAD0B8F1000FF7D00023C8F8003072
:100FF800FFF78AFE236806465B78012B10D19042E2
:101008007DD1C8F8000023680A469B6994F9081046
:101018005D684B46AC46E06B03B0BDE8F04F6047F7
:10102800062B0AD1C8F800204B460A462946E06B31
:1010380003B0BDE8F04F03F0DDBC002861D049459E
:1010480008D1626A002AC8D1B5FBF0F200FB12523F
:10105800002AC2D1022B56D194F90830606A2BB904
:10106800E3682BB1331A9D420FD804E0012B0CD151
:10107800331A9D4209D220442A46394614300CF0CE
:1010880046FA636A1D44656237E010B3C0EB060A8E
:1010980020445246394614300CF039FA234653F8A6
:1010A800142B94F9081092698DE8080204F12803BA
:1010B800D2F808B0E06B3246D847002842D1D8F8B9
:1010C8000030B1443344C8F8003057446062CAEB7A
:1010D800050595B1B5FBF6FA06FB1A5ABAF1000FE9
:1010E80013D0CAEB05055246791904F114000CF027
:1010F8000EFA636A5344636295B9002022E01448EB
:1011080020E014481EE014481CE094F90830002B35
:10111800E7D1E368002B0CBF4FF0000AB246E0E7C6
:10112800236894F908109B698DE880022A469E6816
:10113800E06B04F12803B04720B9D8F800301D440B
:10114800C8F8005003B0BDE8F08F00BF009FFFFF54
:10115800809DFFFF809CFFFF809FFFFFF7B50E4635
:1011680015460446002852D00368002B4FD0002AA9
:101178004DD00023136007687A78032A4DD0511F99
:1011880002294AD9012A01D1636A16E0022A40D10C
:1011980090F90830012B09D1C368002BF4D0A16B5A
:1011A800143001B9F968626A98470BE0FFF7ACFDA3
:1011B800636A984206D0E2686ABB002B184808BFE9
:1011C80000202BE02046FFF79FFD234653F8142B01
:1011D80094F9081092698DE8480004F1280397688B
:1011E8000246E06BB8470346B8B994F90820204690
:1011F8004AB9FFF789FD2A4601463046236903B0FC
:10120800BDE8F0401847FFF77FFD286005E0054876
:1012180004E0054802E0024800E0184603B0F0BDCB
:10122800809DFFFF009FFFFF809FFFFF08B30368BB
:101238005B78022B1DD104291DD8DFE801F00307D4
:101248000D1115000D4BC3600D4B02E00D4BC36033
:101258000D4B0361002070470C4BC3600C4BF8E743
:101268000C4BC3600C4BF4E70C4A0023C3600261CB
:10127800F0E70B4870470B48704700BF1B0D0A0882
:10128800350D0A08890D0A08410E0A08A50D0A0835
:10129800C90D0A08190E0A08910E0A082D0E0A0827
:1012A800009FFFFF809FFFFF38B504460D4681B1C0
:1012B80078B1402200210CF050F9AB695B6998477E
:1012C800E06340B1256000212046FFF7AFFF002012
:1012D80038BD024838BD024838BD00BF009FFFFF37
:1012E800809EFFFFF0B585B005461F460B9E0C9CFF
:1012F800FFF73EFEB0B92846FFF75AFE90B90094B2
:1013080033460A9A39462846FFF75EFE50B92168E7
:1013180003AA31442846FFF721FF18B92268039B26
:101328001344236005B0F0BD2DE9F0430768144667
:101338007F78079D062F089E099ADDF828E0DDF8DA
:101348002C90DDF83080DDF834C012D1C9F80020C7
:101358000893CDF83480CDF830C0CDF82CE00A964B
:10136800099507940B46BDE8F0430121C06B03F0D3
:101378002CBC0148BDE8F083809FFFFF30B50568AD
:1013880087B06D780C46062D0C9917D10E9D2960F3
:101398000D9D05950B9D0495109D03950F9D029538
:1013A8000A9D8DE828001346C06B224603F032FCE4
:1013B800044B10F1120F08BF184600E0024807B0AE
:1013C80030BD00BF009DFFFF809FFFFF30B5036861
:1013D800CD1A002D02DC6FF05F0030BD1C7814F0D0
:1013E800800F04D15C1C04601B78136036E004F0A5
:1013F8007F04013C032C38D8DFE804F002091320ED
:10140800012DE8D05B7813600368023325E0022DD4
:10141800E1DD5C789B7843EA0423136003680333B7
:101428001BE0032DD7DD9C785D782402DB7844EA45
:1014380005441C431460036804330EE0042DCADD20
:101448009C785D78240444EA05651C79DB782C4394
:1014580044EA032313600368053303600368C91A69
:1014680013688B42B7D8002030BD6FF0630030BDE1
:1014780070B404680E1B002E07DD26789E4207D143
:101488000134046070BCFFF7A1BF6FF05F0001E09A
:101498006FF0610070BC704737B50123154601AA8B
:1014A8000446FFF7E5FF70B9019B012B09D12368BA
:1014B8001B78003318BF01232B6023680133236096
:1014C80001E06FF0630003B030BD37B50223154665
:1014D80001AA0446FFF7CCFFC8B9019B013B032BC7
:1014E80013D8236893F90030002B0EDB286001988D
:1014F800431E019358B123682A681B7843EA0223E4
:101508002B60236801332360F1E76FF0630003B0B9
:1015180030BD70B5032304460E461546FFF7A8FFF5
:10152800D8B91368A3B1013B136023681B78072B54
:10153800137110D8236801332360936022682B68E5
:1015480013449E42236014BF6FF06500002070BDF5
:101558006FF05F0070BD6FF0630070BD38B5032396
:1015680004461546FFF784FF58B913685A1E012B25
:101578002A6004D923685A1C2260187808B16FF0D1
:10158800670038BD2DE9F34115461F4601AA3023EF
:1015980004460E46FFF76CFF68BB2268019B1344A4
:1015A8009E421DD06FF0650025E023689E421AD93F
:1015B8001B7842462B6031463B462046FFF758FFD2
:1015C800C8B92368AB6022686B6813449E422360E5
:1015D800EBD9102101200BF075FFE86048B10546F2
:1015E80005F10408E1E70020E86023689E4202D084
:1015F800D8E76FF0690002B0BDE8F081F7B517468B
:101608001D4601AA302304460E46FFF731FF002885
:101618003AD12368F61A002E31DD3A461B78204667
:1016280042F8043B2668019B1E4431460623FFF717
:101638001FFF48BB2368BB6022687B68D1188E42B5
:10164800216006D105F10C039D4216D028700135A2
:10165800FAE7D35C2A4642F8043B23683146013353
:1016680023602046FFF7B2FE70B92368AB6022689A
:101678006B6813449E42236004D1002004E06FF09D
:101688005F0001E06FF0650003B0F0BD01F05EBBE4
:1016980001F03CBB10B5044601F02EFB2046BDE826
:1016A80010400AF059BE10B55C2101200BF00AFF6A
:1016B800044608B101F01CFB204610BD02F032BB05
:1016C80002F0F6BA01F028BBFEF7C2BEFEF76ABE0A
:1016D80010B50446FEF75CFE2046BDE810400AF04F
:1016E8003BBE10B56C2101200BF0ECFE044608B19E
:1016F800FEF74AFE204610BD0123FFF7E4BA002397
:10170800FFF7E1BAFFF748BAFFF70CBA0121FEF775
:101718004FBE0021FEF74CBE08F016BC08F071BBA6
:1017280010B5044608F063FB2046BDE810400AF0F7
:1017380013BE10B5D82101200BF0C4FE044608B131
:1017480008F051FB204610BD012309F0B8BB002367
:1017580009F0B5BB09F080BA09F036BA012108F0E2
:1017680057BB002108F054BB01440023884202D033
:1017780003700130FAE770472DE9F04F95B01E9DD0
:1017880004AE07460C46914600214022304601939C
:101798000DF150080BF0E1FE0023286848F8443D9D
:1017A80003F0B6FB82467CB354452846A34628BFBF
:1017B800D34603F0BDFA024638BB019A494628468B
:1017C80003F0C0FA024600BB04224146284603F053
:1017D800B9FA0246C8B93146284603F0BDFA0246AE
:1017E80098B93B465A4507D013F8010BB15C013252
:1017F800414003F8011CF5E79DF80F301744013309
:101808008DF80F30A41ACEE7224630464021FFF764
:10181800ABFF104615B0BDE8F08F00002DE9F34787
:101828001D4600230E469146DDF82880009301935B
:10183800044628B303F028FA0646002863D0204659
:101848006A4601A901F040FA044600285BD13046F7
:1018580003F05EFB009F0646074407F108037F2B51
:1018680051D810F10A024ED207F10A039A424AD817
:101878009D4248D3A5F10A03DF1B0A2F06D842E090
:101888008D4240D36D1A0A2D3DD93EE0C246033F32
:101898000AF8024B01233A4688F80130FF215046E6
:1018A8000BF05BFE0AEB070330210AF8074059707A
:1018B800009FD97007F1080232449A70FAB2111DDC
:1018C80003F1070A1971062159719A7101993A466B
:1018D80050460BF01CFE05220AEB07030AF8072006
:1018E80004229F189A70DE705C703246494638466A
:1018F8000BF00DFE3E4408EB05039E4219D0294625
:101908004046FFF731FF0D4C13E04346EF1E03F846
:10191800020B012288F80120FF213A4618460BF0F5
:101928001CFE0346C455A81E3246494618440BF00F
:10193800EEFD204602B0BDE8F08700BF80BFFFFF84
:10194800F8B500F108054768044628460E4606F033
:1019580024F9874217D16368B3F5806F13D8002143
:10196800284606F0EBFA00280DDD0021284606F08F
:10197800CAF840B1EEB104F12C050021284606F062
:10198800DDFA002801DC1A48F8BD0021284606F0D7
:10199800BAF80028F7D004F138050021284606F0E7
:1019A800CDFA0028EFDD0021284606F0ACF8002823
:1019B800E9D0002104F1140006F0C0FA0028E2DDA5
:1019C800A6B1002104F1440006F0B8FA0028DADDD7
:1019D800002104F1500006F0B1FA0028D3DD0021FF
:1019E80004F15C0006F0AAFA0028CCDD0020F8BD5E
:1019F80080BFFFFF2DE9F843099F044698460B9ED8
:101A08000D9D49B100F10809484606F0CCF850BBD5
:101A1800484606F0C2F86060B8F1000F01D147B936
:101A28000EE0089A414604F12C0006F0BCF8D0B943
:101A3800F5E70A9A394604F1380006F0B4F890B987
:101A480036B10C9A314604F1200006F0ACF850B9D2
:101A580035B10E9A294604F1140006F0A4F810B91D
:101A68000020BDE8F883A0F58140BDE8F8830000B8
:101A78002DE9F04F00F1080B87B0074600215846C2
:101A880006F05CFA07F12C0900218046484606F06A
:101A980055FA07F1380A05900021504606F04EFA2B
:101AA80007F12003002105461846029306F046FA7E
:101AB80007F11403049000211846039306F03EFA38
:101AC800059B049A4BB125B12AB1061C18BF012603
:101AD80013E02E4611E016460FE0B8F1000F03D1CF
:101AE80044464646002224E0CDB91AB1F0B906466C
:101AF80004460EE02E462C460DE0ADB192B9041C0A
:101B080018BF0124B8F1000FECD0002BEAD1002D4A
:101B1800E8D1002AE6D10028E4D0012209E01C46D9
:101B28001E46DFE70024EDE72C46DBE701262C46BE
:101B380002E0002E3DD0002604940124B8F1000FE5
:101B48000BD153B14DB152464946584606F015FBE4
:101B580028BB584606F021F8786046B1CDF800A0B9
:101B68004B46029A0399584609F0CAF907E0049BC4
:101B780033B1029B039A5146484609F0BDFA70B941
:101B880084B107F15C03019307F150030093029AB3
:101B980007F144035146484609F052FC10B1A0F53C
:101BA80081400CE02146384607B0BDE8F04FFFF70A
:101BB800C7BE0CB912B126460494BFE7014807B066
:101BC800BDE8F08F80BFFFFF70B504460E4615468E
:101BD8000021AC220BF0C1FCC4F8A460C4F8A850E2
:101BE80070BD40687047000070B500210446FFF7DB
:101BF800A7FE0546B8B904F10806304605F0ADFF62
:101C08007F2810D914342946204605F07CFF50B1AE
:101C1800204605F0A2FF012805D93146204606F0E6
:101C280048F9002800DB014D284670BD00BEFFFFC3
:101C3800F0B585B00446FFF7D7FF28BB0121204641
:101C4800FFF77EFE00BB04F1140304F12C0504F138
:101C5800380604F1200702900190009332463B4673
:101C6800294604F1080009F025FB68B904F15C0372
:101C7800019304F1500300933A4604F144033146BA
:101C8800284609F097FA00B1014805B0F0BD00BF39
:101C980000BEFFFF38B505460C46FFF7A5FF50B953
:101CA8002046FFF7C5FF30B904F1080105F1080027
:101CB80006F0FFF808B1054838BD04F1140105F134
:101CC800140006F0F6F80028F5D138BD00BEFFFF75
:101CD8002DE9F0410C4686B0002105461746FFF76E
:101CE8002FFE064678BB03A805F07EFE21466A68EB
:101CF80003A805F058FF0446F0B905F10804214689
:101D080003A806F0D6F8002814DA05F1680303A939
:101D1800009305F1140223460846D5F8048006F01E
:101D28009AFC044640B94246394603A805F070FFBC
:101D3800044601E06FF0030403A805F05CFE1CB143
:101D4800A4F5854600E0024E304606B0BDE8F081B5
:101D580080BFFFFF2DE9F04F0E46A5B001210446D4
:101D680092461D46FFF7ECFD0390002840F09B814A
:101D780006A805F039FE09A805F036FE0CA805F0FE
:101D880033FE0FA805F030FE2EB118A805F02CFE82
:101D98001BA805F029FE12A805F026FE15A805F0D7
:101DA80023FE1EA805F020FE21A805F01DFE62688E
:101DB800294606A805F0F7FE0746002840F050819E
:101DC80004F10805294606A806F073F8002880F2F1
:101DD800438106A91EA805F050FE0746002840F0DA
:101DE8003F8104F1500304F144090493002E00F0EC
:101DF800C580D4F8A03023B304F18C08424641468C
:101E0800404606F0BAF90746002840F029812A46DC
:101E18004146404606F0EDFB0746002840F0208189
:101E280004F1980842464146404606F0A6F907469E
:101E3800002840F015812A464146404606F0D9FB65
:101E480037E00C23059304F1980B04F18C08059BEB
:101E5800013B059300F02A816168534632460139F7
:101E6800584606F09CFE0746002840F0F9802A46AE
:101E78005946404606F00EFE0746002840F0F0801E
:101E88000121404606F05AF80028E0D12A46594672
:101E9800404606F0A7FE0746002840F0E18004F11E
:101EA8006803009304F114022B464146404606F0AD
:101EB800D2FB0746002840F0D38006A904F18C0223
:101EC800084606F05AF90746002840F0C98006A9D6
:101ED8002A46084606F08DFB0746002840F0C080D9
:101EE800012204F12C0109A806F031F9074600285F
:101EF80040F0B680012204F138010CA806F027F959
:101F08000746002840F0AC80534632461C210FA8F3
:101F180006F045FE0746002840F0A2800FAA09A94E
:101F280018A806F02AF90746002840F0998018A951
:101F38004A46084606F0B2F80746002840F0908066
:101F4800534632461C210FA806F029FE07460028F2
:101F580040F086800FAA0CA91BA806F00EF90746C8
:101F680000287DD11BA9049A084606F097F8074671
:101F7800002875D11BAB04930DF1600904F17403BB
:101F880004F12C0800934A46434606A912A806F015
:101F980062FB0746002863D104F1800304F1380985
:101FA8000093049A4B4606A915A806F054FB074669
:101FB800002855D115AA12A906A806F090F80746D8
:101FC80000284DD104F15C0206A912A806F0D5F844
:101FD8000746002844D1424612A906A806F009FB84
:101FE800074600283CD14A4606A912A806F0C5F8BB
:101FF8000746002834D112AA15A906A806F04EF8FB
:10200800074668BB66B904F16803009304F114023B
:102018002B4606A921A806F01EFB074600BB0FE0C9
:1020280006A904F19802084606F0A7F80746B8B9C9
:1020380006A92A46084606F0DCFA074680B9E2E710
:102048001EA921A805F035FF48B962682E9906A88F
:1020580005F0DEFD074603E06FF0030700E0164FCA
:1020680009A805F0C8FC0CA805F0C5FC0FA805F0E8
:10207800C2FC2EB118A805F0BEFC1BA805F0BBFCDD
:1020880006A805F0B8FC12A805F0B5FC15A805F0DF
:10209800B2FC21A805F0AFFC1EA805F0ACFC3FB1CE
:1020A800A7F5864300E0054B039301E0044FD7E70B
:1020B800039825B0BDE8F08F80BCFFFF80BFFFFF0D
:1020C80080BBFFFF2DE9F04F012B8BB080468B467C
:1020D80003920493169F189E05D1D0F8A430012BC3
:1020E80001D040487AE0BBF1000FFAD098F8A80078
:1020F80002F0CAFD02900028F3D0D8F8044002F09C
:1021080007FF430005934200BB1C13449F4205464A
:10211800E7D89C42E5D32246002130460BF01DFA51
:1021280006F10109002333702A4649460398D84727
:1021380010B1A0F5894051E009EB050A5346159AFC
:102148001499029802F012FE002847D10590A01EAB
:10215800C01B6B002844C01A01220AF80020104452
:1021680017993A46504407AF0BF0D1F9384602F0B8
:1021780097FD059B02991A46384602F0B7FD0246BC
:10218800A8B905F1010A013CB244641B4A4600970C
:102198002B4621465046FFF7EFFA024638B9524619
:1021A8000097234629464846FFF7E6FA024607A85D
:1021B800029202F07AFD029A7AB9049B2BB9324650
:1021C80031464046FFF784FD08E000963346039AFF
:1021D80059464046FFF7BEFD00E010460BB0BDE88B
:1021E800F08F00BF80BFFFFF2DE9F74F9A46BAF185
:1021F800010F074689469346DDF830800D9B0E9EF9
:1022080003D1D0F8A420002A55D1B9F1000F52D03B
:10221800002B50D0002E4ED018F10B027C684AD209
:10222800944248D33546033C0022C8EB040405F821
:10223800022BBAF1000F18D1022272702C44A54269
:102248001CD0642200920122294658460193C847AF
:102258002A78019B8ABB009A013A009202D1A0F524
:1022680089402EE00028EED0F9E7012272702C4454
:10227800FF22AC4202D005F8012BFAE720460022E3
:1022880000F8012B194642460BF041F9BAF1000F4C
:1022980007D132463146384603B0BDE8F04FFFF764
:1022A80017BD33465A46494638460C9603B0BDE832
:1022B800F04FFFF74FBD044803E00028CFD10135A8
:1022C800BDE703B0BDE8F08F80BFFFFFF0B587B072
:1022D800D0F8A4700CAC70CC57B1012F10D1029477
:1022E80000240496039501940094FFF7EBFE08E0A0
:1022F8000E960D950C9407B0BDE8F040FFF774BF3B
:10230800014807B0F0BD00BF00BFFFFF2DE9F04F47
:10231800012BADF2644D06468A4603929B4605D1D1
:10232800D0F8A430012B01D05C48B2E07768A7F15F
:102338001003B3F57C7FF7D896F8A80002F0A4FC48
:1023480002900028F0D002F0E3FD00F101084FEA06
:102358004805AF420446E7D30DF16009BBF1000F11
:1023680006D14A46DDF894143046FFF7B1FC08E080
:10237800CDF80090DDF89434039A51463046FFF7C3
:10238800E9FC824600283CD105AE304602F088FCC4
:1023980052460299304602F0A9FC824608B13046FE
:1023A8003BE007F1FF3BC844C4EB0B0B00965B46D0
:1023B800424621460DF16100FFF7DEF9824658BB1F
:1023C800009623460DF1610259464046FFF7D4F9BD
:1023D800824608BB24E0885C80F0010050EA0E03C6
:1023E80051D10132114418AA8A1ADDF89C04BA1A8C
:1023F80082424BD8DDF890040260DDF898040BF0B7
:1024080086F84FF4806118A8FFF7AEF908A84021B4
:10241800FFF7AAF950463CE005A802F046FCF0E7B1
:10242800304608AE02F041FC3346DDF88C24DDF876
:102438008814029802F09AFC82460028E1D150469E
:102448000DF1610399F800E01919A04208D2325C35
:1024580011F800C0013082EA0C0C4CEA0E0EF4E7C9
:10246800214400240E4622467D1B0D44B542B2D0BD
:1024780016F8010B044360422043C0F3C01080F0FB
:1024880001000244F2E7DFF818A0BAE7DFF814A069
:10249800B7E70DF2644DBDE8F08F00BF80BFFFFFC6
:1024A80000BFFFFF00BCFFFFF0B5012BADF20C4DE4
:1024B8001D4603D1D0F8A430002B7FD14768A7F17F
:1024C8001003B3F57C7F79D802AE45B93246DDF802
:1024D8002414FFF7FDFB0446002868D12FE000967E
:1024E800DDF82434FFF736FC044600285FD1012DBF
:1024F800327825D1014686467378FD1E83F00203A3
:102508001343A94212D27218907801314242104303
:10251800C0F3C01080F001000443E4B262422243D9
:10252800C2F3C01282F001029644EAE70DF10A02F2
:102538000EF10101114412F80E2013431EE0327807
:102548007378FC1E83F0010313430022114696465C
:10255800A1420BD2701880780131FF2818BF42F0D1
:10256800010282F00100C0B28644F1E70DF10A02CF
:1025780012F80E500EF1010111442B43BEF1070F62
:102588008CBF1C4643F0010464B26CB98A1BDDF8A9
:102598002C34BA1A9A4209D8DDF82034DDF8280418
:1025A8001A600AF0B4FF02E0064C00E0064C304620
:1025B8004FF48061FFF7D8F8204600E003480DF299
:1025C8000C4DF0BD00BFFFFF00BCFFFF80BFFFFF49
:1025D800F0B587B0D0F8A4E00CACF0CCBEF1000F99
:1025E8000CD0BEF1010F12D1029400240597049675
:1025F800039501940094FFF789FE09E00F970E9662
:102608000D950C9407B0BDE8F040FFF74DBF0148A9
:1026180007B0F0BD00BFFFFF2DE9F04F012B9DB0C3
:1026280080468A46049205939DF89800299C05D116
:10263800D8F8A430012B01D05848ABE0BAF1000F0C
:10264800FAD0D8F8046030B102F01EFB0028F3D0AD
:1026580002F05EFC279098F8A80002F015FB83466C
:102668000028E9D002F054FC4500AB1C9E42074606
:10267800E2D33246002120460AF06FFF3A460CA901
:102688000498D04710B1A0F5894083E008F1080309
:1026980007901846039305F060FA751B05F1FF399A
:1026A80001222544A14405F8022C0CA93A460690BB
:1026B80009AD48460AF02BFF284602F0F1FA079BBD
:1026C80059461A46284602F011FB024600284AD10C
:1026D800284602F02DFB0246002844D109EB070BDF
:1026E80008225946284602F02DFB024600283AD116
:1026F800279A2899284602F025FB024698BB3A46B5
:102708000CA9284602F01EFB024660BB5946284623
:1027180002F022FB024630BB069B711E013B13F000
:10272800070F0CBF01200020C91B5A46091A009543
:102738003B462044FFF720F80246A0B906900398CC
:1027480005F00BFAC0EBC60023780130FF2646FAE5
:1027580000F01840BC232070402109F817300CA85D
:10276800FFF702F8069A2846039202F09EFA039AA7
:102778007AB9059B2BB9224621464046FFF7A8FAAD
:1027880008E000942346049A51464046FFF7E2FACF
:1027980000E010461DB0BDE8F08F00BF80BFFFFF0E
:1027A8002DE9F347012B89460BA90546924686C9B0
:1027B8001C469DF8280003D1D5F8A430002B4BD136
:1027C80000976B68FFF72AF8002849D13CB93A46C8
:1027D8003946284602B0BDE8F047FFF779BA6C6879
:1027E800012021460AF06EFE0646B8B321460120B4
:1027F8000AF068FE804618B9304609F0ADFD2DE0B4
:1028080000963B46524649462846FFF7A3FA044637
:10281800D0B9424631462846FFF75AFA044698B9D5
:10282800034602466D68AA4207D018F80200B95C50
:10283800013241400B43DBB2F5E723B93146384654
:102848000AF065FE00E0084C304609F085FD404678
:1028580009F082FD204603E0044801E06FF00F0014
:1028680002B0BDE8F08700BF00BDFFFF80BFFFFFDB
:10287800F0B5D0F8A4E006AD9DF81440E0CDBEF167
:10288800000F0AD0BEF1010F0FD1089707960695E1
:102898000594BDE8F040FFF7BFBE08970796069578
:1028A8000594BDE8F040FFF77BBF0148F0BD00BFCD
:1028B80000BFFFFF2DE9F04F012BADF2644D054637
:1028C8009DF8888405D1D0F8A400012801D061487A
:1028D800BBE06F68A7F11000B0F57C7FF7D818AEA1
:1028E80033B93246DDF89C142846FFF7F1F905E0C4
:1028F8000096DDF89C342846FFF72CFA002840F0B3
:10290800A4807C1E335DBC2B40F09E80B8F1000F84
:1029180008D0404602F0B8F90028D8D002F0F8FAFA
:10292800CDF88C049DF8940402F0AEF98146002895
:10293800CDD002F0EDFA0023824605F1080003939A
:10294800049305F00AF9FB0000F1FF383278C3F16F
:102958000803434452FA03F3B9D118F0070F08BF2C
:1029680027460AF102030CBF0DF1610535469F4267
:10297800ADD305AC204602F093F900224946204623
:1029880002F0B4F98346002859D16FEA0A013944A4
:1029980005EB0109009453464A462846FEF7ECFE2B
:1029A800834600284BD1C8EBC70733784FF0FF08A0
:1029B80048FA07F71F40377009F1FF329542294658
:1029C80003D20B780135002BF8D00B78012B34D1CA
:1029D800DDF898344D1C5A1CC5EB090601D09E42FF
:1029E8002BD1204602F0A4F9834640BB082203A954
:1029F800204602F0A7F9834608BBDDF88C24DDF8F1
:102A08009014204602F09EF98346C0B93246294602
:102A1800204602F097F9834688B908A9204602F0B3
:102A28009BF9834658B9524608A948460AF060FD02
:102A3800094A002818BF934601E0DFF820B0204675
:102A480002F033F9584600E004480DF2644DBDE841
:102A5800F08F00BF80BFFFFF80BCFFFF00BFFFFFFC
:102A680070B5D0F8A84086B09DF828500CB1E4B2F3
:102A780000E02C4603940C9C0D9E02940B9C05963A
:102A88004FF0FF36049601940095FFF713FF06B048
:102A980070BD00002DE9F74F012B80468A4693460A
:102AA8009946456802D1D0F8A430EBB929460120EF
:102AB8000AF008FD0646C8B1294601200AF002FDC1
:102AC8000746C0B96FF00F0430462946FEF74CFEA2
:102AD800304609F041FC67B138462946FEF744FE06
:102AE800384609F039FC04E01B4831E06FF00F006C
:102AF8002EE020462CE000902B460E9A0D999DF86A
:102B08003000FEF78BFE04460028DDD1B9F1000F36
:102B180005D132460F994046FFF7DAF806E00096ED
:102B28000F9B5A4651464046FFF714F904460028C1
:102B3800CAD103469D4206D0F05CFA5C013350408E
:102B48000443E4B2F6E7002C044C08BF0024BBE7BA
:102B580003B0BDE8F08F00BF80BFFFFF80BCFFFF60
:102B6800F0B5D0F8A4E006AD9DF81440E0CDBEF174
:102B7800000F0AD0BEF1010F0FD1089707960695EE
:102B88000594BDE8F040FFF76BBF089707960695D8
:102B98000594BDE8F040FFF77DBF0148F0BD00BFD8
:102BA80000BFFFFF10B504468C3004F024FF04F189
:102BB800980004F020FF04F1680004F01CFF04F101
:102BC800200004F018FF04F1380004F014FF04F1A9
:102BD8002C0004F010FF04F1140004F00CFF04F1C1
:102BE800080004F008FF04F1800004F004FF04F179
:102BF800740004F000FF04F15C0004F0FCFE04F132
:102C0800500004F0F8FE04F14400BDE8104004F060
:102C1800F2BE000038B5054660B1084C206858B1CE
:102C280062686B689A4203D1A9680AF061FC10B126
:102C38001434F3E738BD204638BD00BFF4E00A0875
:102C480070B50E46054660B1094C206848B1626807
:102C58006B689A4203D1A9680AF04AFC20B114347F
:102C6800F3E76FF02D0070BD2369336070BD00BFBE
:102C780094E10A0838B50D461446FFF7CBFF28B192
:102C8800037C2B70437C0020237038BD6FF02D002F
:102C980038BD000070B50E46054660B1094C206885
:102CA80048B162686B689A4203D1A9680AF020FCAF
:102CB80020B11434F3E76FF02D0070BD237C33701E
:102CC80070BD00BF5CD80A0830B5084B1C684CB111
:102CD8001D7C854204D10C605B680020136030BD08
:102CE8001433F3E76FF02D0030BD00BF7CE00A0815
:102CF8005C2200210AF031BC38B100F15C020023EB
:102D0800904202D003700130FAE7704708B55C22A0
:102D18000AF0FDFB08BD000003460A4A00209A603D
:102D280002F18832DA6002F12942A2F59612A2F67F
:102D38008B621A61A2F188325A61034A186058609E
:102D48009A61704701234567F0E1D2C32DE9F04F3E
:102D58004B780A781B0443EA0263CA7897B0134396
:102D68008A7891F808C043EA022306934B790A79D6
:102D78001B0443EA0263CA7991F80C8013438A79E9
:102D880091F814E043EA022307934B7A0A7C1B0468
:102D980043EA0C6391F80BC00F7E43EA0C0391F8E9
:102DA8000AC0019043EA0C2C4B7B1B0443EA0863DE
:102DB80091F80F8043EA080391F80E8043EA082847
:102DC8004B7C1B0443EA0263CA7C13438A7C43EAB4
:102DD80002230E934B7D1B0443EA0E6391F817E020
:102DE80043EA0E0391F816E043EA0E230F934B7E55
:102DF8001B0443EA0763CF7E0E7F3B438F7E91F827
:102E0800204043EA072310934B7F91F824201B04AA
:102E180043EA0663CE7F91F82C0033438E7F43EA62
:102E28000623119391F821301B0443EA046391F8B7
:102E38002340234391F8224043EA0423099391F85D
:102E480025301B0443EA026391F82720134391F8C5
:102E5800262043EA02230A9391F8293091F8282082
:102E68001B0443EA026391F82B20134391F82A20AC
:102E780043EA02230B9391F82D301B0443EA0063C5
:102E880091F82F00034391F82E0043EA00230C9396
:102E980091F8313091F830001B0443EA006391F84F
:102EA8003300034391F8320043EA00230D9391F86D
:102EB800353091F834901B0443EA096391F8379050
:102EC80091F8382043EA090391F8369043EA092338
:102ED800029391F839301B0443EA026391F83B20CE
:102EE800134391F83A2043EA0223039391F83D30C3
:102EF80091F83C201B0443EA026391F83F201343F6
:102F080091F83E2043EA02230493019B9B681293A5
:102F1800019BDB681493019B1B690593019B5B690B
:102F28001393019B139A9B691593059B83EA020EE1
:102F3800149B12990EEA030E8EEA020EDD4B159AC7
:102F4800119C1A4402EBF1629644069A04EB030BB7
:102F58009644149A099C4FEAB200059AC51882EA69
:102F68000007059A0F405740139A4FEAB1011A44D7
:102F78001744079A80EA01091744059A09EA0E09D5
:102F88001A4407EBFE6762444FEABE0E89EA00095D
:102F9800914481EA0E023A4009EBF7694A404FEA48
:102FA800B7074544C81815440E998EEA070202EA85
:102FB800090205EBF96582EA0E024FEAB9090844ED
:102FC8000F99104487EA0902CE182A407A407644BD
:102FD80000EBF56016444FEAB505109A89EA050139
:102FE80001401A4406EBF06681EA09014FEAB00095
:102FF8003A440A4485EA0001314002EBF66269402E
:103008004FEAB606CB448B4480EA060111401C44C3
:1030180041402C440BEBF26B0C444FEAB2020A9984
:1030280086EA020505EA0B0519447540014404EBDC
:10303800FB6429444FEABB0B0B9D82EA0B0005EBAE
:10304800030A204001EBF4610C9D4FEAB4045040A0
:10305800B24482448BEA040005EB0309084080EA85
:103068000B0091440AEBF16A81444FEAB1010D98D3
:1030780084EA010200EB030E02EA0A0209EBFA698C
:1030880002984FEABA0A6240DE44964481EA0A028C
:10309800C51802EA09020EEBF96E4A404FEAB9096F
:1030A8000398254415448AEA090202EA0E021844E4
:1030B80005EBFE6582EA0A024FEABE0E084404994F
:1030C800104489EA0E02CF182A4082EA09025744BE
:1030D8001744069A099982EA0C024A40029900EBC1
:1030E800F5604A404FEAB5058EEA05014FEAF272EB
:1030F800069201401A4481EA0E014A440A4407999B
:103108000A9C81EA08016140039C07EBF067614073
:103118004FEAF17107914FEAB000079C85EA000178
:10312800E6183940694076440E440E9902EBF7627E
:103138008CEA010C0B994FEAB7078CEA010C049949
:1031480006EBF2668CEA010C4FEAFC710891089CC8
:1031580080EA070111401C4441402C440C440F995B
:103168004FEAB20288EA01080C9987EA020588EA60
:1031780001080699354088EA01084FEAF87843447F
:103188007D400344E91810980E9B4B4D83EA000CD0
:103198000D9B04EBF6648CEA030C079B4FEAB6061A
:1031A8008CEA030C4FEAFC7C82EA06030CEB050B65
:1031B8006340BB4411989B440F9B01EBF46183EA85
:1031C800000E029B4FEAB4048EEA030E089B86EABF
:1031D80004008EEA030E4FEAFE7E0EEB050348401C
:1031E80013440344109A09980BEBF16B82EA000729
:1031F800039A4FEAB101574087EA08074FEAF77781
:1032080084EA010207EB050A82EA0B02B2440A9833
:103218009244119A03EBFB6382EA0006049A4FEA90
:10322800BB0B564086EA0C064FEAF67681EA0B029B
:1032380006EB05095A40A1440B989144099A0AEBF8
:10324800F36A82EA0004069A4FEAB303544084EA18
:103258000E044FEAF472099209988BEA0302284493
:1032680082EA0A02084410440C990A9A09EBFA699E
:103278004A4007994FEABA0A4A407A404FEAF2723E
:103288000A920A9983EA0A02294482EA09025944FD
:1032980011440B9A00EBF96014460D9A4FEAB909EC
:1032A8006240089C8AEA090B624072404FEAF27257
:1032B80004E000BF9979825AA1EBD96E0B922A4497
:1032C800029C01EBF0618BEA000B1A444FEAB00351
:1032D8000C985A446040099C80EA080060404FEA14
:1032E800F0700C900C9C89EA030004EB050B484035
:1032F800DA44039C82440D9802EBF16260400A9C18
:1033080080EA0C0060404FEAF070029C0D9028445F
:103318004844A146049C4FEAB10189EA04090B9C80
:1033280089EA0E0989EA04094FEAF97404EB0509E8
:10333800029483EA010B069C9944039B0AEBF26A08
:1033480063400C9C7B4063404FEAF37303938BEA22
:10335800020B4FEAB202039C584481EA020B00EBCD
:10336800FA608BEA0A0B4FEABA0A82EA0A03D944DE
:1033780004EB050B43405944079C1944049B09EB93
:10338800F06963400D9C734063404FEAF373049304
:103398002B44089C1344069A4FEAB0006240099CEB
:1033A8008AEA000B6240029C01EBF96162404FEA35
:1033B800F2720692069C8BEA090B4FEAB90980EA79
:1033C80009025B4404EB050B4A40079CDA4403EB13
:1033D800F16392440AEBF36284EA080A0A9C4FEA12
:1033E800B1018AEA040A039C88EA0E088AEA040AF8
:1033F8004FEAFA7404EB050B89EA010A58448AEA91
:10340800030A8244089807940B9C80EA0C006040E9
:10341800049C4FEAB30360404FEAF0700890089CA0
:1034280081EA030004EB050B0C9C504088EA040871
:10343800069CD94488EA04084FEAF87B0AEBF26A4A
:1034480081444FEAB20209EBFA6083EA02080BEB07
:10345800050988EA0A084944414401EBF0680D99D6
:103468008CEA070C8CEA010C07994FEABA0A8CEA35
:10347800010C4FEAFC710E910E9C82EA0A0104EBE2
:10348800050C414063440B4403EBF861029B8EEA50
:10349800060E8EEA030E089B4FEAB0008EEA030E72
:1034A8004FEAFE730F930F9C8AEA000304EB050EA4
:1034B80083EA080372441A4402EBF163099A4FEA5B
:1034C800B8085740039A574087EA0B074FEAF77244
:1034D8001092109C80EA080267190A9C4A406640CC
:1034E800049C4FEAB10166400E9CBA4466404FEA1C
:1034F800F6742544119428440B9C099D88EA01061A
:1035080065402C46069D5E406C400F9D92443044B9
:103518006C40D64E0AEBF3624FEAF4744FEAB303F9
:10352800099442EA0305344400EBF2600D40A044DC
:1035380002EA03042C4308EBF0684FEAB20AA044FD
:103548000A9A0C9C4FEAB00C6240079C6240109C9F
:1035580062404FEAF2720A9240EA0A0202EA03045F
:1035680000EA0A0222430A9C0D983444214411447B
:103578000B9A01EBF861424008984240119842408A
:103588004FEAF2720B9248EA0C00324400EA0A0051
:10359800134408EA0C02024303EBF1631344029854
:1035A8000C9A4FEAB8085040099A80EA0B0050403C
:1035B8004FEAF07241EA08000C9200EA0C0001EAB6
:1035C800080210430C9A4FEAB101324452440244B3
:1035D80002EBF36A03980D9A43EA010450400E9AED
:1035E80004EA080450400A9A4FEAB30750404FEAE9
:1035F800F07290190D92604403EA0102224300EB35
:10360800FA601044029B049A4FEABA0953400F9A91
:1036180053400B9A53404FEAF3730293029A4AEAD3
:10362800070303EA010E0AEA07034EEA030302EB63
:10363800060EF0449844069A039B08EBF06E83EA62
:103648000208109B88EA03080C9B88EA03084FEAE3
:10365800F8739C19214440EA090403933C4000EAAA
:1036680009031C43049B079A4FEAB00083EA020C43
:10367800119B01EBFE618CEA030C0D9B0C448CEA58
:10368800030C4FEAFC734EEA0001049301EA0901B6
:103698000EEA00031943049B089A33443B44CF18AD
:1036A800069B4FEABE0183EA0208099B07EBF46711
:1036B80088EA0308029B4FEAB70A88EA03084FEA38
:1036C800F8739A19914444EA01020693024004EA05
:1036D80001031A43079B4FEAB40483EA0B0C0A9BC5
:1036E80009EBF7698CEA030C039B4A448CEA030C48
:1036F8004FEAFC730793079D47EA040303EA010CAA
:1037080007EA04034CEA030305EB060C604418447B
:1037180000EBF26C089B0E9883EA00050B9B42EACB
:103728000A005D40049B20405D404FEAF577BB19D5
:10373800194401EBFC6302EA0A01014319440F9B97
:103748004FEAB2028BEA03090C9B4FEABC0089EAF4
:103758000309069B89EA03094CEA02034FEAF97E4A
:1037680003EA0A050CEA02032B430EEB060525447F
:103778001D44109C0E9B05EBF16563400D9C634056
:10378800079C63404FEAF373089333449A440AEB67
:10379800F56341EA000A01EA00040AEA020A4AEA71
:1037A800040A9A44119C0F9B4FEAB1016340029CA2
:1037B80063407B4045EA01044FEAF3730E930440EB
:1037C80005EA01031C430E9B4FEAB5053344134435
:1037D8002344109A099C03EBFA6382EA0408039ACB
:1037E80088EA020888EA0E084FEAF87202EB06082F
:1037F800804408EBF3604AEA05080F9208EA0108DA
:103808000AEA050248EA02088044119A0A984FEA2F
:10381800BA0A82EA000C049A8CEA020C089A8CEA2A
:10382800020C4FEAFC721092109843EA0A0202EA6C
:10383800050C03EA0A024CEA020200EB060C8C446F
:103848000B999444069A4C4054400E9A0CEBF86C31
:1038580054404FEAF472099232444FEAB3031544D4
:1038680005EBFC6248EA030502E000BFDCBC1B8FE5
:1038780008EA030105EA0A050D4315440C990A9A5A
:103888004FEAB80882EA010B079A0D998BEA020BF6
:103898000F9A8BEA020B4CEA08024FEAFB7B02EA1A
:1038A80003090CEA080249EA02020BEB0609D144B3
:1038B80091440B9A4FEABC0C82EA010A8AEA070A89
:1038C8008AEA000A4FEAFA720A92324409EBF56969
:1038D80045EA0C011A4402EBF96301EA080105EA1A
:1038E8000C020A431A4402990C9B4FEAB50583EA75
:1038F8000100099B80EA0E0058404FEAF0730B93D1
:103908000B9949EA050000EA0C0009EA05030E4490
:1039180046440343981903990D9BD84E5940089B78
:103928004FEAB909594081EA0B014FEAF1730C9348
:103938000C9985EA09033144534061441944029BB8
:10394800049C00EBF26063400E9C4FEAB2026340B5
:103958000A9C01EBF06163404FEAF373029389EA32
:103968000204334444402B442344069D039C4FEAFD
:10397800B00084EA05080F9C82EA000588EA04087A
:103988000B9C4D4088EA04084FEAF87403943444C9
:103998004C442C44049D03EBF163AC46079D4FEA6D
:1039A800B1018CEA050C109D04EBF3648CEA050C5C
:1039B8000C9D8CEA050C4FEAFC75049580EA01051C
:1039C80085EA030C049D4FEAB30305EB060A92440B
:1039D800069AE24482EA0708099A0AEBF46A88EA36
:1039E8000208029A88EA02084FEAF8720692069DCF
:1039F80081EA030205EB0608624080449044079A76
:103A08004FEAB40482EA0E0C039A8CEA0B0C8CEA97
:103A1800020C4FEAFC720792079883EA040200EB53
:103A2800060C82EA0A028C449444089A08EBFA6865
:103A380087EA02050A9A4FEABA0A5540049A0CEB3B
:103A4800F86C55404FEAF575AF191F440E9B84EA90
:103A58000A028EEA03090B9B82EA080289EA030933
:103A6800069B4FEAB80889EA03094FEAF9798AEA16
:103A7800080309EB060E83EA0C03A64417449E4488
:103A88000F9A089B07EBFC6753400C9A4FEABC0C53
:103A9800534043404FEAF3730893089A88EA0C03AB
:103AA80032447B40524410991A440E9B0EEBF76E39
:103AB8004B4002994FEAB7074B406B404FEAF3730C
:103AC8000D930D998CEA0703881983EA0E03404485
:103AD800099918440F9B02EBFE6283EA0108039BD5
:103AE8004FEABE0E88EA030888EA09084FEAF87820
:103AF80087EA0E0308EB0601534061441944109B02
:103B080000EBF26083EA0B0C049B4FEAB2028CEAEA
:103B1800030C089B8EEA02048CEA030C4FEAFC7C37
:103B28000CEB060344403B4423440A9F099C01EBE9
:103B3800F0616740069C4FEAB00067400D9C82EA3E
:103B4800000A67404FEAF7740B9F099434447444A1
:103B58008BEA070E079F03EBF1638EEA070E8EEAE6
:103B6800080E8AEA010A4FEAFE7E4FEAB1010A9F6F
:103B78000EEB060B544480EA010A8AEA030A5A4407
:103B88005244BA460C9F04EBF3648AEA070A8AEAAD
:103B9800050585EA0C054FEAB3034FEAF57505EB11
:103BA800060B81EA030A58448AEA040A029F8244FF
:103BB8000B9802EBF462784080EA090909984FEA09
:103BC800B40489EA00074FEAF77707EB060983EAA6
:103BD80004004944504008440C990A950D4603993D
:103BE8000AEBF26A6940089D4FEAB202694081EA2D
:103BF8000E0E4FEAFE7E0EEB060984EA02014B44E4
:103C080081EA0A01049D1944029B00EBFA606B40AB
:103C18000D9D4FEABA0A6B400A9D82EA0A096B4079
:103C280006EBF373069D1C44039B01EBF0616B40AC
:103C380083EA080889EA000988EA07084FEAB00019
:103C480006EBF8788AEA00054D4042442A44049B72
:103C5800079D4C446B4083EA0C0C129B04EBF16407
:103C68001E444FEAB1018CEA0E0E80EA010506EB0C
:103C7800FE7E6540F24402EBF46201E0D6C162CAFE
:103C88000AEB0503019D03EBF263AB60149B1A4436
:103C9800059BEA6003EBB404139B2C611944159B44
:103CA80069611844A861002017B0BDE8F08F00BF13
:103CB8002DE9F04104460E46154682B3036803F029
:103CC8003F0013449A42236082BF636801336360F4
:103CD80080B1C0F14007BA421BD304F11C083A4630
:103CE800404409F014FC41462046FFF72FF8B8B9C4
:103CF8003E44ED1B2F46E91B3F2F314405D9204692
:103D0800FFF724F860B9403FF5E747B13D460E4656
:103D180000201C342A463146204409F0F8FB0020D4
:103D2800BDE8F08170B504460368802203F03F03C4
:103D3800581C382823440D461A7704F11C0604D869
:103D4800C0F13802002130440EE0C0F140020021E9
:103D5800304409F002FC31462046FEF7F7FF002800
:103D680053D101463046382209F0F7FB23686168D1
:103D78005A0F42EAC102110EDB0084F85410110CEC
:103D880084F8551084F85720110A1A0E84F8582020
:103D98001A0C84F859201A0A84F8561084F85A2004
:103DA80084F85B3031462046FEF7D0FF00282CD13E
:103DB800E37A2B7063896B70A3681B0AAB70A368E6
:103DC800EB70E37B2B71E3896B71E3681B0AAB71C2
:103DD800E368EB71E37C2B72638A6B7223691B0ABD
:103DE800AB722369EB72E37D2B73E38A6B736369B0
:103DF8001B0AAB736369EB73E37E2B74638B6B7481
:103E0800A3691B0AAB74A369EB7470BDF0B599B0D4
:103E1800064601A80F461546FEF76AFF01A8FEF7F9
:103E28007BFF044658B93A46314601A8FFF740FFE0
:103E3800044620B9294601A8FFF774FF044601A8E3
:103E4800FEF75AFF204619B0F0BD10B5044600F041
:103E58000DFF2046BDE8104008F07EBA10B54FF4BB
:103E6800C471012009F02EFB044608B100F06CFC77
:103E7800204610BD13460A46022100F06ABC10B560
:103E8800044605F028FA2046BDE8104008F064BA58
:103E980010B54FF48C71012009F014FB044608B1E9
:103EA80005F014FA204610BD05F01CBB05F01EBA3B
:103EB80010B410BC05F02CBF05F01EBF012802D0BD
:103EC800831F5842584170470123064A0B700B73F1
:103ED800054B4A6000F1080214308A600B614861A2
:103EE800704700BFFCE30A0802E40A0810B504465C
:103EF800FEF758FE2046BDE8104008F02DBA10B570
:103F0800AC21012009F0DEFA044618B1002211465E
:103F1800FDF75AFE204610BDFDF7BCBE08B5FDF7FB
:103F280060FEC00008BD00002DE9F14FDDF828B0A3
:103F3800DDF82CA004468846174699460C9D0D9E30
:103F4800FDF74FFE5045CBF800000DD83246294604
:103F580020460023CDF83090CDF82C800A9701B088
:103F6800BDE8F04FFEF7B2B9014801B0BDE8F08FE7
:103F780000BCFFFF2DE9F14F0A9F9346044688468F
:103F88009946DDF82CA00C9D0D9EFDF72AFE58459C
:103F98000FD13246294620460123CDF834A0CDF86A
:103FA8003090CDF82C800A9701B0BDE8F04FFEF7AD
:103FB8000FBB024801B0BDE8F08F00BF80BFFFFF14
:103FC8002DE9F14FDDF828A00F46914698460446A2
:103FD800DDF82CB00C9D0D9EFDF703FE3246CBF8A4
:103FE8000000294620460123CDF834A0CDF83090B2
:103FF800CDF82C800A9701B0BDE8F04FFEF738BC29
:104008002DE9F04385B00D9C06460F46914698462B
:10401800FDF7E7FDA042054610D80C9B8DE880030C
:10402800039300231A4619463046FEF799FD30B926
:10403800A0F56450A54228BF002000E0014805B063
:10404800BDE8F08380BCFFFF054B1A681AB18242B5
:1040580003D02033F9E7104670471846704700BF71
:10406800FCE40A08002330B513600A2589B1036807
:104078001B78303B092B0ED8136801396B4313604A
:1040880003685C1C04601B781468303B234413608D
:10409800ECE7084630BD014830BD00BF00DCFFFF3B
:1040A80038B503681546CA1A002A044617DD1A7877
:1040B80002F07F02022A14D15A1C02602A461B7899
:1040C80042F8043BFDF782F910B1A0F50A5038BD5B
:1040D8002368AB6022686B681344236038BD0248CC
:1040E80038BD024838BD00BF20DDFFFF1EDDFFFFE1
:1040F80008B5FDF783FA08B1A0F50C5008BD00001B
:104108002DE9F74304460F469146DFF8E080312356
:104118006A4639462046FDF7ABF910B1A0F50E50B6
:104128005AE04D462668009B1E44302301AA3146BA
:104138002046FDF79DF950BB2368F21A002A01DCDE
:10414800274849E02A461B78314642F8043B204676
:104158000623FDF78DF9D0B923686968AB6020683C
:104168004318F21A002A2360EADD425C1E2A1AD894
:1041780028FA02F2D20716D501332360435C05F111
:104188001002EB6031462046FDF720F918B1A0F582
:104198000E5050B120E023686B6122682B691344EC
:1041A8002360A86101E00F4816E023689E4208D00A
:1041B80001202877202109F085F9A86158B1054622
:1041C800B3E7B74208D02021012009F07BF98146E6
:1041D800A86100289BD1044803B0BDE8F08300BF64
:1041E80020DCFFFF1EDCFFFF80D7FFFF08105850C0
:1041F800F7B503681446CA1A002A054640F3A18099
:104208001A78172A04D0182A40F09D80042700E065
:10421800022701332B6001AA2846FDF7D7F810B111
:10422800A0F5105092E0019E07F108039E42C0F0ED
:104238008C80224639462846FFF714FF002840F0B4
:104248008580022F08D12368312BDCBF64332360BB
:10425800236803F26C732360221D02212846FFF7AE
:1042680001FF002872D104F1080202212846FFF755
:10427800F9FE00286AD104F10C0202212846FFF752
:10428800F1FE002862D104F1100202212846FFF74E
:10429800E9FE00285AD1F61BA6F10803012B54D9D0
:1042A80004F1140202212846FFF7DCFE00284DD154
:1042B800A6F10A03012B07D12B681A785A2A44D190
:1042C80001332B60A6F10B03002B3ED142F20F7293
:1042D8002368934239D8E268172A36D822693B2ADC
:1042E80033D862693B2A30D861680C292DD801225D
:1042F8008A4041F2AA511140B9B912F4256F16D17A
:10430800510722D59A0705D1642193FBF1F201FBED
:10431800123272B94FF4C87193FBF1F201FB1233F8
:10432800002B0CBF1D231C2304E01F2302E01E23C7
:1043380000E01D23A268002A07DD9A4205DC002060
:1043480004E0034802E0034800E0034803B0F0BD7E
:10435800A0DBFFFF9EDBFFFF00DCFFFF73B50368F8
:104368001546CA1A002A044610DD01AA1E78FDF770
:10437800F5F810B1A0F5125009E0019B2E606B60B2
:104388002268AA6022681344236000E0014802B052
:1043980070BD00BF20DBFFFF10B50C461146029A26
:1043A800126882B91A46FEF765FC10B1A0F51850DC
:1043B80010BD2368052B00D03BB963680448002B67
:1043C80008BF002010BD034810BD014810BD00BF44
:1043D80000DDFFFF00D8FFFF73B5164602680446EC
:1043E8008A421CD01578324643F0A00342F8045B99
:1043F800FDF73EF8B0B9236801AAB3602568736871
:1044080020461D4429463023FDF732F810B1A0F5A7
:10441800145007E02268019B13449D4201D10020FB
:1044280000E0014802B070BD9ADAFFFF0020704733
:104438000020704730B5154685B000221A605A60D2
:104448009A6001AA1C46FDF7D9F810B1A0F56A5088
:1044580014E0294601A8FEF71DFC60B92B78012B52
:104468000CD12368052B00D03BB963680448002BA6
:1044780008BF002002E0034800E0014805B030BD55
:1044880080C5FFFF80C3FFFFF0B500238FB017463C
:104498008DF8233009AA30230546FCF7E9FF10B14F
:1044A800A0F5745090E0099B2E680DF123021E447C
:1044B80031460BAB2846FFF7BDFF002840F084804B
:1044C80009AA31462846FDF749F810B1A0F56C5005
:1044D8007AE02A68099B13449E4269D19DF823001B
:1044E80004F0F0FC0146002864D0384604F0F2FCE1
:1044F8000446002860D19DF82330012B62D1302377
:104508000AAA314628467C68FCF7B2FF28BB2A680D
:104518000A9B13449E4246D102230AAA31462846E2
:10452800FCF7A6FFC8B900230693059304930393E9
:104538000293019300930A9A29682046FDF75AFAD4
:1045480000283DD12A680A9B314613442B600AAAE9
:1045580002232846FCF78CFF18B1A0F56C54FCB177
:1045680022E00A9B049006932B680390059302901F
:10457800019000900346024601462046FDF73AFAAC
:10458800F0B92A680A9B204613442B60FDF770FA9D
:10459800B0B92046FDF728FB90B92B689E4202D19E
:1045A8002B689E420AD0094C384604F079FC03E097
:1045B800064809E0064807E0204605E0002003E039
:1045C800044CF1E7024CEFE70FB0F0BD9AC4FFFFCF
:1045D80080C3FFFF00C5FFFF2DE9F04FCB7B93B0F1
:1045E80003F00F0300EBC303D3E93067D3E91045A9
:1045F800DFF850C101F110031093109B13F801ED7F
:1046080010930EF00F031193109B4FEA2E1EC1EB6F
:104618000308B8F10F0F3AD0230943EA0573009352
:104628002B0901933307099300230893119BDDE9B4
:1046380000AB00EBC305330943EA077304933B0956
:10464800DDE90889059348EA0A0849EA0B09D5E92A
:104658003067C246CB46DDE9048988EA0608464643
:1046680004F00F045CF8344089EA070923040D9329
:1046780000234F460C93DDE90C3473401E467C4002
:104688002746D5E9104584EA0A0485EA0B0523097B
:1046980043EA057302932B09039333070B93002313
:1046A8000A93330943EA077306933B0900EBCE0EDE
:1046B8000793DEE93067DDE902ABDDE90A8948EAFC
:1046C8000A0849EA0B09DDE906AB8AEA060A5646F2
:1046D8008BEA070B5F4604F00F045CF834402304B0
:1046E8000F9300230E93DDE90E3473401E46109B92
:1046F8007C4099422746DEE9104584EA080485EAA9
:1047080009057FF47AAF3B0E13703B0C53703B0ADC
:104718009370330E1371330C5371330A93712B0E4C
:1047280013722B0C53722B0A9372230E1373230CE0
:104738005373230AD770D671D5729373D47313B099
:10474800BDE8F08FE0E50A084FF4C472002108F0D4
:1047580004BF2DE9F04F04468DB00846914619462E
:1047680001229846FCF7BCFB002800F09B804569B5
:104778000290102D40F096802046FCF7C5FB029968
:104788002046FCF791FD002840F08E800123424628
:1047980049462046FCF7CAFB002840F085800146C0
:1047A80007902A4608A808F0D8FE07AB009308AB84
:1047B8002A4619462046FCF707FC002874D1024611
:1047C800099B08991DBA2A430A9D0BBA0B9995FAB9
:1047D80085F991FA81FE494640EA0E0004F5807594
:1047E8004FF000084FF00009C4E92001C5E9002393
:1047F800C4E93089C4E910894FF0030E04254FF04D
:10480800614C00F00108D70749084FEA30005B08FF
:104818004FEA32020CFB08FB002604EBC5083043C4
:104828003943724083EA0B03BEF1010EC8E9100157
:10483800C8E930234FEA6505E3D10320022104F1DA
:10484800400804F1C00CCB0008EB030E6344D3E925
:104858000045CDE90245DEE90045CDE90445654658
:1048680044460122F5E90267DDE9029A89EA060968
:104878008AEA070A4E465746DDE9049AE3E90267E1
:10488800F4E9026789EA06098AEA070A4E465746A2
:1048980001328A42EEE90267E4D101384FEA420167
:1048A800D1D101E06FF013000DB0BDE8F08F2DE914
:1048B800F04F4FF000098BB004468B469046159E8A
:1048C800CDF814901D46002B00F08D8000F5B077D0
:1048D80010224946384604F5B87A08F03EFE4946A3
:1048E8001022504608F039FEC4F880B1A3460020D3
:1048F800002104F5A0730C2DC3E90001EBE9520176
:104908000DD1D8F80030C4F86031D8F804307B6095
:10491800D8F80830BB60012384F86F313AE01022E0
:10492800494606A808F019FEEB001A0E8DF8242057
:104938001A0C8DF825201A0A8DF826208DF82730B4
:104948002B4604F25F194946102D28BF1023424612
:10495800984412F801EB11F8010F42458EEA000065
:104968000870F6D13A46394620460393FFF734FEDD
:10497800039BED1AE4D106AB19F8012F5B5D0135F5
:104988005340102D89F80030F5D13A463946204673
:10499800FFF722FE05AB0093102204F5A8733946F1
:1049A8002046FCF711FB10BBC4F84861CBF80400A3
:1049B800E6B1149B35461946102E28BF1025294408
:1049C80004F26F12149113F8010B12F8011F414001
:1049D800117014999942F6D1524651462046FFF774
:1049E800FBFD761BE4E76FF0130000E030460BB0E8
:1049F800BDE8F08F2DE9F04F1F468BB0002397429A
:104A080004460E469046059302D9BB1A8B425CD3E6
:104A18002546F5E95001821941F100038B4208BF90
:104A2800824252D30F216FF01F00994208BF904273
:104A38004BD3C5E9002304F5B673029304F5B073AC
:104A48000DF1180A0393002E42D004F5B8752A46D2
:104A5800AB46102EB14628BF4FF0100912F8013DA1
:104A68000133DBB2137013B9029B9A42F6D105AB3E
:104A780000931022534603992046FCF7A5FA40BB41
:104A88004246D4F880311BB9297813784B402B70F3
:104A980012F8011B1AF8003001354B403B54D4F88A
:104AA80080110130012902BF15F8011C4B4005F89F
:104AB800013C8145E5D15A4659462046FFF78CFD11
:104AC800C9EB0606C8444F44BDE76FF0130000E089
:104AD80030460BB0BDE8F08F2DE9FF478846D0F887
:104AE8004411D0F84031CD00D0F84C1145EA537547
:104AF800DC00D0F84831CF0047EA5377DE00131FB7
:104B08000C2B814692465BD800F5A871404608F008
:104B1800FEFC54EA050304D156EA070301D100203C
:104B280050E010220021684608F017FD3B0E8DF872
:104B380000303B0C8DF801303B0A8DF80230330E03
:104B48008DF80430330C8DF80530330A8DF80630B3
:104B58002B0E8DF808302B0C8DF809302B0A8DF8A8
:104B68000A30230E8DF80C30230C8DF80D308DF89B
:104B78000F40230A09F26F1422468DF80E308DF883
:104B880003708DF807608DF80B50002312F8010FA1
:104B98001DF8031001334140102B1170F6D109F5AF
:104BA800B87211464846FFF717FD4146C2440A78D5
:104BB80014F8013F534001F8013B5145F7D1AEE7E6
:104BC8006FF0130004B0BDE8F0872DE9F7431746EE
:104BD8001A460C9B044601930B9BDDF83480009326
:104BE8000A9BDDF838900F9E109DFFF760FE70B9A4
:104BF8004B46424639462046FFF7FCFE38B9324656
:104C08002946204603B0BDE8F043FFF765BF03B06F
:104C1800BDE8F083F0B50E468DB01699159D039149
:104C28001399179C0291129908AF01910093069766
:104C380013460595049432460021FFF7C6FF98B93C
:104C48000346AB4206D0149AD15CFA5C01334A4061
:104C58001043F6E740B126440023A64202D0237051
:104C68000134FAE76FF011000DB0F0BD10B504463D
:104C7800FCF74AF904F5C4720023944202D0237069
:104C88000134FAE710BD00000438C0B204289ABF06
:104C9800024B53F820000020704700BF60E60A0866
:104CA8000023036043608360704710B50446E0B199
:104CB8000368D3B1406808B15B6A9847A36863B1D9
:104CC80022680021D26803EB42029A4202D019708E
:104CD8000133FAE7A06807F03FFB04F10C02002358
:104CE800944202D023700134FAE710BDF8B50546A6
:104CF80017460C4699B190B10B6A9847064668600A
:104D080078B14FB1E168022008F0DCFBA86018B95F
:104D1800636A3046984704E02C600020F8BD0248DA
:104D2800F8BD0248F8BD00BF00AFFFFF80AEFFFF2F
:104D380020B1036813B11B694068184700487047E1
:104D480000AFFFFF20B1036813B15B6940681847E3
:104D58000048704700AFFFFF20B1036813B19B699B
:104D6800406818470048704700AFFFFF30B40D4651
:104D7800114628B1C4691A462846234630BC18474C
:104D8800014830BC704700BF00AFFFFF2DE9F0417C
:104D98000D4690B017460446002850D00368002BF3
:104DA8004DD08268002A4AD0DA68BA4215D21B6907
:104DB80040689847002839D123683A465B692946F4
:104DC80060689847002831D1236869469B69606804
:104DD800984758BB6D4623689F682368A668DA68B9
:104DE8003621304606EB020808F0B7FB23685C2141
:104DF800DA68404608F0B1FB00239F420BD0F15C13
:104E0800EA5C4A40F25418F80310EA5C4A4008F891
:104E180003200133F1E7236860681B69984728B9C4
:104E2800236831465D69DA686068A8470023194637
:104E38000DEB03020133412B02D01170F8E7024851
:104E480010B0BDE8F08100BF00AFFFFF10B438B16B
:104E580003682BB184681CB15B69406810BC1847B3
:104E6800014810BC704700BF00AFFFFF2DE9F041BB
:104E78000D4690B0044618B303680BB38668FEB1BC
:104E8800DF6869469B6940689847D0B923686068BD
:104E98001B699847A8B92368F119D3F81480DA6810
:104EA8006068C04768B9236869465E699A6860683F
:104EB800B04730B9236829469B696068984700E085
:104EC800014810B0BDE8F08100AFFFFF70B504469F
:104ED80080B1036873B1856865B11B6940689847FC
:104EE80048B9236829465E69DA6860683346BDE8D0
:104EF80070401847004870BD00AFFFFF20B103683D
:104F080013B1DB6A406818470048704700AFFFFFDD
:104F180000B1007A704701440023884202D0037030
:104F28000130FAE7704730B5002494420CD0035D95
:104F38000D5D5D4006D0202D08D123F02003413BB4
:104F4800192B03D80134F0E7002030BD4FF0FF30B3
:104F580030BDF8B505460C4625B9201C18BF012000
:104F68004042F8BD002C31D02A6823689A422DD1DE
:104F78006A6863689A4229D1A168A86808F0B8FAF3
:104F880020BBEF68E668B74208D12A6923699A42CC
:104F980004D16169686908F0ABFA80B10C2F01D0BF
:104FA800132F13D10C2E01D0132E0FD12A69236988
:104FB8009A420BD161696869FFF7B5FF30B92A7F5A
:104FC800237F9A4202D1AD69A469C5E74FF0FF304B
:104FD800F8BD70B50E46044608F0DFFA7568022D74
:104FE8001ED9B66833782A2B1AD173782E2B17D18D
:104FF80023460022824215D019460C7801332E2C04
:1050080001D00132F6E76AB1821A013DAA4209D1FC
:10501800701CFFF788FF003018BF0120404270BDA8
:10502800002070BD4FF0FF3070BD70B515460268A6
:1050380004468A420BD016782A4643F0A00342F869
:10504800046BFCF715FA20B110F1620F07D10020AC
:1050580070BD2368AB6022686B681344236070BD21
:10506800012910B5044601D0062909D1104603F0DC
:10507800C7FF236898424FF0FF3028BF002010BDBB
:105088004FF0FF3010BD0000D0F8F83013F00403E3
:105098001AD0D0F8042121F4004022F4004323F070
:1050A800010320F001000B4098420CD148F20103A3
:1050B80048F201000A431340044A0840984214BFCA
:1050C8001346002300E0014B1846704700D8FFFF45
:1050D8002DE9F04106460D464C306C31174698468E
:1050E800FFF737FF0446D8B977B1AF69B8F1000FB9
:1050F80008D072686B689A4204D1A968B06808F051
:10510800F7F978B1022F0DDDD5F8FC3043B1042151
:105118002846FFF7B9FF003018BF0120444201E0DC
:105128004FF0FF342046BDE8F08138B5054601F15F
:105138008404A4B12269A2B12B6A9A4201D0E46B1B
:10514800F7E76169686A08F0D3F90028F7D104F134
:105158001800FFF76BF90028F1D0012038BD204670
:1051680038BD104638BD2DE9F04F99B0059014466A
:105178001F460E46002977D000254FF0010A002C63
:105188007AD0A369002B6CD0E26A736C9A4268D11A
:10519800B16C206B08F0ACF9002862D102213046CE
:1051A800FFF772FF002843D194F8E8003A68431EDD
:1051B8000AFA03F3134259D094F8E9300122013B6B
:1051C80002FA03F37A68134253D0FFF75DFD0DF13D
:1051D80020094B46226961698346FFF7C7FD38BB42
:1051E80006F1BC08424694F8E91007F10C00FFF7F5
:1051F80037FF08B145F4803594F8E930D4F8EC105D
:10520800049394F8E830584607910693FFF780FE18
:10521800D4F8E020069B0392D4F8E4200799029280
:105228000190CDF800904246049803F0F1FE10B1C9
:1052380045F0100520E004F16C00FFF7F7F808B11D
:1052480045F0200504F15400FFF7F2F808B145F4E1
:10525800806521460598FFF768FF10B145F0020503
:105268000AE0D4F8F0408AE70D4605E045F4003539
:10527800A2E745F48025A8E7284619B0BDE8F08FD5
:105288002DE9F04F04469DB09946A43000230D4601
:105298000692DDF89880289EDDF8A4A00B93FFF70E
:1052A800C5F818B1336843F00103336004F18C008A
:1052B800FFF7BEF818B1336843F40073336094F80D
:1052C80028315A1E01239340D9F80020134200F0D8
:1052D800C08094F829315A1E01239340D9F804203C
:1052E800134200F0BB8033680DF1300B43F0080324
:1052F800336094F82801FFF7C7FC5B4622696169AF
:105308000590FFF733FD00286DD10746CDF81CB096
:1053180015B9002F4CD166E0B8FA88F301225B0971
:1053280029462046FFF7D4FE00283ED1626C6B6CFC
:1053380008F1010B9A4206D1A96CA06C08F0D8F8C4
:10534800002808BFC346D5F80031002B04DD279A92
:10535800C2EB0B0B5B4528DBD4F82C1194F82831F1
:10536800059894F829B109910893FFF7D1FDD4F86D
:105378002021079B0392D4F82421019002920093E4
:1053880005F1BC02089B0999584603F041FE60B933
:1053980005F1A400FFF74AF820B905F18C00FFF7E2
:1053A80047F830B1002F08BF2F46D5F83051AFE786
:1053B8003D46336805F1BC0223F00803336094F8D6
:1053C800291109F10C00FFF74BFE18B1336843F4BB
:1053D80080333360626C6B6C9A420DD1A96CA06CFF
:1053E80008F086F840B9BAF1000F2AD132680B9B51
:1053F80000201343336036E04B46069A2946204680
:10540800FFF7B1FE33681843306005F1A400FFF7D9
:105418000DF818B10B9B43F001030B9305F18C00B9
:10542800FFF706F818B10B9B43F400730B93BAF11E
:10543800000FDBD00BAB08F1010229462A98D047B0
:1054480088B93346424621462A98D0470028CDD00D
:1054580009E0336843F4804333603AE7336843F440
:10546800004333603FE71DB0BDE8F08F2DE9F04FF2
:105478009DB0279E9A46002305460F460692DDF802
:105488009880299C0B9346B100F16C014C30FFF7D2
:1054980060FD00287AD0072E76DC05F1A400FEF71F
:1054A800C5FF18B1236843F00103236005F18C00A0
:1054B800FEF7BEFF18B1236843F40073236095F824
:1054C80028315A1E01239340D8F80020134261D096
:1054D80095F829315A1E01239340D8F80420134225
:1054E8005DD095F82801FFF7CFFB0CAB2A696969F5
:1054F8008346FFF73BFC48BB07F1BC094A4695F8D1
:10550800291108F10C00FFF7ABFD18B1236843F42B
:105518008033236095F82931D5F82C11079395F835
:105528002831584609910893FFF7F2FCD5F8202155
:10553800089B0392D5F82421099902920CAA01909C
:10554800009207984A4603F063FD18B1236843F0B8
:10555800080323604346524639462846FFF703FEB0
:105568002368DDF8189018432060B9F1000F29D09E
:10557800B6FA86F300225B0949463846FFF7A8FDCC
:1055880090B1D9F83091F0E738486BE0289B0133A7
:10559800289380E7236843F48043236098E72368CF
:1055A80043F4004323609CE72B9B524604932A9BB9
:1055B800494603930BAB0293289B0193731C0093FA
:1055C80043463BE0289B06F1020BD7F83091C3EB2A
:1055D8000B0BB9F1000F24D0D9F80031002B01DDF5
:1055E8005B4508DBB6FA86F300225B094946384674
:1055F800FFF76EFD10B1D9F83091EAE72B9BCDF893
:10560800008005932A9B069A04930BAB0393289B6F
:1056180049460293731C019338465346FFF726FF09
:105628000FE02B9B524604932A9B069903930BABDE
:105638000293289B0193731C009343463846FFF757
:105648001FFE78B92A9B2BB922680B9B00201343B5
:10565800236007E02946234632462B982A9DA8470F
:105668000028F1D01DB0BDE8F08F00BF00D0FFFFCB
:105678002DE9F04F89B0139C9346002205468A46CF
:10568800DDF8488022601F46002B6ED0B8F1000F6D
:1056980048D0404607F081FFD5F8F83081469B0690
:1056A8000DD505F1E806736899452CD14A46B168CD
:1056B80040460793FFF737FC079B20BB32E005F114
:1056C8006C067268032A18D1B168554807F010FFB4
:1056D80098B93369994507D14A4641467069079395
:1056E800FFF721FC079BE8B1022B06D902224D499E
:1056F800706907F0FDFE002853D0B669002EE0D18E
:10570800042323600EE0022B47D902224549B068E2
:1057180007F0EEFE002840D131464046FFF759FC1D
:1057280000283AD105F1BC06304603F0CDFC012330
:10573800421E93407A68014613423AD0324607F136
:105748000C00FFF78DFC18B1236843F48033236005
:105758005646002E3DD00123002231462846FFF749
:10576800B7FC58B3D6F83061F3E72F4811E0159B22
:1057780002900593149B01900493039400975B4651
:10578800524631462846FFF771FE10F51C5F2ED1B0
:1057980026484FF0FF3323603FE0F668002E82D1A1
:1057A800AEE706F10C014046FFF713FC0028A4D130
:1057B800B8E7236843F400432360BFE7159B0294CE
:1057C8000493149B0190039300903B465A4631463C
:1057D8001FE0D5F8306196B10123002231462846F2
:1057E800FFF776FC0028C2D0D6F83061F3E700282E
:1057F800CFD123680E48002B08BF00200DE0159B71
:105808005A460493149B514603933B4602940196CF
:1058180000962846FFF734FDB7E709B0BDE8F08FDA
:10582800C8DD0A085DE90A0800D8FFFF00D0FFFFBD
:1058380000D9FFFF4FF49A72002107F08EBE70B5B1
:105848000546002853D0044604F1BC0003F028FBA9
:10585800626E4AB1104620219669FFF75CFB10463C
:1058680006F07AFD3246F4E7D4F884204AB11046AF
:1058780020219669FFF74FFB104606F06DFD324672
:10588800F4E7D4F814214AB110461021D668FFF77E
:1058980042FB104606F060FD3246F4E7D4F8F420E7
:1058A8004AB110461021D668FFF735FB104606F0BE
:1058B80053FD3246F4E7A06828B16168FFF72BFB77
:1058C800A06806F049FDD4F83041002CBCD12A4626
:1058D8004FF49A711046D2F83041FFF71CFBAA42E8
:1058E80002D0104606F038FD2246002CF0D170BDDB
:1058F8002DE9F04F88469BB015468246002800F0F7
:105908002C81002900F0298104464FF00009A36981
:10591800A3B1D4F83031A1460BB11C46F7E74FF4D8
:105928009A71012007F0CEFDC4F83001002800F07C
:105938001681FFF77FFFA146D4F8304100230B936F
:105948000C930D930E930F9310931193129313933B
:10595800002C00F0E9801AAE46F8545D08EB050B00
:1059680030233246594606A8CDF81880FBF780FD4B
:1059780020B12046FFF763FFA34DE1E0069D059F98
:10598800C5EB0B0BBB45C0F0CA803D44C8EB050511
:1059980065602946012007F095FD83460690A060C2
:1059A800002800F0C3802A46ED1B5D4441462F4481
:1059B80007F0ADFD656130233246394606A80695E5
:1059C800FBF756FD804628B12046FFF738FFA8F5BB
:1059D8000655B2E0059B069E17AA1E446369314628
:1059E800F31A236106A8A023FBF742FD054628B158
:1059F80010F1620F14D1C4F8188014E0179B069DAB
:105A080004F118021D44294606A8FBF75EFD10B1F3
:105A1800A0F5085504E0069B9D4204D07B4DD6E0D6
:105A2800002D40F0D48004F11C02314606A8FEF790
:105A380037FB0546002840F0CA8004F128080BAB64
:105A48004246314606A8FEF753FB0546002840F0BB
:105A5800BE8086E00133A36104F59673009304F5D4
:105A6800947204F229130BA94046FEF795FC0546EB
:105A7800002840F0AC80069B05AAE363314630233A
:105A880006A8FBF7F5FC0546002851D1059B0699A9
:105A980004F14C02194406A8FEF732FB054600281B
:105AA80040F09580E26B069B31469B1AA36317AAC8
:105AB800302306A8FBF7DCFC00285BD0A0F51055C6
:105AC800002D40F084800DF1680B5BF8503D05AA6D
