:020000040808EA
:1000000000000808EC7D0908000005000A00050151
:080010000402CF000000000013
:100018003C42090809480A4908B5884205D0094AF6
:10002800824202D0121A14F082F80748074A0021C7
:10003800121A14F0A2F8064808BD00BF00040020F8
:100048001C7D0908A8040020A804002020360020F0
:100058002036002070B512F029FB074B074C1E46CE
:10006800E41AA4080025A54204D056F8253098477C
:100078000135F8E770BD00BF787C0908087D0908DC
:1000880000F036B808B500F014F8BDE8084012F0E2
:10009800CBBA11F01BBD11F019BD11F01FBD11F045
:1000A8001DBD0078B0FA80F0400970470123037045
:1000B8007047C82012F040BAF8B50F460A4900F157
:1000C800100506466323094A0968284601F0D5FC4D
:1000D800044630B13946304612F0B2F8284601F0ED
:1000E800C5FC2046F8BD00BFD8040020D04209084E
:1000F8002DE9F041C2B012F0B1FB4FF4165112F0E5
:100108008DFB12F0ABFB12F090FB0028F9D04D4CA0
:1001180041F288304C4D12F00FFA206811F008F9BE
:10012800286811F039FA012012F00FFA0022FF2195
:10013800104612F01AFADFF83081002618F8261057
:1001480020680136FFF7B8FF162E3E4FF6D10A2178
:100158003868FFF7B1FF3E682B683C4906F1100587
:100168001F6B3B4A63230968284601F086FC60B18F
:10017800384613F02DF80223009302460B4630460A
:1001880012F088F9284601F071FC0A212068FFF76F
:1001980093FF304D64221146002012F0E6F92868DA
:1001A80010F01EFD12F05AFB2B4912F045F812F020
:1001B80055FB0A22294912F0B4F812F04FFB044605
:1001C80011F068FD0A220146204602AC12F07DF8C3
:1001D8002346234A1068516803C3906800211860B9
:1001E800742205A813F0C9FF0B233022E25401330F
:1001F800802BFBD122AF3A462146286810F01AFD21
:10020800002612F02BFBBB5D164A0021013612F0C6
:1002180046F90B2EF5D122463946286810F02DFDF7
:1002280012F01CFB12F00FF8002512F017FB635DAB
:100238000C4A0021013512F032F90B2DF5D142B0EC
:10024800BDE8F0818428002078280020D804002008
:10025800D042090880280020D9420908AC040020AF
:1002680050420908DF4209088C28002008B511F01F
:10027800ADF90021012011F0F9FB032011F0E6FB94
:1002880010F0BEFE11F022FA014B186008BD00BF45
:10029800CC04002011F09AB970B50546044600F167
:1002A800700620460349103411F06BFFB442F8D1B0
:1002B800284670BD544A090811F088B911F086B96A
:1002C80038B504460D46FFF7E7FF0023C4F8F430BD
:1002D800256784F8F830204638BD08B5006F11F05E
:1002E800BEFFBDE80840FA2012F026B910B5044652
:1002F800006F12F077FB206F012103681B6A984793
:1003080020460C49FFF7E9FF20460B49FFF7E5FFB8
:1003180020460A49FFF7E1FF20460949FFF7DDFFBC
:1003280020460849FFF7D9FF2046BDE81040064996
:10033800FFF7D3BF0C4309081D4309082E430908DA
:1003480047430908794309088743090811F03EB96A
:1003580030B50224017083700621F523C475042486
:100368004270C380012200230172017680F8204088
:1003780003210724027142748274C2740275827563
:1003880042768276C276C27780F8214043728372C1
:10039800C372037343738373C3730374017743771F
:1003A800837780F82230044680F8231080F82720CD
:1003B800024680F8241080F8253080F82630002581
:1003C8000139E563A564656502F10202A2F85E30B1
:1003D800A2F86430A2F86A3004F10404F0D14FF0B6
:1003E800000380F8803030BD10B51E236B22012138
:1003F800FFF7AEFF10BD10B50446C08813F03AFBF6
:100408004FF0605113F08EFB606710BD10B50446C5
:10041800C07D13F02FFB4FF0605113F083FBA067F2
:1004280010BD000090F82030043B0C2B14D8DFE8F6
:1004380003F0071313130A1313130D1313131000E8
:10044800064B1B6807E0054B5B6804E0034B9B68A1
:1004580001E0024BDB68C367704700BF000400205F
:10046800C388F52B07D0B3F5FA7F04D0B3F5FA6F3C
:100478001CBFF523C380C27D102A03D8084BD34084
:10048800DA0701D40223C37590F82020102A03D874
:10049800044BD340DB0702D4042380F82030704794
:1004A800140101001011010010B50446012190F853
:1004B800730012F049FB94F87300012112F055FB08
:1004C80094F87200012112F03FFB94F872000A4C74
:1004D800012112F04AFB204611F054FB2046082166
:1004E80011F0A8FB2046012111F057FB2046BDE87A
:1004F8001040002111F054BB28350020F8B50C46F7
:1005080017461E46094D2046002112F02EFB07F023
:100518003F01284611F0A2FB3146284611F09EFB08
:100528002046BDE8F840012112F01FBB2835002005
:10053800F8B51E4690F8723002F03F028B429DF8E3
:10054800187042F0800503D1012F88BF45F040059F
:100558008CB22046002112F008FB2946094811F008
:100568007DFB3546AB1B9F4206DD0021054811F097
:1005780075FB05F8010BF5E72046012112F0F5FAA5
:100588000120F8BD283500201FB5012300930DF187
:100598000F03FFF7CDFF9DF80F0005B05DF804FBD2
:1005A80008B512F041FBBDE8084012F087BA70B5F3
:1005B8000E4615461C4612F037FB314612F090FAEB
:1005C80012F032FB036829469B68984712F02CFB0F
:1005D800036821469A68904712F026FBBDE87040F0
:1005E80012F086BA1346027810B4012A05D10A46D9
:1005F80010BC90F87310FFF7DABF2AB90A4610BC8E
:1006080090F87310FFF77ABF10BC704710B50379E4
:10061800044613B1037A5B01DBB2E288B2F5FA7FD4
:1006280005D0B2F5FA6F04D143F0180301E043F0A6
:100638000803627A102102F003021A432046FFF7EA
:10064800D1FF002211212046FFF7CCFFA37A002B0F
:10065800E37A14BF802200222BB1237B03F00F031F
:1006680043F040031A4312212046FFF7BBFFE37C07
:10067800002BA37C0CBF0022202213B142F01002F1
:10068800D2B2637C0BB142F00802237D0BB142F079
:1006980002021E212046FFF7A5FF637B002BA37BE8
:1006A8000CBF0022202213B142F01002D2B2E37B29
:1006B8000BB142F008022046BDE810401321FFF7B5
:1006C80091BF10B5C37E0446002B837E0CBF002269
:1006D800202213B142F01002D2B2637E0BB142F075
:1006E80008021F212046FFF77DFFA27D12B1227E5E
:1006F8005201D2B2E37D082B06D0102B07D0042B71
:1007080007D142F0100204E042F0180201E042F082
:10071800080294F91C302021002BA2BF03F0030328
:100728001A4342F004022046FFF75CFF627F2AB1B9
:10073800A27F520102F0600242F080022046BDE82A
:1007480010402121FFF74EBF1346027810B4012A4A
:1007580005D10A4610BC90F87210FFF728BF2AB9D5
:100768000A4610BC90F87210FFF7C8BE10BC70475C
:1007780010B590F822300446002B90F8233008BFBB
:1007880000224FEA431303F0600190F8213018BFAC
:1007980080229B0003F01C030B431A432021FFF720
:1007A800D3FF94F820302046083BDBB2082B96BFD5
:1007B800124A0022D25C2121FFF7C6FF94F82530A7
:1007C8002046002B94F826300CBF0022202203F08C
:1007D80003031A432221FFF7B7FF94F82420204689
:1007E800920002F00C022321FFF7AEFF2046BDE87D
:1007F800104000222421FFF7A7BF00BFA743090824
:1008080038B50C46154612F00FFA214612F068F971
:1008180012F00AFA036829469B68984712F004FA0E
:10082800002112F061F912F0FFF90122214612F0BD
:1008380054F912F0F9F903685B699847C0B238BDFA
:100848000A460178012903D190F87310FFF7D8BF41
:1008580019B990F87310FFF797BE002070470A4641
:100868000178012903D190F87210FFF7C9BF19B9AF
:1008780090F87210FFF788BE704738B50446437881
:1008880080F87330837880F87230FFF7E9FDFFF75E
:10089800B2FD2046FFF7C6FD2046FFF7B7FD2378D7
:1008A800012B03D12046FFF77BFE03E013B9204656
:1008B800FFF7FAFD0F212046FFF7D1FF0F2105466C
:1008C8002046FFF7BDFF46F63D0345EA002005B286
:1008D8009D420AD12046FFF799FE2046FFF7F1FE18
:1008E8002046FFF745FF284638BD002038BD2DE9D2
:1008F800F04190460C461D469DF8186010F0E6FE43
:10090800074612F091F9214612F0EAF812F08CF934
:10091800036848F080019B68984712F085F9002128
:1009280012F0E2F812F080F92146324612F0D5F8BA
:10093800002407F57A77B4421ADA12F075F90368D9
:100948001B69984740B112F06FF9036804F1010878
:100958005B6998472855444610F0B8FEB842EAD972
:100968002C44FF23621B964205DD04F8013BF9E79E
:100978000120BDE8F0810020BDE8F08137B50D46C3
:100988000178012907D190F87310009313462A467D
:10099800FFF7ADFF07E031B990F8731000931346E5
:1009A8002A46FFF7C5FD03B030BD13B5022301AADF
:1009B80015210446FFF7E2FF30B19DF805209DF8A8
:1009C800043043EA0223638702B010BD10F0FEBD75
:1009D80010F0FCBD10B50446283001F07FF928B1AD
:1009E80004F50D70BDE8104001F078B910BD411E46
:1009F80000F10A020020430843EAC01011F8013F41
:100A080018448A4200F0FF00F5D170472DE9F047FD
:100A18000378441C202B01D12046F9E70546704F86
:100A280088602C1A2E4615F8013B0BB32F2B01D1E9
:100A3800031917E05C2B02D10020BDE8F087A3F171
:100A48002204E4B21D2C03D827FA04F4E407F3D4F3
:100A580003F0BF043C2CEFD0203B5E2BE1D9EBE741
:100A68002F2D05D11E4613F8015B202DF8D1F9E78B
:100A7800166003199842C0EB030809D013F8012D3A
:100A88002E2AF7D0202AF5D0B8F1FF0FD4DC01E0E8
:100A98004FF00008C1F8048001F10C0301F11702BE
:100AA800202403F8014F9342FBD103461A1A13F886
:100AB800014B2E2CFAD0202CF8D0B2FA82F408F18F
:100AC800FF366409731C07D100274FF0070E3D4617
:100AD800BA464FF0080909E0835D2E2BF4D0013E99
:100AE800F0E7835C202B04D1002401324245F8DB77
:100AF8004BE02E2B02D1B242F6D103E0222B17D0C5
:100B08007C2B15D0A3F12A0CBCF1050F01D82D2B95
:100B18000ED1A3F13A0CBCF1050F09D9A3F15B0C76
:100B2800BCF1020F04D9A3F1210CBCF15D0F02D96D
:100B3800B2420ED149E0B24247D0754521D8A3F15F
:100B4800610CBCF1190F08D8203BDBB249EA070752
:100B58000AE0754515D800245F23A3F1410CBCF1C8
:100B6800190F98BF49EA0A0A05F1010C5FFA8CFCD3
:100B78000D44BCF1060F6B7301D881F80CC06546B3
:100B8800B3E7BEF10A0F17D100244B7B202B3FF4AB
:100B980053AF3CB11AEA070F18BF02270F700120A4
:100BA800BDE8F0870B7B0120087019447E234B7346
:100BB80031238B73BDE8F087B242E5DC32464FF053
:100BC8000A0E08254FF010098EE7BEF10A0FDBD098
:100BD80032464FF00A0E08254FF0100985E700BF8E
:100BE800010100312DE9F84306460D4691F80C90B5
:100BF80002247E2701F10D086968AA6863189BB270
:100C08001144914206D012F8010B03EB4313434001
:100C18009BB2F6E7B9F1030F28BF4FF0030909F1BA
:100C28000402D2B203F00F01A818013A0929D2B27E
:100C380094BF30313731914541734FEA1313F1D3E3
:100C480005EB09035F730021304600F038FE0121EF
:100C5800304600F017FE014628B97078B0FA80F0E7
:100C68004009BDE8F88303784BB1C37A1B07EED47B
:100C78000B22404613F04CFA0028E8D102E001208C
:100C8800BDE8F8830134A4B2642CB5D1BDE8F8837B
:100C98002DE9F04F89B003930B78059013F0700F8E
:100CA8000E46914601D1002099E1059B1B78002B47
:100CB800F9D11378D2F804B09B0700F086810BF1C4
:100CC8000C030D27B3FBF7F70137FFB24FF000080D
:100CD8000021304600F0F3FD45464346444609F1FD
:100CE8000D02CDF80880CDF81080069272690121B6
:100CF80030460793C2F34F1A00F0C4FD079B20B992
:100D08007378002B00F08E80CDE70278E52A00D0BA
:100D180042B9002D08BFD046BD423CBF0135EDB2F7
:100D280022B97FE0BD4238BF002503E0E52A01D1A2
:100D38000024DBE72E2AFBD0C17A0F2950D13CB919
:100D48005106D3D5437B02F01F040293234607E0E4
:100D5800013BDBB29A42EBD1427B02999142E7D147
:100D68005A1E4FF00D0C0CFB02FCE345E0D94FF086
:100D7800000EBEF1040F5FFA8EF204D800EB4E02AB
:100D8800B2F801200CE00A2A95BF0EF1FF320EF1ED
:100D9800010200EB420200EB420294BFD288928823
:100DA800E34503D1002A18BF00249FE7FF2ABFD8D4
:100DB800D2B2A2F141011929D9F8081098BF2032FE
:100DC80011F80C100CF1010AA1F1410C98BFD2B234
:100DD800BCF1190F9CBF2031C9B29142A8D1F6E0ED
:100DE8000A07A5D44CB1012B7FF45DAFFFF7FFFDD7
:100DF800029B83427FF457AF0FE00B2206990793BB
:100E080013F086F9079B00287FF470AF99F800204B
:100E1800D10702D50122049268E7039B1A0640F124
:100E2800CC8040E7039B03F04203422B7FF43BAFA7
:100E3800002D08BFD046BD4202D3049BCBB91FE0AA
:100E48000021304600F01EFD10B973785BB12AE727
:100E58000135EDB2EFE7B3681B79012BEDD81035FA
:100E6800EDB2AF42E9D9304600F0DEFB0028F2D1FE
:100E780019E749463046FFF7B5FE00283FF413AF9F
:100E88004FEA4811304600F01AFD00283FF40BAF36
:100E98007C1EE4B225464FF0000A4FF00F0840E0F0
:100EA8000021304600F0EEFC074600283FF4FBAE78
:100EB800B268A54292F8283043F0010382F828303E
:100EC80014BF2A4645F04002027080F80B8080F873
:100ED8000CA009F10D000292FFF789FD029A7873C0
:100EE80087F81AA087F81BA002F01F020D23013A09
:100EF800D9F808E05A430023934515D91EF8021083
:100F0800042B5FFA83FC03F1010013D807EB4303BA
:100F1800A3F801100D2802F101020346ECD1013DAE
:100F2800EDB2002DBCD10EE014BF4FF0FF3100210F
:100F380089B2E5E7BCF10A0F94BF07EB430307EB5F
:100F480040039980E6E7736929463046C3F34F1A90
:100F580000F098FC074600283FF4A5AE2022294659
:100F680013F00BF94B4653F80D2F3A605A687A6024
:100F78001A893A819B7ABB7299F8003003F01803FA
:100F88003B73184B1B682BB107F10E0107F11000DA
:100F9800984706E021233B7428237B740823BD73FC
:100FA800FB733B8A7B823B83FB89FB82B26892F8A6
:100FB800283043F0010382F828300094039B5246FE
:100FC8003146059800F0C4FC09E001277EE60EF1E1
:100FD800010EBEF10D0F3FF489AED446C9E609B043
:100FE800BDE8F08FDC04002010F0F0BA10F0EEBA83
:100FF80010F0ECBA10F0EABA03685B6918470368A6
:10100800DB68184710B5037904466BB101214079B4
:1010180011F0ABFDFF212068FFF7EEFF20680368A1
:101028009B6898470023237110BD38B5057904469D
:1010380055B90068E17903685B6898472946607983
:1010480011F093FD0123237138BDF8B504460D4610
:10105800164610F03BFB07462068FFF7D0FFFF2835
:10106800207207D110F032FBC01BB0F5967FF3D980
:1010780011230CE0FE2801D00F2308E02068324637
:10108800036829461B699847207230B11C23204603
:10109800A371FFF7B7FF0020F8BD2068FFF7AFFF87
:1010A8002068FFF7ACFF0120F8BD70B506460C4676
:1010B80010F00CFB05463068FFF7A1FFFF2806D0AB
:1010C80010F004FB401BA042F5D3002070BD0120A6
:1010D80070BDF7B5037904460D4601920BB9FFF7C9
:1010E800A4FF4FF416712046FFF7DFFF45F04001DB
:1010F8002068FFF781FF0DF107060DF1030716F8C9
:1011080001192068FFF778FFBE42F8D1002D0CBF07
:10111800952187212068FFF76FFF0C2D02D12068E9
:10112800FFF76DFF00252068FFF769FF03062072AF
:1011380003D50135B5F5807FF5D103B0F0BDF8B51D
:101148001F4600234271437283710160044610F008
:10115800BDFA06462068617903680A251B68984726
:1011680080212068E17103685B689847FF21206847
:10117800013DFFF741FF15F0FF05F7D1206803682F
:101188009B689847002211462046FFF7A2FF0128D6
:1011980007D010F09BFA801BB0F5FA6FF2D9012343
:1011A80048E04FF4D57208212046FFF792FF052842
:1011B80001D101230BE004252068FFF720FF013D42
:1011C80015F0FF052072F7D1AA2808D1022363720F
:1011D800637A022B0CBF4FF08045002507E010F022
:1011E80075FA801BB0F5FA6FDBD9022322E00022E2
:1011F80037212046FFF76DFF2A4629212046FFF7B1
:1012080068FF024638B110F061FA801BB0F5FA6F3A
:10121800EDD90A230EE0637A022B05D02046FFF7AA
:10122800F1FEE7710120F8BD3A212046FFF751FF92
:1012380030B108232046A371FFF7E4FE0020F8BD73
:101248002068FFF7DCFE00F0C000C02804BF0323BD
:1012580063722068FFF7D3FE2068FFF7D0FE20688E
:10126800FFF7CDFEDAE738B5437A1546032B18BFEA
:1012780049020A4611210446FFF72BFF10B1042347
:10128800A3710BE029464FF400722046FFF7DDFEFC
:10129800054618B12046FFF7B5FE03E02046FFF7E4
:1012A800B1FE0025284638BD10B5437A0A46032BFF
:1012B80018BF4A0212210446FFF70BFF30B105237D
:1012C8002046A371FFF79EFE002010BD012010BD2F
:1012D80010B500220C210446FFF7FBFE30B10323B2
:1012E8002046A371FFF78EFE002010BD2046FFF7B1
:1012F80089FE012010BDF8B5054616461F46FFF7C2
:10130800D3FF98B10024A3B29F4206EB442108D929
:101318004FF400722846FFF798FE01340028F2D1F6
:1013280004E02846BDE8F840FFF7D2BF0020F8BD2A
:1013380038B5044615460068FFF75EFE20684FF48E
:101348000072036829469B699847FF212068FFF7C8
:1013580053FEFF212068FFF74FFE2068FFF74FFE7E
:10136800207200F01F00052806D013232046A37121
:10137800FFF748FE002038BD012038BD38B5437A54
:101388001546032B18BF49020A4618210446FFF7E1
:10139800A0FE10B10623A3710AE02A46FE212046CA
:1013A800FFF7C6FF054618B12046FFF72BFE03E0FE
:1013B8002046FFF727FE0025284638BD70B50446AD
:1013C8000D460679FFF731FE4FF416712046FFF7F8
:1013D8006CFE10B91723A3710BE02A46FC212046A6
:1013E800FFF7A6FF054620B13EB92046FFF70AFEE3
:1013F80003E02046FFF706FE0025284670BD70B5BD
:10140800044616460D4600223721FFF762FE324693
:1014180017212046FFF75DFE08B109230AE0637A29
:101428001921032B18BF6D022A462046FFF751FEEB
:1014380030B107232046A371FFF7E4FD002070BDFB
:10144800012070BD38B50446FFF7EFFD4FF4167163
:101458002046FFF72AFE70B1FD212068FFF7CCFD7A
:101468004FF416712046FFF720FE054618B12046B6
:10147800FFF7C8FD05E01223A3712046FFF7C2FD60
:101488000025284638BDF8B517461A4605461E46B3
:10149800FFF7B5FF70B10024B44207EB442128469A
:1014A80004D0FFF78BFF28B10134F5E7BDE8F84019
:1014B800FFF7C8BF2846FFF7A5FD0020F8BD10F0CC
:1014C80085B80000014B01221A707047D004002033
:1014D800704700000279024B53F8220010F057BB06
:1014E800B043090870B506460C4603791A4D012128
:1014F80055F8230010F051FB3379002155F82300EB
:1015080010F04EFB022C0CD9042C0CD9082C0CD949
:10151800102C0CD9202C0CD9412C34BF2821302177
:1015280008E0002106E0082104E0102102E018216B
:1015380000E02021337955F8230010F07BFB1823B5
:1015480003FB04F132793C2302FB011191FBF3F117
:10155800024B196070BD00BFB0430908D4040020D5
:101568000279034BFF2153F8220010F077BB00BF2C
:10157800B04309080279024B53F8220010F06EBB01
:10158800B043090873B50C4B06790C4800250C4C80
:10159800009350F8260013460A462946257010F095
:1015A80063FB2378002BFCD0064B186808B110F0B9
:1015B80085F8002002B070BDCD140808B0430908B2
:1015C800D0040020D404002073B50D4B06790D48D3
:1015D80000250D4C009350F8260013462A46257026
:1015E80010F042FB2378002BFCD0084B186820B180
:1015F80002B0BDE8704010F061B802B070BD00BF25
:10160800CD140808B0430908D0040020D4040020F1
:101618000FF0DCBF837800F1100263F07F03837062
:101628000169806800F004BC2DE9F04103780446A4
:1016380003F0200303F0FF050BB100262EE04269FA
:10164800184B9A42F9D8FFF7E5FF06460028F4D070
:101658002169A06800F08DFB0746A068052239467D
:10166800283000F062FB80460028E6D029464FF477
:10167800007212F082FD0125A0680279AA4209D9F8
:10168800036842465B68E91998470028D5D00135B8
:10169800EDB2F1E7636903EB422363613046BDE8CD
:1016A800F08100BFFFFD1F0010B5044680680A46A0
:1016B8002830A16900F039FB20B1A38803F00F039B
:1016C80000EB431010BD70B5047805460E4684B98A
:1016D8002422214612F051FDAE60F379102B03D07D
:1016E800202B06D1402300E0202301202B70A87076
:1016F80070BD002070BD2DE9F74F03780446894678
:1017080015464BB18278D10706D50CE05A462169B7
:1017180000F035FB00283DDA63784FF0FF3043F0E6
:101728000203637098E01A0703D5E36962699B1A9C
:1017380007E09A0608D5A3681A896369C3EB4213C0
:101748009BB29D4228BF1D462E464FF0000804F16B
:10175800100B002E35D02278636912F0200FC3F3E6
:10176800080AA0684FEA532102D0036A19441DE011
:1017780090F8058001EA0808BAF1000F10D1B8F115
:10178800000F0DD1002BC1D153064CBF036A236A49
:10179800236105E004D1237813F0700F11D1BBE762
:1017A8002169A06800F0E5FA08EB0001A068BAF129
:1017B800000F35D1B6F5007F32D3026B914202D1CA
:1017C8002EE0A81B48E0B6F5806F1BD32778C6F338
:1017D8004723BF0606D40779C8EB0707FFB2BB4209
:1017E80028BF3B4691424FEA432707D2A0680268C8
:1017F800D2F808A04A46D04760B98DE71A4491420A
:1018080021D3F3E703684A461B689847002883D02A
:101818004FF400776369B9443B446361F61B98E76A
:101828000022283000F081FA00283FF475AFCAF58D
:101838000077B74228BF374600EB0A013A464846C8
:1018480012F075FCE6E78DE80A00FFF7C3F89DE89B
:101858000A000028CAD15FE703B0BDE8F08F73B56E
:1018680001220DF10701044646690569FFF743FFA8
:10187800012809BF9DF807004FF0FF306661256118
:1018880002B070BD37B543690446C3F3431505B1CB
:1018980069B901220DF107012046FFF72CFF40B27C
:1018A800012801D0002008E063691F3300E02033DD
:1018B800A0686361343000EB451003B030BD2DE9FA
:1018C800F0410E46017804460769002939D0456978
:1018D800B5423AD00EB9066131E00B0703D5C369AA
:1018E8009E422ED807E0880605D5A3681B89B6EB6B
:1018F800431F26D823E0D4F808E06A1E9EF8063075
:1019080003F10900731EC240C3409A4200D84DB982
:101918004A064CBFDEF82020226A22611D4604F1E7
:1019280010080AE09B1AF9E742462169A06800F00E
:1019380026FA002805F1FF3503DD002DF4D1666194
:1019480003E027610020BDE8F0810120BDE8F081B7
:10195800F8B50F4604461646002124221D4612F00B
:101968000CFCB868A680A0603B6A06F00F02E36032
:10197800520100F134031344D97A0F0702D500202D
:101988002070F8BD811891F83F1001F017012170FF
:10199800DB7A13F0180F08BF41F008019DF81830E2
:1019A80008BF217015F0320FE37003D0237813F0CD
:1019B800110FE4D105F00F03A370036B0244A36178
:1019C800B2F84830B2F84E10EE0641EA034104D5A9
:1019D80071B100F068FA58B9D1E72162136DE3617B
:1019E800AB060AD5E1692046FFF769FF28B9C6E7C3
:1019F800A37863F07F03A370F2E70120F8BD00002D
:101A080038B5037804460BB9012038BD90F9023087
:101A1800002B23DA0121FFF747FE054628B9637832
:101A2800002043F00103637038BD0378E52BF6D03E
:101A380023781B0744BFE369C361238C4383638C0A
:101A48008382094B1B682BB100F1160118309847A7
:101A58002B8B6B82A37803F07F03A370A068FEF73B
:101A6800B9FF0028DBD0CFE7DC04002010B504461E
:101A7800FFF7C6FF0023237010BDF0B51F4693B0D3
:101A880000238DF824308DF82530037806460C465F
:101A980001920BB100203DE00B7813F0700FF9D0E4
:101AA80013782F2B12D1019B1A782F2A02D10133D8
:101AB8000193F8E7A1681AB93046FFF704FE29E058
:101AC80009A8FFF700FE0028E4D009AC01AA03A981
:101AD8000198FEF79BFF0028DCD0019B1B789BB187
:101AE800012303AA21463046FFF7D2F80028D1D0B7
:101AF800354609AC0FCD0FC40FCD0FC42B68304647
:101B08002360FFF7B3FFE0E73B4603AA21463046D0
:101B1800FFF7BEF813B0F0BD2DE9F047037804468F
:101B28001D078946904608D58378990705D55B0730
:101B38000BD5E169FFF7C3FE38B963784FF0FF3082
:101B480043F001036370BDE8F0876369DB439845A0
:101B5800F3D847464FF0000A6369002F00F08280EF
:101B6800A068C3F30806457915EA53251CD1DEB9E8
:101B7800216971B104F1100200F001F90028DCDBE1
:101B880040F08E802046FFF745FD002840F0888011
:101B9800D3E7236A3BB92046FFF73CFD0028CCD0A9
:101BA8002369236200E023612169A06800F0E1F85D
:101BB800291816B9B7F5007F21D2C6F50075BD42C0
:101BC80028BF3D4636B96369E269934234BF0122B2
:101BD800052200E00122A068283000F0A6F80028BD
:101BE800ABD030442A4649462E4412F0A0FAB6F546
:101BF800007F31D1A068283000F070F818E0B7F500
:101C0800806FA26816D31379106B5D1BEDB2C7F312
:101C18004723AB4228BF2B4681424FEA432502D3D4
:101C28001844814236D3A0680268D6684A46B0474D
:101C380090B982E7136B994202BF4FF0FF3382F8E5
:101C480028A01363A0684A4603685B689847002881
:101C58003FF473AF4FF400756369A9442B44636183
:101C68007F1B79E7E2699342A27801D9E36102E038
:101C78000E4B1B6813B162F07F02A270A3781A079B
:101C880002D44046BDE8F0872046FFF7B9FE002899
:101C9800F7D152E74FF0FF3082F828A01063C2E76F
:101CA8002169A06800F065F8014683E7DC0400209C
:101CB8000FF08CBC70B505460C46084649B112F0C9
:101CC8007CFA2B68024621462846BDE87040DB684E
:101CD800184770BD0FF07ABC0FF078BCF8B50378E0
:101CE8000446DA071ED5406804F10C06036832463C
:101CF8005B68A1689847054608B9002513E0237872
:101D08009B0704D4237823F0010323700BE0606859
:101D1800A7680169036832465B6839449847002818
:101D2800F0D1EAE701252846F8BD70B58368044676
:101D38008B420E46154614D0FFF7D0FF08B9002095
:101D480070BD6B0703D500232370A66009E06068A7
:101D580004F10C02036831461B6898470028F2D149
:101D6800EDE72046237805F003051D4300F80C5BDA
:101D780070BD83790239406999400844704770B54D
:101D8800C3790546202B0C46164612D181690222DA
:101D980001EBD41100F50D70FFF7C7FF10B94FF034
:101DA800FF3070BD04F07F0450F8243023F07043F6
:101DB8000FE0102BF3D18369C1F3072102221944E4
:101DC80000F50D70FFF7B1FF0028E8D0E4B230F855
:101DD8001430EA6993429ABF33600120002070BD35
:101DE80038B5C3790C46202B15460FD181690322DB
:101DF80001EBD41100F50D70FFF797FF08B900202B
:101E080038BD04F07F0440F824500FE0102BF6D1C1
:101E18008369C1F307210322194400F50D70FFF708
:101E280084FF0028EBD0E4B220F81450012038BD1C
:101E38002DE9F341054690460F4609B9C66800E00A
:101E48000E463446EB6901349C4288BF022401AA3D
:101E580021462846FFF793FF00280DDB01D0019BA0
:101E680013B1B442EED107E06FF070422146284624
:101E7800FFF7B6FF064608B9002610E037B122463C
:101E880039462846FFF7ACFF08B9F5E7EC606B6AFE
:101E9800002BA4BF03F1FF336B62C8F80040304643
:101EA80002B0BDE8F08173B504460D4601AA294683
:101EB8002046FFF764FF061E01DA002012E0002228
:101EC80029462046FFF78CFF0028F6D0636A002BCE
:101ED800A4BF01336362E3689D4238BFE560019D9A
:101EE800002EE3D102B070BD70B504460123002274
:101EF800C3604FF0FF33C2710D46E06280F82820BE
:101F08000363C4F8380280F83422C0F83C32A1B127
:101F1800042960D811462830FFF707FF00285AD057
:101F280000EB051393F8AE315B0654D11B3500EB7B
:101F38000515D5F80650002D4DD00022294604F18C
:101F48002800FFF7F2FE002845D0B0F80B30B3F5B3
:101F5800007F40D1037C022B3DD1C389002B3AD0AE
:101F6800417B09264B1E63710023A3712171012354
:101F78008B4207D0013E2ED0A2795B000132DBB242
:101F8800A271F5E7C28A02B9426A2261C6892E4463
:101F9800A661B0F8113006EB420123812162B0F846
:101FA8001120520102F2FF1201EB62226261B0F8C5
:101FB800133003B9036AAD1A2B44A57923FA05F542
:101FC8006B1CE3614FF0FF33636240F6F4739D428C
:101FD80003D80C23E371002070BD4FF6F4739D42C3
:101FE80089BFC36A102323622023E371012070BDD7
:101FF8000FF0ECBA0FF0EABA0FF0E8BA7047000039
:1020080070B505460C46164610F044F858B12146FE
:102018003246284610F02CF8044638B128460FF00E
:1020280056FE204670BD4FF0FF3070BD004870BDB1
:102038008097FFFF70B504460D46164610F02AF843
:1020480058B120460FF00AFF28B1324629462046EB
:102058000FF0D3FE18B9024870BD4FF0FF3070BDC5
:102068000097FFFF70B50E4615460C462B1B3344F0
:10207800032B04D90FF01AFB44F8040BF6E7AC085D
:1020880006EB84043544AC4204D00FF00FFB04F88F
:10209800010BF8E7002070BD00B5ADF2044D0B460A
:1020A800054A40F2FF31684606F0CAFA00200DF2F0
:1020B800044D5DF804FB00BF544A090838B50B4BC2
:1020C8008469054603607CB16368013B63605BB962
:1020D800236820469B689847A368013BA3601BB907
:1020E80023682046DB689847284638BD287A0908BF
:1020F80010B50446FFF7E2FF2046FDF7CEFF204665
:1021080010BD000038B5044600250FF035FFE56125
:10211800054904F1380010F034F80123A56484F867
:102128008236204638BD00BF544A090838B50446EF
:102138001D46059B0363002084F8810684F8800609
:10214800606302B1A26419B104F1380010F03BF8E1
:10215800049BE0692365069BA4F84C50A4F854300E
:1021680008B1FDF79CFFB4F85400FDF794FFE06157
:1021780038BD00002DE9FF410446174698460E4633
:1021880000250FF0F9FEE5610C4904F138000FF065
:10219800F8FF012384F88236FF2302930F2300936C
:1021A8002046A564CDF804803B462A463146FFF711
:1021B800BDFF204604B0BDE8F08100BF544A0908BD
:1021C800F0B50D4602339BB26C1A15F8016BA4B238
:1021D8003EB1B0F854709F4203D95C1CD654A3B2E8
:1021E800F2E7191B0A44211202F8021C02F8014CFA
:1021F8001846F0BD10B590F8814614B90FF038FFB5
:1022080003E000F5347008F083FF80B210BDF7B525
:1022180007468E461E461D46002405F07F0302A988
:10222800ED09214418BF43F08003013401F8043C50
:10223800E4B2002DF1D1C4F10403D11802F803E08F
:10224800A54206DA01A82B1B285C134458710135F6
:10225800F6E7721C22443846FFF7CCFF05460FF01C
:1022680035FA01347862A019431B5842584103B02B
:10227800F0BD38B50446C369E0221A70C369002569
:102288005D700222C169FFF7B5FF94F88136BBB1D2
:1022980004F57A7084F8805684F8815607F007F9B7
:1022A80004F21C5007F003F904F5CA600AF0CDFEE9
:1022B80004F5617009F01CF904F5347009F084F82C
:1022C80020460FF009FE0FF001FA6062A06238BDE7
:1022D80037B590F8813604464BB920460FF0BEFD5D
:1022E8000028FAD020460FF060FDC0B217E090F841
:1022F80080369BB100F5347501220DF1070128469F
:1023080008F080FE002806DA10F5D24FF4D02046F7
:10231800FFF7AFFF02E09DF8070000E0FF2003B0E1
:1023280030BD2DE9F0470546C4698A46FFF7D0FF5E
:102338004FF0010846462070EB69002793F800909B
:1023480009F0F0092846FFF7C3FFEB69741C98559C
:1023580000F07F0303FB08770306A4B2BFB24FEA7D
:10236800C81801D52646EDE7631EB9F1300F8AF883
:10237800003013D12846D5F81C80FFF7A9FF08F8CC
:1023880004002846D5F81C80FFF7A2FFF41C02368B
:10239800B6B2A4B208F80600022300E000231B1B13
:1023A8009EB2A3199BB29F420BD92846FFF790FF14
:1023B800B5F85430A34284BFEB6918550134A4B270
:1023C800EFE7B5F85400A0422CBF20460020BDE836
:1023D800F08710B504460FF05DFE94F881361BB9FE
:1023E800003018BF012010BD94F8800610BD2DE9FB
:1023F800F14F0D9E04468B4691469A469DF82880DB
:102408009DF82C509DF83070FFF7E3FF002848D066
:10241800E36900221A60E269052359462046FFF75E
:10242800CFFE6B1E012B12D8238CE26901339BB2BD
:1024380023841B121354411CE369228C89B2023095
:1024480080B25A541EB1238C5A1C22843380002235
:1024580091B283188A459BB209D9B4F85460013205
:102468009E4204D919F80160E169CE54F0E7B8F149
:10247800000F0CBF302131210FB141F00801022DAE
:1024880002D141F0040103E0012D08BF41F002012F
:102498002046053BE2699BB201B0BDE8F04FFFF76B
:1024A800B6BE01B0BDE8F08F1FB5089C03940024A8
:1024B80002949DF81C4001949DF818400094FFF781
:1024C80096FF04B010BD7FB5054610460E4614466B
:1024D80011F073FE002302930193009322460346F2
:1024E80031462846FFF7E0FF04B070BD012A70B5F9
:1024F80004460E46154620D8FFF76BFFE8B1238C3B
:1025080001339BB203B901232384238CE2691B1294
:102518005371E369228C31469A71E2690723204698
:10252800FFF74EFEE36982211D54031FE26920462E
:10253800BDE870409BB2FFF76ABE002070BD002264
:10254800FFF7D4BF10B50446FFF743FF28B1204674
:10255800FFF78FFEE0690FF0C1FA04F138000FF0C1
:10256800C9FD2046FFF7AAFD204610BD08B50FF0AB
:1025780075FC003018BF012008BD2DE9F04F83B06D
:1025880000AF0446FFF725FF0646002800F0BE808E
:102598000FF09CF8226D4FF47A735343A26A0546F4
:1025A800821A9A4203D8626A821A934216D294F81F
:1025B8002C3023B12046FFF75CFE0026A6E0E26936
:1025C800C0211170E26920465370E1690222FFF7C9
:1025D80011FE01236562A56284F82C302046FFF7BE
:1025E800C5FF8146002800F09180F91D2046FFF7BD
:1025F80098FE0246002800F08880E169A562087804
:1026080000F0F003302B58D1D4F830B0BBF1000FF4
:102618007BD097F807E0EA4601EB0E00467883780E
:1026280003EB06239BB203F1080020F00700ADEB93
:10263800000D684600261FFA86FC634508D90EEB94
:10264800060C8C449CF803C000F806C00136F2E77B
:102658000026C65491F800800EF1030608F006081B
:10266800B8F1020FCEEB020220D11E4411F806C0C9
:102678000EF1050E0E447678D21A73441944053AC1
:1026880006EB0C26D847E36940221A70E369B6B214
:1026980083F80180E36932129A70E3690422DE70DC
:1026A800E1692046FFF7A6FD656204E0033A1E448F
:1026B800D21A3144D847D54627E000F0E005402D2E
:1026C8000DD1646B0CB3042A1FD110F0060F1CD176
:1026D8008878CB7803EB002080B2A04715E0702BF8
:1026E80013D0902B11D0C02B0AD1D0230B70E369E3
:1026F80000225A70E16902222046FFF77BFD04E0C0
:10270800D02B04BF002384F82C304E4630460C37BB
:10271800BD46BDE8F08F00002DE9F04F0546934611
:1027280000F561749946012385B080F8813605F576
:1027380034762046039105F57A7A08F093FE304600
:1027480008F0B8FB05F21C57504606F0ABFE05F53D
:10275800CA68384606F0A6FE40460AF071FC002218
:102768003549204608F0B7FB5A460399504607F00A
:1027780037FA00285DDBB9F1000F02D10F9B5BB976
:102788000CE00E9B002BF9D01A464946384607F054
:1027980027FA0028F2DA4CE0109B4BB900231A46BE
:1027A8001946204608F062FE8346002841D109E018
:1027B80000230093109A0F99404605F071F80028FD
:1027C800ECD036E003221146204608F0D1FB5A46E9
:1027D8001A49204608F079FB0121204608F06EFBD3
:1027E8005A461749204608F073FB5A465146204678
:1027F80008F085FBB9F1000F06D00F9B23B14246C4
:102808003946204608F078FB2146304608F0A2FDFC
:10281800044668B90B4B0C4A05F5CB61304608F005
:1028280063FB0094094B0A4A2946304608F056FBD8
:10283800204605B0BDE8F08F05200808A12008084B
:102848006D200808F36A0808E56A08083D200808AA
:102858000920080800B500F53470ADF5017D08F0D1
:102868008CFB034638B1064A4FF40071684606F0FF
:1028780003FA002000E001200DF5017D5DF804FB5E
:10288800F043090870B5044600F53476D4F8D4321C
:10289800102B05D030460DF061FC05460028F5D018
:1028A80015F5D24FF2D015F5D14FEFD004F57A7067
:1028B80006F0FDFD04F21C5006F0F9FD04F5CA60AF
:1028C8000AF0C3FBD4F8D432102B09D194F882361D
:1028D80043B12046FFF7BEFF20B94FF0FF3070BD6F
:1028E800284670BD012384F88036002070BD0000A2
:1028F8002DE9F0438BB00446894617461E46DDF89D
:102908004880FFF766FD0546002840F0E780A16C87
:10291800002938D10346B4F84C20A16B20460FF0AB
:10292800EDF994F88136002B50D0A16B04F5347082
:1029380008F0E8FA2046FFF7A5FF002840F0CA8013
:1029480001232384684B06AA5968186803C2197AB8
:1029580053F8090F11709A889B79ADF814208DF8F7
:1029680016309DF85C300490042BE26931D104984C
:10297800531DC2F80500BDF814109DF81620998063
:102988009A710C232EE006A80FF000FF2B46B4F82E
:102998004C2006A920460FF0F9FA94F88136ABB11D
:1029A800A16CC8784B780A780190897806A80091BC
:1029B8004E490FF0A3F806A904F5347008F0A2FAFE
:1029C8002046FFF75FFFB0FA80F040090028B7D132
:1029D80080E006AB03CBC2F80500C2F809101B78EB
:1029E80053730E23B8F1000F0AD09DF850209DF8BC
:1029F8004C10520142F0060242EAC102D2B200E093
:102A080002229DF8581009B902F0FD022FB116B93B
:102A180042F0800201E042F0C002E169581CCA5449
:102A2800226DE16912120A54E169206D9A1C8854DA
:102A38000333E26949462046FFF7C2FBB8F1000FAD
:102A48000BD00346E26941462046FFF7B9FBE2692D
:102A5800034615992046FFF7B3FB67B10346E269C1
:102A680039462046FFF7ACFB2EB10346E2693146F2
:102A78002046FFF7A5FB431F9BB2E26910212046C1
:102A8800FFF7C5FB0EF022FE4FF47A776062A06272
:102A98002046FFF76BFD064658B90EF017FEA36AED
:102AA800C01A236D7B439842F2D92046FFF7E1FB19
:102AB8000EE00DF10F012046FFF733FC042809D181
:102AC800E369DF7837B90EF001FE84F82C70A06254
:102AD800354604E02046FFF7CCFB00E000252846F9
:102AE8000BB0BDE8F08300BFE0430908F5430908CF
:102AF8007FB50423059301230493002303930293D2
:102B0800019300931A46FFF7F3FE07B05DF804FB44
:102B18000EF05CBD6C22002111F02FBB38B100F122
:102B28006C020023904202D003700130FAE770472C
:102B380008B56C2211F0FBFA08BD00000023036001
:102B48004360A1B9184B8360184BC360184B0361ED
:102B5800184B4361184B8361184BC361184B0362D0
:102B680003F17453A3F52303A3F6924318E0154B1E
:102B78008360154BC36003F1794303F5740303F5D0
:102B880001630361114B4361114B836103F1D1432D
:102B980003F5C01303F51E63C3610E4B03620E4BAE
:102BA800436281660020704767E6096A85AE67BBA5
:102BB80072F36E3C3AF54FA57F520E518C68059B17
:102BC800ABD9831FD89E05C107D57C3639590EF776
:102BD800310BC0FFA78FF964A44FFABE2DE9F04F5F
:102BE800031DCFB005931A46002352F8040F06AC14
:102BF80044F823000133082BF7D1084600220EAC15
:102C080011F82250C378043043EA056310F8035CD6
:102C180043EA054310F8025C43EA052344F82230EE
:102C28000132102AECD10D9B9F4C00930C9E099BFE
:102C3800089FDDF82CB0DDF81CE0DDF82880DDF811
:102C480018900FAD04F1400A54F8040C4FEAF8222A
:102C580055F8041C86EA0B0C82EAB812014482EA91
:102C680078620CEA080C8CEA060C0A440099624463
:102C78004FEA79304EEA090C0A440CEA070C0EEACE
:102C8800090180EAB9004CEA010180EAB950084418
:102C980013442968024420688BEA080C01440CEAB2
:102CA800030C4FEAF3208CEA0B0C0E4480EAB310B5
:102CB80006EB0C0180EA73600E1806EB070C42EA7B
:102CC80009004FEA723702EA090187EAB20700EA07
:102CD8000E0087EAB257084338443044696866688A
:102CE80083EA08070E4407EA0C074FEAFC2187EA43
:102CF8000807B34481EABC110BEB070681EA7C6143
:102D080006EB010B4FEA703742EA000102EA0006BF
:102D180087EAB00701EA090187EAB0573143394425
:102D2800AE68A7685944DE443E4483EA0C0BB044BD
:102D38000BEA0E0B4FEAFE268BEA030B86EABE1659
:102D4800D84486EA7E6646444FEA713B40EA010869
:102D580000EA01078BEAB10B08EA02088BEAB15BCB
:102D680048EA0708D844B044B144E768EE688CEAFA
:102D78000E0B37440BEA090B8BEA0C0B3B4403EBB5
:102D88000B074FEAF92383EAB91383EA7963FE183C
:102D9800931900934FEA783741EA080301EA0802D9
:102DA80087EAB807034087EAB85713433B443344DC
:102DB8002A6926694FEA733B32449444009A8EEAA2
:102DC800090616404FEAF22786EA0E0687EAB21786
:102DD800B44487EA72670CEB070248EA03078618CF
:102DE8000F4008EA03008BEAB30B8BEAB35B074397
:102DF8005F44174460696A6920341044009A864425
:102E080089EA020C0CEA060C8CEA090C0EEB0C00A1
:102E18004FEAF62E8EEAB61E8EEA766E00EB0E02AA
:102E28004FEA773043EA070E01EB020B0EEA080E71
:102E380003EA070180EAB70080EAB7504EEA010EBC
:102E48008644964454F8081CAA69A2451144009A7D
:102E5800894482EA060000EA0B0080EA020009EBD6
:102E680000014FEAFB2989EABB1989EA7B6901EB72
:102E780009024FEA7E3047EA0E0980EABE0009EAF5
:102E8800030907EA0E0180EABE5049EA01098144B4
:102E98009044914405F120057FF4D6AE0022DFF876
:102EA8000CA00EAC049203E0084409080444090885
:102EB800A26B60684FEAF24585EA724585EA922579
:102EC800049A0DF1380C5CF82220616A4FEAB04C84
:102ED8000A448CEAF01C4FEAF8218CEAD00C81EA0B
:102EE800B811154405EB0C0281EA786586EA0B01F6
:102EF80001EA0801039281EA0602A918DAF84020DB
:102F08004EEA09050A4403993D4021640A440099A0
:102F18000AF1200A0A44D3184FEA7931009381EA6A
:102F2800B9010EEA090381EAB9512B430B441A444B
:102F3800E36BA5684FEAF34181EA734181EA932183
:102F4800A36A2034034419444FEAB54383EAF513CE
:102F580083EAD50C01EB0C03DAF8240000998BEA1C
:102F6800080C30440CEA010C8CEA0B0CC1188C4498
:102F7800009963624FEAF12080EAB11080EA71603B
:102F880000EB0C01C81901904FEA723C42EA0900B3
:102F980002EA09078CEAB20C00EA0E008CEAB25C7D
:102FA800384360440844039954F8147C4FEAF146C6
:102FB80086EA714686EA9126E1684FEAB74C2944C9
:102FC8000E448CEAF71C00998CEAD70C664481EA17
:102FD800080C0199A6620CEA010CDAF828108CEAB0
:102FE800080C59448D190199AC44019D4FEAF1210F
:102FF80081EAB51181EA756101EB0C0542EA00012D
:103008004FEA703C05EB0E0B8CEAB00C02EA000E9E
:1030180001EA09018CEAB05C41EA0E0161442944E5
:103028004FEAF34585EA734585EA9323256954F801
:1030380010CC2F443B444FEABC4787EAFC1787EA89
:10304800DC0E03EB0E079DE828005D4005EA0B0542
:103058005D40DAF82C304FEA713E9844B844454454
:103068004FEAFB2888EABB1888EA7B6808EB050367
:1030780003EB090540EA010802958EEAB10E00EA61
:10308800010508EA02088EEAB15E48EA0508F0443C
:1030980098444FEAF64E63698EEA764E54F80C5C13
:1030A8008EEA96260CEB030E019B764483EA0B0C02
:1030B8004FEAB54E029B8EEAF51E8EEAD5090CEA58
:1030C800030C019B06EB090EDAF830608CEA030C5E
:1030D800009B76441E44029BB444029E4FEAF323AD
:1030E80083EAB61383EA766303EB0C06931900931D
:1030F80041EA080301EA0802034013434FEAF74292
:1031080082EA7742E7624FEA783C82EA9727A26927
:103118008CEAB80C54F8089C8CEAB85C1544029AFE
:10312800634433442F448BEA02064FEAB945009AB8
:1031380085EAF91585EAD9051640DAF834203D44C0
:10314800019F2A443A4486EA0B061644009AC4F8BA
:1031580030E04FEAF22787EAB21787EA7267BA19AE
:1031680086184FEA733080EAB30048EA030780EA1A
:10317800B35C0F4008EA03000743674417444FEA6B
:10318800FE4282EA7E4282EA9E2EE26954F8040CEC
:1031980091440EEB09024FEAB04989EAF01989EA2D
:1031A800D0099144029A65639646009AC4F838900B
:1031B8008EEA020CDAF838200CEA060C8CEA0E0CBF
:1031C8004A444FEAF62E5A448EEAB61E62448EEA04
:1031D800766E72444FEA773C43EA070E01EB020B26
:1031E8000EEA080E03EA07018CEAB70C8CEAB75C12
:1031F8004EEA010EE64496444FEAF542216882EA17
:10320800754282EA9525039A4FEAB14C10448CEA3C
:10321800F11CDAF83C2005448CEAD1010D440299EE
:103228002A4402EB0109009A4FEA7E3082EA06013D
:1032380001EA0B0151404FEAFB2282EABB128944A2
:1032480082EA7B624A4447EA0E0980EABE0009EA3C
:10325800030907EA0E0180EABE5049EA01098144E0
:1032680090449144049AE5630832302A04927FF42A
:103278001FAE009A09930D92CDF82880CDF82CB096
:103288000C96CDF81890CDF81CE008970023059A05
:1032980052F8041F059206AA52F8232001330A4463
:1032A8000599082B0A60F2D100204FB0BDE8F08FD5
:1032B8002DE9F04104460E46154682B3036803F033
:1032C8003F0013449A42236082BF636801336360FE
:1032D80080B1C0F14007BA421BD304F128083A462E
:1032E800404410F024FF41462046FFF777FCB8B968
:1032F8003E44ED1B2F46E91B3F2F314405D920469C
:10330800FFF76CFC60B9403FF5E747B13D460E4614
:10331800002028342A463146204410F008FF0020B7
:10332800BDE8F08170B504460368802203F03F03CE
:10333800581C382823440D4683F8282004F1280611
:1033480004D8C0F13802002130440EE0C0F1400238
:103358000021304410F011FF31462046FFF73EFCB3
:10336800002875D101463046382210F006FF236840
:1033780061685A0F42EAC102110EDB0084F860103E
:10338800110C84F8611084F86320110A1A0E84F86D
:1033980064201A0C84F865201A0A84F8621084F8EC
:1033A800673084F8662031462046FFF717FC03464D
:1033B80000284CD1E27A2A7062896A70A268120ADF
:1033C800AA70A268EA70E27B2A71E2896A71E268EF
:1033D800120AAA71E268EA71E27C2A72628A6A7247
:1033E8002269120AAA722269EA72E27D2A73E28AC3
:1033F8006A736269120AAA736269EA73E27E2A74BE
:10340800628B6A74A269120AAA74A269EA74E27FDA
:103418002A75E28B6A75E269120AAA75E269EA7589
:1034280094F823202A76628C6A76226A120AAA768F
:10343800226AEA76A06E50B994F827302B77E38C8D
:103448006B77636A1B0AAB77636AEB7770BD1846C4
:1034580070BDF0B51F469DB0054601A80E4614463E
:10346800FFF758FB394601A8FFF768FB014658B932
:103478002946324601A8FFF71BFF014620B921461D
:1034880001A8FFF74FFF014601A8FFF747FB0846D1
:103498001DB0F0BD2DE9F04F0446A5B000680193BA
:1034A8000F469346309E05F00FF88146002303939C
:1034B80001238DF80F300DF15008002E5CD05A46CC
:1034C8003946204604F03EFF002856D12E9A01992D
:1034D800204604F097FF00284FD1042203A9204674
:1034E80004F090FF002848D14146204604F09AFF96
:1034F800002842D104AD4A464146284610F017FE3E
:103508004FF0010A2F9B9A451DD25A46394620464C
:1035180004F018FF88BB4A462946204604F072FF8B
:1035280058BB2946204604F07DFF30BB484507DAE2
:1035380010F80820435D534000F808300130F5E7E3
:103548000AF1010ADEE74E45354628BF4D46414699
:103558002A46319810F0EBFD319B761B2B443193B2
:1035680004AA12F8013D0133DBB21370002BA4D179
:1035780003AB9342F5D1A0E7304625B0BDE8F08F04
:103588002DE9F0431F46BDB0002306930793099326
:10359800446883684FF0040908931C4403680D4687
:1035A800302B16468DF8169040F0C98010AB0AAA49
:1035B800214608A800F065FD002858D10B9A092A71
:1035C8004CD10C99614810F0A3FD002846D1129BFC
:1035D800119A249303EB0208109B302B40F0AF8024
:1035E8004B4617AA414624A800F072FCF8B9249A61
:1035F800179B18921344414606AA24A8249300F066
:1036080094FCA0B9249B984522D007AA414624A837
:1036180000F08BFC10B110F1620F08D1249B984583
:1036280016D02CAA414624A800F073FD28B1A0F5B5
:103638003C50002840F086800AE00DF116012CA8C5
:1036480002F022F950B9249B984501D0404879E00E
:103658009DF8160004F0F4FD814608B93D4871E074
:1036680013AB0DAA214608A800F00BFD10B1A0F578
:103678003C5067E00DF117010DA802F0D7F80028BB
:10368800ECD19DF8170000F049F980460028E5D0F4
:103698004368DB080793139B042B52D1C368149A21
:1036A8009A424ED119A804F0D7FD2CA800F058F979
:1036B800149A159924A810F03AFD0122494619A830
:1036C80004F0F0FD0446002831D1079B0DF1700984
:1036D8000293069BCDF80C900193179B3A460093F2
:1036E8003146189B19A8FFF7D5FE0446F8B941469C
:1036F8002CA800F009FB0446C8B9079A6BB2D2009F
:1037080049462CA800F042F9044680B909AB029357
:10371800469B149A0193459B24A900932CA8449B8B
:1037280000F010FBA4F53854002808BF002419A89D
:1037380004F097FD2CA800F017F9204602E006488F
:1037480000E006483DB0BDE8F08300BF0445090825
:103758009AD0FFFF80D1FFFF9ED0FFFF00D1FFFF6F
:1037680010B1006800B14069704710B5891A00248B
:10377800E3B2994204F1010402D903449954F7E7EA
:1037880010BD0000F0B500B3FAB1431813F8014CAE
:10379800B4FA84F35B09A14238BF43F001030F1B5D
:1037A800176000228A420BD0855CBA4284EA05067B
:1037B80034BF0025012575432B43DBB20132F1E705
:1037C800002B034808BF0020F0BD0248F0BD00BF31
:1037D800009EFFFF009FFFFF802330B58354891AA6
:1037E80001230025994204D9C4180133A554DBB23A
:1037F800F8E730BD70B501238D1A00269D4206D921
:10380800C4181444013304F8016CDBB2F6E7014430
:1038180001F8015C70BD000070B5F0B1EAB14E1E50
:10382800845DB4FA84F30D1B5B09A1422CBF1946D1
:1038380043F0010115600023B34209D2AB42C45CD6
:1038480034BF0022012262431143C9B20133F3E7B6
:103858000029034808BF002070BD024870BD00BFA2
:10386800009EFFFF009FFFFF10B502440023141ABB
:10387800A14202D902F8013BF9E710BD18B112B113
:103888001160002070470148704700BF009FFFFF8C
:10389800F0B5F0B1EAB1002313600844802499B16F
:1038A80010F8015D0139002D0CBF1D4643F00105DC
:1038B8006B4001FB03F617683E43166006787343B6
:1038C8005C40E4B22B46EAE7002C034808BF00201E
:1038D800F0BD0248F0BD00BF009EFFFF009FFFFF44
:1038E80030B5A8B1A2B10023136001448142A1EB15
:1038F80000040FD011F8015D002D0CBF1D4643F0E8
:1039080001056B4063431468234313602B46EDE7BE
:10391800014830BD002030BD009FFFFF054B53F824
:10392800042C22B1083313F8101C8142F7D1104639
:10393800704700BF1853090830B5084C63685BB17D
:103948009D692D78854205D15D688D4202D15D78EB
:10395800954201D00834F1E7184630BD10530908E4
:103968004022002110F009BC10B5044668B1C06BB4
:1039780018B123689B699B69984704F140020023AA
:10398800944202D023700134FAE710BD30B4C8B1B4
:103998000468BCB12569AD0702D46568954211D1A8
:1039A800012B4260037204D06578032D01D0052DE8
:1039B80002D1A369DB6802E023B9A3691B69C06B64
:1039C80030BC1847014830BC704700BF009FFFFF5C
:1039D80038B50446B0B10368A3B199B1102A0FD81D
:1039E8001869C00703D4DD68AA4201D20AE0154667
:1039F8002A4604F1280010F09AFBA563002038BD80
:103A0800014838BD014838BD809FFFFF009FFFFF78
:103A180028B103681BB10023436218467047014868
:103A2800704700BF009FFFFF2DE9F74FDDF830809A
:103A38000F4615469946044608B95C48B2E0036843
:103A4800002BFAD0B8F1000FF7D00023C8F80030E7
:103A5800FFF786FE236806465B78012B10D190425B
:103A68007DD1C8F8000023680A469B6994F90810BC
:103A78005D684B46AC46E06B03B0BDE8F04F60476D
:103A8800062B0AD1C8F800204B460A462946E06BA7
:103A980003B0BDE8F04F04F0F1B9002861D0494502
:103AA80008D1626A002AC8D1B5FBF0F200FB1252B5
:103AB800002AC2D1022B56D194F90830606A2BB97A
:103AC800E3682BB1331A9D420FD804E0012B0CD1C7
:103AD800331A9D4209D220442A463946143010F040
:103AE80026FB636A1D44656237E010B3C0EB060A23
:103AF800204452463946143010F019FB234653F837
:103B0800142B94F9081092698DE8080204F128032F
:103B1800D2F808B0E06B3246D847002842D1D8F82E
:103B28000030B1443344C8F8003057446062CAEBEF
:103B3800050595B1B5FBF6FA06FB1A5ABAF1000F5E
:103B480013D0CAEB05055246791904F1140010F098
:103B5800EEFA636A5344636295B9002022E0144880
:103B680020E014481EE014481CE094F90830002BAB
:103B7800E7D1E368002B0CBF4FF0000AB246E0E73C
:103B8800236894F908109B698DE880022A469E688C
:103B9800E06B04F12803B04720B9D8F800301D4481
:103BA800C8F8005003B0BDE8F08F00BF009FFFFFCA
:103BB800809DFFFF809CFFFF809FFFFFF7B50E46AB
:103BC80015460446002852D00368002B4FD0002A1F
:103BD8004DD00023136007687A78032A4DD0511F0F
:103BE80002294AD9012A01D1636A16E0022A40D182
:103BF80090F90830012B09D1C368002BF4D0A16BD0
:103C0800143001B9F968626A98470BE0FFF7A8FD1C
:103C1800636A984206D0E2686ABB002B184808BF5E
:103C280000202BE02046FFF79BFD234653F8142B7A
:103C380094F9081092698DE8480004F12803976800
:103C48000246E06BB8470346B8B994F90820204605
:103C58004AB9FFF785FD2A4601463046236903B075
:103C6800BDE8F0401847FFF77BFD286005E00548F0
:103C780004E0054802E0024800E0184603B0F0BD41
:103C8800809DFFFF009FFFFF809FFFFF08B3036831
:103C98005B78022B1DD104291DD8DFE801F003074A
:103CA8000D1115000D4BC3600D4B02E00D4BC360A9
:103CB8000D4B0361002070470C4BC3600C4BF8E7B9
:103CC8000C4BC3600C4BF4E70C4A0023C360026141
:103CD800F0E70B4870470B48704700BF7337080878
:103CE8008D370808E137080899380808FD370808AB
:103CF8002138080871380808E9380808853808089C
:103D0800009FFFFF809FFFFF38B504460D4681B135
:103D180078B14022002110F030FAAB695B6998470E
:103D2800E06340B1256000212046FFF7AFFF002087
:103D380038BD024838BD024838BD00BF009FFFFFAC
:103D4800809EFFFFF0B585B005461F460B9E0C9C74
:103D5800FFF73EFEB0B92846FFF75AFE90B9009427
:103D680033460A9A39462846FFF75EFE50B921685D
:103D780003AA31442846FFF721FF18B92268039B9C
:103D88001344236005B0F0BD2DE9F04307681446DD
:103D98007F78079D062F089E099ADDF828E0DDF850
:103DA8002C90DDF83080DDF834C012D1C9F800203D
:103DB8000893CDF83480CDF830C0CDF82CE00A96C1
:103DC800099507940B46BDE8F0430121C06B04F048
:103DD80040B90148BDE8F083809FFFFF30B5056812
:103DE80087B06D780C46062D0C9917D10E9D296069
:103DF8000D9D05950B9D0495109D03950F9D0295AE
:103E08000A9D8DE828001346C06B224604F046F947
:103E1800044B10F1120F08BF184600E0024807B023
:103E280030BD00BF009DFFFF809FFFFF30B50368D6
:103E3800CD1A002D02DC6FF05F0030BD1C7814F045
:103E4800800F04D15C1C04601B78136036E004F01A
:103E58007F04013C032C38D8DFE804F00209132062
:103E6800012DE8D05B7813600368023325E0022D4A
:103E7800E1DD5C789B7843EA04231360036803332D
:103E88001BE0032DD7DD9C785D782402DB7844EABB
:103E980005441C431460036804330EE0042DCADD96
:103EA8009C785D78240444EA05651C79DB782C430A
:103EB80044EA032313600368053303600368C91ADF
:103EC80013688B42B7D8002030BD6FF0630030BD57
:103ED80070B404680E1B002E07DD26789E4207D1B9
:103EE8000134046070BCFFF7A1BF6FF05F0001E010
:103EF8006FF0610070BC704737B50123154601AA01
:103F08000446FFF7E5FF70B9019B012B09D123682F
:103F18001B78003318BF01232B602368013323600B
:103F280001E06FF0630003B030BD37B502231546DA
:103F380001AA0446FFF7CCFFC8B9019B013B032B3C
:103F480013D8236893F90030002B0EDB2860019802
:103F5800431E019358B123682A681B7843EA022359
:103F68002B60236801332360F1E76FF0630003B02F
:103F780030BD37B50223154601AA0446FFF7A8FF4E
:103F880040B9019A2168284607F0DDFE2268019BA6
:103F98001344236003B030BD70B5032304460E46B6
:103FA8001546FFF795FFD8B91368A3B1013B136015
:103FB80023681B78072B137110D8236801332360FB
:103FC800936022682B6813449E42236014BF6FF0ED
:103FD8006500002070BD6FF05F0070BD6FF063007A
:103FE80070BD38B5032304461546FFF771FF58B96D
:103FF80013685A1E012B2A6004D923685A1C2260B0
:10400800187808B16FF0670038BD2DE9F3411546FF
:104018001F4601AA302304460E46FFF759FF68BB26
:104028002268019B13449E421DD06FF0650025E075
:1040380023689E421AD91B7842462B6031463B467C
:104048002046FFF745FFC8B92368AB6022686B6854
:1040580013449E422360EBD91021012010F042F84E
:10406800E86048B1054605F10408E1E70020E8608A
:1040780023689E4202D0D8E76FF0690002B0BDE81D
:10408800F081F7B517461D4601AA302304460E46AF
:10409800FFF71EFF00283AD12368F61A002E31DDFB
:1040A8003A461B78204642F8043B2668019B1E448A
:1040B80031460623FFF70CFF48BB2368BB60226824
:1040C8007B68D1188E42216006D105F10C039D4210
:1040D80016D028700135FAE7D35C2A4642F8043B2B
:1040E80023683146013323602046FFF79FFE70B9ED
:1040F8002368AB6022686B6813449E42236004D136
:10410800002004E06FF05F0001E06FF0650003B08D
:10411800F0BD1FB5002301930293039301ABFFF792
:10412800B0FF60B9019B052B00D033B9029B002B6F
:1041380014BF6FF06700002001E06FF0670005B062
:104148005DF804FB01F004BC01F0E2BB10B50446C5
:1041580001F0D4FB2046BDE810400DF0BFBC10B5FF
:104168005C2101200FF0BEFF044608B101F0C2FB3C
:10417800204610BD02F0D8BB02F09CBB01F0CEBBBC
:10418800FEF72CBDFEF7D4BC10B50446FEF7C6FCFE
:104198002046BDE810400DF0A1BC10B56C210120EF
:1041A8000FF0A0FF044608B1FEF7B4FC204610BD8E
:1041B8000123FFF74EB90023FFF74BB9FFF7B2B859
:1041C800FFF776B80121FEF7B9BC0021FEF7B6BCAF
:1041D8000AF05EB90AF0BAB810B504460AF0ACF8AD
:1041E8002046BDE810400DF079BC10B5D82101205B
:1041F8000FF078FF044608B10AF09AF8204610BD7F
:1042080001230BF000B900230BF0FDB80AF0C8BF7A
:104218000AF07EBF01210AF09FB800210AF09CB87D
:1042280001440023884202D003700130FAE7704746
:104238002DE9F04F95B01E9D04AE07460C469146F9
:1042480000214022304601930DF150080FF095FFF0
:104258000023286848F8443D04F036F982467CB3C8
:1042680054452846A34628BFD34604F03DF80246E5
:1042780038BB019A4946284604F040F8024600BB7C
:1042880004224146284604F039F80246C8B93146A6
:10429800284604F03DF8024698B93B465A4507D0EF
:1042A80013F8010BB15C0132414003F8011CF5E73A
:1042B8009DF80F30174401338DF80F30A41ACEE75C
:1042C800224630464021FFF7ABFF104615B0BDE847
:1042D800F08F00002DE9F3471D4600230E46914656
:1042E800DDF8288000930193044628B303F0A8FF63
:1042F8000646002863D020466A4601A901F0B0FAB4
:10430800044600285BD1304604F0DEF8009F0646DC
:10431800074407F108037F2B51D810F10A024ED247
:1043280007F10A039A424AD89D4248D3A5F10A03E5
:10433800DF1B0A2F06D842E08D4240D36D1A0A2DA2
:104348003DD93EE0C246033F0AF8024B01233A46F4
:1043580088F80130FF2150460FF00FFF0AEB0703E2
:1043680030210AF807405970009FD97007F10802F8
:1043780032449A70FAB2111D03F1070A1971062125
:1043880059719A7101993A4650460FF0D0FE0522AC
:104398000AEB07030AF8072004229F189A70DE70B8
:1043A8005C703246494638460FF0C1FE3E4408EB81
:1043B80005039E4219D029464046FFF731FF0D4CB0
:1043C80013E04346EF1E03F8020B012288F8012090
:1043D800FF213A4618460FF0D0FE0346C455A81EE2
:1043E8003246494618440FF0A2FE204602B0BDE806
:1043F800F08700BF80BFFFFFF8B500F108054768E8
:10440800044628460E4607F098FC874217D1636891
:10441800B3F5806F13D80021284607F05FFE002807
:104428000DDD0021284607F03EFC40B1EEB104F155
:104438002C050021284607F051FE002801DC1A4807
:10444800F8BD0021284607F02EFC0028F7D004F11B
:1044580038050021284607F041FE0028EFDD00213D
:10446800284607F020FC0028E9D0002104F11400B8
:1044780007F034FE0028E2DDA6B1002104F1440073
:1044880007F02CFE0028DADD002104F1500007F0C7
:1044980025FE0028D3DD002104F15C0007F01EFE94
:1044A8000028CCDD0020F8BD80BFFFFF2DE9F843D0
:1044B800099F044698460B9E0D9D49B100F10809D5
:1044C800484607F040FC50BB484607F036FC6060A1
:1044D800B8F1000F01D147B90EE0089A414604F13E
:1044E8002C0007F030FCD0B9F5E70A9A394604F1F8
:1044F800380007F028FC90B936B10C9A314604F11F
:10450800200007F020FC50B935B10E9A294604F175
:10451800140007F018FC10B90020BDE8F883A0F5D6
:104528008140BDE8F88300002DE9F04F00F1080B49
:1045380087B007460021584607F0D0FD07F12C093F
:1045480000218046484607F0C9FD07F1380A059062
:104558000021504607F0C2FD07F12003002105465F
:104568001846029307F0BAFD07F1140304900021DE
:104578001846039307F0B2FD059B049A4BB125B189
:104588002AB1061C18BF012613E02E4611E0164674
:104598000FE0B8F1000F03D144464646002224E05C
:1045A800CDB91AB1F0B9064604460EE02E462C469F
:1045B8000DE0ADB192B9041C18BF0124B8F1000F89
:1045C800ECD0002BEAD1002DE8D1002AE6D1002852
:1045D800E4D0012209E01C461E46DFE70024EDE78F
:1045E8002C46DBE701262C4602E0002E3DD00026B3
:1045F80004940124B8F1000F0BD153B14DB15246C8
:104608004946584607F089FE28BB584607F095FBEF
:10461800786046B1CDF800A04B46029A03995846F7
:104628000BF0D6F807E0049B33B1029B039A51467E
:1046380048460BF0C9F970B984B107F15C030193DE
:1046480007F150030093029A07F144035146484684
:104658000BF05EFB10B1A0F581400CE02146384616
:1046680007B0BDE8F04FFFF7C7BE0CB912B1264638
:104678000494BFE7014807B0BDE8F08F80BFFFFF93
:1046880070B504460E4615460021AC220FF075FDA4
:10469800C4F8A460C4F8A85070BD40687047000012
:1046A80070B500210446FFF7A7FE0546B8B904F126
:1046B8000806304607F021FB7F2810D91434294614
:1046C800204607F0F0FA50B1204607F016FB012803
:1046D80005D93146204607F0BCFC002800DB014D17
:1046E800284670BD00BEFFFFF0B585B00446FFF751
:1046F800D7FF28BB01212046FFF77EFE00BB04F14F
:10470800140304F12C0504F1380604F12007029083
:104718000190009332463B46294604F108000BF00D
:1047280031FA68B904F15C03019304F15003009372
:104738003A4604F14403314628460BF0A3F900B188
:10474800014805B0F0BD00BF00BEFFFF38B5054603
:104758000C46FFF7A5FF50B92046FFF7C5FF30B953
:1047680004F1080105F1080007F073FC08B10548D9
:1047780038BD04F1140105F1140007F06AFC0028A3
:10478800F5D138BD00BEFFFF2DE9F0410C4686B0DB
:10479800002105461746FFF72FFE064678BB03A8FB
:1047A80007F0F2F921466A6803A807F0CCFA044634
:1047B800F0B905F10804214603A807F04AFC0028CF
:1047C80014DA05F1680303A9009305F114022346DE
:1047D8000846D5F8048008F00EF8044640B9424669
:1047E800394603A807F0E4FA044601E06FF0030431
:1047F80003A807F0D0F91CB1A4F5854600E0024EE5
:10480800304606B0BDE8F08180BFFFFF2DE9F04FCC
:104818000E46A5B00121044692461D46FFF7ECFD61
:104828000390002840F09B8106A807F0ADF909A87D
:1048380007F0AAF90CA807F0A7F90FA807F0A4F940
:104848002EB118A807F0A0F91BA807F09DF912A827
:1048580007F09AF915A807F097F91EA807F094F938
:1048680021A807F091F96268294606A807F06BFAB3
:104878000746002840F0508104F10805294606A89B
:1048880007F0E7FB002880F2438106A91EA807F07D
:10489800C4F90746002840F03F8104F1500304F1B1
:1048A80044090493002E00F0C580D4F8A03023B347
:1048B80004F18C0842464146404607F02EFD074663
:1048C800002840F029812A464146404607F061FF0A
:1048D8000746002840F0208104F1980842464146E6
:1048E800404607F01AFD0746002840F015812A4681
:1048F8004146404607F04DFF37E00C23059304F18D
:10490800980B04F18C08059B013B059300F02A8164
:104918006168534632460139584608F010FA07468E
:10492800002840F0F9802A465946404608F082F9A6
:104938000746002840F0F0800121404607F0CEFBF2
:104948000028E0D12A465946404608F01BFA074697
:10495800002840F0E18004F16803009304F1140298
:104968002B464146404607F046FF0746002840F0E0
:10497800D38006A904F18C02084607F0CEFC07464E
:10498800002840F0C98006A92A46084607F001FF1A
:104998000746002840F0C080012204F12C0109A834
:1049A80007F0A5FC0746002840F0B680012204F174
:1049B80038010CA807F09BFC0746002840F0AC80A3
:1049C800534632461C210FA808F0B9F907460028BB
:1049D80040F0A2800FAA09A918A807F09EFC074674
:1049E800002840F0998018A94A46084607F026FC96
:1049F8000746002840F09080534632461C210FA8F5
:104A080008F09DF90746002840F086800FAA0CA9F7
:104A18001BA807F082FC074600287DD11BA9049A31
:104A2800084607F00BFC0746002875D11BAB04931A
:104A38000DF1600904F1740304F12C0800934A464F
:104A4800434606A912A807F0D6FE0746002863D1F8
:104A580004F1800304F138090093049A4B4606A92F
:104A680015A807F0C8FE0746002855D115AA12A9AF
:104A780006A807F004FC074600284DD104F15C02A3
:104A880006A912A807F049FC0746002844D1424667
:104A980012A906A807F07DFE074600283CD14A4621
:104AA80006A912A807F039FC0746002834D112AA33
:104AB80015A906A807F0C2FB074668BB66B904F14A
:104AC8006803009304F114022B4606A921A807F0F5
:104AD80092FE074600BB0FE006A904F198020846BB
:104AE80007F01BFC0746B8B906A92A46084607F08E
:104AF80050FE074680B9E2E71EA921A807F0A9FAE7
:104B080048B962682E9906A807F052F9074603E0EB
:104B18006FF0030700E0164F09A807F03CF80CA84F
:104B280007F039F80FA807F036F82EB118A807F0E3
:104B380032F81BA807F02FF806A807F02CF812A8DF
:104B480007F029F815A807F026F821A807F023F898
:104B58001EA807F020F83FB1A7F5864300E0054BF3
:104B6800039301E0044FD7E7039825B0BDE8F08F21
:104B780080BCFFFF80BFFFFF80BBFFFF2DE9F04F28
:104B8800012B8BB080468B4603920493169F189E88
:104B980005D1D0F8A430012B01D040487AE0BBF110
:104BA800000FFAD098F8A80003F04AFB02900028FA
:104BB800F3D0D8F8044003F087FC43000593420083
:104BC800BB1C13449F420546E7D89C42E5D32246C6
:104BD800002130460FF0D1FA06F1010900233370A5
:104BE8002A4649460398D84710B1A0F5894051E0B4
:104BF80009EB050A5346159A1499029803F092FB9B
:104C0800002847D10590A01EC01B6B002844C01A7D
:104C180001220AF80020104417993A46504407AF79
:104C28000FF085FA384603F017FB059B02991A46E0
:104C3800384603F037FB0246A8B905F1010A013CE2
:104C4800B244641B4A4600972B4621465046FFF75C
:104C5800EFFA024638B95246009723462946484695
:104C6800FFF7E6FA024607A8029203F0FAFA029A58
:104C78007AB9049B2BB9324631464046FFF784FD8A
:104C880008E000963346039A59464046FFF7BEFDB2
:104C980000E010460BB0BDE8F08F00BF80BFFFFFFB
:104CA8002DE9F74F9A46BAF1010F07468946934610
:104CB800DDF830800D9B0E9E03D1D0F8A420002A89
:104CC80055D1B9F1000F52D0002B50D0002E4ED044
:104CD80018F10B027C684AD2944248D33546033C0B
:104CE8000022C8EB040405F8022BBAF1000F18D112
:104CF800022272702C44A5421CD064220092012228
:104D0800294658460193C8472A78019B8ABB009ACE
:104D1800013A009202D1A0F589402EE00028EED099
:104D2800F9E7012272702C44FF22AC4202D005F848
:104D3800012BFAE72046002200F8012B19464246CB
:104D48000FF0F5F9BAF1000F07D13246314638466F
:104D580003B0BDE8F04FFFF717BD33465A46494642
:104D680038460C9603B0BDE8F04FFFF74FBD044836
:104D780003E00028CFD10135BDE703B0BDE8F08FCF
:104D880080BFFFFFF0B587B0D0F8A4700CAC70CC32
:104D980057B1012F10D10294002404960395019471
:104DA8000094FFF7EBFE08E00E960D950C9407B003
:104DB800BDE8F040FFF774BF014807B0F0BD00BF81
:104DC80000BFFFFF2DE9F04F012BADF2644D064601
:104DD8008A4603929B4605D1D0F8A430012B01D016
:104DE8005C48B2E07768A7F11003B3F57C7FF7D889
:104DF80096F8A80003F024FA02900028F0D003F0F7
:104E080063FB00F101084FEA4805AF420446E7D3C7
:104E18000DF16009BBF1000F06D14A46DDF8941484
:104E28003046FFF7B1FC08E0CDF80090DDF8943487
:104E3800039A51463046FFF7E9FC824600283CD1E8
:104E480005AE304603F008FA52460299304603F0A0
:104E580029FA824608B130463BE007F1FF3BC844D7
:104E6800C4EB0B0B00965B46424621460DF16100F0
:104E7800FFF7DEF9824658BB009623460DF1610222
:104E880059464046FFF7D4F9824608BB24E0885CBF
:104E980080F0010050EA0E0351D10132114418AAE2
:104EA8008A1ADDF89C04BA1A82424BD8DDF89004BD
:104EB8000260DDF898040FF03AF94FF4806118A801
:104EC800FFF7AEF908A84021FFF7AAF950463CE0E1
:104ED80005A803F0C6F9F0E7304608AE03F0C1F9BB
:104EE8003346DDF88C24DDF88814029803F01AFAAA
:104EF80082460028E1D150460DF1610399F800E09F
:104F08001919A04208D2325C11F800C0013082EAB7
:104F18000C0C4CEA0E0EF4E7214400240E462246FF
:104F28007D1B0D44B542B2D016F8010B0443604214
:104F38002043C0F3C01080F001000244F2E7DFF81C
:104F480018A0BAE7DFF814A0B7E70DF2644DBDE882
:104F5800F08F00BF80BFFFFF00BFFFFF00BCFFFF57
:104F6800F0B5012BADF20C4D1D4603D1D0F8A4309D
:104F7800002B7FD14768A7F11003B3F57C7F79D860
:104F880002AE45B93246DDF82414FFF7FDFB0446AE
:104F9800002868D12FE00096DDF82434FFF736FCAE
:104FA800044600285FD1012D327825D10146864676
:104FB8007378FD1E83F002031343A94212D27218BC
:104FC8009078013142421043C0F3C01080F00100D4
:104FD8000443E4B262422243C2F3C01282F00102E7
:104FE8009644EAE70DF10A020EF10101114412F8A4
:104FF8000E2013431EE032787378FC1E83F0010301
:105008001343002211469646A1420BD270188078AD
:105018000131FF2818BF42F0010282F00100C0B23E
:105028008644F1E70DF10A0212F80E500EF1010163
:1050380011442B43BEF1070F8CBF1C4643F00104FB
:1050480064B26CB98A1BDDF82C34BA1A9A4209D8B2
:10505800DDF82034DDF828041A600FF068F802E063
:10506800064C00E0064C30464FF48061FFF7D8F854
:10507800204600E003480DF20C4DF0BD00BFFFFFD5
:1050880000BCFFFF80BFFFFFF0B587B0D0F8A4E0F9
:105098000CACF0CCBEF1000F0CD0BEF1010F12D158
:1050A8000294002405970496039501940094FFF751
:1050B80089FE09E00F970E960D950C9407B0BDE890
:1050C800F040FFF74DBF014807B0F0BD00BFFFFF3C
:1050D8002DE9F04F012B9DB080468A460492059336
:1050E8009DF89800299C05D1D8F8A430012B01D04F
:1050F8005848ABE0BAF1000FFAD0D8F8046030B1E4
:1051080003F09EF80028F3D003F0DEF9279098F812
:10511800A80003F095F883460028E9D003F0D4F9F5
:105128004500AB1C9E420746E2D33246002120468A
:105138000FF023F83A460CA90498D04710B1A0F50F
:10514800894083E008F1080307901846039306F0A6
:10515800D4FD751B05F1FF3901222544A14405F84A
:10516800022C0CA93A46069009AD48460EF0DFFF1E
:10517800284603F071F8079B59461A46284603F05B
:1051880091F8024600284AD1284603F0ADF80246B5
:10519800002844D109EB070B08225946284603F09A
:1051A800ADF8024600283AD1279A2899284603F0F4
:1051B800A5F8024698BB3A460CA9284603F09EF883
:1051C800024660BB5946284603F0A2F8024630BBA7
:1051D800069B711E013B13F0070F0CBF0120002036
:1051E800C91B5A46091A00953B462044FFF720F888
:1051F8000246A0B90690039806F07FFDC0EBC600F2
:1052080023780130FF2646FA00F01840BC232070AE
:10521800402109F817300CA8FFF702F8069A28462B
:10522800039203F01EF8039A7AB9059B2BB922461C
:1052380021464046FFF7A8FA08E000942346049A5E
:1052480051464046FFF7E2FA00E010461DB0BDE8BF
:10525800F08F00BF80BFFFFF2DE9F347012B894680
:105268000BA90546924686C91C469DF8280003D11D
:10527800D5F8A430002B4BD100976B68FFF72AF8BC
:10528800002849D13CB93A463946284602B0BDE81B
:10529800F047FFF779BA6C68012021460EF022FF2B
:1052A8000646B8B3214601200EF01CFF804618B907
:1052B80030460CF013FC2DE000963B46524649461A
:1052C8002846FFF7A3FA0446D0B942463146284695
:1052D800FFF75AFA044698B9034602466D68AA428F
:1052E80007D018F80200B95C013241400B43DBB229
:1052F800F5E723B9314638460EF019FF00E0084CAF
:1053080030460CF0EBFB40460CF0E8FB204603E08F
:10531800044801E06FF00F0002B0BDE8F08700BF5D
:1053280000BDFFFF80BFFFFFF0B5D0F8A4E006ADD9
:105338009DF81440E0CDBEF1000F0AD0BEF1010F78
:105348000FD10897079606950594BDE8F040FFF73A
:10535800BFBE0897079606950594BDE8F040FFF78D
:105368007BBF0148F0BD00BF00BFFFFF2DE9F04F34
:10537800012BADF2644D05469DF8888405D1D0F81F
:10538800A400012801D06148BBE06F68A7F11000B4
:10539800B0F57C7FF7D818AE33B93246DDF89C14E7
:1053A8002846FFF7F1F905E00096DDF89C34284619
:1053B800FFF72CFA002840F0A4807C1E335DBC2B3C
:1053C80040F09E80B8F1000F08D0404602F038FF48
:1053D8000028D8D003F078F8CDF88C049DF8940410
:1053E80002F02EFF81460028CDD003F06DF800238F
:1053F800824605F108000393049306F07EFCFB0047
:1054080000F1FF383278C3F10803434452FA03F33A
:10541800B9D118F0070F08BF27460AF102030CBFDD
:105428000DF1610535469F42ADD305AC204602F02B
:1054380013FF00224946204602F034FF8346002825
:1054480059D16FEA0A01394405EB01090094534622
:105458004A462846FEF7ECFE834600284BD1C8EBA7
:10546800C70733784FF0FF0848FA07F71F4037702F
:1054780009F1FF329542294603D20B780135002BFA
:10548800F8D00B78012B34D1DDF898344D1C5A1C18
:10549800C5EB090601D09E422BD1204602F024FF1D
:1054A800834640BB082203A9204602F027FF834613
:1054B80008BBDDF88C24DDF89014204602F01EFFAE
:1054C8008346C0B932462946204602F017FF834674
:1054D80088B908A9204602F01BFF834658B95246EE
:1054E80008A948460EF014FE094A002818BF93463A
:1054F80001E0DFF820B0204602F0B3FE584600E095
:1055080004480DF2644DBDE8F08F00BF80BFFFFF77
:1055180080BCFFFF00BFFFFF70B5D0F8A84086B081
:105528009DF828500CB1E4B200E02C4603940C9C82
:105538000D9E02940B9C05964FF0FF36049601943D
:105548000095FFF713FF06B070BD00002DE9F74F77
:10555800012B80468A4693469946456802D1D0F881
:10556800A430EBB9294601200EF0BCFD0646C8B1AF
:10557800294601200EF0B6FD0746C0B96FF00F04AA
:1055880030462946FEF74CFE30460CF0A7FA67B1C4
:1055980038462946FEF744FE38460CF09FFA04E0E8
:1055A8001B4831E06FF00F002EE020462CE0009001
:1055B8002B460E9A0D999DF83000FEF78BFE044697
:1055C8000028DDD1B9F1000F05D132460F994046C8
:1055D800FFF7DAF806E000960F9B5A465146404618
:1055E800FFF714F904460028CAD103469D4206D0A5
:1055F800F05CFA5C013350400443E4B2F6E7002C57
:10560800044C08BF0024BBE703B0BDE8F08F00BF1F
:1056180080BFFFFF80BCFFFFF0B5D0F8A4E006AD67
:105628009DF81440E0CDBEF1000F0AD0BEF1010F85
:105638000FD10897079606950594BDE8F040FFF747
:105648006BBF0897079606950594BDE8F040FFF7ED
:105658007DBF0148F0BD00BF00BFFFFF10B5044685
:105668008C3006F098FA04F1980006F094FA04F1E8
:10567800680006F090FA04F1200006F08CFA04F1B4
:10568800380006F088FA04F12C0006F084FA04F1D8
:10569800140006F080FA04F1080006F07CFA04F120
:1056A800800006F078FA04F1740006F074FA04F148
:1056B8005C0006F070FA04F1500006F06CFA04F190
:1056C8004400BDE8104006F066BA73B51C460D46A6
:1056D800164601F0E3F9032E019088BF01984FF0B8
:1056E8000003236084BF286004234FF0000088BFB4
:1056F800236002B070BD000038B5054660B1084CA3
:10570800206858B162686B689A4203D1A9680EF0A4
:10571800FFFC10B11434F3E738BD204638BD00BF94
:105728001051090870B50E46054660B1094C20684D
:1057380048B162686B689A4203D1A9680EF0E8FC28
:1057480020B11434F3E76FF02D0070BD2369336086
:1057580070BD00BF0046090870B50E46054660B129
:10576800094C206848B162686B689A4203D1A968FD
:105778000EF0CEFC20B11434F3E76FF02D0070BDAD
:105788002369336070BD00BF2852090870B50E4602
:10579800054660B1094C206848B162686B689A4256
:1057A80003D1A9680EF0B4FC20B11034F3E76FF010
:1057B8002D0070BDE368336070BD00BF90470908D5
:1057C80010B50C46FFF798FF18B1C3680020236096
:1057D80010BD6FF02D0010BD38B50D461446FFF70B
:1057E8008BFF28B1037C2B70437C0020237038BDCD
:1057F8006FF02D0038BD000070B50E46054660B14B
:10580800094C206848B162686B689A4203D1A9685C
:105818000EF07EFC20B11434F3E76FF02D0070BD5C
:10582800237C337070BD00BF0048090870B50E4670
:10583800054660B1094C206848B162686B689A42B5
:1058480003D1A9680EF064FC20B11434F3E76FF0BB
:105858002D0070BD237C337070BD00BF504809080F
:1058680030B5084B1C684CB11D7C854204D10C60D6
:105878005B680020136030BD1433F3E76FF02D0030
:1058880030BD00BF9850090870B50E46054660B196
:10589800094C206848B162686B689A4203D1A968CC
:1058A8000EF036FC20B11434F3E76FF02D0070BD14
:1058B800237C337070BD00BFB0510908F8B50F469E
:1058C8001646054660B10A4C206848B162686B68A4
:1058D8009A4203D1A9680EF01BFC20B11434F3E7F7
:1058E8006FF02D00F8BD237C3B70637C3370F8BDEE
:1058F8005C5009085C2200210EF03FBC38B100F171
:105908005C020023904202D003700130FAE770472E
:1059180008B55C220EF00BFC08BD000003460A4ADD
:1059280000209A6002F18832DA6002F12942A2F579
:105938009612A2F68B621A61A2F188325A61034A62
:10594800186058609A61704701234567F0E1D2C337
:105958002DE9F04F4B780A781B0443EA0263CA78B2
:1059680097B013438A7891F808C043EA0223069354
:105978004B790A791B0443EA0263CA7991F80C80CF
:1059880013438A7991F814E043EA022307934B7A88
:105998000A7C1B0443EA0C6391F80BC00F7E43EAB0
:1059A8000C0391F80AC0019043EA0C2C4B7B1B04B2
:1059B80043EA086391F80F8043EA080391F80E80E0
:1059C80043EA08284B7C1B0443EA0263CA7C13435E
:1059D8008A7C43EA02230E934B7D1B0443EA0E6341
:1059E80091F817E043EA0E0391F816E043EA0E2314
:1059F8000F934B7E1B0443EA0763CF7E0E7F3B4326
:105A08008F7E91F8204043EA072310934B7F91F84B
:105A180024201B0443EA0663CE7F91F82C0033430D
:105A28008E7F43EA0623119391F821301B0443EA41
:105A3800046391F82340234391F8224043EA042366
:105A4800099391F825301B0443EA026391F8272053
:105A5800134391F8262043EA02230A9391F8293048
:105A680091F828201B0443EA026391F82B20134382
:105A780091F82A2043EA02230B9391F82D301B0456
:105A880043EA006391F82F00034391F82E0043EA9C
:105A980000230C9391F8313091F830001B0443EA4D
:105AA800006391F83300034391F8320043EA00237E
:105AB8000D9391F8353091F834901B0443EA09634B
:105AC80091F8379091F8382043EA090391F8369015
