:020000040808EA
:100000000000080868A10908000005000A000501B1
:080010000402CF000000000013
:100018001462090809480A4908B5884205D0094AFE
:10002800824202D0121A13F0D6FE0748074A00216E
:10003800121A13F0F6FE064808BD00BF000400209F
:100048000CA009083405002038050020743C002065
:10005800743C002070B511F089FE074B074C1E4612
:10006800E41AA4080025A54204D056F8253098477C
:100078000135F8E770BD00BF649F0908F89F0908BB
:1000880000F01EB908B500F049FABDE8084011F0C3
:100098002BBE10F095BF10F093BF10F099BF10F071
:1000A80097BF0078B0FA80F04009704701230370C9
:1000B8007047000038B5074B04460360806830B1CC
:1000C8004368E360056810F083FF2846F7E7204699
:1000D80038BD00BF306209080B68002B12BF062329
:1000E80000230021037081600120704770B5826889
:1000F80004460D4622B19368033323F0030393604B
:10010800A2684AB193685068E918814204D802F19C
:100118000C009160184470BDE668AE4238BF2E46A8
:1001280006F10C0010F04CFF78B1002383604660A4
:10013800A36800F10C020360E368A0605B00E36061
:1001480083681D448560D01870BD70BD024608469E
:1001580019B10B6811461B68184770474268134667
:1001680083B111B11B680139FAE7934202D11B68C8
:100178004360704732B111688B4204BF196811603F
:100188001268F7E77047000038B5084D2B6813F080
:10019800010409D12846FFF784FF28B1044B2846FB
:1001A8001C605C60FFF782FF014838BD48050020ED
:1001B8004C05002010B5014604460820FFF7C6FF8D
:1001C80018B100230460436010BDFFF7DDFF10BDC8
:1001D80038B50546006810B9FFF7D6FF38BDFFF7F8
:1001E800E9FF296804461820FFF7B0FF10B1002383
:1001F800036003726B682BB11A680AB11346FBE7F8
:10020800186000E0686018B121460830FFF764FF05
:10021800204638BD406860B111B100680139FAE77D
:1002280000324FF0030318BF0122037202614161DB
:100238000120704738B50D4644687CB1A16805B106
:1002480019B94B1B5842584105E0284613F00DFEDA
:10025800B0FA80F0400908B92468EEE7204638BDB6
:1002680010B5044601682020FFF770FF10B1002385
:100278000360037463682BB11A680AB11346FBE77D
:10028800186010BD606010BD70B5064600680D4668
:1002980010B9FFF779FF70BDFFF78CFF04466DB109
:1002A80029463046FFF7C6FF20B93046FFF7D8FF8A
:1002B80020B1856021461030FFF70EFF204670BD43
:1002C800F0B5E1B011F00EFE4FF4165111F0F0FD4B
:1002D80041F2883011F090FC0121062011F076FFE0
:1002E8000021062011F083FF4FF416516F4810F0DB
:1002F80075F86F496D4810F07AF84FF4FA7011F0FC
:100308007BFC6C49694810F072F84FF4FA7011F0F0
:1003180073FC6948694F036813F001041CD1FFF7A7
:10032800C0FEC8B1664D08202946FFF70FFF10B17F
:10033800056044600CE0634E634C336813F00105BC
:1003480005D13046FFF7ADFE002840F0A8805E4892
:1003580038605948FFF7AAFE3B685C4C5C4D236047
:100368002B685C4E13F0010F0BD12846FFF799FE5E
:1003780038B159492068FFF787FF30602846FFF7F2
:1003880095FE3268554B564D1A602B68554E13F042
:10039800010F0BD12846FFF784FE38B15249206877
:1003A800FFF772FF30602846FFF780FE32684F4B38
:1003B8004F4D1A602B684F4E13F0010F0BD1284692
:1003C800FFF76FFE38B14C492068FFF75DFF3060DA
:1003D8002846FFF76BFE494B3268494C1A6011F00A
:1003E80081FD0021022010F0ABFD10F021FC2068F7
:1003F8000FF034FA20AD80220021684613F011FD79
:1004080040AF80220021284613F00BFD80220021F6
:10041800384613F006FD3B4B002618681B79009000
:100428008DF8043011F05EFD374911F01AFA2A46AA
:10043800694620680FF039FA11F054FDAB5D334A74
:100448000021013611F034FB102EF5D111F04AFDD0
:1004580011F00EFA11F046FD2D4911F002FA20684C
:100468003A4629460FF02EFA002411F03BFD3B5D79
:10047800284A0021013411F01BFB102CF5D111F092
:1004880031FD11F0F5F90021022010F059FD10F0AE
:10049800D7FB10F075FB204B186061B0F0BD3046FB
:1004A80025606560FFF702FE204651E764050020DD
:1004B8003462090866620908E8050020E0050020A2
:1004C800D00500203C050020400500205C050020E8
:1004D800E40500206005002077620908C4050020B3
:1004E80058050020BC05002080620908540500203A
:1004F800C0050020CC05002089620908B805002045
:10050800742A00209262090898620908766309082B
:10051800A9620908BA620908C80500202DE9F04F48
:1005280087B011F0A9FD03681B69984778B18D4819
:100538000FF0CEFE8B480FF05DFF0028F1D0894800
:100548000FF05EFF014687480FF074FFE9E710F0EF
:1005580017FB854C2368C01AB0F5FA6F35D910F02F
:100568000FFB206011F0BEFC804911F08DF911F0ED
:10057800B9FC7F4911F088F911F0B4FC7D4911F0FC
:1005880070F911F0AFFC774D0646A86912F0E4FA4D
:10059800022402460B463046009411F07BFA11F013
:1005A800A1FC754911F05DF911F09CFC0646E8695B
:1005B80012F0D2FA009402460B46304611F06AFA5D
:1005C80011F090FC6D4911F05FF96D4E6D4D6E4C58
:1005D800306810F015FB286810F012FB206810F046
:1005E8000FFB6A4BB3461A7803950494002A00F06F
:1005F800AE800124664B674D1E6829463046FFF7DA
:1006080019FE20B93046FFF72BFE30B18560042370
:100618000374E2B20023C0E906235F4B1A781D4633
:10062800B2B1DFF894815D4E5D4F0024D8F80030F8
:100638009C420BDA3068FFF7CBFD242202FB0472E0
:1006480021463068FFF7E6FD0134EFE700232B7001
:100658004E4E3378002B36D0DFF860A1DFF8548196
:100668000025DAF800309D422BDAD8F80000FFF7B1
:10067800AFFD2B46D8F800204A4854680068A90006
:10068800ECB113B12468013BFAE74758002F65D055
:1006980013683846059313F0FAFB059B00F101092E
:1006A8001A684946126818469047059038B14A4674
:1006B800394613F090FB0222059B22722361013513
:1006C800CFE700233370384B1A781D46AAB1DFF8FC
:1006D800F080364E364F0024D8F800309C420ADAB3
:1006E8003068FFF775FD07EBC40221463068FFF755
:1006F80091FD0134F0E700232B70284D002421469A
:1007080028680134FFF72AFD1E2CF8D1294D002452
:10071800214628680134FFF721FD1E2CF8D1234D0E
:100728000024214628680134FFF718FD1E2CF8D153
:10073800DBF8000010F074FA039B186810F070FAE8
:10074800049B186807B0BDE8F04F10F069BA002A9A
:100758007FF44FAF141C18BF01244BE7022222720A
:10076800ACE700BF64050020C8050020BD62090889
:10077800D76209080E63090819630908CC690908D2
:100788006C290020B42A00209C2A00207829002007
:100798005C05002025630908982A0020B805002078
:1007A800B82A0020942A0020782A00205405002026
:1007B80084290020C4050020F02E00207C29002078
:1007C8008029002008B510F05BF90021012010F005
:1007D800AFFB032010F09CFB0FF0ECF910F0D0F900
:1007E8000A4B0B4918600B480B4B0C4A036000235B
:1007F80083604FF48073C36011F078FD11F03CFC06
:10080800BDE80840014606480FF0E2BDB4050020E7
:10081800BD000808D005002030620908380500200E
:100828006405002010F02CB910F02AB910F028B98E
:1008380010F026B930B50224017083700621F52323
:10084800C47504244270C38001220023017201761A
:1008580080F8204003210724027142748274C27414
:100868000275827542768276C276C27780F8214018
:1008780043728372C372037343738373C3730374C2
:1008880001774377837780F82230044680F8231075
:1008980080F82720024680F8241080F8253080F858
:1008A800263000250139E563A564656502F1020279
:1008B800A2F85E30A2F86430A2F86A3004F10404A9
:1008C800F0D14FF0000380F8803030BD10B51E2302
:1008D8006B220121FFF7AEFF10BD10B50446C0889A
:1008E80012F08CFD4FF0605112F0E0FD606710BD12
:1008F80010B50446C07D12F081FD4FF0605112F032
:10090800D5FDA06710BD000090F82030043B0C2BEB
:1009180014D8DFE803F0071313130A1313130D1386
:1009280013131000064B1B6807E0054B5B6804E0D7
:10093800034B9B6801E0024BDB68C367704700BF4D
:1009480000040020C388F52B07D0B3F5FA7F04D044
:10095800B3F5FA6F1CBFF523C380C27D102A03D8F4
:10096800084BD340DA0701D40223C37590F820203E
:10097800102A03D8044BD340DB0702D4042380F8A1
:1009880020307047140101001011010010B5044611
:10099800012190F8730011F019FC94F873000121FB
:1009A80011F025FC94F87200012111F00FFC94F865
:1009B80072000A4C012111F01AFC204610F064FB69
:1009C8002046082110F0B8FB2046012110F067FBF3
:1009D8002046BDE81040002110F064BB543B0020C5
:1009E800F8B50C4617461E46094D2046002111F061
:1009F800FEFB07F03F01284610F0B2FB31462846BF
:100A080010F0AEFB2046BDE8F840012111F0EFBB25
:100A1800543B0020F8B51E4690F8723002F03F02B1
:100A28008B429DF8187042F0800503D1012F88BFD2
:100A380045F040058CB22046002111F0D8FB29462C
:100A4800094810F08DFB3546AB1B9F4206DD00219F
:100A5800054810F085FB05F8010BF5E72046012154
:100A680011F0C5FB0120F8BD543B00201FB5012340
:100A780000930DF10F03FFF7CDFF9DF80F0005B0B0
:100A88005DF804FB08B511F011FCBDE8084011F051
:100A980057BB70B50E4615461C4611F007FC31468B
:100AA80011F060FB11F002FC036829469B68984727
:100AB80011F0FCFB036821469A68904711F0F6FB99
:100AC800BDE8704011F056BB1346027810B4012AF5
:100AD80005D10A4610BC90F87310FFF7DABF2AB99F
:100AE8000A4610BC90F87310FFF77ABF10BC704725
:100AF80010B50379044613B1037A5B01DBB2E288CF
:100B0800B2F5FA7F05D0B2F5FA6F04D143F01803B5
:100B180001E043F00803627A102102F003021A434D
:100B28002046FFF7D1FF002211212046FFF7CCFF16
:100B3800A37A002BE37A14BF802200222BB1237BF7
:100B480003F00F0343F040031A4312212046FFF736
:100B5800BBFFE37C002BA37C0CBF0022202213B137
:100B680042F01002D2B2637C0BB142F00802237D3E
:100B78000BB142F002021E212046FFF7A5FF637B5E
:100B8800002BA37B0CBF0022202213B142F01002DD
:100B9800D2B2E37B0BB142F008022046BDE8104018
:100BA8001321FFF791BF10B5C37E0446002B837E47
:100BB8000CBF0022202213B142F01002D2B2637E91
:100BC8000BB142F008021F212046FFF77DFFA27DEE
:100BD80012B1227E5201D2B2E37D082B06D0102B2F
:100BE80007D0042B07D142F0100204E042F01802AB
:100BF80001E042F0080294F91C302021002BA2BF2A
:100C080003F003031A4342F004022046FFF75CFF97
:100C1800627F2AB1A27F520102F0600242F0800294
:100C28002046BDE810402121FFF74EBF1346027849
:100C380010B4012A05D10A4610BC90F87210FFF7CB
:100C480028BF2AB90A4610BC90F87210FFF7C8BE30
:100C580010BC704710B590F822300446002B90F86D
:100C6800233008BF00224FEA431303F0600190F8D5
:100C7800213018BF80229B0003F01C030B431A434A
:100C88002021FFF7D3FF94F820302046083BDBB241
:100C9800082B96BF124A0022D25C2121FFF7C6FF1B
:100CA80094F825302046002B94F826300CBF0022FB
:100CB800202203F003031A432221FFF7B7FF94F819
:100CC80024202046920002F00C022321FFF7AEFFF9
:100CD8002046BDE8104000222421FFF7A7BF00BF2F
:100CE8002F63090838B50C46154611F0DFFA21467E
:100CF80011F038FA11F0DAFA036829469B68984728
:100D080011F0D4FA002111F031FA11F0CFFA0122D2
:100D1800214611F024FA11F0C9FA03685B69984773
:100D2800C0B238BD0A460178012903D190F8731082
:100D3800FFF7D8BF19B990F87310FFF797BE0020D6
:100D480070470A460178012903D190F87210FFF71D
:100D5800C9BF19B990F87210FFF788BE704738B547
:100D68000446437880F87330837880F87230FFF750
:100D7800E9FDFFF7B2FD2046FFF7C6FD2046FFF765
:100D8800B7FD2378012B03D12046FFF77BFE03E054
:100D980013B92046FFF7FAFD0F212046FFF7D1FFD0
:100DA8000F2105462046FFF7BDFF46F63D0345EAFD
:100DB800002005B29D420AD12046FFF799FE204641
:100DC800FFF7F1FE2046FFF745FF284638BD002013
:100DD80038BD2DE9F04190460C461D469DF8186037
:100DE8000FF0CEFE074611F061FA214611F0BAF96C
:100DF80011F05CFA036848F080019B68984711F08D
:100E080055FA002111F0B2F911F050FA2146324694
:100E180011F0A5F9002407F57A77B4421ADA11F02F
:100E280045FA03681B69984740B111F03FFA036817
:100E380004F101085B699847285544460FF0A0FE65
:100E4800B842EAD92C44FF23621B964205DD04F818
:100E5800013BF9E70120BDE8F0810020BDE8F08101
:100E680037B50D460178012907D190F87310009322
:100E780013462A46FFF7ADFF07E031B990F8731023
:100E8800009313462A46FFF7C5FD03B030BD37B5BA
:100E980006236A4628210446FFF7E2FF30B39DF88F
:100EA80000309DF801109DF8032043EA01219DF8C8
:100EB80002309DF8055043EA02229DF8043009B239
:100EC80043EA052394F8805012B21BB2E1852286CA
:100ED80063865DB1B4F86650491BE185B4F86810C3
:100EE800521A2286B4F86A209B1A638603B030BD72
:100EF80013B5022301AA15210446FFF7B1FF30B14B
:100F08009DF805209DF8043043EA0223638702B068
:100F180010BD37B506236A4618210446FFF7A0FF1F
:100F280030B39DF800309DF801109DF8032043EA86
:100F380001219DF802309DF8055043EA02229DF8F0
:100F4800043009B243EA052394F8805012B21BB268
:100F580021856285A3855DB1B4F86050491B218560
:100F6800B4F86210521A6285B4F864209B1AA385FB
:100F780003B030BD37B50D460178012907D190F887
:100F88007210009313462A46FFF723FF07E031B992
:100F980090F87210009313462A46FFF73BFD03B002
:100FA80030BD13B506236A4628210446FFF7E2FF41
:100FB800A0B19DF801209DF8003043EA0223A386E2
:100FC8009DF803209DF8023043EA0223E3869DF84A
:100FD80005209DF8043043EA0223238702B010BDA0
:100FE8000FF04EBD0FF04CBD10B50446283000F090
:100FF800CBFC28B104F50D70BDE8104000F0C4BC6E
:1010080010BD0FF03DBD0FF03BBD0FF039BD0FF027
:1010180037BD03685B6918470368DB68184710B574
:10102800037904466BB10121407911F0E0F8FF2102
:101038002068FFF7EEFF206803689B689847002345
:10104800237110BD38B50579044655B90068E179B2
:1010580003685B6898472946607911F0C8F801234E
:10106800237138BDF8B504460D4616460FF088FDC5
:1010780007462068FFF7D0FFFF28207207D10FF03E
:101088007FFDC01BB0F5967FF3D911230CE0FE2835
:1010980001D00F2308E020683246036829461B69FF
:1010A8009847207230B11C232046A371FFF7B7FF81
:1010B8000020F8BD2068FFF7AFFF2068FFF7ACFFFE
:1010C8000120F8BD70B506460C460FF059FD0546DF
:1010D8003068FFF7A1FFFF2806D00FF051FD401B35
:1010E800A042F5D3002070BD012070BDF7B503798B
:1010F80004460D4601920BB9FFF7A4FF4FF4167191
:101108002046FFF7DFFF45F040012068FFF781FF29
:101118000DF107060DF1030716F801192068FFF70E
:1011280078FFBE42F8D1002D0CBF95218721206899
:10113800FFF76FFF0C2D02D12068FFF76DFF002528
:101148002068FFF769FF0306207203D50135B5F55E
:10115800807FF5D103B0F0BD38B5437A1546032B2F
:1011680018BF49020A4611210446FFF7BFFF10B114
:101178000423A3710BE029464FF400722046FFF7C1
:1011880071FF054618B12046FFF749FF03E02046E6
:10119800FFF745FF0025284638BD10B5437A0A46B3
:1011A800032B18BF4A0212210446FFF79FFF30B1F4
:1011B80005232046A371FFF732FF002010BD012050
:1011C80010BD10B500220C210446FFF78FFF30B187
:1011D80003232046A371FFF722FF002010BD2046FD
:1011E800FFF71DFF012010BDF8B5054616461F463E
:1011F800FFF7D3FF98B10024A3B29F4206EB442126
:1012080008D94FF400722846FFF72CFF0134002854
:10121800F2D104E02846BDE8F840FFF7D2BF00202D
:10122800F8BD38B5044615460068FFF7F2FE206899
:101238004FF40072036829469B699847FF2120688C
:10124800FFF7E7FEFF212068FFF7E3FE2068FFF7BE
:10125800E3FE207200F01F00052806D01323204665
:10126800A371FFF7DCFE002038BD012038BD38B57A
:10127800437A1546032B18BF49020A46182104462B
:10128800FFF734FF10B10623A3710AE02A46FE21B6
:101298002046FFF7C6FF054618B12046FFF7BFFEF8
:1012A80003E02046FFF7BBFE0025284638BD70B591
:1012B80004460D460679FFF7C5FE4FF41671204621
:1012C800FFF700FF10B91723A3710BE02A46FC2192
:1012D8002046FFF7A6FF054620B13EB92046FFF796
:1012E8009EFE03E02046FFF79AFE0025284670BDC3
:1012F80070B5044616460D4600223721FFF7F6FE64
:10130800324617212046FFF7F1FE08B109230AE00B
:10131800637A1921032B18BF6D022A462046FFF76E
:10132800E5FE30B107232046A371FFF778FE0020C1
:1013380070BD012070BD38B50446FFF783FE4FF439
:1013480016712046FFF7BEFE70B1FD212068FFF739
:1013580060FE4FF416712046FFF7B4FE054618B13B
:101368002046FFF75CFE05E01223A3712046FFF735
:1013780056FE0025284638BDF8B517461A460546D4
:101388001E46FFF7B5FF70B10024B44207EB4421B5
:10139800284604D0FFF78BFF28B10134F5E7BDE8F4
:1013A800F840FFF7C8BF2846FFF739FE0020F8BD10
:1013B8000FF066BB014B01221A707047EC05002044
:1013C800704700000279024B53F822000FF061BE0B
:1013D8003863090870B506460C4603791A4D012191
:1013E80055F823000FF05BFE3379002155F82300F0
:1013F8000FF058FE022C0CD9042C0CD9082C0CD94F
:10140800102C0CD9202C0CD9412C34BF2821302188
:1014180008E0002106E0082104E0102102E018217C
:1014280000E02021337955F823000FF085FE1823BA
:1014380003FB04F132793C2302FB011191FBF3F128
:10144800024B196070BD00BF38630908F005002021
:101458000279034BFF2153F822000FF081BE00BF31
:10146800386309080279024B53F822000FF078BE5E
:101478003863090873B50C4B06790C4800250C4CE9
:10148800009350F8260013460A46294625700FF0A7
:101498006DFE2378002BFCD0064B186808B10FF0BE
:1014A80067FB002002B070BDBD1308083863090847
:1014B800EC050020F005002073B50D4B06790D48AA
:1014C80000250D4C009350F8260013462A46257037
:1014D8000FF04CFE2378002BFCD0084B186820B185
:1014E80002B0BDE870400FF043BB02B070BD00BF52
:1014F800BD13080838630908EC050020F005002032
:101508000FF0BEBA837800F1100263F07F03837096
:101518000169806800F0E2BA10B5044680680A469E
:101528002830A16900F057FA20B1A38803F00F030F
:1015380000EB431010BD2DE9F74F037804468946A8
:1015480015464BB18278D10706D50CE05A46216979
:1015580000F06BFA00283DDA63784FF0FF3043F073
:101568000203637098E01A0703D5E36962699B1A5E
:1015780007E09A0608D5A3681A896369C3EB421382
:101588009BB29D4228BF1D462E464FF0000804F12D
:10159800100B002E35D02278636912F0200FC3F3A8
:1015A800080AA0684FEA532102D0036A19441DE0D3
:1015B80090F8058001EA0808BAF1000F10D1B8F1D7
:1015C800000F0DD1002BC1D153064CBF036A236A0B
:1015D800236105E004D1237813F0700F11D1BBE724
:1015E8002169A06800F01BFA08EB0001A068BAF1B5
:1015F800000F35D1B6F5007F32D3026B914202D18C
:101608002EE0A81B48E0B6F5806F1BD32778C6F3F9
:101618004723BF0606D40779C8EB0707FFB2BB42CA
:1016280028BF3B4691424FEA432707D2A068026889
:10163800D2F808A04A46D04760B98DE71A449142CB
:1016480021D3F3E703684A461B689847002883D0EC
:101658004FF400776369B9443B446361F61B98E72C
:101668000022283000F0B7F900283FF475AFCAF51A
:101678000077B74228BF374600EB0A013A4648468A
:1016880012F0A9FBE6E78DE80A00FFF7ADFC9DE83C
:101698000A000028CAD15FE703B0BDE8F08F73B530
:1016A80001220DF10701044646690569FFF743FF6A
:1016B800012809BF9DF807004FF0FF3066612561DA
:1016C80002B070BD2DE9F0410E4601780446076965
:1016D800002939D04569B5423AD00EB9066131E0E2
:1016E8000B0703D5C3699E422ED807E0880605D5A7
:1016F800A3681B89B6EB431F26D823E0D4F808E07B
:101708006A1E9EF8063003F10900731EC240C340EA
:101718009A4200D84DB94A064CBFDEF82020226A0A
:1017280022611D4604F110080AE09B1AF9E74246B7
:101738002169A06800F079F9002805F1FF3503DD7B
:10174800002DF4D1666103E027610020BDE8F08137
:101758000120BDE8F081000038B5037804460BB9D4
:10176800012038BD90F90230002B23DA0121FFF760
:10177800D3FE054628B96378002043F0010363705F
:1017880038BD0378E52BF6D023781B0744BFE369FF
:10179800C361238C4383638C8382094B1B682BB101
:1017A80000F11601183098472B8B6B82A37803F051
:1017B8007F03A370A068FFF717FC0028DBD0CFE7F2
:1017C800F40500202DE9F047037804461D078946F3
:1017D800904608D58378990705D55B070BD5E1694D
:1017E800FFF770FF38B963784FF0FF3043F001031B
:1017F8006370BDE8F0876369DB439845F3D84746D3
:101808004FF0000A6369002F00F08280A068C3F3DC
:101818000806457915EA53251CD1DEB9216971B14D
:1018280004F1100200F001F90028DCDB40F08E80A2
:101838002046FFF767FE002840F08880D3E7236A38
:101848003BB92046FFF75EFE0028CCD0236923620F
:1018580000E023612169A06800F0E1F8291816B9B1
:10186800B7F5007F21D2C6F50075BD4228BF3D46B9
:1018780036B96369E269934234BF0122052200E068
:101888000122A068283000F0A6F80028ABD0304428
:101898002A4649462E4412F09EFAB6F5007F31D109
:1018A800A068283000F070F818E0B7F5806FA268DB
:1018B80016D31379106B5D1BEDB2C7F34723AB4208
:1018C80028BF2B4681424FEA432502D31844814260
:1018D80036D3A0680268D6684A46B04790B982E70E
:1018E800136B994202BF4FF0FF3382F828A01363AD
:1018F800A0684A4603685B68984700283FF473AFBE
:101908004FF400756369A9442B4463617F1B79E731
:10191800E2699342A27801D9E36102E00E4B1B68A9
:1019280013B162F07F02A270A3781A0702D440466E
:10193800BDE8F0872046FFF70FFF0028F7D152E7F0
:101948004FF0FF3082F828A01063C2E72169A06831
:1019580000F065F8014683E7F40500200FF090B821
:1019680070B505460C46084649B112F090FA2B6846
:10197800024621462846BDE87040DB68184770BD1E
:101988000FF07EB80FF07CB8F8B503780446DA0794
:101998001ED5406804F10C06036832465B68A168EE
:1019A8009847054608B9002513E023789B0704D417
:1019B800237823F0010323700BE06068A7680169AE
:1019C800036832465B68394498470028F0D1EAE753
:1019D80001252846F8BD70B5836804468B420E463B
:1019E800154614D0FFF7D0FF08B9002070BD6B076B
:1019F80003D500232370A66009E0606804F10C0297
:101A0800036831461B6898470028F2D1EDE7204665
:101A1800237805F003051D4300F80C5B70BD83793E
:101A28000239406999400844704770B5C379054642
:101A3800202B0C46164612D18169022201EBD411E3
:101A480000F50D70FFF7C7FF10B94FF0FF3070BDFC
:101A580004F07F0450F8243023F070430FE0102B7B
:101A6800F3D18369C1F307210222194400F50D70EF
:101A7800FFF7B1FF0028E8D0E4B230F81430EA6983
:101A880093429ABF33600120002070BD38B5C379F6
:101A98000C46202B15460FD18169032201EBD41186
:101AA80000F50D70FFF797FF08B9002038BD04F066
:101AB8007F0440F824500FE0102BF6D18369C1F35E
:101AC80007210322194400F50D70FFF784FF002851
:101AD800EBD0E4B220F81450012038BD2DE9F341D1
:101AE800054690460F4609B9C66800E00E463446DA
:101AF800EB6901349C4288BF022401AA214628468A
:101B0800FFF793FF00280DDB01D0019B13B1B4420E
:101B1800EED107E06FF0704221462846FFF7B6FF86
:101B2800064608B9002610E037B12246394628464D
:101B3800FFF7ACFF08B9F5E7EC606B6A002BA4BFB0
:101B480003F1FF336B62C8F80040304602B0BDE8CD
:101B5800F0810EF095BF0EF093BF704770B5054643
:101B68000C4616460FF058FD58B121463246284615
:101B78000FF040FD044638B128460FF06AFB2046B6
:101B880070BD4FF0FF3070BD004870BD8097FFFFFB
:101B980070B504460D4616460FF03EFD58B1204676
:101BA8000FF01EFC28B13246294620460FF0E7FB0D
:101BB80018B9024870BD4FF0FF3070BD0097FFFFA5
:101BC80070B50E4615460C462B1B3344032B04D91F
:101BD8000EF0C6FF44F8040BF6E7AC0806EB8404E5
:101BE8003544AC4204D00EF0BBFF04F8010BF8E713
:101BF800002070BD00B5ADF2044D0B46054A40F219
:101C0800FF31684605F0E8FE00200DF2044D5DF84E
:101C180004FB00BFCC69090838B50B4B846905463D
:101C280003607CB16368013B63605BB9236820464D
:101C38009B689847A368013BA3601BB923682046AB
:101C4800DB689847284638BDA499090810B50446AA
:101C5800FFF7E2FF2046FEF720FA204610BD0000FD
:101C680038B5044600250FF049FCE561054904F143
:101C780038000FF048FD0123A56484F88236204619
:101C880038BD00BFCC69090838B504461D46059B18
:101C98000363002084F8810684F88006606302B13B
:101CA800A26419B104F138000FF05AFD049BE069F1
:101CB8002365069BA4F84C50A4F8543008B1FEF7ED
:101CC800EEF9B4F85400FEF7E6F9E06138BD00001B
:101CD8002DE9FF410446174698460E4600250FF0A9
:101CE8000DFCE5610C4904F138000FF00CFD0123EF
:101CF80084F88236FF2302930F2300932046A564BD
:101D0800CDF804803B462A463146FFF7BDFF204602
:101D180004B0BDE8F08100BFCC69090810B590F89F
:101D2800814614B90FF066FC03E000F5347008F042
:101D3800B7FA80B210BD38B50446C369E0221A70FC
:101D4800C36900255D700222C169FFF7E7FF94F8B7
:101D58008136BBB104F57A7084F8805684F88156D0
:101D680006F031FD04F21C5006F02DFD04F5CA60A2
:101D78000AF033FA04F5617008F082FC04F5347057
:101D880008F0EAFB20460FF069FB0EF0F9FE6062EE
:101D9800A06238BD10B504460FF03EFC94F88136B9
:101DA8001BB9003018BF012010BD94F8800610BD83
:101DB80010B50446FFF7EEFF28B12046FFF7BBFF3A
:101DC800E0690FF005F904F138000FF055FC2046E2
:101DD800FFF722FF204610BD2DE9F04F0546934638
:101DE80000F561749946012385B080F8813605F5C0
:101DF80034762046039105F57A7A08F0FBFB3046E5
:101E080008F0E4F905F21C57504606F0D7FC05F532
:101E1800CA68384606F0D2FC40460AF0D9F90022D2
:101E28003549204608F0E3F95A460399504607F029
:101E380063F800285DDBB9F1000F02D10F9B5BB995
:101E48000CE00E9B002BF9D01A464946384607F09D
:101E580053F80028F2DA4CE0109B4BB900231A46DD
:101E68001946204608F0CAFB8346002841D109E0FC
:101E780000230093109A0F99404604F0DDFE0028D5
:101E8800ECD036E003221146204608F0C7F95A463E
:101E98001A49204608F0A5F90121204608F09AF9C8
:101EA8005A461749204608F09FF95A465146204697
:101EB80008F0B1F9B9F1000F06D00F9B23B14246E3
:101EC8003946204608F0A4F92146304608F00AFBB6
:101ED800044668B90B4B0C4A05F5CB61304608F04F
:101EE8008FF90094094B0A4A2946304608F082F9CE
:101EF800204605B0BDE8F08F631B0808FD1B0808E5
:101F0800C91B0808895E08087B5E0808991B080831
:101F1800651B08080EF0B4BD6C22002111F081BFCA
:101F280038B100F16C020023904202D003700130F6
:101F3800FAE7704708B56C2211F04DFF08BD0000A4
:101F4800002303604360A1B9184B8360184BC3603A
:101F5800184B0361184B4361184B8361184BC361DD
:101F6800184B036203F17453A3F52303A3F69243BA
:101F780018E0154B8360154BC36003F1794303F5F3
:101F8800740303F501630361114B4361114B8361D2
:101F980003F1D14303F5C01303F51E63C3610E4B70
:101FA80003620E4B436281660020704767E6096A48
:101FB80085AE67BB72F36E3C3AF54FA57F520E5162
:101FC8008C68059BABD9831FD89E05C107D57C3685
:101FD80039590EF7310BC0FFA78FF964A44FFABE29
:101FE8002DE9F04F031DCFB005931A46002352F890
:101FF800040F06AC44F823000133082BF7D1084638
:1020080000220EAC11F82250C378043043EA05636D
:1020180010F8035C43EA054310F8025C43EA052321
:1020280044F822300132102AECD10D9B9F4C0093CA
:102038000C9E099B089FDDF82CB0DDF81CE0DDF84C
:102048002880DDF818900FAD04F1400A54F8040C0C
:102058004FEAF82255F8041C86EA0B0C82EAB812FB
:10206800014482EA78620CEA080C8CEA060C0A44FD
:10207800009962444FEA79304EEA090C0A440CEAA6
:10208800070C0EEA090180EAB9004CEA010180EA6E
:10209800B950084413442968024420688BEA080CA4
:1020A80001440CEA030C4FEAF3208CEA0B0C0E44B3
:1020B80080EAB31006EB0C0180EA73600E1806EB99
:1020C800070C42EA09004FEA723702EA090187EA77
:1020D800B20700EA0E0087EAB25708433844304492
:1020E8006968666883EA08070E4407EA0C074FEA3E
:1020F800FC2187EA0807B34481EABC110BEB070609
:1021080081EA7C6106EB010B4FEA703742EA000175
:1021180002EA000687EAB00701EA090187EAB05730
:1021280031433944AE68A7685944DE443E4483EAE3
:102138000C0BB0440BEA0E0B4FEAFE268BEA030B9E
:1021480086EABE16D84486EA7E6646444FEA713B64
:1021580040EA010800EA01078BEAB10B08EA020825
:102168008BEAB15B48EA0708D844B044B144E76851
:10217800EE688CEA0E0B37440BEA090B8BEA0C0B62
:102188003B4403EB0B074FEAF92383EAB91383EACD
:102198007963FE18931900934FEA783741EA0803E8
:1021A80001EA080287EAB807034087EAB8571343E9
:1021B8003B4433442A6926694FEA733B32449444CA
:1021C800009A8EEA090616404FEAF22786EA0E06BA
:1021D80087EAB217B44487EA72670CEB070248EA49
:1021E800030786180F4008EA03008BEAB30B8BEA53
:1021F800B35B07435F44174460696A69203410443D
:10220800009A864489EA020C0CEA060C8CEA090C4E
:102218000EEB0C004FEAF62E8EEAB61E8EEA766EAC
:1022280000EB0E024FEA773043EA070E01EB020B90
:102238000EEA080E03EA070180EAB70080EAB75001
:102248004EEA010E8644964454F8081CAA69A24531
:102258001144009A894482EA060000EA0B0080EAE9
:10226800020009EB00014FEAFB2989EABB1989EA58
:102278007B6901EB09024FEA7E3047EA0E0980EAE2
:10228800BE0009EA030907EA0E0180EABE5049EADE
:10229800010981449044914405F120057FF4D6AEAC
:1022A8000022DFF80CA00EAC049203E0806309085A
:1022B8007C630908A26B60684FEAF24585EA7245BB
:1022C80085EA9225049A0DF1380C5CF82220616A9F
:1022D8004FEAB04C0A448CEAF01C4FEAF8218CEA29
:1022E800D00C81EAB811154405EB0C0281EA786537
:1022F80086EA0B0101EA0801039281EA0602A9189D
:10230800DAF840204EEA09050A4403993D40216461
:102318000A4400990AF1200A0A44D3184FEA79318D
:10232800009381EAB9010EEA090381EAB9512B4306
:102338000B441A44E36BA5684FEAF34181EA734101
:1023480081EA9321A36A2034034419444FEAB54330
:1023580083EAF51383EAD50C01EB0C03DAF82400C1
:1023680000998BEA080C30440CEA010C8CEA0B0C3F
:10237800C1188C44009963624FEAF12080EAB110D9
:1023880080EA716000EB0C01C81901904FEA723CB9
:1023980042EA090002EA09078CEAB20C00EA0E00D8
:1023A8008CEAB25C384360440844039954F8147CBE
:1023B8004FEAF14686EA714686EA9126E1684FEAD5
:1023C800B74C29440E448CEAF71C00998CEAD70CC8
:1023D800664481EA080C0199A6620CEA010CDAF855
:1023E80028108CEA080C59448D190199AC44019DB8
:1023F8004FEAF12181EAB51181EA756101EB0C051B
:1024080042EA00014FEA703C05EB0E0B8CEAB00C77
:1024180002EA000E01EA09018CEAB05C41EA0E0109
:10242800614429444FEAF34585EA734585EA9323D5
:10243800256954F810CC2F443B444FEABC4787EA3F
:10244800FC1787EADC0E03EB0E079DE828005D40C9
:1024580005EA0B055D40DAF82C304FEA713E9844E6
:10246800B84445444FEAFB2888EABB1888EA7B68E9
:1024780008EB050303EB090540EA010802958EEA1B
:10248800B10E00EA010508EA02088EEAB15E48EAE0
:102498000508F04498444FEAF64E63698EEA764E92
:1024A80054F80C5C8EEA96260CEB030E019B7644DE
:1024B80083EA0B0C4FEAB54E029B8EEAF51E8EEAB4
:1024C800D5090CEA030C019B06EB090EDAF830601B
:1024D8008CEA030C009B76441E44029BB444029E83
:1024E8004FEAF32383EAB61383EA766303EB0C0619
:1024F8009319009341EA080301EA080203401343D1
:102508004FEAF74282EA7742E7624FEA783C82EA8A
:102518009727A2698CEAB80C54F8089C8CEAB85C36
:102528001544029A634433442F448BEA02064FEA67
:10253800B945009A85EAF91585EAD9051640DAF809
:1025480034203D44019F2A443A4486EA0B06164447
:10255800009AC4F830E04FEAF22787EAB21787EA10
:102568007267BA1986184FEA733080EAB30048EAEE
:10257800030780EAB35C0F4008EA03000743674497
:1025880017444FEAFE4282EA7E4282EA9E2EE269C0
:1025980054F8040C91440EEB09024FEAB04989EA59
:1025A800F01989EAD0099144029A65639646009A1F
:1025B800C4F838908EEA020CDAF838200CEA060CD7
:1025C8008CEA0E0C4A444FEAF62E5A448EEAB61E9E
:1025D80062448EEA766E72444FEA773C43EA070E0D
:1025E80001EB020B0EEA080E03EA07018CEAB70CAE
:1025F8008CEAB75C4EEA010EE64496444FEAF5428F
:10260800216882EA754282EA9525039A4FEAB14C1D
:1026180010448CEAF11CDAF83C2005448CEAD1011C
:102628000D4402992A4402EB0109009A4FEA7E30D0
:1026380082EA060101EA0B0151404FEAFB2282EAD5
:10264800BB12894482EA7B624A4447EA0E0980EA5F
:10265800BE0009EA030907EA0E0180EABE5049EA0A
:102668000109814490449144049AE5630832302A70
:1026780004927FF41FAE009A09930D92CDF828803A
:10268800CDF82CB00C96CDF81890CDF81CE0089732
:102698000023059A52F8041F059206AA52F823202F
:1026A80001330A440599082B0A60F2D100204FB083
:1026B800BDE8F08F2DE9F04104460E46154682B379
:1026C800036803F03F0013449A42236082BF6368A3
:1026D8000133636080B1C0F14007BA421BD304F1F3
:1026E80028083A46404411F076FB41462046FFF759
:1026F80077FCB8B93E44ED1B2F46E91B3F2F314408
:1027080005D92046FFF76CFC60B9403FF5E747B1B3
:102718003D460E46002028342A463146204411F012
:102728005AFB0020BDE8F08170B50446036880229A
:1027380003F03F03581C382823440D4683F828200B
:1027480004F1280604D8C0F13802002130440EE014
:10275800C0F140020021304411F063FB31462046AD
:10276800FFF73EFC002875D101463046382211F0AB
:1027780058FB236861685A0F42EAC102110EDB0058
:1027880084F86010110C84F8611084F86320110A31
:102798001A0E84F864201A0C84F865201A0A84F842
:1027A800621084F8673084F8662031462046FFF7C7
:1027B80017FC034600284CD1E27A2A7062896A70B5
:1027C800A268120AAA70A268EA70E27B2A71E289FA
:1027D8006A71E268120AAA71E268EA71E27C2A72F6
:1027E800628A6A722269120AAA722269EA72E27D10
:1027F8002A73E28A6A736269120AAA736269EA73BF
:10280800E27E2A74628B6A74A269120AAA74A269A7
:10281800EA74E27F2A75E28B6A75E269120AAA7580
:10282800E269EA7594F823202A76628C6A76226A2D
:10283800120AAA76226AEA76A06E50B994F827306E
:102848002B77E38C6B77636A1B0AAB77636AEB774A
:1028580070BD184670BDF0B51F469DB0054601A86D
:102868000E461446FFF758FB394601A8FFF768FBE8
:10287800014658B92946324601A8FFF71BFF014611
:1028880020B9214601A8FFF74FFF014601A8FFF72D
:1028980047FB08461DB0F0BD2DE9F04F0446A5B032
:1028A800006801930F469346309E04F0D9FF814695
:1028B8000023039301238DF80F300DF15008002EEB
:1028C8005CD05A463946204604F008FF002856D105
:1028D8002E9A0199204604F061FF00284FD1042266
:1028E80003A9204604F05AFF002848D14146204653
:1028F80004F064FF002842D104AD4A464146284608
:1029080011F069FA4FF0010A2F9B9A451DD25A46D9
:102918003946204604F0E2FE88BB4A46294620464E
:1029280004F03CFF58BB2946204604F047FF30BB63
:10293800484507DA10F80820435D534000F808308E
:102948000130F5E70AF1010ADEE74E45354628BFB2
:102958004D4641462A46319811F03DFA319B761B87
:102968002B44319304AA12F8013D0133DBB21370F2
:10297800002BA4D103AB9342F5D1A0E7304625B094
:10298800BDE8F08F2DE9F0431F46BDB00023069344
:1029980007930993446883684FF0040908931C441B
:1029A80003680D46302B16468DF8169040F0C98006
:1029B80010AB0AAA214608A800F065FD002858D1E6
:1029C8000B9A092A4CD10C99614811F0F5F90028A5
:1029D80046D1129B119A249303EB0208109B302BCB
:1029E80040F0AF804B4617AA414624A800F072FC7D
:1029F800F8B9249A179B18921344414606AA24A8AA
:102A0800249300F094FCA0B9249B984522D007AAEF
:102A1800414624A800F08BFC10B110F1620F08D1D8
:102A2800249B984516D02CAA414624A800F073FD93
:102A380028B1A0F53C50002840F086800AE00DF14E
:102A480016012CA802F00CF950B9249B984501D026
:102A5800404879E09DF8160004F0BEFD814608B9AB
:102A68003D4871E013AB0DAA214608A800F00BFD04
:102A780010B1A0F53C5067E00DF117010DA802F068
:102A8800C1F80028ECD19DF8170000F049F98046FC
:102A98000028E5D04368DB080793139B042B52D129
:102AA800C368149A9A424ED119A804F0A1FD2CA823
:102AB80000F058F9149A159924A811F08CF90122FC
:102AC800494619A804F0BAFD0446002831D1079BED
:102AD8000DF170090293069BCDF80C900193179B9A
:102AE8003A4600933146189B19A8FFF7D5FE0446CD
:102AF800F8B941462CA800F009FB0446C8B9079A62
:102B08006BB2D20049462CA800F042F9044680B9BD
:102B180009AB0293469B149A0193459B24A9009301
:102B28002CA8449B00F010FBA4F53854002808BFDB
:102B3800002419A804F061FD2CA800F017F920461C
:102B480002E0064800E006483DB0BDE8F08300BF5B
:102B58007C6409089AD0FFFF80D1FFFF9ED0FFFF59
:102B680000D1FFFF10B1006800B14069704710B58F
:102B7800891A0024E3B2994204F1010402D90344FA
:102B88009954F7E710BD0000F0B500B3FAB1431847
:102B980013F8014CB4FA84F35B09A14238BF43F03F
:102BA80001030F1B176000228A420BD0855CBA42D2
:102BB80084EA050634BF0025012575432B43DBB2A3
:102BC8000132F1E7002B034808BF0020F0BD02489E
:102BD800F0BD00BF009EFFFF009FFFFF802330B5C0
:102BE8008354891A01230025994204D9C418013352
:102BF800A554DBB2F8E730BD70B501238D1A002665
:102C08009D4206D9C4181444013304F8016CDBB2A0
:102C1800F6E7014401F8015C70BD000070B5F0B141
:102C2800EAB14E1E845DB4FA84F30D1B5B09A14220
:102C38002CBF194643F0010115600023B34209D2A5
:102C4800AB42C45C34BF0022012262431143C9B2C3
:102C58000133F3E70029034808BF002070BD02488C
:102C680070BD00BF009EFFFF009FFFFF10B502442C
:102C78000023141AA14202D902F8013BF9E710BD5A
:102C880018B112B11160002070470148704700BFA9
:102C9800009FFFFFF0B5F0B1EAB1002313600844CC
:102CA800802499B110F8015D0139002D0CBF1D4633
:102CB80043F001056B4001FB03F617683E431660BD
:102CC800067873435C40E4B22B46EAE7002C0348DD
:102CD80008BF0020F0BD0248F0BD00BF009EFFFF06
:102CE800009FFFFF30B5A8B1A2B1002313600144D3
:102CF8008142A1EB00040FD011F8015D002D0CBF3B
:102D08001D4643F001056B40634314682343136079
:102D18002B46EDE7014830BD002030BD009FFFFF86
:102D2800054B53F8042C22B1083313F8101C8142C8
:102D3800F7D11046704700BF9072090830B5084CAB
:102D480063685BB19D692D78854205D15D688D42C8
:102D580002D15D78954201D00834F1E7184630BDBC
:102D6800887209084022002111F05BB810B50446AA
:102D780068B1C06B18B123689B699B69984704F1D7
:102D880040020023944202D023700134FAE710BDB8
:102D980030B4C8B10468BCB12569AD0702D4656810
:102DA800954211D1012B4260037204D06578032D3E
:102DB80001D0052D02D1A369DB6802E023B9A3691C
:102DC8001B69C06B30BC1847014830BC704700BF56
:102DD800009FFFFF38B50446B0B10368A3B199B1AD
:102DE800102A0FD81869C00703D4DD68AA4201D297
:102DF8000AE015462A4604F1280010F0ECFFA56306
:102E0800002038BD014838BD014838BD809FFFFF0C
:102E1800009FFFFF28B103681BB1002343621846D7
:102E280070470148704700BF009FFFFF2DE9F74F2B
:102E3800DDF830800F4615469946044608B95C48C7
:102E4800B2E00368002BFAD0B8F1000FF7D00023E6
:102E5800C8F80030FFF786FE236806465B78012B2A
:102E680010D190427DD1C8F8000023680A469B69BA
:102E780094F908105D684B46AC46E06B03B0BDE8BA
:102E8800F04F6047062B0AD1C8F800204B460A4687
:102E98002946E06B03B0BDE8F04F04F0BBB9002849
:102EA80061D0494508D1626A002AC8D1B5FBF0F261
:102EB80000FB1252002AC2D1022B56D194F90830D5
:102EC800606A2BB9E3682BB1331A9D420FD804E02E
:102ED800012B0CD1331A9D4209D220442A46394687
:102EE800143010F078FF636A1D44656237E010B350
:102EF800C0EB060A204452463946143010F06BFFE6
:102F0800234653F8142B94F9081092698DE80802A7
:102F180004F12803D2F808B0E06B3246D8470028FD
:102F280042D1D8F80030B1443344C8F8003057448F
:102F38006062CAEB050595B1B5FBF6FA06FB1A5AAD
:102F4800BAF1000F13D0CAEB05055246791904F1FE
:102F5800140010F040FF636A5344636295B900207F
:102F680022E0144820E014481EE014481CE094F9BC
:102F78000830002BE7D1E368002B0CBF4FF0000AA4
:102F8800B246E0E7236894F908109B698DE880024F
:102F98002A469E68E06B04F12803B04720B9D8F8A8
:102FA80000301D44C8F8005003B0BDE8F08F00BFE2
:102FB800009FFFFF809DFFFF809CFFFF809FFFFF1A
:102FC800F7B50E4615460446002852D00368002B74
:102FD8004FD0002A4DD00023136007687A78032A5F
:102FE8004DD0511F02294AD9012A01D1636A16E03E
:102FF800022A40D190F90830012B09D1C368002B6F
:10300800F4D0A16B143001B9F968626A98470BE0F3
:10301800FFF7A8FD636A984206D0E2686ABB002BF6
:10302800184808BF00202BE02046FFF79BFD2346E9
:1030380053F8142B94F9081092698DE8480004F1AC
:10304800280397680246E06BB8470346B8B994F975
:10305800082020464AB9FFF785FD2A460146304632
:10306800236903B0BDE8F0401847FFF77BFD2860EF
:1030780005E0054804E0054802E0024800E018467B
:1030880003B0F0BD809DFFFF009FFFFF809FFFFF03
:1030980008B303685B78022B1DD104291DD8DFE82B
:1030A80001F003070D1115000D4BC3600D4B02E035
:1030B8000D4BC3600D4B0361002070470C4BC36080
:1030C8000C4BF8E70C4BC3600C4BF4E70C4A00239D
:1030D800C3600261F0E70B4870470B48704700BFB8
:1030E800772B0808912B0808E52B08089D2C080861
:1030F800012C0808252C0808752C0808ED2C080850
:10310800892C0808009FFFFF809FFFFF38B5044601
:103118000D4681B178B14022002110F082FEAB69E2
:103128005B699847E06340B1256000212046FFF7BE
:10313800AFFF002038BD024838BD024838BD00BF87
:10314800009FFFFF809EFFFFF0B585B005461F4634
:103158000B9E0C9CFFF73EFEB0B92846FFF75AFEBF
:1031680090B9009433460A9A39462846FFF75EFE1E
:1031780050B9216803AA31442846FFF721FF18B93E
:103188002268039B1344236005B0F0BD2DE9F0438A
:10319800076814467F78079D062F089E099ADDF870
:1031A80028E0DDF82C90DDF83080DDF834C012D14D
:1031B800C9F800200893CDF83480CDF830C0CDF898
:1031C8002CE00A96099507940B46BDE8F0430121C7
:1031D800C06B04F00AB90148BDE8F083809FFFFF87
:1031E80030B5056887B06D780C46062D0C9917D157
:1031F8000E9D29600D9D05950B9D0495109D0395C9
:103208000F9D02950A9D8DE828001346C06B224643
:1032180004F010F9044B10F1120F08BF184600E033
:10322800024807B030BD00BF009DFFFF809FFFFF31
:1032380030B50368CD1A002D02DC6FF05F0030BD99
:103248001C7814F0800F04D15C1C04601B78136098
:1032580036E004F07F04013C032C38D8DFE804F0A2
:1032680002091320012DE8D05B781360036802334C
:1032780025E0022DE1DD5C789B7843EA04231360A6
:10328800036803331BE0032DD7DD9C785D782402A7
:10329800DB7844EA05441C431460036804330EE0F9
:1032A800042DCADD9C785D78240444EA05651C7900
:1032B800DB782C4344EA0323136003680533036077
:1032C8000368C91A13688B42B7D8002030BD6FF065
:1032D800630030BD70B404680E1B002E07DD26782D
:1032E8009E4207D10134046070BCFFF7A1BF6FF0A4
:1032F8005F0001E06FF0610070BC704737B50123D3
:10330800154601AA0446FFF7E5FF70B9019B012B9A
:1033180009D123681B78003318BF01232B60236869
:103328000133236001E06FF0630003B030BD37B5AF
:103338000223154601AA0446FFF7CCFFC8B9019B32
:10334800013B032B13D8236893F90030002B0EDBC5
:1033580028600198431E019358B123682A681B7896
:1033680043EA02232B60236801332360F1E76FF0FF
:10337800630003B030BD37B50223154601AA0446E1
:10338800FFF7A8FF40B9019A2168284607F0A3FD76
:103398002268019B1344236003B030BD70B503233A
:1033A80004460E461546FFF795FFD8B91368A3B132
:1033B800013B136023681B78072B137110D823680F
:1033C80001332360936022682B6813449E42236074
:1033D80014BF6FF06500002070BD6FF05F0070BD16
:1033E8006FF0630070BD38B5032304461546FFF738
:1033F80071FF58B913685A1E012B2A6004D9236833
:103408005A1C2260187808B16FF0670038BD2DE9A2
:10341800F34115461F4601AA302304460E46FFF71E
:1034280059FF68BB2268019B13449E421DD06FF070
:10343800650025E023689E421AD91B7842462B6016
:1034480031463B462046FFF745FFC8B92368AB60C5
:1034580022686B6813449E422360EBD91021012037
:1034680010F092FBE86048B1054605F10408E1E771
:103478000020E86023689E4202D0D8E76FF0690018
:1034880002B0BDE8F081F7B517461D4601AA302302
:1034980004460E46FFF71EFF00283AD12368F61AA5
:1034A800002E31DD3A461B78204642F8043B266858
:1034B800019B1E4431460623FFF70CFF48BB2368D7
:1034C800BB6022687B68D1188E42216006D105F165
:1034D8000C039D4216D028700135FAE7D35C2A46C2
:1034E80042F8043B23683146013323602046FFF746
:1034F8009FFE70B92368AB6022686B6813449E42D4
:10350800236004D1002004E06FF05F0001E06FF059
:10351800650003B0F0BD1FB5002301930293039328
:1035280001ABFFF7B0FF60B9019B052B00D033B9A1
:10353800029B002B14BF6FF06700002001E06FF0C2
:10354800670005B05DF804FB01F0EEBB01F0CCBBF1
:1035580010B5044601F0BEFB2046BDE810400DF052
:1035680037BD10B55C21012010F00EFB044608B1F0
:1035780001F0ACFB204610BD02F0C2BB02F086BBD6
:1035880001F0B8BBFEF72CBDFEF7D4BC10B504465D
:10359800FEF7C6FC2046BDE810400DF019BD10B579
:1035A8006C21012010F0F0FA044608B1FEF7B4FCD3
:1035B800204610BD0123FFF74EB90023FFF74BB992
:1035C800FFF7B2B8FFF776B80121FEF7B9BC0021C2
:1035D800FEF7B6BC0AF024B809F080BF10B504465F
:1035E80009F072FF2046BDE810400DF0F1BC10B59F
:1035F800D821012010F0C8FA044608B109F060FF8C
:10360800204610BD01230AF0C6BF00230AF0C3BF3D
:103618000AF08EBE0AF044BE012109F065BF002100
:1036280009F062BF01440023884202D003700130D0
:10363800FAE770472DE9F04F95B01E9D04AE074696
:103648000C46914600214022304601930DF1500866
:1036580010F0E7FB0023286848F8443D04F000F91F
:1036680082467CB354452846A34628BFD34604F077
:1036780007F8024638BB019A4946284604F00AF87A
:10368800024600BB04224146284604F003F80246DD
:10369800C8B93146284604F007F8024698B93B46AF
:1036A8005A4507D013F8010BB15C0132414003F8C9
:1036B800011CF5E79DF80F30174401338DF80F30E2
:1036C800A41ACEE7224630464021FFF7ABFF10464A
:1036D80015B0BDE8F08F00002DE9F3471D46002323
:1036E8000E469146DDF8288000930193044628B3DE
:1036F80003F072FF0646002863D020466A4601A9F7
:1037080001F09AFA044600285BD1304604F0A8F884
:10371800009F0646074407F108037F2B51D810F194
:103728000A024ED207F10A039A424AD89D4248D368
:10373800A5F10A03DF1B0A2F06D842E08D4240D3C9
:103748006D1A0A2D3DD93EE0C246033F0AF8024BE6
:1037580001233A4688F80130FF21504610F061FBFA
:103768000AEB070330210AF807405970009FD97007
:1037780007F1080232449A70FAB2111D03F1070AE0
:103788001971062159719A7101993A46504610F0FB
:1037980022FB05220AEB07030AF8072004229F18D8
:1037A8009A70DE705C7032464946384610F013FB5A
:1037B8003E4408EB05039E4219D029464046FFF7D0
:1037C80031FF0D4C13E04346EF1E03F8020B0122B4
:1037D80088F80120FF213A46184610F022FB0346DC
:1037E800C455A81E32464946184410F0F4FA20463B
:1037F80002B0BDE8F08700BF80BFFFFFF8B500F159
:1038080008054768044628460E4607F05EFB8742CF
:1038180017D16368B3F5806F13D80021284607F0E5
:1038280025FD00280DDD0021284607F004FB40B1E6
:10383800EEB104F12C050021284607F017FD0028F9
:1038480001DC1A48F8BD0021284607F0F4FA0028E0
:10385800F7D004F138050021284607F007FD0028B5
:10386800EFDD0021284607F0E6FA0028E9D000211C
:1038780004F1140007F0FAFC0028E2DDA6B10021EB
:1038880004F1440007F0F2FC0028DADD002104F11D
:10389800500007F0EBFC0028D3DD002104F15C00A8
:1038A80007F0E4FC0028CCDD0020F8BD80BFFFFF56
:1038B8002DE9F843099F044698460B9E0D9D49B192
:1038C80000F10809484607F006FB50BB484607F0D8
:1038D800FCFA6060B8F1000F01D147B90EE0089A10
:1038E800414604F12C0007F0F6FAD0B9F5E70A9A38
:1038F800394604F1380007F0EEFA90B936B10C9A5F
:10390800314604F1200007F0E6FA50B935B10E9AB5
:10391800294604F1140007F0DEFA10B90020BDE8CA
:10392800F883A0F58140BDE8F88300002DE9F04F49
:1039380000F1080B87B007460021584607F096FCAF
:1039480007F12C0900218046484607F08FFC07F153
:10395800380A05900021504607F088FC07F120033B
:10396800002105461846029307F080FC07F114036E
:10397800049000211846039307F078FC059B049AED
:103988004BB125B12AB1061C18BF012613E02E46FB
:1039980011E016460FE0B8F1000F03D14446464641
:1039A800002224E0CDB91AB1F0B9064604460EE06B
:1039B8002E462C460DE0ADB192B9041C18BF012467
:1039C800B8F1000FECD0002BEAD1002DE8D1002A85
:1039D800E6D10028E4D0012209E01C461E46DFE7B4
:1039E8000024EDE72C46DBE701262C4602E0002EFA
:1039F8003DD0002604940124B8F1000F0BD153B137
:103A08004DB152464946584607F04FFD28BB584627
:103A180007F05BFA786046B1CDF800A04B46029AF1
:103A2800039958460AF088FE07E0049B33B1029BCD
:103A3800039A514648460AF07BFF70B984B107F1F2
:103A48005C03019307F150030093029A07F14403C2
:103A5800514648460BF010F910B1A0F581400CE032
:103A68002146384607B0BDE8F04FFFF7C7BE0CB98E
:103A780012B126460494BFE7014807B0BDE8F08FAD
:103A880080BFFFFF70B504460E4615460021AC22E4
:103A980010F0C7F9C4F8A460C4F8A85070BD406815
:103AA8007047000070B500210446FFF7A7FE0546E1
:103AB800B8B904F10806304607F0E7F97F2810D9AD
:103AC80014342946204607F0B6F950B1204607F0CD
:103AD800DCF9012805D93146204607F082FB002889
:103AE80000DB014D284670BD00BEFFFFF0B585B074
:103AF8000446FFF7D7FF28BB01212046FFF77EFECB
:103B080000BB04F1140304F12C0504F1380604F198
:103B1800200702900190009332463B46294604F163
:103B280008000AF0E3FF68B904F15C03019304F1AB
:103B3800500300933A4604F14403314628460AF0FC
:103B480055FF00B1014805B0F0BD00BF00BEFFFF42
:103B580038B505460C46FFF7A5FF50B92046FFF7D4
:103B6800C5FF30B904F1080105F1080007F039FB79
:103B780008B1054838BD04F1140105F1140007F037
:103B880030FB0028F5D138BD00BEFFFF2DE9F0411C
:103B98000C4686B0002105461746FFF72FFE06465D
:103BA80078BB03A807F0B8F821466A6803A807F0AD
:103BB80092F90446F0B905F10804214603A807F074
:103BC80010FB002814DA05F1680303A9009305F136
:103BD800140223460846D5F8048007F0D4FE0446AC
:103BE80040B94246394603A807F0AAF9044601E05D
:103BF8006FF0030403A807F096F81CB1A4F58546F6
:103C080000E0024E304606B0BDE8F08180BFFFFFFD
:103C18002DE9F04F0E46A5B00121044692461D46F7
:103C2800FFF7ECFD0390002840F09B8106A807F001
:103C380073F809A807F070F80CA807F06DF80FA83A
:103C480007F06AF82EB118A807F066F81BA807F065
:103C580063F812A807F060F815A807F05DF81EA829
:103C680007F05AF821A807F057F86268294606A80D
:103C780007F031F90746002840F0508104F10805A3
:103C8800294606A807F0ADFA002880F2438106A964
:103C98001EA807F08AF80746002840F03F8104F183
:103CA800500304F144090493002E00F0C580D4F8B1
:103CB800A03023B304F18C0842464146404607F041
:103CC800F4FB0746002840F029812A464146404631
:103CD80007F027FE0746002840F0208104F19808E5
:103CE80042464146404607F0E0FB0746002840F0C0
:103CF80015812A464146404607F013FE37E00C235B
:103D0800059304F1980B04F18C08059B013B05937E
:103D180000F02A816168534632460139584608F056
:103D2800D6F80746002840F0F9802A46594640460A
:103D380008F048F80746002840F0F0800121404686
:103D480007F094FA0028E0D12A465946404608F080
:103D5800E1F80746002840F0E18004F16803009389
:103D680004F114022B464146404607F00CFE074674
:103D7800002840F0D38006A904F18C02084607F019
:103D880094FB0746002840F0C98006A92A46084641
:103D980007F0C7FD0746002840F0C080012204F163
:103DA8002C0109A807F06BFB0746002840F0B680F5
:103DB800012204F138010CA807F061FB074600282E
:103DC80040F0AC80534632461C210FA808F07FF81B
:103DD8000746002840F0A2800FAA09A918A807F0F2
:103DE80064FB0746002840F0998018A94A4608460F
:103DF80007F0ECFA0746002840F090805346324618
:103E08001C210FA808F063F80746002840F08680B8
:103E18000FAA0CA91BA807F048FB074600287DD16C
:103E28001BA9049A084607F0D1FA0746002875D15D
:103E38001BAB04930DF1600904F1740304F12C0821
:103E480000934A46434606A912A807F09CFD074678
:103E5800002863D104F1800304F138090093049A1F
:103E68004B4606A915A807F08EFD0746002855D130
:103E780015AA12A906A807F0CAFA074600284DD1C4
:103E880004F15C0206A912A807F00FFB07460028F8
:103E980044D1424612A906A807F043FD0746002868
:103EA8003CD14A4606A912A807F0FFFA074600289F
:103EB80034D112AA15A906A807F088FA074668BBE4
:103EC80066B904F16803009304F114022B4606A9AD
:103ED80021A807F058FD074600BB0FE006A904F12A
:103EE8009802084607F0E1FA0746B8B906A92A4633
:103EF800084607F016FD074680B9E2E71EA921A883
:103F080007F06FF948B962682E9906A807F018F803
:103F1800074603E06FF0030700E0164F09A806F014
:103F280002FF0CA806F0FFFE0FA806F0FCFE2EB15B
:103F380018A806F0F8FE1BA806F0F5FE06A806F07D
:103F4800F2FE12A806F0EFFE15A806F0ECFE21A876
:103F580006F0E9FE1EA806F0E6FE3FB1A7F5864387
:103F680000E0054B039301E0044FD7E7039825B021
:103F7800BDE8F08F80BCFFFF80BFFFFF80BBFFFF65
:103F88002DE9F04F012B8BB080468B4603920493AA
:103F9800169F189E05D1D0F8A430012B01D04048B7
:103FA8007AE0BBF1000FFAD098F8A80003F014FBF0
:103FB80002900028F3D0D8F8044003F051FC4300E5
:103FC80005934200BB1C13449F420546E7D89C4218
:103FD800E5D32246002130460FF023FF06F1010900
:103FE800002333702A4649460398D84710B1A0F5F4
:103FF800894051E009EB050A5346159A149902982D
:1040080003F05CFB002847D10590A01EC01B6B0085
:104018002844C01A01220AF80020104417993A4689
:10402800504407AF0FF0D7FE384603F0E1FA059B7E
:1040380002991A46384603F001FB0246A8B905F171
:10404800010A013CB244641B4A4600972B462146AC
:104058005046FFF7EFFA024638B952460097234612
:1040680029464846FFF7E6FA024607A8029203F0F7
:10407800C4FA029A7AB9049B2BB9324631464046B3
:10408800FFF784FD08E000963346039A59464046F8
:10409800FFF7BEFD00E010460BB0BDE8F08F00BF93
:1040A80080BFFFFF2DE9F74F9A46BAF1010F074687
:1040B80089469346DDF830800D9B0E9E03D1D0F8DB
:1040C800A420002A55D1B9F1000F52D0002B50D0AE
:1040D800002E4ED018F10B027C684AD2944248D385
:1040E8003546033C0022C8EB040405F8022BBAF15C
:1040F800000F18D1022272702C44A5421CD06422F1
:1041080000920122294658460193C8472A78019B04
:104118008ABB009A013A009202D1A0F589402EE0AC
:104128000028EED0F9E7012272702C44FF22AC423D
:1041380002D005F8012BFAE72046002200F8012BEF
:10414800194642460FF047FEBAF1000F07D1324632
:104158003146384603B0BDE8F04FFFF717BD334688
:104168005A46494638460C9603B0BDE8F04FFFF76B
:104178004FBD044803E00028CFD10135BDE703B0A7
:10418800BDE8F08F80BFFFFFF0B587B0D0F8A4700E
:104198000CAC70CC57B1012F10D1029400240496B6
:1041A800039501940094FFF7EBFE08E00E960D9539
:1041B8000C9407B0BDE8F040FFF774BF014807B0A2
:1041C800F0BD00BF00BFFFFF2DE9F04F012BADF29E
:1041D800644D06468A4603929B4605D1D0F8A43022
:1041E800012B01D05C48B2E07768A7F11003B3F562
:1041F8007C7FF7D896F8A80003F0EEF90290002823
:10420800F0D003F02DFB00F101084FEA4805AF425A
:104218000446E7D30DF16009BBF1000F06D14A4609
:10422800DDF894143046FFF7B1FC08E0CDF80090B3
:10423800DDF89434039A51463046FFF7E9FC82468C
:1042480000283CD105AE304603F0D2F95246029917
:10425800304603F0F3F9824608B130463BE007F1F7
:10426800FF3BC844C4EB0B0B00965B464246214615
:104278000DF16100FFF7DEF9824658BB0096234630
:104288000DF1610259464046FFF7D4F9824608BB52
:1042980024E0885C80F0010050EA0E0351D101321D
:1042A800114418AA8A1ADDF89C04BA1A82424BD81B
:1042B800DDF890040260DDF898040FF08CFD4FF4EF
:1042C800806118A8FFF7AEF908A84021FFF7AAF9FE
:1042D80050463CE005A803F090F9F0E7304608AEF8
:1042E80003F08BF93346DDF88C24DDF88814029846
:1042F80003F0E4F982460028E1D150460DF161034C
:1043080099F800E01919A04208D2325C11F800C0EF
:10431800013082EA0C0C4CEA0E0EF4E7214400242A
:104328000E4622467D1B0D44B542B2D016F8010B4D
:10433800044360422043C0F3C01080F001000244EF
:10434800F2E7DFF818A0BAE7DFF814A0B7E70DF234
:10435800644DBDE8F08F00BF80BFFFFF00BFFFFFC7
:1043680000BCFFFFF0B5012BADF20C4D1D4603D18B
:10437800D0F8A430002B7FD14768A7F11003B3F51C
:104388007C7F79D802AE45B93246DDF82414FFF7B0
:10439800FDFB0446002868D12FE00096DDF82434A0
:1043A800FFF736FC044600285FD1012D327825D16D
:1043B800014686467378FD1E83F002031343A94223
:1043C80012D272189078013142421043C0F3C010E3
:1043D80080F001000443E4B262422243C2F3C012F7
:1043E80082F001029644EAE70DF10A020EF101019A
:1043F800114412F80E2013431EE032787378FC1E25
:1044080083F001031343002211469646A1420BD2C2
:10441800701880780131FF2818BF42F0010282F03D
:104428000100C0B28644F1E70DF10A0212F80E50FD
:104438000EF1010111442B43BEF1070F8CBF1C463E
:1044480043F0010464B26CB98A1BDDF82C34BA1A43
:104458009A4209D8DDF82034DDF828041A600FF0F4
:10446800BAFC02E0064C00E0064C30464FF480618E
:10447800FFF7D8F8204600E003480DF20C4DF0BDD8
:1044880000BFFFFF00BCFFFF80BFFFFFF0B587B094
:10449800D0F8A4E00CACF0CCBEF1000F0CD0BEF10B
:1044A800010F12D1029400240597049603950194F4
:1044B8000094FFF789FE09E00F970E960D950C946E
:1044C80007B0BDE8F040FFF74DBF014807B0F0BDA9
:1044D80000BFFFFF2DE9F04F012B9DB080468A46B3
:1044E800049205939DF89800299C05D1D8F8A4302A
:1044F800012B01D05848ABE0BAF1000FFAD0D8F838
:10450800046030B103F068F80028F3D003F0A8F98C
:10451800279098F8A80003F05FF883460028E9D0B0
:1045280003F09EF94500AB1C9E420746E2D3324693
:10453800002120460FF075FC3A460CA90498D04794
:1045480010B1A0F5894083E008F1080307901846E8
:10455800039306F09AFC751B05F1FF3901222544E7
:10456800A14405F8022C0CA93A46069009AD484624
:104578000FF031FC284603F03BF8079B59461A46D2
:10458800284603F05BF8024600284AD1284603F083
:1045980077F80246002844D109EB070B0822594650
:1045A800284603F077F8024600283AD1279A289936
:1045B800284603F06FF8024698BB3A460CA92846ED
:1045C80003F068F8024660BB5946284603F06CF8C9
:1045D800024630BB069B711E013B13F0070F0CBF50
:1045E80001200020C91B5A46091A00953B46204461
:1045F800FFF720F80246A0B90690039806F045FC9C
:10460800C0EBC60023780130FF2646FA00F01840B8
:10461800BC232070402109F817300CA8FFF702F8D6
:10462800069A2846039202F0E8FF039A7AB9059B96
:104638002BB9224621464046FFF7A8FA08E0009425
:104648002346049A51464046FFF7E2FA00E0104636
:104658001DB0BDE8F08F00BF80BFFFFF2DE9F34715
:10466800012B89460BA90546924686C91C469DF82A
:10467800280003D1D5F8A430002B4BD100976B68E4
:10468800FFF72AF8002849D13CB93A463946284666
:1046980002B0BDE8F047FFF779BA6C6801202146FF
:1046A8000FF072FA0646B8B3214601200FF06CFAF3
:1046B800804618B930460CF08BFC2DE000963B463E
:1046C800524649462846FFF7A3FA0446D0B942465F
:1046D80031462846FFF75AFA044698B90346024677
:1046E8006D68AA4207D018F80200B95C013241404F
:1046F8000B43DBB2F5E723B9314638460FF06BFBC5
:1047080000E0084C30460CF063FC40460CF060FCBE
:10471800204603E0044801E06FF00F0002B0BDE856
:10472800F08700BF00BDFFFF80BFFFFFF0B5D0F8E6
:10473800A4E006AD9DF81440E0CDBEF1000F0AD00C
:10474800BEF1010F0FD10897079606950594BDE8AD
:10475800F040FFF7BFBE0897079606950594BDE899
:10476800F040FFF77BBF0148F0BD00BF00BFFFFF6F
:104778002DE9F04F012BADF2644D05469DF8888474
:1047880005D1D0F8A400012801D06148BBE06F68CA
:10479800A7F11000B0F57C7FF7D818AE33B93246D0
:1047A800DDF89C142846FFF7F1F905E00096DDF8DE
:1047B8009C342846FFF72CFA002840F0A4807C1E81
:1047C800335DBC2B40F09E80B8F1000F08D0404606
:1047D80002F002FF0028D8D003F042F8CDF88C048C
:1047E8009DF8940402F0F8FE81460028CDD003F02D
:1047F80037F80023824605F108000393049306F076
:1048080044FBFB0000F1FF383278C3F1080343444E
:1048180052FA03F3B9D118F0070F08BF27460AF177
:1048280002030CBF0DF1610535469F42ADD305ACBF
:10483800204602F0DDFE00224946204602F0FEFE38
:104848008346002859D16FEA0A01394405EB01096A
:10485800009453464A462846FEF7ECFE8346002855
:104868004BD1C8EBC70733784FF0FF0848FA07F772
:104878001F40377009F1FF329542294603D20B7861
:104888000135002BF8D00B78012B34D1DDF89834A2
:104898004D1C5A1CC5EB090601D09E422BD120465F
:1048A80002F0EEFE834640BB082203A9204602F030
:1048B800F1FE834608BBDDF88C24DDF89014204611
:1048C80002F0E8FE8346C0B932462946204602F087
:1048D800E1FE834688B908A9204602F0E5FE834632
:1048E80058B9524608A948460FF066FA094A0028FE
:1048F80018BF934601E0DFF820B0204602F07DFEA5
:10490800584600E004480DF2644DBDE8F08F00BF42
:1049180080BFFFFF80BCFFFF00BFFFFF70B5D0F86E
:10492800A84086B09DF828500CB1E4B200E02C46AF
:1049380003940C9C0D9E02940B9C05964FF0FF3639
:10494800049601940095FFF713FF06B070BD0000B0
:104958002DE9F74F012B80468A46934699464568CC
:1049680002D1D0F8A430EBB9294601200FF00CF998
:104978000646C8B1294601200FF006F90746C0B916
:104988006FF00F0430462946FEF74CFE30460CF017
:104998001FFB67B138462946FEF744FE38460CF03F
:1049A80017FB04E01B4831E06FF00F002EE02046B3
:1049B8002CE000902B460E9A0D999DF83000FEF7DA
:1049C8008BFE04460028DDD1B9F1000F05D132462F
:1049D8000F994046FFF7DAF806E000960F9B5A4613
:1049E80051464046FFF714F904460028CAD1034649
:1049F8009D4206D0F05CFA5C013350400443E4B2B7
:104A0800F6E7002C044C08BF0024BBE703B0BDE860
:104A1800F08F00BF80BFFFFF80BCFFFFF0B5D0F86C
:104A2800A4E006AD9DF81440E0CDBEF1000F0AD019
:104A3800BEF1010F0FD10897079606950594BDE8BA
:104A4800F040FFF76BBF0897079606950594BDE8F9
:104A5800F040FFF77DBF0148F0BD00BF00BFFFFF7A
:104A680010B504468C3006F05EF904F1980006F0A3
:104A78005AF904F1680006F056F904F1200006F02E
:104A880052F904F1380006F04EF904F12C0006F052
:104A98004AF904F1140006F046F904F1080006F09A
:104AA80042F904F1800006F03EF904F1740006F0C2
:104AB8003AF904F15C0006F036F904F1500006F00A
:104AC80032F904F14400BDE8104006F02CB90000AA
:104AD80038B5054660B1084C206858B162686B6803
:104AE8009A4203D1A9680FF067F910B11434F3E7BB
:104AF80038BD204638BD00BF8870090870B50E461D
:104B0800054660B1094C206848B162686B689A42F2
:104B180003D1A9680FF050F920B11434F3E76FF00E
:104B28002D0070BD2369336070BD00BF786509082A
:104B380070B50E46054660B1094C206848B16268F8
:104B48006B689A4203D1A9680FF036F920B1143482
:104B5800F3E76FF02D0070BD2369336070BD00BFAF
:104B6800A071090870B50E46054660B1094C206869
:104B780048B162686B689A4203D1A9680FF01CF9C2
:104B880020B11034F3E76FF02D0070BDE368336097
:104B980070BD00BF0867090810B50C46FFF798FFFD
:104BA80018B1C3680020236010BD6FF02D0010BD40
:104BB80038B50D461446FFF78BFF28B1037C2B70E0
:104BC800437C0020237038BD6FF02D0038BD0000F5
:104BD80070B50E46054660B1094C206848B1626858
:104BE8006B689A4203D1A9680FF0E6F820B1143433
:104BF800F3E76FF02D0070BD237C337070BD00BFEC
:104C08007867090870B50E46054660B1094C2068FA
:104C180048B162686B689A4203D1A9680FF0CCF872
:104C280020B11434F3E76FF02D0070BD237C33708E
:104C380070BD00BFC867090830B5084B1C684CB187
:104C48001D7C854204D10C605B680020136030BD78
:104C58001433F3E76FF02D0030BD00BF1070090862
:104C680070B50E46054660B1094C206848B16268C7
:104C78006B689A4203D1A9680FF09EF820B11434EA
:104C8800F3E76FF02D0070BD237C337070BD00BF5B
:104C980028710908F8B50F461646054660B10A4C52
:104CA800206848B162686B689A4203D1A9680FF01E
:104CB80083F820B11434F3E76FF02D00F8BD237C9E
:104CC8003B70637C3370F8BDD46F09085C22002107
:104CD8000FF0A7B838B100F15C020023904202D06F
:104CE80003700130FAE7704708B55C220FF073F8DB
:104CF80008BD000003460A4A00209A6002F1883283
:104D0800DA6002F12942A2F59612A2F68B621A61C4
:104D1800A2F188325A61034A186058609A61704754
:104D280001234567F0E1D2C32DE9F04F4B780A78AB
:104D38001B0443EA0263CA7897B013438A7891F850
:104D480008C043EA022306934B790A791B0443EA15
:104D58000263CA7991F80C8013438A7991F814E0B8
:104D680043EA022307934B7A0A7C1B0443EA0C6349
:104D780091F80BC00F7E43EA0C0391F80AC001902A
:104D880043EA0C2C4B7B1B0443EA086391F80F8021
:104D980043EA080391F80E8043EA08284B7C1B0479
:104DA80043EA0263CA7C13438A7C43EA02230E93D4
:104DB8004B7D1B0443EA0E6391F817E043EA0E03A8
:104DC80091F816E043EA0E230F934B7E1B0443EA47
:104DD8000763CF7E0E7F3B438F7E91F8204043EAE6
:104DE800072310934B7F91F824201B0443EA0663A2
:104DF800CE7F91F82C0033438E7F43EA062311932C
:104E080091F821301B0443EA046391F823402343BB
:104E180091F8224043EA0423099391F825301B04B2
:104E280043EA026391F82720134391F8262043EAC6
:104E380002230A9391F8293091F828201B0443EAA9
:104E4800026391F82B20134391F82A2043EA0223A6
:104E58000B9391F82D301B0443EA006391F82F005F
:104E6800034391F82E0043EA00230C9391F8313064
:104E780091F830001B0443EA006391F833000343C0
:104E880091F8320043EA00230D9391F8353091F8F8
:104E980034901B0443EA096391F8379091F838205D
:104EA80043EA090391F8369043EA0923029391F8FB
:104EB80039301B0443EA026391F83B20134391F80D
:104EC8003A2043EA0223039391F83D3091F83C20BD
:104ED8001B0443EA026391F83F20134391F83E20F4
:104EE80043EA02230493019B9B681293019BDB68AE
:104EF8001493019B1B690593019B5B691393019BA9
:104F0800139A9B691593059B83EA020E149B1299C9
:104F18000EEA030E8EEA020EDD4B159A119C1A4416
:104F280002EBF1629644069A04EB030B9644149A3A
:104F3800099C4FEAB200059AC51882EA0007059A4B
:104F48000F405740139A4FEAB1011A441744079A81
:104F580080EA01091744059A09EA0E091A4407EB81
:104F6800FE6762444FEABE0E89EA0009914481EA6D
:104F78000E023A4009EBF7694A404FEAB707454441
:104F8800C81815440E998EEA070202EA090205EBD1
:104F9800F96582EA0E024FEAB90908440F991044EC
:104FA80087EA0902CE182A407A40764400EBF56079
:104FB80016444FEAB505109A89EA050101401A44DA
:104FC80006EBF06681EA09014FEAB0003A440A4468
:104FD80085EA0001314002EBF66269404FEAB60605
:104FE800CB448B4480EA060111401C4441402C44C8
:104FF8000BEBF26B0C444FEAB2020A9986EA0205FF
:1050080005EA0B0519447540014404EBFB64294487
:105018004FEABB0B0B9D82EA0B0005EB030A20400D
:1050280001EBF4610C9D4FEAB4045040B244824451
:105038008BEA040005EB0309084080EA0B00914461
:105048000AEBF16A81444FEAB1010D9884EA010242
:1050580000EB030E02EA0A0209EBFA6902984FEA2A
:10506800BA0A6240DE44964481EA0A02C51802EA96
:1050780009020EEBF96E4A404FEAB9090398254434
:1050880015448AEA090202EA0E02184405EBFE6595
:1050980082EA0A024FEABE0E08440499104489EADB
:1050A8000E02CF182A4082EA090257441744069A8A
:1050B800099982EA0C024A40029900EBF5604A40DD
:1050C8004FEAB5058EEA05014FEAF27206920140F1
:1050D8001A4481EA0E014A440A4407990A9C81EA63
:1050E80008016140039C07EBF06761404FEAF171EA
:1050F80007914FEAB000079C85EA0001E61839409D
:10510800694076440E440E9902EBF7628CEA010C72
:105118000B994FEAB7078CEA010C049906EBF26683
:105128008CEA010C4FEAFC710891089C80EA07019F
:1051380011401C4441402C440C440F994FEAB202E0
:1051480088EA01080C9987EA020588EA01080699A5
:10515800354088EA01084FEAF87843447D40034423
:10516800E91810980E9B4B4D83EA000C0D9B04EB3D
:10517800F6648CEA030C079B4FEAB6068CEA030C2C
:105188004FEAFC7C82EA06030CEB050B6340BB4448
:1051980011989B440F9B01EBF46183EA000E029B7C
:1051A8004FEAB4048EEA030E089B86EA04008EEAEE
:1051B800030E4FEAFE7E0EEB0503484013440344FA
:1051C800109A09980BEBF16B82EA0007039A4FEAF1
:1051D800B101574087EA08074FEAF77784EA0102E6
:1051E80007EB050A82EA0B02B2440A989244119A24
:1051F80003EBFB6382EA0006049A4FEABB0B5640B6
:1052080086EA0C064FEAF67681EA0B0206EB0509F8
:105218005A40A1440B989144099A0AEBF36A82EA2E
:105228000004069A4FEAB303544084EA0E044FEA96
:10523800F472099209988BEA0302284482EA0A0266
:10524800084410440C990A9A09EBFA694A400799EC
:105258004FEABA0A4A407A404FEAF2720A920A9929
:1052680083EA0A02294482EA0902594411440B9A42
:1052780000EBF96014460D9A4FEAB9096240089CA0
:105288008AEA090B624072404FEAF27204E000BFFA
:105298009979825AA1EBD96E0B922A44029C01EBB0
:1052A800F0618BEA000B1A444FEAB0030C985A4499
:1052B8006040099C80EA080060404FEAF0700C905A
:1052C8000C9C89EA030004EB050B4840DA44039C74
:1052D80082440D9802EBF16260400A9C80EA0C005F
:1052E80060404FEAF070029C0D9028444844A14663
:1052F800049C4FEAB10189EA04090B9C89EA0E096A
:1053080089EA04094FEAF97404EB0509029483EA6F
:10531800010B069C9944039B0AEBF26A63400C9CC0
:105328007B4063404FEAF37303938BEA020B4FEA27
:10533800B202039C584481EA020B00EBFA608BEA44
:105348000A0B4FEABA0A82EA0A03D94404EB050BAE
:1053580043405944079C1944049B09EBF069634096
:105368000D9C734063404FEAF37304932B44089CED
:105378001344069A4FEAB0006240099C8AEA000B7F
:105388006240029C01EBF96162404FEAF2720692B8
:10539800069C8BEA090B4FEAB90980EA09025B44CB
:1053A80004EB050B4A40079CDA4403EBF163924493
:1053B8000AEBF36284EA080A0A9C4FEAB1018AEA16
:1053C800040A039C88EA0E088AEA040A4FEAFA7477
:1053D80004EB050B89EA010A58448AEA030A824465
:1053E800089807940B9C80EA0C006040049C4FEAE4
:1053F800B30360404FEAF0700890089C81EA03000C
:1054080004EB050B0C9C504088EA0408069CD94420
:1054180088EA04084FEAF87B0AEBF26A81444FEA0B
:10542800B20209EBFA6083EA02080BEB050988EA85
:105438000A084944414401EBF0680D998CEA070CCD
:105448008CEA010C07994FEABA0A8CEA010C4FEA78
:10545800FC710E910E9C82EA0A0104EB050C414096
:1054680063440B4403EBF861029B8EEA060E8EEA56
:10547800030E089B4FEAB0008EEA030E4FEAFE7354
:105488000F930F9C8AEA000304EB050E83EA0803D6
:1054980072441A4402EBF163099A4FEAB80857407C
:1054A800039A574087EA0B074FEAF7721092109C4D
:1054B80080EA080267190A9C4A406640049C4FEA41
:1054C800B10166400E9CBA4466404FEAF674254422
:1054D800119428440B9C099D88EA010665402C46D6
:1054E800069D5E406C400F9D924430446C40D64E01
:1054F8000AEBF3624FEAF4744FEAB303099442EA01
:105508000305344400EBF2600D40A04402EA0304B2
:105518002C4308EBF0684FEAB20AA0440A9A0C9CA4
:105528004FEAB00C6240079C6240109C62404FEA10
:10553800F2720A9240EA0A0202EA030400EA0A0244
:1055480022430A9C0D983444214411440B9A01EBE0
:10555800F861424008984240119842404FEAF2727E
:105568000B9248EA0C00324400EA0A00134408EAA5
:105578000C02024303EBF163134402980C9A4FEABE
:10558800B8085040099A80EA0B0050404FEAF07280
:1055980041EA08000C9200EA0C0001EA08021043F4
:1055A8000C9A4FEAB10132445244024402EBF36AC6
:1055B80003980D9A43EA010450400E9A04EA08043D
:1055C80050400A9A4FEAB30750404FEAF0729019D8
:1055D8000D92604403EA0102224300EBFA60104492
:1055E800029B049A4FEABA0953400F9A53400B9A08
:1055F80053404FEAF3730293029A4AEA070303EA15
:10560800010E0AEA07034EEA030302EB060EF04412
:105618009844069A039B08EBF06E83EA0208109BF5
:1056280088EA03080C9B88EA03084FEAF8739C1978
:10563800214440EA090403933C4000EA09031C435F
:10564800049B079A4FEAB00083EA020C119B01EB16
:10565800FE618CEA030C0D9B0C448CEA030C4FEAA8
:10566800FC734EEA0001049301EA09010EEA000303
:105678001943049B089A33443B44CF18069B4FEACE
:10568800BE0183EA0208099B07EBF46788EA03086E
:10569800029B4FEAB70A88EA03084FEAF8739A1997
:1056A800914444EA01020693024004EA01031A43C2
:1056B800079B4FEAB40483EA0B0C0A9B09EBF769D2
:1056C8008CEA030C039B4A448CEA030C4FEAFC73F4
:1056D8000793079D47EA040303EA010C07EA04035A
:1056E8004CEA030305EB060C6044184400EBF26C2B
:1056F800089B0E9883EA00050B9B42EA0A005D406E
:10570800049B20405D404FEAF577BB19194401EB33
:10571800FC6302EA0A01014319440F9B4FEAB202F3
:105728008BEA03090C9B4FEABC0089EA0309069B34
:1057380089EA03094CEA02034FEAF97E03EA0A05FB
:105748000CEA02032B430EEB060525441D44109C6E
:105758000E9B05EBF16563400D9C6340079C63401D
:105768004FEAF373089333449A440AEBF56341EA2A
:10577800000A01EA00040AEA020A4AEA040A9A4408
:10578800119C0F9B4FEAB1016340029C63407B4030
:1057980045EA01044FEAF3730E93044005EA010356
:1057A8001C430E9B4FEAB505334413442344109A17
:1057B800099C03EBFA6382EA0408039A88EA020860
:1057C80088EA0E084FEAF87202EB0608804408EBF4
:1057D800F3604AEA05080F9208EA01080AEA050296
:1057E80048EA02088044119A0A984FEABA0A82EAFB
:1057F800000C049A8CEA020C089A8CEA020C4FEA14
:10580800FC721092109843EA0A0202EA050C03EAB5
:105818000A024CEA020200EB060C8C440B999444F1
:10582800069A4C4054400E9A0CEBF86C54404FEAE0
:10583800F472099232444FEAB303154405EBFC6253
:1058480048EA030502E000BFDCBC1B8F08EA03013D
:1058580005EA0A050D4315440C990A9A4FEAB80857
:1058680082EA010B079A0D998BEA020B0F9A8BEAD1
:10587800020B4CEA08024FEAFB7B02EA03090CEA36
:10588800080249EA02020BEB0609D14491440B9A3B
:105898004FEABC0C82EA010A8AEA070A8AEA000A85
:1058A8004FEAFA720A92324409EBF56945EA0C01AB
:1058B8001A4402EBF96301EA080105EA0C020A43FB
:1058C8001A4402990C9B4FEAB50583EA0100099B2B
:1058D80080EA0E0058404FEAF0730B930B9949EA9F
:1058E800050000EA0C0009EA05030E444644034398
:1058F800981903990D9BD84E5940089B4FEAB9094E
:10590800594081EA0B014FEAF1730C930C9985EA2F
:1059180009033144534061441944029B049C00EB41
:10592800F26063400E9C4FEAB20263400A9C01EBAE
:10593800F06163404FEAF373029389EA0204334447
:1059480044402B442344069D039C4FEAB00084EA5C
:1059580005080F9C82EA000588EA04080B9C4D4064
:1059680088EA04084FEAF874039434444C442C44FD
:10597800049D03EBF163AC46079D4FEAB1018CEA45
:10598800050C109D04EBF3648CEA050C0C9D8CEA65
:10599800050C4FEAFC75049580EA010585EA030CBD
:1059A800049D4FEAB30305EB060A9244069AE244C3
:1059B80082EA0708099A0AEBF46A88EA0208029A56
:1059C80088EA02084FEAF8720692069D81EA030205
:1059D80005EB0608624080449044079A4FEAB404F5
:1059E80082EA0E0C039A8CEA0B0C8CEA020C4FEA42
:1059F800FC720792079883EA040200EB060C82EA1D
:105A08000A028C449444089A08EBFA6887EA02056B
:105A18000A9A4FEABA0A5540049A0CEBF86C5540BA
:105A28004FEAF575AF191F440E9B84EA0A028EEA05
:105A380003090B9B82EA080289EA0309069B4FEADD
:105A4800B80889EA03094FEAF9798AEA080309EBF1
:105A5800060E83EA0C03A64417449E440F9A089B3B
:105A680007EBFC6753400C9A4FEABC0C5340434089
:105A78004FEAF3730893089A88EA0C0332447B4090
:105A8800524410991A440E9B0EEBF76E4B40029944
:105A98004FEAB7074B406B404FEAF3730D930D99EC
:105AA8008CEA0703881983EA0E03404409991844CD
:105AB8000F9B02EBFE6283EA0108039B4FEABE0ECE
:105AC80088EA030888EA09084FEAF87887EA0E03A3
