:020000040808EA
:10000000000008086CB40908000005000A0005019A
:080010000402CF000000000013
:100018002C75090809480A4908B5884205D0094AD3
:10002800824202D0121A15F002FC0748074A002142
:10003800121A15F022FC064808BD00BF0004002073
:10004800CCB209087805002078050020A4450020D6
:10005800A445002070B513F0D3FC074B074C1E468F
:10006800E41AA4080025A54204D056F8253098477C
:100078000135F8E770BD00BF2CB20908C0B2090805
:1000880000F08CB808B501F0FFF9BDE8084013F09E
:1000980075BC12F0DFBE12F0DDBE12F0E3BE12F046
:1000A800E1BE0078B0FA80F0400970470123037080
:1000B80070470B68002B12BF062300230021037032
:1000C80081600120704770B5826804460D4622B1F0
:1000D8009368033323F003039360A2684AB19368DB
:1000E8005068E918814204D802F10C009160184464
:1000F80070BDE668AE4238BF2E4606F10C0012F01D
:10010800A9FE78B1002383604660A36800F10C0261
:100118000360E368A0605B00E36083681D4485605A
:10012800D01870BD70BD0000054B13F8022C22B129
:10013800023313F8031C8142F7D11046704700BF01
:100148004E7509080246084619B10B6811461B6826
:100158001847704738B5084D2B6813F0010409D1CA
:100168002846FFF79EFF28B1044B28461C605C60B8
:10017800FFF79CFF014838BDE0050020E40500209A
:1001880010B5014604460820FFF7DCFF18B100232C
:100198000460436010BDFFF7DDFF10BDF0B5E3B0AC
:1001A80013F000FD4FF4165113F0E2FC41F28830D1
:1001B80013F06CFB45480FF0B1FF454E454810F071
:1001C800D7FC0523414A009343493346414810F080
:1001D80037FD0121062013F059FE0021062013F0F7
:1001E80066FE4FF416513D4812F052F83C493B4820
:1001F80012F057F84FF4FA7013F048FB39493748B2
:1002080012F04FF84FF4FA7013F040FB364C13F02D
:10021800C9FC0021022012F0EDFD12F063FC2068F9
:1002280011F0C8FA22AD8022002102A815F025FBA2
:1002380042AF80220021284615F01FFB80220021B2
:10024800384615F01AFB337930688DF80C30029077
:1002580013F0A8FC254913F0A5F92A4602A920683D
:1002680011F0CFFA002613F09DFCAB5D204A002167
:10027800013613F0BFFA102EF5D113F093FC13F0EA
:1002880098F913F08FFC1B4913F08CF920683A4653
:10029800294611F0C3FA002413F084FC3B5D164A8A
:1002A8000021013413F0A6FA102CF5D113F07AFCD2
:1002B80013F07FF90021022012F09CFD12F01AFCC5
:1002C80012F0B8FB0D4B186063B0F0BD400600207B
:1002D8005B750908BC08002075010908EC050020B9
:1002E8006175090893750908A42D0020A4750908EB
:1002F800D2760908B5750908C6750908B808002036
:1003080038B50446806830B14368E360056812F088
:10031800A9FD2846F7E7A06038BD10B50446016876
:100328001820FFF70FFF10B1002303600372636802
:100338002BB11A680AB11346FBE7186010BD60605C
:1003480010BD38B50546006810B9FFF703FF38BD82
:10035800FFF716FF04462846FFF7DFFF18B12146CE
:100368000830FFF7A6FE204638BD38B50D46FFF722
:10037800D4FF044640B1286814F04EFAC4E90401D9
:1003880008232372012038BD38BD38B50D464468AE
:100398007CB1A16805B119B94B1B5842584105E019
:1003A800284615F08EFAB0FA80F0400908B924689A
:1003B800EEE7204638BD10B5044601682020FFF757
:1003C800C1FE10B100230360037463682BB11A687F
:1003D8000AB11346FBE7186010BD606010BD70B528
:1003E800064600680D4610B9FFF7B4FE70BDFFF76A
:1003F800C7FE04466DB129463046FFF7C6FF20B94F
:100408003046FFF7D8FF20B1856021461030FFF74E
:1004180050FE204670BD000070B51B4D06462B6887
:100428001A4C13F0010F1AD12846FFF73AFEB0B163
:100438000DA3D3E900232846C4E90A230CA3D3E972
:100448000023C4E90C230CA3D3E90023C4E90E2339
:100458000BA3D3E90023C4E91023FFF727FE04EB1D
:10046800C604D4E9000170BD176E05B5B5B893464A
:10047800F5F93FE9034F384D321D30F94877825A74
:100488003CBF737FDD4F1575D00500204804002060
:100498002DE9F74F6EA3D3E90023064603C814F0ED
:1004A80095FC002860D0DFF83CA208244FF4807740
:1004B80000252046D6E90089FFF7AEFF02460B4625
:1004C8004046494614F082FC002845D0DFF81882DF
:1004D800D8F80030D90735D44046FFF7E2FD0028A8
:1004E80030D05DA3D3E900237D494046C1E900230C
:1004F8005BA3D3E90023C1E902235BA3D3E900236B
:10050800C1E904235AA3D3E90023C1E906235AA366
:10051800D3E90023C1E9082359A3D3E90023C1E99A
:100528000A2359A3D3E90023C1E90C2358A3D3E92B
:100538000023C1E90E2358A3D3E90023C1E91023FE
:10054800FFF7B4FDDAE90023D6E9000114F0B8F9A1
:10055800C6E900013D442DB2013C621C4FEA670721
:10056800AAF1080AA5D103E005464FF480770824CC
:10057800D6E90089002200234046494614F030FCA1
:10058800002861D046A3D3E900234046494614F029
:1005980013FC002858D00FF2101BDBE900AB631CDA
:1005A80052D0D6E90023DFF84491CDE90023D9F8E9
:1005B8000030DFF83C8113F0010F2BD14846FFF7DC
:1005C80070FD38B33AA1D1E9000123A3D3E9002390
:1005D800C8E9080138A1D1E90001C8E90A0138A130
:1005E800D1E90001C8E90C0137A1D1E90001C8E946
:1005F8000E0137A1D1E90001C8E910014846C8E950
:10060800022335A3D3E90023C8E906ABC8E90423CC
:10061800FFF74CFDDDE9000108EBC403D3E9002333
:1006280014F0C0FB60B12046FFF7F6FE02460B4609
:10063800D6E9000114F044F9C6E90001ED1B2DB21A
:10064800013C7F1064B2AAE7284603B0BDE8F08FEA
:1006580000000000D01263419A9999999999B93F7D
:100668007B14AE47E17A843F2D431CEBE2361A3FF8
:100678003A8C30E28E79453EBC89D897B2D29C3C00
:1006880033A7A8D523F649393DA7F444FD0FA53271
:100698009D978CCF08BA5B25436FAC642806C80ABF
:1006A800F168E388B5F8E43E48AFBC9AF2D77A3EE1
:1006B8001656E79EAF03D23C80688965D6398039E3
:1006C8000DD13196FC53DA32C2DEB78145549125FB
:1006D800148BD77DB207FE0AFCA9F1D24D62503FB8
:1006E80088050020C8050020800500207C05002022
:1006F800000400202DE9F347044602A860E902231C
:100708000923A372FFF7C4FEDDE900892081494669
:100718000646404614F0ACFB054603462B4F2060C6
:100728000A21092B07D9A27AB7FBF1F7013AA2727D
:10073800B3FBF1F3F5E7284614F04CF802460B46F4
:100748004046494613F008FF80463846894614F06B
:1007580041F802460B464046494614F0B1F889462E
:10076800804614F085FB824614F034F802460B46A6
:100778004046494613F0F0FE02460B4613F0EEFEE3
:1007880014F076FB5044874201D960600AE00023E8
:100798000135636025602EB1092D81BF0136012323
:1007A800268123600A216368B3FBF1F201FB12334F
:1007B8003BB994F90A30002B03DD013B6260A37258
:1007C800F1E7204602B0BDE8F08700BF00CA9A3BB7
:1007D800F8B504790546E4090E4610D000273C46D2
:1007E8002B7903F00F02C3F302135343BB4206DD18
:1007F8002021286812F0DAFE01370444F0E7314678
:10080800286812F0D3FEA6F10A035E425E412B79F6
:10081800204466F3C7132B71F8BD70B506464D1E0C
:10082800002415F8011F21B13046FFF7D1FF044419
:10083800F7E7204670BD000008B5037803F0DF0332
:100848005B2B01D0002008BD41680B7903F00F0233
:100858000F2A03D0013262F303030B710249406887
:10086800FFF7DBFF08BD00BFCA7509085B2970B533
:1008780005460E461DD008D82C2915D03A2911D086
:10088800222916D10123037214E07B2911D07D2976
:1008980001D05D290DD12B7803F0DF035B2B12D13A
:1008A80000240AE00F4900E00F496868FFF7B5FF28
:1008B80070BD2846FFF7C0FF044631466868FFF759
:1008C80087FF204470BD69680B7913F00F0203D0CD
:1008D8000F3262F303030B7104496868FFF79DFF49
:1008E800EAE700BFC2900908C9750908CA7509086E
:1008F80038B5037A04460D464BB1222902D1037854
:100908005C2B07D129466068FFF762FF05E0FFF717
:10091800ADFF02E000230372F4E7257038BD10B57F
:1009280004460068FFF7E4FF63681844606010BD80
:10093800F8B5054607684E1E002416F8011F21B1B8
:100948003846FFF7D5FF0444F7E76B681C446C6032
:10095800F8BD0000F8B505460C4619B90F49FFF770
:10096800E7FFF8BD2221FFF7DAFF013C14F8016F19
:100978007EB13046FFF7D8FB074628B15C212846F0
:10098800FFF7CDFF394600E031462846FFF7C7FF9D
:10099800ECE722212846FFF7C2FFF8BDCD7509080C
:1009A800F0B519468BB00546104616461C4614F09D
:1009B800EFF908B94C4921E00022002330462146CE
:1009C80014F0F0F928B12D212846FFF7A8FF04F10B
:1009D8000044002200233046214614F0D9F988B992
:1009E800324623463046214613F0B8FD02460B46F0
:1009F8003046214614F0CCF920B13C492846FFF78F
:100A080097FF6FE02346324601A8FFF773FE0AA955
:100A1800002301F8033D0E46019C0A23B4FBF3F2C0
:100A280003FB1244303401F8014D1446002AF5D175
:100A38002846FFF77DFF9DF90E10E1B10AA800F8DE
:100A4800094D02460C46029B4FF00A0E013C64B267
:100A5800671C08D0B3FBFEF70EFB1733303300F8E2
:100A6800013D3B46F2E7C9B2511A2E2301F8013D78
:100A78002846FFF75DFFBDF90C30002B18DA1C493A
:100A88002846FFF755FF3146BDF90C3000225B427E
:100A98008DF825200A2093FBF0F200FB1233303347
:100AA80001F8013D1346002AF5D12846FFF740FF1B
:100AB800BDF90C30002B15DD65212846FFF72FFF07
:100AC80031460022BDF90C308DF825200A2093FB11
:100AD800F0F200FB1233303301F8013D13B2002B62
:100AE800F5D18BE70BB0F0BDD2750908D9750908A7
:100AF800D6750908F0B5037887B0013B05460C4662
:100B0800072B58D8DFE803F02B264D312D0A220495
:100B1800D0E902230846FFF743FF4CE085685B21D4
:100B28002046FFF7FCFE6D685DB105F1080021461F
:100B3800FFF7E0FF2D6825B12C212046FFF7EFFED7
:100B4800F2E75D212046FFF7EAFE34E0806800F016
:100B580039F830E081682046FFF7FCFE2BE0816819
:100B680026E02D212046FFF7DAFED5E902670023AB
:100B780006AD05F8033D304639460A22002314F035
:100B88008BFC303205F8012D0023304639460A2205
:100B980014F082FC06460F4656EA0703EBD12946B5
:100BA80006E0D0E902231343044B054908BF194660
:100BB8002046FFF7BDFE07B0F0BD00BFE775090886
:100BC800E275090870B50C4605467B212046FFF7FB
:100BD800A6FE6D68ADB12E46204656F8081FFFF7F1
:100BE800B9FE3A212046FFF79AFE214606F1080091
:100BF800FFF780FF2D6825B12C212046FFF78FFED7
:100C0800E8E77D212046FFF78AFE70BD10B504791C
:100C1800E3091EBF04F00F02C4F302135343A1F10A
:100C28000A0251425141027961F3C7120271581CFC
:100C380010BDF0B50379DB091DD0002423462646F4
:100C48004FF0200E027902F00F05C2F302126A4338
:100C5800A24210DD0268013417685568BD423FBFE3
:100C68006F1C576085F800E052682EBF002216708E
:100C780001221344E6E7026854681568AC423FBF96
:100C8800651C5560217052683CBF00241470A1F1A6
:100C98000A0434BF0122002261426141047961F3F0
:100CA800C71404719818F0BD70B506464D1E00248F
:100CB80015F8011F21B13046FFF7A8FF0444F7E7F4
:100CC800204670BD08B5037803F0DF035B2B01D025
:100CD800002008BD41680B7903F00F020F2A03D0EA
:100CE800013262F303030B7102494068FFF7DCFF2E
:100CF80008BD00BFCA7509085B2970B505460E46D0
:100D08001DD008D82C2915D03A2911D0222916D15E
:100D18000123037214E07B2911D07D2901D05D29BC
:100D28000DD12B7803F0DF035B2B12D100240AE0EE
:100D38000F4900E00F496868FFF7B6FF70BD284605
:100D4800FFF7C0FF044631466868FFF75FFF20449D
:100D580070BD69680B7913F00F0203D00F3262F38C
:100D680003030B7104496868FFF79EFFEAE700BFB9
:100D7800C2900908C9750908CA75090838B5037AFF
:100D880004460D464BB1222902D103785C2B07D1CA
:100D980029466068FFF73AFF05E0FFF7ADFF02E07C
:100DA80000230372F4E7257038BD10B504460068C7
:100DB800FFF7E4FF63681844606010BDF8B50546A6
:100DC80007684E1E002416F8011F21B13846FFF7A8
:100DD800D5FF0444F7E76B681C446C60F8BD00005D
:100DE800F8B505460C4619B90F49FFF7E7FFF8BDF6
:100DF8002221FFF7DAFF013C14F8016F7EB130467B
:100E0800FFF792F9074628B15C212846FFF7CDFF86
:100E1800394600E031462846FFF7C7FFECE72221B4
:100E28002846FFF7C2FFF8BDCD750908F0B5194689
:100E38008BB00546104616461C4613F0A9FF08B9A4
:100E48004C4921E0002200233046214613F0AAFF36
:100E580028B12D212846FFF7A8FF04F100440022FD
:100E680000233046214613F093FF88B932462346C3
:100E78003046214613F072FB02460B4630462146A7
:100E880013F086FF20B13C492846FFF797FF6FE033
:100E98002346324601A8FFF72DFC0AA9002301F8D2
:100EA800033D0E46019C0A23B4FBF3F203FB1244F4
:100EB800303401F8014D1446002AF5D12846FFF7D1
:100EC8007DFF9DF90E10E1B10AA800F8094D024610
:100ED8000C46029B4FF00A0E013C64B2671C08D016
:100EE800B3FBFEF70EFB1733303300F8013D3B46EA
:100EF800F2E7C9B2511A2E2301F8013D2846FFF73F
:100F08005DFFBDF90C30002B18DA1C492846FFF7A5
:100F180055FF3146BDF90C3000225B428DF8252083
:100F28000A2093FBF0F200FB1233303301F8013D45
:100F38001346002AF5D12846FFF740FFBDF90C30CB
:100F4800002B15DD65212846FFF72FFF31460022CB
:100F5800BDF90C308DF825200A2093FBF0F200FB38
:100F68001233303301F8013D13B2002BF5D18BE772
:100F78000BB0F0BDD2750908D9750908D6750908EE
:100F8800F0B5037887B0013B05460C46072B58D8C7
:100F9800DFE803F02B264D312D0A2204D0E9022385
:100FA8000846FFF743FF4CE085685B212046FFF7C2
:100FB800FCFE6D685DB105F108002146FFF7E0FF12
:100FC8002D6825B12C212046FFF7EFFEF2E75D21C1
:100FD8002046FFF7EAFE34E0806800F039F830E098
:100FE80081682046FFF7FCFE2BE0816826E02D2172
:100FF8002046FFF7DAFED5E90267002306AD05F8BB
:10100800033D304639460A22002314F045FA3032AF
:1010180005F8012D0023304639460A2214F03CFA1F
:1010280006460F4656EA0703EBD1294606E0D0E903
:1010380002231343044B054908BF19462046FFF70E
:10104800BDFE07B0F0BD00BFE7750908E2750908E5
:1010580070B50C4605467B212046FFF7A6FE6D6855
:10106800ADB12E46204656F8081FFFF7B9FE3A21C3
:101078002046FFF79AFE214606F10800FFF780FF99
:101088002D6825B12C212046FFF78FFEE8E77D214A
:101098002046FFF78AFE70BD70B506464D1E002437
:1010A80015F8011F21B13046FFF7C3FD0444F7E7E7
:1010B800204670BD08B5037803F0DF035B2B01D031
:1010C800002008BD41680B7903F00F020F2A03D0F6
:1010D800013262F303030B7102494068FFF7DCFF3A
:1010E80008BD00BFCA7509085B2970B505460E46DC
:1010F8001DD008D82C2915D03A2911D0222916D16B
:101108000123037214E07B2911D07D2901D05D29C8
:101118000DD12B7803F0DF035B2B12D100240AE0FA
:101128000F4900E00F496868FFF7B6FF70BD284611
:10113800FFF7C0FF044631466868FFF77AFD204490
:1011480070BD69680B7913F00F0203D00F3262F398
:1011580003030B7104496868FFF79EFFEAE700BFC5
:10116800C2900908C9750908CA75090838B5037A0B
:1011780004460D464BB1222902D103785C2B07D1D6
:1011880029466068FFF755FD05E0FFF7ADFF02E06F
:1011980000230372F4E7257038BD10B504460068D3
:1011A800FFF7E4FF63681844606010BDF8B50546B2
:1011B80007684E1E002416F8011F21B13846FFF7B4
:1011C800D5FF0444F7E76B681C446C60F8BD000069
:1011D800F8B505460C4619B90F49FFF7E7FFF8BD02
:1011E8002221FFF7DAFF013C14F8016F7EB1304687
:1011F800FEF79AFF074628B15C212846FFF7CDFF86
:10120800394600E031462846FFF7C7FFECE72221C0
:101218002846FFF7C2FFF8BDCD750908F0B5194695
:101228008BB00546104616461C4613F0B1FD08B9AA
:101238004C4921E0002200233046214613F0B2FD3C
:1012480028B12D212846FFF7A8FF04F10044002209
:1012580000233046214613F09BFD88B932462346C9
:101268003046214613F07AF902460B4630462146AD
:1012780013F08EFD20B13C492846FFF797FF6FE039
:101288002346324601A8FFF735FA0AA9002301F8D8
:10129800033D0E46019C0A23B4FBF3F203FB124400
:1012A800303401F8014D1446002AF5D12846FFF7DD
:1012B8007DFF9DF90E10E1B10AA800F8094D02461C
:1012C8000C46029B4FF00A0E013C64B2671C08D022
:1012D800B3FBFEF70EFB1733303300F8013D3B46F6
:1012E800F2E7C9B2511A2E2301F8013D2846FFF74B
:1012F8005DFFBDF90C30002B18DA1C492846FFF7B2
:1013080055FF3146BDF90C3000225B428DF825208F
:101318000A2093FBF0F200FB1233303301F8013D51
:101328001346002AF5D12846FFF740FFBDF90C30D7
:10133800002B15DD65212846FFF72FFF31460022D7
:10134800BDF90C308DF825200A2093FBF0F200FB44
:101358001233303301F8013D13B2002BF5D18BE77E
:101368000BB0F0BDD2750908D9750908D6750908FA
:10137800F0B5037887B0013B05460C46072B58D8D3
:10138800DFE803F02B264D312D0A2204D0E9022391
:101398000846FFF743FF4CE085685B212046FFF7CE
:1013A800FCFE6D685DB105F108002146FFF7E0FF1E
:1013B8002D6825B12C212046FFF7EFFEF2E75D21CD
:1013C8002046FFF7EAFE34E0806800F039F830E0A4
:1013D80081682046FFF7FCFE2BE0816826E02D217E
:1013E8002046FFF7DAFED5E90267002306AD05F8C7
:1013F800033D304639460A22002314F04DF83032B6
:1014080005F8012D0023304639460A2214F044F825
:1014180006460F4656EA0703EBD1294606E0D0E90F
:1014280002231343044B054908BF19462046FFF71A
:10143800BDFE07B0F0BD00BFE7750908E2750908F1
:1014480070B50C4605467B212046FFF7A6FE6D6861
:10145800ADB12E46204656F8081FFFF7B9FE3A21CF
:101468002046FFF79AFE214606F10800FFF780FFA5
:101478002D6825B12C212046FFF78FFEE8E77D2156
:101488002046FFF78AFE70BD2DE9F04F99B012F0A3
:1014980053FC03681B699847074678B1734810F0F6
:1014A80071FE724810F000FF0028F0D06F4810F06D
:1014B80001FF01466D4810F017FFE8E7DFF8E0A1EB
:1014C800DFF8E091DAF8000011F0F4FAD9F800003A
:1014D80011F0F0FA664B674E1868674D11F0EAFA9A
:1014E80033782A78DFF8C0819B0043EAC20398F872
:1014F800002014AC43EA42035BB203935F4B2146DE
:10150800149308204FF4807316971793FEF71AFE6A
:10151800CDF81CA0CDF82090CDF8108018B180E847
:10152800900004460EE0DFF88481554CD8F800306E
:1015380013F0010705D14046FEF7B3FD002840F03F
:101548006B814F4C4F492046FEF749FF4E490590A5
:101558002046FEF744FF4D4906902046FEF73FFF20
:101568004B4F814639462046FEF70FFF20B92046EB
:10157800FEF721FF38B187609DF90C20042303741E
:10158800D317C0E90623337803B3DFF824A1002773
:10159800DAF800309F4217DA4846FEF7D2FE834653
:1015A80028237B434FF0000803EB08010993394BCC
:1015B8005846194408F10408FEF7D7FEB8F1240F7D
:1015C800099BF1D10137E3E7002333702B7873B31C
:1015D800DFF8E08000264FF02409D8F800309E425A
:1015E80023DA0598FEF7ADFE83462B4B002709FB4F
:1015F800063A5846FEF791FE90B15AF8271000298E
:10160800B5BF49420A460A46D317B8BFD317C0E93F
:101618000423ACBF4FF0040E4FF0050E80F808E02D
:101628000137092FE5D10136D7E700232B70049B3A
:101638001B78002B45D0194FDFF87C8000253B68CC
:101648009D423BDA0698FEF77CFE82464FF00C0975
:1016580009FB05F9002606EB09014144504604360A
:10166800FEF783FE242EF6D10135E8E7EC050020CD
:101678006C33002068330020982D00204875090835
:10168800D8050020ED750908F6750908FF750908E1
:10169800087609089C330020302F0020A02D002058
:1016A8008C2D002098330020842D0020D4050020A4
:1016B800503800209C2D0020B02D0020049A0023D3
:1016C8001370039B002B48D012F06CFA554911F0A7
:1016D8007CFF12F067FA544911F077FF12F062FAB2
:1016E800524911F05FFF12F05DFA514E0746B0699A
:1016F80013F092F8022502460B460095384612F080
:101708006BF812F04FFA4B4911F04CFF12F04AFAFD
:101718000746F06913F080F8009502460B463846F4
:1017280012F05AF812F03EFA434911F04EFF12F047
:1017380039FA2D010DAB0D9045F08005129311AAD1
:1017480000230FA920468DF838508DF844308DF8C5
:101758004C300F921093FFF735FADFF8E8A04FF0FE
:101768000208DAF8000011F0A5F9B8F1000F14BF6B
:10177800A022802200250BAB0DAF11AE0FA9204689
:101788000D9303938DF83820DFF8BCB012978DF8CD
:1017980044508DF84C500F961095FFF759FCDDF822
:1017A8004090DBF8000009F1010111F063FB4FEAFA
:1017B800081800EB0902039B0B920FA9CBF8000055
:1017C8000C9048F08008057020460D938DF83880FD
:1017D80012978DF844508DF84C500F961095FFF7DE
:1017E8002FFEDAF8000011F075F914A8FEF788FD4D
:1017F800079B186811F06EF9089B186811F06AF9D0
:101808000E4B186811F066F90D4B14A81493FEF7E7
:1018180077FD19B0BDE8F08F276067604046FEF796
:1018280045FC8FE6127609082C76090863760908C4
:10183800EC0500206E760908287D09086C33002025
:1018480048750908882D00202C2F002008B511F0B4
:1018580071F80021012011F0C5FA032011F0B2FA45
:1018680010F098F911F0E6F8044B186012F064FAD9
:10187800BDE808400146024810F004BD3C060020BF
:10188800EC05002011F056B811F054B811F052B818
:1018980011F050B830B50224017083700621F52389
:1018A800C47504244270C3800122002301720176AA
:1018B80080F8204003210724027142748274C274A4
:1018C8000275827542768276C276C27780F82140A8
:1018D80043728372C372037343738373C373037452
:1018E80001774377837780F82230044680F8231005
:1018F80080F82720024680F8241080F8253080F8E8
:10190800263000250139E563A564656502F1020208
:10191800A2F85E30A2F86430A2F86A3004F1040438
:10192800F0D14FF0000380F8803030BD10B51E2391
:101938006B220121FFF7AEFF10BD10B50446084623
:1019480013F0C0FB616F13F011FC10BD10B5044615
:10195800084613F0B7FBE16F13F008FC10BD10B593
:101968000446C08813F0AAFB4FF0605113F0FEFB49
:10197800606710BD10B50446C07D13F09FFB4FF0A3
:10198800605113F0F3FBA06710BD000090F8203001
:10199800043B0C2B14D8DFE803F0071313130A13C6
:1019A80013130D1313131000064B1B6807E0054BA8
:1019B8005B6804E0034B9B6801E0024BDB68C3678C
:1019C800704700BF90040020C388F52B07D0B3F5FB
:1019D800FA7F04D0B3F5FA6F1CBFF523C380C27D2C
:1019E800102A03D8084BD340DA0701D40223C37561
:1019F80090F82020102A03D8044BD340DB0702D4E8
:101A0800042380F8203070471401010010110100F0
:101A180010B50446012190F8730012F037FA94F8D3
:101A28007300012112F043FA94F87200012112F0B8
:101A38002DFA94F872000A4C012112F038FA204667
:101A480011F064FA2046082111F0B8FA2046012165
:101A580011F067FA2046BDE81040002111F064BA81
:101A6800AC440020F8B50C4617461E46094D2046E2
:101A7800002112F01CFA07F03F01284611F0B2FAD3
:101A88003146284611F0AEFA2046BDE8F84001215B
:101A980012F00DBAAC440020F8B51E4690F872302A
:101AA80002F03F028B429DF8187042F0800503D186
:101AB800012F88BF45F040058CB22046002112F066
:101AC800F6F92946094811F08DFA3546AB1B9F42B5
:101AD80006DD0021054811F085FA05F8010BF5E748
:101AE8002046012112F0E3F90120F8BDAC440020A2
:101AF8001FB5012300930DF10F03FFF7CDFF9DF8EC
:101B08000F0005B05DF804FB08B512F02FFABDE828
:101B1800084012F075B970B50E4615461C4612F00D
:101B280025FA314612F07EF912F020FA03682946A8
:101B38009B68984712F01AFA036821469A689047FA
:101B480012F014FABDE8704012F074B91346027826
:101B580010B4012A05D10A4610BC90F87310FFF79B
:101B6800DABF2AB90A4610BC90F87310FFF77ABF9B
:101B780010BC704710B50379044613B1037A5B01B2
:101B8800DBB2E288B2F5FA7F05D0B2F5FA6F04D17C
:101B980043F0180301E043F00803627A102102F0D1
:101BA80003021A432046FFF7D1FF002211212046E5
:101BB800FFF7CCFFA37A002BE37A14BF8022002220
:101BC8002BB1237B03F00F0343F040031A43122188
:101BD8002046FFF7BBFFE37C002BA37C0CBF002251
:101BE800202213B142F01002D2B2637C0BB142F052
:101BF8000802237D0BB142F002021E212046FFF7A6
:101C0800A5FF637B002BA37B0CBF0022202213B10E
:101C180042F01002D2B2E37B0BB142F00802204638
:101C2800BDE810401321FFF791BF10B5C37E0446ED
:101C3800002B837E0CBF0022202213B142F0100239
:101C4800D2B2637E0BB142F008021F212046FFF793
:101C58007DFFA27D12B1227E5201D2B2E37D082B14
:101C680006D0102B07D0042B07D142F0100204E055
:101C780042F0180201E042F0080294F91C302021D9
:101C8800002BA2BF03F003031A4342F004022046CC
:101C9800FFF75CFF627F2AB1A27F520102F0600267
:101CA80042F080022046BDE810402121FFF74EBFD8
:101CB8001346027810B4012A05D10A4610BC90F8E0
:101CC8007210FFF728BF2AB90A4610BC90F87210A4
:101CD800FFF7C8BE10BC704710B590F82230044614
:101CE800002B90F8233008BF00224FEA431303F07B
:101CF800600190F8213018BF80229B0003F01C037C
:101D08000B431A432021FFF7D3FF94F820302046D5
:101D1800083BDBB2082B96BF124A0022D25C212175
:101D2800FFF7C6FF94F825302046002B94F826309C
:101D38000CBF0022202203F003031A432221FFF7DD
:101D4800B7FF94F824202046920002F00C022321C9
:101D5800FFF7AEFF2046BDE8104000222421FFF720
:101D6800A7BF00BF7A76090838B50C46154612F0A9
:101D7800FDF8214612F056F812F0F8F803682946E3
:101D88009B68984712F0F2F8002112F04FF812F011
:101D9800EDF80122214612F042F812F0E7F8036844
:101DA8005B699847C0B238BD0A460178012903D15A
:101DB80090F87310FFF7D8BF19B990F87310FFF7B0
:101DC80097BE002070470A460178012903D190F890
:101DD8007210FFF7C9BF19B990F87210FFF788BEE3
:101DE800704738B50446437880F87330837880F8B4
:101DF8007230FFF7E9FDFFF7B2FD2046FFF7C6FD99
:101E08002046FFF7B7FD2378012B03D12046FFF7C3
:101E18007BFE03E013B92046FFF7FAFD0F212046A9
:101E2800FFF7D1FF0F2105462046FFF7BDFF46F615
:101E38003D0345EA002005B29D420AD12046FFF73E
:101E480099FE2046FFF7F1FE2046FFF745FF28469A
:101E580038BD002038BD2DE9F04190460C461D469E
:101E68009DF8186010F0E6FD074612F07FF821464D
:101E780011F0D8FF12F07AF8036848F080019B68E7
:101E8800984712F073F8002111F0D0FF12F06EF8A5
:101E98002146324611F0C3FF002407F57A77B44291
:101EA8001ADA12F063F803681B69984740B112F018
:101EB8005DF8036804F101085B69984728554446B2
:101EC80010F0B8FDB842EAD92C44FF23621B9642B1
:101ED80005DD04F8013BF9E70120BDE8F0810020A9
:101EE800BDE8F08137B50D460178012907D190F892
:101EF8007310009313462A46FFF7ADFF07E031B988
:101F080090F87310009313462A46FFF7C5FD03B0F7
:101F180030BD37B506236A4628210446FFF7E2FF9D
:101F280030B39DF800309DF801109DF8032043EA76
:101F380001219DF802309DF8055043EA02229DF8E0
:101F4800043009B243EA052394F8805012B21BB258
:101F5800E185228663865DB1B4F86650491BE18548
:101F6800B4F86810521A2286B4F86A209B1A63865D
:101F780003B030BD13B5022301AA15210446FFF7AB
:101F8800B1FF30B19DF805209DF8043043EA0223E3
:101F9800638702B010BD37B506236A461821044688
:101FA800FFF7A0FF30B39DF800309DF801109DF8B1
:101FB800032043EA01219DF802309DF8055043EAC9
:101FC80002229DF8043009B243EA052394F88050B0
:101FD80012B21BB221856285A3855DB1B4F8605049
:101FE800491B2185B4F86210521A6285B4F864203E
:101FF8009B1AA38503B030BD37B50D46017801297A
:1020080007D190F87210009313462A46FFF723FF72
:1020180007E031B990F87210009313462A46FFF78B
:102028003BFD03B030BD13B506236A46282104469C
:10203800FFF7E2FFA0B19DF801209DF8003043EAC8
:102048000223A3869DF803209DF8023043EA022369
:10205800E3869DF805209DF8043043EA0223238790
:1020680002B010BD10F066BC10F064BC10B5044698
:10207800283000F0CBFC28B104F50D70BDE8104005
:1020880000F0C4BC10BD10F055BC10F053BC10F0EB
:1020980051BC10F04FBC03685B6918470368DB68E4
:1020A800184710B5037904466BB10121407911F046
:1020B800FEFEFF212068FFF7EEFF206803689B689B
:1020C80098470023237110BD38B50579044655B9E2
:1020D8000068E17903685B6898472946607911F0E0
:1020E800E6FE0123237138BDF8B504460D461646B1
:1020F80010F0A0FC07462068FFF7D0FFFF282072E9
:1021080007D110F097FCC01BB0F5967FF3D91123C7
:102118000CE0FE2801D00F2308E02068324603684F
:1021280029461B699847207230B11C232046A371A9
:10213800FFF7B7FF0020F8BD2068FFF7AFFF206862
:10214800FFF7ACFF0120F8BD70B506460C4610F04D
:1021580071FC05463068FFF7A1FFFF2806D010F094
:1021680069FC401BA042F5D3002070BD012070BD62
:10217800F7B5037904460D4601920BB9FFF7A4FFA2
:102188004FF416712046FFF7DFFF45F04001206845
:10219800FFF781FF0DF107060DF1030716F8011986
:1021A8002068FFF778FFBE42F8D1002D0CBF9521BB
:1021B80087212068FFF76FFF0C2D02D12068FFF7F9
:1021C8006DFF00252068FFF769FF0306207203D51D
:1021D8000135B5F5807FF5D103B0F0BD38B5437A48
:1021E8001546032B18BF49020A4611210446FFF77A
:1021F800BFFF10B10423A3710BE029464FF400720E
:102208002046FFF771FF054618B12046FFF749FF42
:1022180003E02046FFF745FF0025284638BD10B5E6
:10222800437A0A46032B18BF4A0212210446FFF7D5
:102238009FFF30B105232046A371FFF732FF00202E
:1022480010BD012010BD10B500220C210446FFF777
:102258008FFF30B103232046A371FFF722FF002030
:1022680010BD2046FFF71DFF012010BDF8B505463B
:1022780016461F46FFF7D3FF98B10024A3B29F422A
:1022880006EB442108D94FF400722846FFF72CFFCB
:1022980001340028F2D104E02846BDE8F840FFF7F1
:1022A800D2BF0020F8BD38B5044615460068FFF7D0
:1022B800F2FE20684FF40072036829469B6998472C
:1022C800FF212068FFF7E7FEFF212068FFF7E3FE04
:1022D8002068FFF7E3FE207200F01F00052806D0F3
:1022E80013232046A371FFF7DCFE002038BD012030
:1022F80038BD38B5437A1546032B18BF49020A463C
:1023080018210446FFF734FF10B10623A3710AE031
:102318002A46FE212046FFF7C6FF054618B120468B
:10232800FFF7BFFE03E02046FFF7BBFE0025284667
:1023380038BD70B504460D460679FFF7C5FE4FF463
:1023480016712046FFF700FF10B91723A3710BE0A1
:102358002A46FC212046FFF7A6FF054620B13EB9D4
:102368002046FFF79EFE03E02046FFF79AFE002571
:10237800284670BD70B5044616460D460022372122
:10238800FFF7F6FE324617212046FFF7F1FE08B1A7
:1023980009230AE0637A1921032B18BF6D022A4624
:1023A8002046FFF7E5FE30B107232046A371FFF76B
:1023B80078FE002070BD012070BD38B50446FFF7D7
:1023C80083FE4FF416712046FFF7BEFE70B1FD2163
:1023D8002068FFF760FE4FF416712046FFF7B4FE41
:1023E800054618B12046FFF75CFE05E01223A371ED
:1023F8002046FFF756FE0025284638BDF8B5174693
:102408001A4605461E46FFF7B5FF70B10024B442D0
:1024180007EB4421284604D0FFF78BFF28B101348D
:10242800F5E7BDE8F840FFF7C8BF2846FFF739FED3
:102438000020F8BD10F07EBA014B01221A707047D7
:10244800FC090020704700000279024B53F8220073
:1024580010F061BD8476090870B506460C4603790C
:102468001A4D012155F8230010F05BFD3379002146
:1024780055F8230010F058FD022C0CD9042C0CD967
:10248800082C0CD9102C0CD9202C0CD9412C34BF79
:102498002821302108E0002106E0082104E010216D
:1024A80002E0182100E02021337955F8230010F0CC
:1024B80085FD182303FB04F132793C2302FB01114B
:1024C80091FBF3F1024B196070BD00BF84760908D7
:1024D800000A00200279034BFF2153F8220010F074
:1024E80081BD00BF847609080279024B53F82200A7
:1024F80010F078BD8476090873B50C4B06790C4842
:1025080000250C4C009350F8260013460A4629462D
:10251800257010F06DFD2378002BFCD0064B186851
:1025280008B110F07FFA002002B070BD41240808FD
:1025380084760908FC090020000A002073B50D4BB9
:1025480006790D4800250D4C009350F826001346D7
:102558002A46257010F04CFD2378002BFCD0084B40
:10256800186820B102B0BDE8704010F05BBA02B044
:1025780070BD00BF4124080884760908FC090020C2
:10258800000A002010F0D6B9837800F1100263F039
:102598007F0383700169806800F0E2BA10B50446D1
:1025A80080680A462830A16900F057FA20B1A3884C
:1025B80003F00F0300EB431010BD2DE9F74F03782C
:1025C8000446894615464BB18278D10706D50CE0FA
:1025D8005A46216900F06BFA00283DDA63784FF01B
:1025E800FF3043F00203637098E01A0703D5E369EC
:1025F80062699B1A07E09A0608D5A3681A89636975
:10260800C3EB42139BB29D4228BF1D462E464FF096
:10261800000804F1100B002E35D02278636912F0FF
:10262800200FC3F3080AA0684FEA532102D0036AB7
:1026380019441DE090F8058001EA0808BAF1000F76
:1026480010D1B8F1000F0DD1002BC1D153064CBFEA
:10265800036A236A236105E004D1237813F0700F1D
:1026680011D1BBE72169A06800F01BFA08EB000153
:10267800A068BAF1000F35D1B6F5007F32D3026BEE
:10268800914202D12EE0A81B48E0B6F5806F1BD31B
:102698002778C6F34723BF0606D40779C8EB070790
:1026A800FFB2BB4228BF3B4691424FEA432707D2BD
:1026B800A0680268D2F808A04A46D04760B98DE7FA
:1026C8001A44914221D3F3E703684A461B689847A6
:1026D800002883D04FF400776369B9443B446361B1
:1026E800F61B98E70022283000F0B7F900283FF4DD
:1026F80075AFCAF50077B74228BF374600EB0A0125
:102708003A46484613F093F8E6E78DE80A00FFF7E3
:10271800ADFC9DE80A000028CAD15FE703B0BDE818
:10272800F08F73B501220DF107010446466905696A
:10273800FFF743FF012809BF9DF807004FF0FF305E
:102748006661256102B070BD2DE9F0410E46017841
:1027580004460769002939D04569B5423AD00EB90F
:10276800066131E00B0703D5C3699E422ED807E006
:10277800880605D5A3681B89B6EB431F26D823E036
:10278800D4F808E06A1E9EF8063003F10900731EAB
:10279800C240C3409A4200D84DB94A064CBFDEF841
:1027A8002020226A22611D4604F110080AE09B1AC3
:1027B800F9E742462169A06800F079F9002805F197
:1027C800FF3503DD002DF4D1666103E027610020A9
:1027D800BDE8F0810120BDE8F081000038B503783C
:1027E80004460BB9012038BD90F90230002B23DADA
:1027F8000121FFF7D3FE054628B96378002043F08E
:102808000103637038BD0378E52BF6D023781B07E6
:1028180044BFE369C361238C4383638C8382094B80
:102828001B682BB100F11601183098472B8B6B826F
:10283800A37803F07F03A370A068FFF717FC0028B4
:10284800DBD0CFE7040A00202DE9F04703780446DF
:102858001D078946904608D58378990705D55B07F3
:102868000BD5E169FFF770FF38B963784FF0FF3097
:1028780043F001036370BDE8F0876369DB43984563
:10288800F3D847464FF0000A6369002F00F08280B2
:10289800A068C3F30806457915EA53251CD1DEB9AB
:1028A800216971B104F1100200F001F90028DCDBA4
:1028B80040F08E802046FFF767FE002840F08880B1
:1028C800D3E7236A3BB92046FFF75EFE0028CCD049
:1028D8002369236200E023612169A06800F0E1F820
:1028E800291816B9B7F5007F21D2C6F50075BD4283
:1028F80028BF3D4636B96369E269934234BF012275
:10290800052200E00122A068283000F0A6F800287F
:10291800ABD030442A4649462E4412F088FFB6F51B
:10292800007F31D1A068283000F070F818E0B7F5C2
:10293800806FA26816D31379106B5D1BEDB2C7F3D5
:102948004723AB4228BF2B4681424FEA432502D397
:102958001844814236D3A0680268D6684A46B04710
:1029680090B982E7136B994202BF4FF0FF3382F8A8
:1029780028A01363A0684A4603685B689847002844
:102988003FF473AF4FF400756369A9442B44636146
:102998007F1B79E7E2699342A27801D9E36102E0FB
:1029A8000E4B1B6813B162F07F02A270A3781A075E
:1029B80002D44046BDE8F0872046FFF70FFF002805
:1029C800F7D152E74FF0FF3082F828A01063C2E732
:1029D8002169A06800F065F8014683E7040A002031
:1029E8000FF0A8BF70B505460C46084649B112F06D
:1029F80072FF2B68024621462846BDE87040DB6816
:102A0800184770BD0FF096BF0FF094BFF8B5037864
:102A18000446DA071ED5406804F10C0603683246FE
:102A28005B68A1689847054608B9002513E0237834
:102A38009B0704D4237823F0010323700BE060681C
:102A4800A7680169036832465B68394498470028DB
:102A5800F0D1EAE701252846F8BD70B58368044639
:102A68008B420E46154614D0FFF7D0FF08B9002058
:102A780070BD6B0703D500232370A66009E060686A
:102A880004F10C02036831461B6898470028F2D10C
:102A9800EDE72046237805F003051D4300F80C5B9D
:102AA80070BD83790239406999400844704770B510
:102AB800C3790546202B0C46164612D1816902229D
:102AC80001EBD41100F50D70FFF7C7FF10B94FF0F7
:102AD800FF3070BD04F07F0450F8243023F07043B9
:102AE8000FE0102BF3D18369C1F3072102221944A7
:102AF80000F50D70FFF7B1FF0028E8D0E4B230F818
:102B08001430EA6993429ABF33600120002070BDF7
:102B180038B5C3790C46202B15460FD1816903229D
:102B280001EBD41100F50D70FFF797FF08B90020ED
:102B380038BD04F07F0440F824500FE0102BF6D184
:102B48008369C1F307210322194400F50D70FFF7CB
:102B580084FF0028EBD0E4B220F81450012038BDDF
:102B68002DE9F341054690460F4609B9C66800E0CD
:102B78000E463446EB6901349C4288BF022401AA00
:102B880021462846FFF793FF00280DDB01D0019B63
:102B980013B1B442EED107E06FF0704221462846E7
:102BA800FFF7B6FF064608B9002610E037B12246FF
:102BB80039462846FFF7ACFF08B9F5E7EC606B6AC1
:102BC800002BA4BF03F1FF336B62C8F80040304606
:102BD80002B0BDE8F0810FF0ADBE0FF0ABBE70479C
:102BE80070B505460C46164610F00AFC58B1214649
:102BF8003246284610F0F2FB044638B1284610F059
:102C08001BFA204670BD4FF0FF3070BD004870BD04
:102C18008097FFFF70B504460D46164610F0F0FB8E
:102C280058B1204610F0D0FA28B13246294620463D
:102C380010F099FA18B9024870BD4FF0FF3070BD16
:102C48000097FFFF70B50E4615460C462B1B334404
:102C5800032B04D90FF0DEFE44F8040BF6E7AC08AA
:102C680006EB84043544AC4204D00FF0D3FE04F8DC
:102C7800010BF8E7002070BD00B5ADF2044D0B461E
:102C8800054A40F2FF31684606F0CAFA00200DF204
:102C9800044D5DF804FB00BF287D090838B50B4BCF
:102CA8008469054603607CB16368013B63605BB976
:102CB800236820469B689847A368013BA3601BB91B
:102CC80023682046DB689847284638BD6CAD09085C
:102CD80010B50446FFF7E2FF2046FDF7DEF920466F
:102CE80010BD000038B50446002510F0FBFAE56178
:102CF800054904F1380010F0FAFB0123A56484F8B3
:102D08008236204638BD00BF287D090838B50446FC
:102D18001D46059B0363002084F8810684F880061D
:102D2800606302B1A26419B104F1380010F001FC2B
:102D3800049BE0692365069BA4F84C50A4F8543022
:102D480008B1FDF7ACF9B4F85400FDF7A4F9E06157
:102D580038BD00002DE9FF410446174698460E4647
:102D6800002510F0BFFAE5610C4904F1380010F0B5
:102D7800BEFB012384F88236FF2302930F230093BE
:102D88002046A564CDF804803B462A463146FFF725
:102D9800BDFF204604B0BDE8F08100BF287D0908CA
:102DA800F0B50D4602339BB26C1A15F8016BA4B24C
:102DB8003EB1B0F854709F4203D95C1CD654A3B2FC
:102DC800F2E7191B0A44211202F8021C02F8014C0E
:102DD8001846F0BD10B590F8814614B910F0FEFA07
:102DE80003E000F5347008F083FF80B210BDF7B53A
:102DF80007468E461E461D46002405F07F0302A99D
:102E0800ED09214418BF43F08003013401F8043C64
:102E1800E4B2002DF1D1C4F10403D11802F803E0A3
:102E2800A54206DA01A82B1B285C1344587101350A
:102E3800F6E7721C22443846FFF7CCFF05460FF030
:102E4800F9FD01347862A019431B5842584103B078
:102E5800F0BD38B50446C369E0221A70C36900257D
:102E68005D700222C169FFF7B5FF94F88136BBB1E6
:102E780004F57A7084F8805684F8815607F007F9CB
:102E880004F21C5007F003F904F5CA600AF0CDFEFD
:102E980004F5617009F01CF904F5347009F084F840
:102EA800204610F0CFF90FF0C5FD6062A06238BD72
:102EB80037B590F8813604464BB9204610F084F9AE
:102EC8000028FAD0204610F026F9C0B217E090F892
:102ED80080369BB100F5347501220DF107012846B3
:102EE80008F080FE002806DA10F5D24FF4D020460C
:102EF800FFF7AFFF02E09DF8070000E0FF2003B0F6
:102F080030BD2DE9F0470546C4698A46FFF7D0FF72
:102F18004FF0010846462070EB69002793F80090AF
:102F280009F0F0092846FFF7C3FFEB69741C9855B0
:102F380000F07F0303FB08770306A4B2BFB24FEA91
:102F4800C81801D52646EDE7631EB9F1300F8AF897
:102F5800003013D12846D5F81C80FFF7A9FF08F8E0
:102F680004002846D5F81C80FFF7A2FFF41C02369F
:102F7800B6B2A4B208F80600022300E000231B1B27
:102F88009EB2A3199BB29F420BD92846FFF790FF28
:102F9800B5F85430A34284BFEB6918550134A4B284
:102FA800EFE7B5F85400A0422CBF20460020BDE84A
:102FB800F08710B5044610F023FA94F881361BB94F
:102FC800003018BF012010BD94F8800610BD2DE90F
:102FD800F14F0D9E04468B4691469A469DF82880EF
:102FE8009DF82C509DF83070FFF7E3FF002848D07B
:102FF800E36900221A60E269052359462046FFF773
:10300800CFFE6B1E012B12D8238CE26901339BB2D1
:1030180023841B121354411CE369228C89B20230A9
:1030280080B25A541EB1238C5A1C22843380002249
:1030380091B283188A459BB209D9B4F85460013219
:103048009E4204D919F80160E169CE54F0E7B8F15D
:10305800000F0CBF302131210FB141F00801022DC2
:1030680002D141F0040103E0012D08BF41F0020143
:103078002046053BE2699BB201B0BDE8F04FFFF77F
:10308800B6BE01B0BDE8F08F1FB5089C03940024BC
:1030980002949DF81C4001949DF818400094FFF795
:1030A80096FF04B010BD7FB5054610460E4614467F
:1030B80012F011FC00230293019300932246034669
:1030C80031462846FFF7E0FF04B070BD012A70B50D
:1030D80004460E46154620D8FFF76BFFE8B1238C4F
:1030E80001339BB203B901232384238CE2691B12A9
:1030F8005371E369228C31469A71E26907232046AD
:10310800FFF74EFEE36982211D54031FE269204642
:10311800BDE870409BB2FFF76ABE002070BD002278
:10312800FFF7D4BF10B50446FFF743FF28B1204688
:10313800FFF78FFEE0690FF095FE04F1380010F0FC
:103148008FF92046FFF7AAFD204610BD08B510F0FC
:103158003BF8003018BF012008BD2DE9F04F83B0BF
:1031680000AF0446FFF725FF0646002800F0BE80A2
:103178000FF060FC226D4FF47A735343A26A054640
:10318800821A9A4203D8626A821A934216D294F833
:103198002C3023B12046FFF75CFE0026A6E0E2694A
:1031A800C0211170E26920465370E1690222FFF7DD
:1031B80011FE01236562A56284F82C302046FFF7D2
:1031C800C5FF8146002800F09180F91D2046FFF7D1
:1031D80098FE0246002800F08880E169A562087818
:1031E80000F0F003302B58D1D4F830B0BBF1000F09
:1031F8007BD097F807E0EA4601EB0E004678837823
:1032080003EB06239BB203F1080020F00700ADEBA7
:10321800000D684600261FFA86FC634508D90EEBA8
:10322800060C8C449CF803C000F806C00136F2E78F
:103238000026C65491F800800EF1030608F006082F
:10324800B8F1020FCEEB020220D11E4411F806C0DD
:103258000EF1050E0E447678D21A73441944053AD5
:1032680006EB0C26D847E36940221A70E369B6B228
:1032780083F80180E36932129A70E3690422DE70F0
:10328800E1692046FFF7A6FD656204E0033A1E44A3
:10329800D21A3144D847D54627E000F0E005402D42
:1032A8000DD1646B0CB3042A1FD110F0060F1CD18A
:1032B8008878CB7803EB002080B2A04715E0702B0C
:1032C80013D0902B11D0C02B0AD1D0230B70E369F7
:1032D80000225A70E16902222046FFF77BFD04E0D4
:1032E800D02B04BF002384F82C304E4630460C37D0
:1032F800BD46BDE8F08F00002DE9F04F0546934626
:1033080000F561749946012385B080F8813605F58A
:1033180034762046039105F57A7A08F093FE304614
:1033280008F0B8FB05F21C57504606F0ABFE05F551
:10333800CA68384606F0A6FE40460AF071FC00222C
:103348003549204608F0B7FB5A460399504607F01E
:1033580037FA00285DDBB9F1000F02D10F9B5BB98A
:103368000CE00E9B002BF9D01A464946384607F068
:1033780027FA0028F2DA4CE0109B4BB900231A46D2
:103388001946204608F062FE8346002841D109E02C
:1033980000230093109A0F99404605F071F8002811
:1033A800ECD036E003221146204608F0D1FB5A46FD
:1033B8001A49204608F079FB0121204608F06EFBE7
:1033C8005A461749204608F073FB5A46514620468C
:1033D80008F085FBB9F1000F06D00F9B23B14246D8
:1033E8003946204608F078FB2146304608F0A2FD11
:1033F800044668B90B4B0C4A05F5CB61304608F01A
:1034080063FB0094094B0A4A2946304608F056FBEC
:10341800204605B0BDE8F08FE72B0808812C080886
:103428004D2C0808D3760808C57608081D2C08080E
:10343800E92B080800B500F53470ADF5017D08F0FA
:103448008CFB034638B1064A4FF40071684606F013
:1034580003FA002000E001200DF5017D5DF804FB72
:10346800C476090870B5044600F53476D4F8D43229
:10347800102B05D030460DF0F7FB05460028F5D097
:1034880015F5D24FF2D015F5D14FEFD004F57A707B
:1034980006F0FDFD04F21C5006F0F9FD04F5CA60C3
:1034A8000AF0C3FBD4F8D432102B09D194F8823631
:1034B80043B12046FFF7BEFF20B94FF0FF3070BD83
:1034C800284670BD012384F88036002070BD0000B6
:1034D8002DE9F0438BB00446894617461E46DDF8B1
:1034E8004880FFF766FD0546002840F0E780A16C9C
:1034F800002938D10346B4F84C20A16B20460FF0C0
:10350800B3FD94F88136002B50D0A16B04F53470CC
:1035180008F0E8FA2046FFF7A5FF002840F0CA8027
:1035280001232384684B06AA5968186803C2197ACC
:1035380053F8090F11709A889B79ADF814208DF80B
:1035480016309DF85C300490042BE26931D1049860
:10355800531DC2F80500BDF814109DF81620998077
:103568009A710C232EE006A810F0BAFA2B46B4F88C
:103578004C2006A920460FF0BFFE94F88136ABB167
:10358800A16CC8784B780A780190897806A80091D0
:103598004E490FF077FC06A904F5347008F0A2FA3A
:1035A8002046FFF75FFFB0FA80F040090028B7D146
:1035B80080E006AB03CBC2F80500C2F809101B78FF
:1035C80053730E23B8F1000F0AD09DF850209DF8D0
:1035D8004C10520142F0060242EAC102D2B200E0A7
:1035E80002229DF8581009B902F0FD022FB116B950
:1035F80042F0800201E042F0C002E169581CCA545E
:10360800226DE16912120A54E169206D9A1C8854EE
:103618000333E26949462046FFF7C2FBB8F1000FC1
:103628000BD00346E26941462046FFF7B9FBE26941
:10363800034615992046FFF7B3FB67B10346E269D5
:1036480039462046FFF7ACFB2EB10346E269314606
:103658002046FFF7A5FB431F9BB2E26910212046D5
:10366800FFF7C5FB0FF0E6F94FF47A776062A062C6
:103678002046FFF76BFD064658B90FF0DBF9A36A41
:10368800C01A236D7B439842F2D92046FFF7E1FB2D
:103698000EE00DF10F012046FFF733FC042809D195
:1036A800E369DF7837B90FF0C5F984F82C70A062A8
:1036B800354604E02046FFF7CCFB00E0002528460D
:1036C8000BB0BDE8F08300BFB4760908C9760908D5
:1036D8007FB50423059301230493002303930293E6
:1036E800019300931A46FFF7F3FE07B05DF804FB59
:1036F8000FF020B96C22002112F0BFB838B100F1E8
:103708006C020023904202D003700130FAE7704740
:1037180008B56C2212F08BF808BD00000023036086
:103728004360A1B9184B8360184BC360184B036101
:10373800184B4361184B8361184BC361184B0362E4
:1037480003F17453A3F52303A3F6924318E0154B32
:103758008360154BC36003F1794303F5740303F5E4
:1037680001630361114B4361114B836103F1D14341
:1037780003F5C01303F51E63C3610E4B03620E4BC2
:10378800436281660020704767E6096A85AE67BBB9
:1037980072F36E3C3AF54FA57F520E518C68059B2B
:1037A800ABD9831FD89E05C107D57C3639590EF78A
:1037B800310BC0FFA78FF964A44FFABE2DE9F04F73
:1037C800031DCFB005931A46002352F8040F06AC28
:1037D80044F823000133082BF7D1084600220EAC29
:1037E80011F82250C378043043EA056310F8035CEB
:1037F80043EA054310F8025C43EA052344F8223003
:103808000132102AECD10D9B9F4C00930C9E099B12
:10381800089FDDF82CB0DDF81CE0DDF82880DDF825
:1038280018900FAD04F1400A54F8040C4FEAF8223E
:1038380055F8041C86EA0B0C82EAB812014482EAA5
:1038480078620CEA080C8CEA060C0A440099624477
:103858004FEA79304EEA090C0A440CEA070C0EEAE2
:10386800090180EAB9004CEA010180EAB95008442C
:1038780013442968024420688BEA080C01440CEAC6
:10388800030C4FEAF3208CEA0B0C0E4480EAB310C9
:1038980006EB0C0180EA73600E1806EB070C42EA8F
:1038A80009004FEA723702EA090187EAB20700EA1B
:1038B8000E0087EAB257084338443044696866689E
:1038C80083EA08070E4407EA0C074FEAFC2187EA57
:1038D8000807B34481EABC110BEB070681EA7C6157
:1038E80006EB010B4FEA703742EA000102EA0006D4
:1038F80087EAB00701EA090187EAB057314339443A
:10390800AE68A7685944DE443E4483EA0C0BB044D1
:103918000BEA0E0B4FEAFE268BEA030B86EABE166D
:10392800D84486EA7E6646444FEA713B40EA01087D
:1039380000EA01078BEAB10B08EA02088BEAB15BDF
:1039480048EA0708D844B044B144E768EE688CEA0E
:103958000E0B37440BEA090B8BEA0C0B3B4403EBC9
:103968000B074FEAF92383EAB91383EA7963FE1850
:10397800931900934FEA783741EA080301EA0802ED
:1039880087EAB807034087EAB85713433B443344F0
:103998002A6926694FEA733B32449444009A8EEAB6
:1039A800090616404FEAF22786EA0E0687EAB2179A
:1039B800B44487EA72670CEB070248EA03078618E3
:1039C8000F4008EA03008BEAB30B8BEAB35B0743AB
:1039D8005F44174460696A6920341044009A864439
:1039E80089EA020C0CEA060C8CEA090C0EEB0C00B6
:1039F8004FEAF62E8EEAB61E8EEA766E00EB0E02BF
:103A08004FEA773043EA070E01EB020B0EEA080E85
:103A180003EA070180EAB70080EAB7504EEA010ED0
:103A28008644964454F8081CAA69A2451144009A91
:103A3800894482EA060000EA0B0080EA020009EBEA
:103A480000014FEAFB2989EABB1989EA7B6901EB86
:103A580009024FEA7E3047EA0E0980EABE0009EA09
:103A6800030907EA0E0180EABE5049EA01098144C8
:103A78009044914405F120057FF4D6AE0022DFF88A
:103A88000CA00EAC049203E0DC760908D87609088D
:103A9800A26B60684FEAF24585EA724585EA92258D
:103AA800049A0DF1380C5CF82220616A4FEAB04C98
:103AB8000A448CEAF01C4FEAF8218CEAD00C81EA1F
:103AC800B811154405EB0C0281EA786586EA0B010A
:103AD80001EA0801039281EA0602A918DAF84020EF
:103AE8004EEA09050A4403993D4021640A440099B5
:103AF8000AF1200A0A44D3184FEA7931009381EA7F
:103B0800B9010EEA090381EAB9512B430B441A445F
:103B1800E36BA5684FEAF34181EA734181EA932197
:103B2800A36A2034034419444FEAB54383EAF513E2
:103B380083EAD50C01EB0C03DAF8240000998BEA30
:103B4800080C30440CEA010C8CEA0B0CC1188C44AC
:103B5800009963624FEAF12080EAB11080EA71604F
:103B680000EB0C01C81901904FEA723C42EA0900C7
:103B780002EA09078CEAB20C00EA0E008CEAB25C91
:103B8800384360440844039954F8147C4FEAF146DA
:103B980086EA714686EA9126E1684FEAB74C2944DD
:103BA8000E448CEAF71C00998CEAD70C664481EA2B
:103BB800080C0199A6620CEA010CDAF828108CEAC4
:103BC800080C59448D190199AC44019D4FEAF12123
:103BD80081EAB51181EA756101EB0C0542EA000141
:103BE8004FEA703C05EB0E0B8CEAB00C02EA000EB3
:103BF80001EA09018CEAB05C41EA0E0161442944FA
:103C08004FEAF34585EA734585EA9323256954F815
:103C180010CC2F443B444FEABC4787EAFC1787EA9D
:103C2800DC0E03EB0E079DE828005D4005EA0B0556
:103C38005D40DAF82C304FEA713E9844B844454468
:103C48004FEAFB2888EABB1888EA7B6808EB05037B
:103C580003EB090540EA010802958EEAB10E00EA75
:103C6800010508EA02088EEAB15E48EA0508F04450
:103C780098444FEAF64E63698EEA764E54F80C5C27
:103C88008EEA96260CEB030E019B764483EA0B0C16
:103C98004FEAB54E029B8EEAF51E8EEAD5090CEA6C
:103CA800030C019B06EB090EDAF830608CEA030C72
:103CB800009B76441E44029BB444029E4FEAF323C1
:103CC80083EAB61383EA766303EB0C069319009331
:103CD80041EA080301EA0802034013434FEAF742A6
:103CE80082EA7742E7624FEA783C82EA9727A2693C
:103CF8008CEAB80C54F8089C8CEAB85C1544029A13
:103D0800634433442F448BEA02064FEAB945009ACC
:103D180085EAF91585EAD9051640DAF834203D44D4
:103D2800019F2A443A4486EA0B061644009AC4F8CE
:103D380030E04FEAF22787EAB21787EA7267BA19C2
:103D480086184FEA733080EAB30048EA030780EA2E
:103D5800B35C0F4008EA03000743674417444FEA7F
:103D6800FE4282EA7E4282EA9E2EE26954F8040C00
:103D780091440EEB09024FEAB04989EAF01989EA41
:103D8800D0099144029A65639646009AC4F838901F
:103D98008EEA020CDAF838200CEA060C8CEA0E0CD3
:103DA8004A444FEAF62E5A448EEAB61E62448EEA18
:103DB800766E72444FEA773C43EA070E01EB020B3A
:103DC8000EEA080E03EA07018CEAB70C8CEAB75C26
:103DD8004EEA010EE64496444FEAF542216882EA2B
:103DE800754282EA9525039A4FEAB14C10448CEA51
:103DF800F11CDAF83C2005448CEAD1010D44029903
:103E08002A4402EB0109009A4FEA7E3082EA060151
:103E180001EA0B0151404FEAFB2282EABB128944B6
:103E280082EA7B624A4447EA0E0980EABE0009EA50
:103E3800030907EA0E0180EABE5049EA01098144F4
:103E480090449144049AE5630832302A04927FF43E
:103E58001FAE009A09930D92CDF82880CDF82CB0AA
:103E68000C96CDF81890CDF81CE008970023059A19
:103E780052F8041F059206AA52F8232001330A4477
:103E88000599082B0A60F2D100204FB0BDE8F08FE9
:103E98002DE9F04104460E46154682B3036803F047
:103EA8003F0013449A42236082BF63680133636012
:103EB80080B1C0F14007BA421BD304F128083A4642
:103EC800404411F0B4FC41462046FFF777FCB8B9EE
:103ED8003E44ED1B2F46E91B3F2F314405D92046B0
:103EE800FFF76CFC60B9403FF5E747B13D460E4629
:103EF800002028342A463146204411F098FC00203E
:103F0800BDE8F08170B504460368802203F03F03E2
:103F1800581C382823440D4683F8282004F1280625
:103F280004D8C0F13802002130440EE0C0F140024C
:103F38000021304411F0A1FC31462046FFF73EFC39
:103F4800002875D101463046382211F096FC2368C6
:103F580061685A0F42EAC102110EDB0084F8601052
:103F6800110C84F8611084F86320110A1A0E84F881
:103F780064201A0C84F865201A0A84F8621084F800
:103F8800673084F8662031462046FFF717FC034661
:103F980000284CD1E27A2A7062896A70A268120AF3
:103FA800AA70A268EA70E27B2A71E2896A71E26803
:103FB800120AAA71E268EA71E27C2A72628A6A725B
:103FC8002269120AAA722269EA72E27D2A73E28AD7
:103FD8006A736269120AAA736269EA73E27E2A74D2
:103FE800628B6A74A269120AAA74A269EA74E27FEF
:103FF8002A75E28B6A75E269120AAA75E269EA759E
:1040080094F823202A76628C6A76226A120AAA76A3
:10401800226AEA76A06E50B994F827302B77E38CA1
:104028006B77636A1B0AAB77636AEB7770BD1846D8
:1040380070BDF0B51F469DB0054601A80E46144652
:10404800FFF758FB394601A8FFF768FB014658B946
:104058002946324601A8FFF71BFF014620B9214631
:1040680001A8FFF74FFF014601A8FFF747FB0846E5
:104078001DB0F0BD2DE9F04F0446A5B000680193CE
:104088000F469346309E05F00FF8814600230393B0
:1040980001238DF80F300DF15008002E5CD05A46E0
:1040A8003946204604F03EFF002856D12E9A019941
:1040B800204604F097FF00284FD1042203A9204688
:1040C80004F090FF002848D14146204604F09AFFAA
:1040D800002842D104AD4A464146284611F0A7FBC4
:1040E8004FF0010A2F9B9A451DD25A463946204661
:1040F80004F018FF88BB4A462946204604F072FFA0
:1041080058BB2946204604F07DFF30BB484507DAF6
:1041180010F80820435D534000F808300130F5E7F7
:104128000AF1010ADEE74E45354628BF4D464146AD
:104138002A46319811F07BFB319B761B2B44319337
:1041480004AA12F8013D0133DBB21370002BA4D18D
:1041580003AB9342F5D1A0E7304625B0BDE8F08F18
:104168002DE9F0431F46BDB000230693079309933A
:10417800446883684FF0040908931C4403680D469B
:10418800302B16468DF8169040F0C98010AB0AAA5D
:10419800214608A800F065FD002858D10B9A092A85
:1041A8004CD10C99614811F033FB002846D1129B81
:1041B800119A249303EB0208109B302B40F0AF8038
:1041C8004B4617AA414624A800F072FCF8B9249A75
:1041D800179B18921344414606AA24A8249300F07A
:1041E80094FCA0B9249B984522D007AA414624A84C
:1041F80000F08BFC10B110F1620F08D1249B984598
:1042080016D02CAA414624A800F073FD28B1A0F5C9
:104218003C50002840F086800AE00DF116012CA8D9
:1042280002F022F950B9249B984501D0404879E022
:104238009DF8160004F0F4FD814608B93D4871E088
:1042480013AB0DAA214608A800F00BFD10B1A0F58C
:104258003C5067E00DF117010DA802F0D7F80028CF
:10426800ECD19DF8170000F049F980460028E5D008
:104278004368DB080793139B042B52D1C368149A35
:104288009A424ED119A804F0D7FD2CA800F058F98D
:10429800149A159924A811F0CAFA0122494619A8B6
:1042A80004F0F0FD0446002831D1079B0DF1700998
:1042B8000293069BCDF80C900193179B3A46009306
:1042C8003146189B19A8FFF7D5FE0446F8B94146B0
:1042D8002CA800F009FB0446C8B9079A6BB2D200B3
:1042E80049462CA800F042F9044680B909AB02936C
:1042F800469B149A0193459B24A900932CA8449BA0
:1043080000F010FBA4F53854002808BF002419A8B1
:1043180004F097FD2CA800F017F9204602E00648A3
:1043280000E006483DB0BDE8F08300BFD877090833
:104338009AD0FFFF80D1FFFF9ED0FFFF00D1FFFF83
:1043480010B1006800B14069704710B5891A00249F
:10435800E3B2994204F1010402D903449954F7E7FE
:1043680010BD0000F0B500B3FAB1431813F8014CC2
:10437800B4FA84F35B09A14238BF43F001030F1B71
:10438800176000228A420BD0855CBA4284EA05068F
:1043980034BF0025012575432B43DBB20132F1E719
:1043A800002B034808BF0020F0BD0248F0BD00BF45
:1043B800009EFFFF009FFFFF802330B58354891ABA
:1043C80001230025994204D9C4180133A554DBB24E
:1043D800F8E730BD70B501238D1A00269D4206D935
:1043E800C4181444013304F8016CDBB2F6E7014445
:1043F80001F8015C70BD000070B5F0B1EAB14E1E65
:10440800845DB4FA84F30D1B5B09A1422CBF1946E5
:1044180043F0010115600023B34209D2AB42C45CEA
:1044280034BF0022012262431143C9B20133F3E7CA
:104438000029034808BF002070BD024870BD00BFB6
:10444800009EFFFF009FFFFF10B502440023141ACF
:10445800A14202D902F8013BF9E710BD18B112B127
:104468001160002070470148704700BF009FFFFFA0
:10447800F0B5F0B1EAB1002313600844802499B183
:1044880010F8015D0139002D0CBF1D4643F00105F0
:104498006B4001FB03F617683E43166006787343CA
:1044A8005C40E4B22B46EAE7002C034808BF002032
:1044B800F0BD0248F0BD00BF009EFFFF009FFFFF58
:1044C80030B5A8B1A2B10023136001448142A1EB29
:1044D80000040FD011F8015D002D0CBF1D4643F0FC
:1044E80001056B4063431468234313602B46EDE7D3
:1044F800014830BD002030BD009FFFFF054B53F839
:10450800042C22B1083313F8101C8142F7D110464D
:10451800704700BFEC85090830B5084C63685BB18B
:104528009D692D78854205D15D688D4202D15D78FF
:10453800954201D00834F1E7184630BDE4850908F2
:104548004022002111F099B910B5044668B1C06B3A
:1045580018B123689B699B69984704F140020023BE
:10456800944202D023700134FAE710BD30B4C8B1C8
:104578000468BCB12569AD0702D46568954211D1BC
:10458800012B4260037204D06578032D01D0052DFC
:1045980002D1A369DB6802E023B9A3691B69C06B78
:1045A80030BC1847014830BC704700BF009FFFFF70
:1045B80038B50446B0B10368A3B199B1102A0FD831
:1045C8001869C00703D4DD68AA4201D20AE015467B
:1045D8002A4604F1280011F02AF9A563002038BD05
:1045E800014838BD014838BD809FFFFF009FFFFF8D
:1045F80028B103681BB1002343621846704701487D
:10460800704700BF009FFFFF2DE9F74FDDF83080AE
:104618000F4615469946044608B95C48B2E0036857
:10462800002BFAD0B8F1000FF7D00023C8F80030FB
:10463800FFF786FE236806465B78012B10D190426F
:104648007DD1C8F8000023680A469B6994F90810D0
:104658005D684B46AC46E06B03B0BDE8F04F604781
:10466800062B0AD1C8F800204B460A462946E06BBB
:1046780003B0BDE8F04F04F0F1B9002861D0494516
:1046880008D1626A002AC8D1B5FBF0F200FB1252C9
:10469800002AC2D1022B56D194F90830606A2BB98E
:1046A800E3682BB1331A9D420FD804E0012B0CD1DB
:1046B800331A9D4209D220442A463946143011F053
:1046C800B6F8636A1D44656237E010B3C0EB060AAA
:1046D800204452463946143011F0A9F8234653F8BD
:1046E800142B94F9081092698DE8080204F1280344
:1046F800D2F808B0E06B3246D847002842D1D8F843
:104708000030B1443344C8F8003057446062CAEB03
:10471800050595B1B5FBF6FA06FB1A5ABAF1000F72
:1047280013D0CAEB05055246791904F1140011F0AB
:104738007EF8636A5344636295B9002022E0144806
:1047480020E014481EE014481CE094F90830002BBF
:10475800E7D1E368002B0CBF4FF0000AB246E0E750
:10476800236894F908109B698DE880022A469E68A0
:10477800E06B04F12803B04720B9D8F800301D4495
:10478800C8F8005003B0BDE8F08F00BF009FFFFFDE
:10479800809DFFFF809CFFFF809FFFFFF7B50E46BF
:1047A80015460446002852D00368002B4FD0002A33
:1047B8004DD00023136007687A78032A4DD0511F23
:1047C80002294AD9012A01D1636A16E0022A40D196
:1047D80090F90830012B09D1C368002BF4D0A16BE4
:1047E800143001B9F968626A98470BE0FFF7A8FD31
:1047F800636A984206D0E2686ABB002B184808BF73
:1048080000202BE02046FFF79BFD234653F8142B8E
:1048180094F9081092698DE8480004F12803976814
:104828000246E06BB8470346B8B994F90820204619
:104838004AB9FFF785FD2A4601463046236903B089
:10484800BDE8F0401847FFF77BFD286005E0054804
:1048580004E0054802E0024800E0184603B0F0BD55
:10486800809DFFFF009FFFFF809FFFFF08B3036845
:104878005B78022B1DD104291DD8DFE801F003075E
:104888000D1115000D4BC3600D4B02E00D4BC360BD
:104898000D4B0361002070470C4BC3600C4BF8E7CD
:1048A8000C4BC3600C4BF4E70C4A0023C360026155
:1048B800F0E70B4870470B48704700BF53430808A0
:1048C8006D430808C143080879440808DD4308080F
:1048D8000144080851440808C94408086544080800
:1048E800009FFFFF809FFFFF38B504460D4681B14A
:1048F80078B14022002110F0C0FFAB695B6998478E
:10490800E06340B1256000212046FFF7AFFF00209B
:1049180038BD024838BD024838BD00BF009FFFFFC0
:10492800809EFFFFF0B585B005461F460B9E0C9C88
:10493800FFF73EFEB0B92846FFF75AFE90B900943B
:1049480033460A9A39462846FFF75EFE50B9216871
:1049580003AA31442846FFF721FF18B92268039BB0
:104968001344236005B0F0BD2DE9F04307681446F1
:104978007F78079D062F089E099ADDF828E0DDF864
:104988002C90DDF83080DDF834C012D1C9F8002051
:104998000893CDF83480CDF830C0CDF82CE00A96D5
:1049A800099507940B46BDE8F0430121C06B04F05C
:1049B80040B90148BDE8F083809FFFFF30B5056826
:1049C80087B06D780C46062D0C9917D10E9D29607D
:1049D8000D9D05950B9D0495109D03950F9D0295C2
:1049E8000A9D8DE828001346C06B224604F046F95C
:1049F800044B10F1120F08BF184600E0024807B038
:104A080030BD00BF009DFFFF809FFFFF30B50368EA
:104A1800CD1A002D02DC6FF05F0030BD1C7814F059
:104A2800800F04D15C1C04601B78136036E004F02E
:104A38007F04013C032C38D8DFE804F00209132076
:104A4800012DE8D05B7813600368023325E0022D5E
:104A5800E1DD5C789B7843EA042313600368033341
:104A68001BE0032DD7DD9C785D782402DB7844EACF
:104A780005441C431460036804330EE0042DCADDAA
:104A88009C785D78240444EA05651C79DB782C431E
:104A980044EA032313600368053303600368C91AF3
:104AA80013688B42B7D8002030BD6FF0630030BD6B
:104AB80070B404680E1B002E07DD26789E4207D1CD
:104AC8000134046070BCFFF7A1BF6FF05F0001E024
:104AD8006FF0610070BC704737B50123154601AA15
:104AE8000446FFF7E5FF70B9019B012B09D1236844
:104AF8001B78003318BF01232B6023680133236020
:104B080001E06FF0630003B030BD37B502231546EE
:104B180001AA0446FFF7CCFFC8B9019B013B032B50
:104B280013D8236893F90030002B0EDB2860019816
:104B3800431E019358B123682A681B7843EA02236D
:104B48002B60236801332360F1E76FF0630003B043
:104B580030BD37B50223154601AA0446FFF7A8FF62
:104B680040B9019A2168284607F0DDFE2268019BBA
:104B78001344236003B030BD70B5032304460E46CA
:104B88001546FFF795FFD8B91368A3B1013B136029
:104B980023681B78072B137110D82368013323600F
:104BA800936022682B6813449E42236014BF6FF001
:104BB8006500002070BD6FF05F0070BD6FF063008E
:104BC80070BD38B5032304461546FFF771FF58B981
:104BD80013685A1E012B2A6004D923685A1C2260C4
:104BE800187808B16FF0670038BD2DE9F341154614
:104BF8001F4601AA302304460E46FFF759FF68BB3B
:104C08002268019B13449E421DD06FF0650025E089
:104C180023689E421AD91B7842462B6031463B4690
:104C28002046FFF745FFC8B92368AB6022686B6868
:104C380013449E422360EBD91021012010F0C8FDD7
:104C4800E86048B1054605F10408E1E70020E8609E
:104C580023689E4202D0D8E76FF0690002B0BDE831
:104C6800F081F7B517461D4601AA302304460E46C3
:104C7800FFF71EFF00283AD12368F61A002E31DD0F
:104C88003A461B78204642F8043B2668019B1E449E
:104C980031460623FFF70CFF48BB2368BB60226838
:104CA8007B68D1188E42216006D105F10C039D4224
:104CB80016D028700135FAE7D35C2A4642F8043B3F
:104CC80023683146013323602046FFF79FFE70B901
:104CD8002368AB6022686B6813449E42236004D14A
:104CE800002004E06FF05F0001E06FF0650003B0A2
:104CF800F0BD1FB5002301930293039301ABFFF7A7
:104D0800B0FF60B9019B052B00D033B9029B002B83
:104D180014BF6FF06700002001E06FF0670005B076
:104D28005DF804FB01F004BC01F0E2BB10B50446D9
:104D380001F0D4FB2046BDE810400EF093B810B542
:104D48005C21012010F044FD044608B101F0C2FBCB
:104D5800204610BD02F0D8BB02F09CBB01F0CEBBD0
:104D6800FEF72CBDFEF7D4BC10B50446FEF7C6FC12
:104D78002046BDE810400EF075B810B56C21012032
:104D880010F026FD044608B1FEF7B4FC204610BD1D
:104D98000123FFF74EB90023FFF74BB9FFF7B2B86D
:104DA800FFF776B80121FEF7B9BC0021FEF7B6BCC3
:104DB8000AF05EB90AF0BAB810B504460AF0ACF8C1
:104DC8002046BDE810400EF04DB810B5D82101209E
:104DD80010F0FEFC044608B10AF09AF8204610BD0F
:104DE80001230BF000B900230BF0FDB80AF0C8BF8F
:104DF8000AF07EBF01210AF09FB800210AF09CB892
:104E080001440023884202D003700130FAE770475A
:104E18002DE9F04F95B01E9D04AE07460C4691460D
:104E280000214022304601930DF1500810F025FD75
:104E38000023286848F8443D04F036F982467CB3DC
:104E480054452846A34628BFD34604F03DF80246F9
:104E580038BB019A4946284604F040F8024600BB90
:104E680004224146284604F039F80246C8B93146BA
:104E7800284604F03DF8024698B93B465A4507D003
:104E880013F8010BB15C0132414003F8011CF5E74E
:104E98009DF80F30174401338DF80F30A41ACEE770
:104EA800224630464021FFF7ABFF104615B0BDE85B
:104EB800F08F00002DE9F3471D4600230E4691466A
:104EC800DDF8288000930193044628B303F0A8FF77
:104ED8000646002863D020466A4601A901F0B0FAC8
:104EE800044600285BD1304604F0DEF8009F0646F1
:104EF800074407F108037F2B51D810F10A024ED25C
:104F080007F10A039A424AD89D4248D3A5F10A03F9
:104F1800DF1B0A2F06D842E08D4240D36D1A0A2DB6
:104F28003DD93EE0C246033F0AF8024B01233A4608
:104F380088F80130FF21504610F09FFC0AEB070368
:104F480030210AF807405970009FD97007F108020C
:104F580032449A70FAB2111D03F1070A1971062139
:104F680059719A7101993A46504610F060FC052231
:104F78000AEB07030AF8072004229F189A70DE70CC
:104F88005C7032464946384610F051FC3E4408EB06
:104F980005039E4219D029464046FFF731FF0D4CC4
:104FA80013E04346EF1E03F8020B012288F80120A4
:104FB800FF213A46184610F060FC0346C455A81E67
:104FC80032464946184410F032FC204602B0BDE88B
:104FD800F08700BF80BFFFFFF8B500F108054768FC
:104FE800044628460E4607F098FC874217D16368A6
:104FF800B3F5806F13D80021284607F05FFE00281C
:105008000DDD0021284607F03EFC40B1EEB104F169
:105018002C050021284607F051FE002801DC1A481B
:10502800F8BD0021284607F02EFC0028F7D004F12F
:1050380038050021284607F041FE0028EFDD002151
:10504800284607F020FC0028E9D0002104F11400CC
:1050580007F034FE0028E2DDA6B1002104F1440087
:1050680007F02CFE0028DADD002104F1500007F0DB
:1050780025FE0028D3DD002104F15C0007F01EFEA8
:105088000028CCDD0020F8BD80BFFFFF2DE9F843E4
:10509800099F044698460B9E0D9D49B100F10809E9
:1050A800484607F040FC50BB484607F036FC6060B5
:1050B800B8F1000F01D147B90EE0089A414604F152
:1050C8002C0007F030FCD0B9F5E70A9A394604F10C
:1050D800380007F028FC90B936B10C9A314604F133
:1050E800200007F020FC50B935B10E9A294604F18A
:1050F800140007F018FC10B90020BDE8F883A0F5EB
:105108008140BDE8F88300002DE9F04F00F1080B5D
:1051180087B007460021584607F0D0FD07F12C0953
:1051280000218046484607F0C9FD07F1380A059076
:105138000021504607F0C2FD07F120030021054673
:105148001846029307F0BAFD07F1140304900021F2
:105158001846039307F0B2FD059B049A4BB125B19D
:105168002AB1061C18BF012613E02E4611E0164688
:105178000FE0B8F1000F03D144464646002224E070
:10518800CDB91AB1F0B9064604460EE02E462C46B3
:105198000DE0ADB192B9041C18BF0124B8F1000F9D
:1051A800ECD0002BEAD1002DE8D1002AE6D1002866
:1051B800E4D0012209E01C461E46DFE70024EDE7A3
:1051C8002C46DBE701262C4602E0002E3DD00026C7
:1051D80004940124B8F1000F0BD153B14DB15246DC
:1051E8004946584607F089FE28BB584607F095FB04
:1051F800786046B1CDF800A04B46029A039958460C
:105208000BF0D6F807E0049B33B1029B039A514692
:1052180048460BF0C9F970B984B107F15C030193F2
:1052280007F150030093029A07F144035146484698
:105238000BF05EFB10B1A0F581400CE0214638462A
:1052480007B0BDE8F04FFFF7C7BE0CB912B126464C
:105258000494BFE7014807B0BDE8F08F80BFFFFFA7
:1052680070B504460E4615460021AC2210F005FB29
:10527800C4F8A460C4F8A85070BD40687047000026
:1052880070B500210446FFF7A7FE0546B8B904F13A
:105298000806304607F021FB7F2810D91434294628
:1052A800204607F0F0FA50B1204607F016FB012817
:1052B80005D93146204607F0BCFC002800DB014D2B
:1052C800284670BD00BEFFFFF0B585B00446FFF765
:1052D800D7FF28BB01212046FFF77EFE00BB04F163
:1052E800140304F12C0504F1380604F12007029098
:1052F8000190009332463B46294604F108000BF022
:1053080031FA68B904F15C03019304F15003009386
:105318003A4604F14403314628460BF0A3F900B19C
:10532800014805B0F0BD00BF00BEFFFF38B5054617
:105338000C46FFF7A5FF50B92046FFF7C5FF30B967
:1053480004F1080105F1080007F073FC08B10548ED
:1053580038BD04F1140105F1140007F06AFC0028B7
:10536800F5D138BD00BEFFFF2DE9F0410C4686B0EF
:10537800002105461746FFF72FFE064678BB03A80F
:1053880007F0F2F921466A6803A807F0CCFA044648
:10539800F0B905F10804214603A807F04AFC0028E3
:1053A80014DA05F1680303A9009305F114022346F2
:1053B8000846D5F8048008F00EF8044640B942467D
:1053C800394603A807F0E4FA044601E06FF0030445
:1053D80003A807F0D0F91CB1A4F5854600E0024EF9
:1053E800304606B0BDE8F08180BFFFFF2DE9F04FE1
:1053F8000E46A5B00121044692461D46FFF7ECFD76
:105408000390002840F09B8106A807F0ADF909A891
:1054180007F0AAF90CA807F0A7F90FA807F0A4F954
:105428002EB118A807F0A0F91BA807F09DF912A83B
:1054380007F09AF915A807F097F91EA807F094F94C
:1054480021A807F091F96268294606A807F06BFAC7
:105458000746002840F0508104F10805294606A8AF
:1054680007F0E7FB002880F2438106A91EA807F091
:10547800C4F90746002840F03F8104F1500304F1C5
:1054880044090493002E00F0C580D4F8A03023B35B
:1054980004F18C0842464146404607F02EFD074677
:1054A800002840F029812A464146404607F061FF1E
:1054B8000746002840F0208104F1980842464146FA
:1054C800404607F01AFD0746002840F015812A4695
:1054D8004146404607F04DFF37E00C23059304F1A1
:1054E800980B04F18C08059B013B059300F02A8179
:1054F8006168534632460139584608F010FA0746A3
:10550800002840F0F9802A465946404608F082F9BA
:105518000746002840F0F0800121404607F0CEFB06
:105528000028E0D12A465946404608F01BFA0746AB
:10553800002840F0E18004F16803009304F11402AC
:105548002B464146404607F046FF0746002840F0F4
:10555800D38006A904F18C02084607F0CEFC074662
:10556800002840F0C98006A92A46084607F001FF2E
:105578000746002840F0C080012204F12C0109A848
:1055880007F0A5FC0746002840F0B680012204F188
:1055980038010CA807F09BFC0746002840F0AC80B7
:1055A800534632461C210FA808F0B9F907460028CF
:1055B80040F0A2800FAA09A918A807F09EFC074688
:1055C800002840F0998018A94A46084607F026FCAA
:1055D8000746002840F09080534632461C210FA809
:1055E80008F09DF90746002840F086800FAA0CA90C
:1055F8001BA807F082FC074600287DD11BA9049A46
:10560800084607F00BFC0746002875D11BAB04932E
:105618000DF1600904F1740304F12C0800934A4663
:10562800434606A912A807F0D6FE0746002863D10C
:1056380004F1800304F138090093049A4B4606A943
:1056480015A807F0C8FE0746002855D115AA12A9C3
:1056580006A807F004FC074600284DD104F15C02B7
:1056680006A912A807F049FC0746002844D142467B
:1056780012A906A807F07DFE074600283CD14A4635
:1056880006A912A807F039FC0746002834D112AA47
:1056980015A906A807F0C2FB074668BB66B904F15E
:1056A8006803009304F114022B4606A921A807F009
:1056B80092FE074600BB0FE006A904F198020846CF
:1056C80007F01BFC0746B8B906A92A46084607F0A2
:1056D80050FE074680B9E2E71EA921A807F0A9FAFB
:1056E80048B962682E9906A807F052F9074603E000
:1056F8006FF0030700E0164F09A807F03CF80CA864
:1057080007F039F80FA807F036F82EB118A807F0F7
:1057180032F81BA807F02FF806A807F02CF812A8F3
:1057280007F029F815A807F026F821A807F023F8AC
:105738001EA807F020F83FB1A7F5864300E0054B07
:10574800039301E0044FD7E7039825B0BDE8F08F35
:1057580080BCFFFF80BFFFFF80BBFFFF2DE9F04F3C
:10576800012B8BB080468B4603920493169F189E9C
:1057780005D1D0F8A430012B01D040487AE0BBF124
:10578800000FFAD098F8A80003F04AFB029000280E
:10579800F3D0D8F8044003F087FC43000593420097
:1057A800BB1C13449F420546E7D89C42E5D32246DA
:1057B8000021304610F061F806F10109002333702A
:1057C8002A4649460398D84710B1A0F5894051E0C8
:1057D80009EB050A5346159A1499029803F092FBAF
:1057E800002847D10590A01EC01B6B002844C01A92
:1057F80001220AF80020104417993A46504407AF8E
:1058080010F015F8384603F017FB059B02991A4665
:10581800384603F037FB0246A8B905F1010A013CF6
:10582800B244641B4A4600972B4621465046FFF770
:10583800EFFA024638B952460097234629464846A9
:10584800FFF7E6FA024607A8029203F0FAFA029A6C
:105858007AB9049B2BB9324631464046FFF784FD9E
:1058680008E000963346039A59464046FFF7BEFDC6
:1058780000E010460BB0BDE8F08F00BF80BFFFFF0F
:105888002DE9F74F9A46BAF1010F07468946934624
:10589800DDF830800D9B0E9E03D1D0F8A420002A9D
:1058A80055D1B9F1000F52D0002B50D0002E4ED058
:1058B80018F10B027C684AD2944248D33546033C1F
:1058C8000022C8EB040405F8022BBAF1000F18D126
:1058D800022272702C44A5421CD06422009201223C
:1058E800294658460193C8472A78019B8ABB009AE3
:1058F800013A009202D1A0F589402EE00028EED0AE
:10590800F9E7012272702C44FF22AC4202D005F85C
:10591800012BFAE72046002200F8012B19464246DF
:105928000FF085FFBAF1000F07D1324631463846ED
:1059380003B0BDE8F04FFFF717BD33465A46494656
:1059480038460C9603B0BDE8F04FFFF74FBD04484A
:1059580003E00028CFD10135BDE703B0BDE8F08FE3
:1059680080BFFFFFF0B587B0D0F8A4700CAC70CC46
:1059780057B1012F10D10294002404960395019485
:105988000094FFF7EBFE08E00E960D950C9407B017
:10599800BDE8F040FFF774BF014807B0F0BD00BF95
:1059A80000BFFFFF2DE9F04F012BADF2644D064615
:1059B8008A4603929B4605D1D0F8A430012B01D02A
:1059C8005C48B2E07768A7F11003B3F57C7FF7D89D
:1059D80096F8A80003F024FA02900028F0D003F00B
:1059E80063FB00F101084FEA4805AF420446E7D3DC
:1059F8000DF16009BBF1000F06D14A46DDF8941499
:105A08003046FFF7B1FC08E0CDF80090DDF894349B
:105A1800039A51463046FFF7E9FC824600283CD1FC
:105A280005AE304603F008FA52460299304603F0B4
:105A380029FA824608B130463BE007F1FF3BC844EB
:105A4800C4EB0B0B00965B46424621460DF1610004
:105A5800FFF7DEF9824658BB009623460DF1610236
:105A680059464046FFF7D4F9824608BB24E0885CD3
:105A780080F0010050EA0E0351D10132114418AAF6
:105A88008A1ADDF89C04BA1A82424BD8DDF89004D1
:105A98000260DDF898040FF0CAFE4FF4806118A880
:105AA800FFF7AEF908A84021FFF7AAF950463CE0F5
:105AB80005A803F0C6F9F0E7304608AE03F0C1F9CF
:105AC8003346DDF88C24DDF88814029803F01AFABE
