:02000004080AE8
:1000000000000A08CC280B080000050006000501C6
:080010000402CF000000000013
:10001800E4F10A0809480A4908B5884205D0094A9E
:10002800824202D0121A0FF060F80748074A0021EE
:10003800121A0FF080F8064808BD00BF0003002020
:100048000C280B089803002098030020D0350020C6
:10005800D035002070B50EF057FB074B074C1E46F5
:10006800E41AA4080025A54204D056F8253098477C
:100078000135F8E770BD00BFBC270B08F4270B0853
:1000880000F018B808B500F039F8BDE808400EF0DF
:10009800F9BA0DF02FBF0DF02DBF0DF033BF0DF0E5
:1000A80031BF0078B0FA80F040097047012303702F
:1000B8007047704708B501200EF094FA0A490B48BA
:1000C8000DF09CFD09480DF093FD58B10EF0F2FBC0
:1000D80007490EF02DFABDE80840064A06490348CC
:1000E8000DF089BD08BD00BFF8F10A089C03002087
:1000F800FDF10A080EF20A081AF20A08C8200EF0E2
:100108005FBA000008B50DF0CDFD064B42F2B322F0
:10011800054906480DF0BCFD0DF0DCFD044B1860E8
:1001280008BD00BFBB000A082BF20A089C03002088
:10013800A40700207047000070B505460C46164617
:100148000EF026F958B12146324628460EF00EF92F
:10015800044638B128460DF027FF204670BD4FF001
:10016800FF3070BD004870BD8097FFFF70B5044632
:100178000D4616460EF00CF958B120460DF0E6FF74
:1001880028B13246294620460DF0AFFF18B902487B
:1001980070BD4FF0FF3070BD0097FFFF70B50E4681
:1001A80015460C462B1B3344032B04D90DF08AFD4E
:1001B80044F8040BF6E7AC0806EB84043544AC427B
:1001C80004D00DF07FFD04F8010BF8E7002070BDA6
:1001D80000B5ADF2044D0B46054A40F2FF316846C2
:1001E80005F08AFF00200DF2044D5DF804FB00BF06
:1001F800C8F80A0838B50B4B8469054603607CB11A
:100208006368013B63605BB9236820469B68984735
:10021800A368013BA3601BB923682046DB689847A5
:10022800284638BD9C250B0810B50446FFF7E2FFA9
:100238002046FFF732FF204610BD38B504461D465C
:10024800059B0363002084F8810684F880066063B8
:1002580002B1A26419B104F138000EF023F9049B2D
:10026800E0692365069BA4F84C50A4F8543008B103
:10027800FFF715FFB4F85400FFF70DFFE06138BD34
:100288002DE9FF410446174698460E4600250DF015
:10029800EDFFE5610C4904F138000EF0F0F8012398
:1002A80084F88236FF2302930F2300932046A56427
:1002B800CDF804803B462A463146FFF7BEFF20466C
:1002C80004B0BDE8F08100BFC8F80A08F0B50D46D3
:1002D80002339BB26C1A15F8016BA4B23EB1B0F8A8
:1002E80054709F4203D95C1CD654A3B2F2E7191B81
:1002F8000A44211202F8021C02F8014C1846F0BD0B
:1003080010B590F8814614B90EF030F803E000F506
:10031800347008F06BFA80B210BDF7B507468E4608
:100328001E461D46002405F07F0302A9ED0921445D
:1003380018BF43F08003013401F8043CE4B2002DF7
:10034800F1D1C4F10403D11802F803E0A54206DA9A
:1003580001A82B1B285C134458710135F6E7721C61
:1003680022443846FFF7CCFF05460DF0B3FC0134B4
:100378007862A019431B5842584103B0F0BD38B504
:100388000446C369E0221A70C36900255D70022221
:10039800C169FFF7B5FF94F88136BBB104F57A70EF
:1003A80084F8805684F8815606F0DDFD04F21C506E
:1003B80006F0D9FD04F5CA600AF0B5F904F56170D4
:1003C80008F004FC04F5347008F06CFB20460DF0CE
:1003D800FBFE0DF07FFC6062A06238BD37B590F877
:1003E800813604464BB920460DF0B0FE0028FAD0FD
:1003F80020460DF052FEC0B217E090F880369BB14F
:1004080000F5347501220DF10701284608F068F956
:10041800002806DA10F5D24FF4D02046FFF7AFFFD8
:1004280002E09DF8070000E0FF2003B030BD2DE991
:10043800F0470546C4698A46FFF7D0FF4FF0010828
:1004480046462070EB69002793F8009009F0F00900
:100458002846FFF7C3FFEB69741C985500F07F032B
:1004680003FB08770306A4B2BFB24FEAC81801D548
:100478002646EDE7631EB9F1300F8AF8003013D134
:100488002846D5F81C80FFF7A9FF08F8040028467D
:10049800D5F81C80FFF7A2FFF41C0236B6B2A4B24E
:1004A80008F80600022300E000231B1B9EB2A319D4
:1004B8009BB29F420BD92846FFF790FFB5F85430FE
:1004C800A34284BFEB6918550134A4B2EFE7B5F82D
:1004D8005400A0422CBF20460020BDE8F08710B58C
:1004E80004460DF055FF94F881361BB9003018BF4B
:1004F800012010BD94F8800610BD2DE9F14F0D9E26
:1005080004468B4691469A469DF828809DF82C50C3
:100518009DF83070FFF7E3FF002848D0E369002218
:100528001A60E269052359462046FFF7CFFE6B1E85
:10053800012B12D8238CE26901339BB223841B124E
:100548001354411CE369228C89B2023080B25A5498
:100558001EB1238C5A1C22843380002291B2831846
:100568008A459BB209D9B4F8546001329E4204D935
:1005780019F80160E169CE54F0E7B8F1000F0CBF3B
:10058800302131210FB141F00801022D02D141F093
:10059800040103E0012D08BF41F002012046053B9C
:1005A800E2699BB201B0BDE8F04FFFF7B6BE01B0FB
:1005B800BDE8F08F1FB5089C0394002402949DF8B1
:1005C8001C4001949DF818400094FFF796FF04B072
:1005D80010BD7FB5054610460E4614460EF0C1FD07
:1005E800002302930193009322460346314628468E
:1005F800FFF7E0FF04B070BD10B50446FFF76FFFCA
:1006080028B12046FFF7BBFEE0690DF07BFC04F142
:1006180038000DF0EDFE2046FFF7ECFD204610BD3A
:1006280008B50DF093FD003018BF012008BD00008B
:100638002DE9F04F0546934600F56174994601236C
:1006480085B080F8813605F534762046039105F5A6
:100658007A7A08F075FA304607F09AFF05F21C57C7
:10066800504606F07BFC05F5CA68384606F076FC6D
:1006780040460AF053F800223549204607F099FF12
:100688005A460399504607F007F800285DDBB9F190
:10069800000F02D10F9B5BB90CE00E9B002BF9D029
:1006A8001A464946384606F0F7FF0028F2DA4CE0C9
:1006B800109B4BB900231A461946204608F044FA05
:1006C8008346002841D109E000230093109A0F992E
:1006D800404604F04DFE0028ECD036E003221146D7
:1006E800204607F0B3FF5A461A49204607F05BFF39
:1006F8000121204607F050FF5A461749204607F0C7
:1007080055FF5A465146204607F067FFB9F1000FDA
:1007180006D00F9B23B142463946204607F05AFFC0
:100728002146304608F084F9044668B90B4B0C4A58
:1007380005F5CB61304607F045FF0094094B0A4A9E
:100748002946304607F038FF204605B0BDE8F08F4F
:100758003D010A08D9010A08A5010A08C9450A087D
:10076800BB450A0875010A0841010A0800B500F5E9
:100778003470ADF5017D07F06EFF034638B1064AC7
:100788004FF40071684605F0D3FF002000E0012017
:100798000DF5017D5DF804FB66F20A0870B50446A4
:1007A80000F53476D4F8D432102B05D030460CF04E
:1007B800EBFC05460028F5D015F5D24FF2D015F51B
:1007C800D14FEFD004F57A7006F0CDFB04F21C503F
:1007D80006F0C9FB04F5CA6009F0A5FFD4F8D432C5
:1007E800102B09D194F8823643B12046FFF7BEFF9B
:1007F80020B94FF0FF3070BD284670BD012384F842
:100808008036002070BD00002DE9F0438DB004460D
:10081800894617461E46DDF85080FFF760FE0546FC
:10082800002840F0E780A16C002938D10346B4F8CD
:100838004C20A16B20460DF0C3FB94F88136002BA9
:1008480050D0A16B04F5347007F0CAFE2046FFF7BC
:10085800A5FF002840F0CA8001232384684B06AA1C
:100868005968186803C2197A53F8090F11709A88E1
:100878009B79ADF814208DF816309DF864300490FB
:10088800042BE26931D10498531DC2F80500BDF864
:1008980014109DF8162099809A710C232EE006A852
:1008A8000DF0AAFF2B46B4F84C2006A920460DF0FF
:1008B800E7FC94F88136ABB1A16CC8784B780A781C
:1008C8000190897806A800914E490DF02BFB06A9E6
:1008D80004F5347007F084FE2046FFF75FFFB0FA96
:1008E80080F040090028B7D180E006AB03CBC2F8FE
:1008F8000500C2F809101B7853730E23B8F1000FD6
:100908000AD09DF858209DF85410520142F0060272
:1009180042EAC102D2B200E002229DF8601009B991
:1009280002F0FD022FB116B942F0800201E042F058
:10093800C002E169581CCA54226DE16912120A54B6
:10094800E169206D9A1C88540333E26949462046C0
:10095800FFF7BCFCB8F1000F0BD00346E269414633
:100968002046FFF7B3FCE269034617992046FFF7D4
:10097800ADFC67B10346E26939462046FFF7A6FC9D
:100988002EB10346E26931462046FFF79FFC431F1C
:100998009BB2E26910212046FFF7BFFC0DF09AF9DF
:1009A8004FF47A776062A0622046FFF739FE064668
:1009B80058B90DF08FF9A36AC01A236D7B4398428A
:1009C800F2D92046FFF7DBFC0EE00DF10F012046BF
:1009D800FFF72DFD042809D1E369DF7837B90DF059
:1009E80079F984F82C70A062354604E02046FFF7B8
:1009F800C6FC00E0002528460DB0BDE8F08300BF26
:100A080056F20A086BF20A087FB5042305930123FE
:100A18000493002303930293019300931A46FFF76C
:100A2800F3FE07B05DF804FB0DF03CB96C22002121
:100A38000EF081BB38B100F16C020023904202D065
:100A480003700130FAE7704708B56C220EF04DFBD1
:100A580008BD0000002303604360A1B9184B836000
:100A6800184BC360184B0361184B4361184B8361E3
:100A7800184BC361184B036203F17453A3F52303A6
:100A8800A3F6924318E0154B8360154BC36003F13E
:100A9800794303F5740303F501630361114B436163
:100AA800114B836103F1D14303F5C01303F51E63B2
:100AB800C3610E4B03620E4B436281660020704790
:100AC80067E6096A85AE67BB72F36E3C3AF54FA5D7
:100AD8007F520E518C68059BABD9831FD89E05C1E8
:100AE80007D57C3639590EF7310BC0FFA78FF9644B
:100AF800A44FFABE2DE9F04F031DCFB005931A4657
:100B0800002352F8040F06AC44F823000133082BE5
:100B1800F7D1084600220EAC11F82250C3780430F1
:100B280043EA056310F8035C43EA054310F8025CE6
:100B380043EA052344F822300132102AECD10D9BF8
:100B48009F4C00930C9E099B089FDDF82CB0DDF8A4
:100B58001CE0DDF82880DDF818900FAD04F1400A9C
:100B680054F8040C4FEAF82255F8041C86EA0B0CDA
:100B780082EAB812014482EA78620CEA080C8CEA2C
:100B8800060C0A44009962444FEA79304EEA090C8F
:100B98000A440CEA070C0EEA090180EAB9004CEA9B
:100BA800010180EAB95008441344296802442068C6
:100BB8008BEA080C01440CEA030C4FEAF3208CEA98
:100BC8000B0C0E4480EAB31006EB0C0180EA73604C
:100BD8000E1806EB070C42EA09004FEA723702EAE0
:100BE800090187EAB20700EA0E0087EAB25708430C
:100BF800384430446968666883EA08070E4407EA9F
:100C08000C074FEAFC2187EA0807B34481EABC11C4
:100C18000BEB070681EA7C6106EB010B4FEA7037A4
:100C280042EA000102EA000687EAB00701EA090180
:100C380087EAB05731433944AE68A7685944DE445F
:100C48003E4483EA0C0BB0440BEA0E0B4FEAFE2637
:100C58008BEA030B86EABE16D84486EA7E664644CB
:100C68004FEA713B40EA010800EA01078BEAB10B41
:100C780008EA02088BEAB15B48EA0708D844B0449E
:100C8800B144E768EE688CEA0E0B37440BEA090BAF
:100C98008BEA0C0B3B4403EB0B074FEAF92383EA7F
:100CA800B91383EA7963FE18931900934FEA7837EA
:100CB80041EA080301EA080287EAB807034087EA1D
:100CC800B85713433B4433442A6926694FEA733BB8
:100CD80032449444009A8EEA090616404FEAF227F5
:100CE80086EA0E0687EAB217B44487EA72670CEB05
:100CF800070248EA030786180F4008EA03008BEA50
:100D0800B30B8BEAB35B07435F44174460696A69B6
:100D180020341044009A864489EA020C0CEA060C36
:100D28008CEA090C0EEB0C004FEAF62E8EEAB61E82
:100D38008EEA766E00EB0E024FEA773043EA070E32
:100D480001EB020B0EEA080E03EA070180EAB7007E
:100D580080EAB7504EEA010E8644964454F8081CBF
:100D6800AA69A2451144009A894482EA060000EA69
:100D78000B0080EA020009EB00014FEAFB2989EA2F
:100D8800BB1989EA7B6901EB09024FEA7E3047EA21
:100D98000E0980EABE0009EA030907EA0E0180EAA3
:100DA800BE5049EA010981449044914405F1200567
:100DB8007FF4D6AE0022DFF80CA00EAC049203E05C
:100DC8007CF20A0878F20A08A26B60684FEAF245DA
:100DD80085EA724585EA9225049A0DF1380C5CF88B
:100DE8002220616A4FEAB04C0A448CEAF01C4FEAB0
:100DF800F8218CEAD00C81EAB811154405EB0C02F5
:100E080081EA786586EA0B0101EA0801039281EA22
:100E18000602A918DAF840204EEA09050A4403999F
:100E28003D4021640A4400990AF1200A0A44D31873
:100E38004FEA7931009381EAB9010EEA090381EAA0
:100E4800B9512B430B441A44E36BA5684FEAF341AD
:100E580081EA734181EA9321A36A20340344194447
:100E68004FEAB54383EAF51383EAD50C01EB0C038B
:100E7800DAF8240000998BEA080C30440CEA010CDB
:100E88008CEA0B0CC1188C44009963624FEAF1207C
:100E980080EAB11080EA716000EB0C01C81901907A
:100EA8004FEA723C42EA090002EA09078CEAB20CEE
:100EB80000EA0E008CEAB25C3843604408440399A7
:100EC80054F8147C4FEAF14686EA714686EA912680
:100ED800E1684FEAB74C29440E448CEAF71C0099A4
:100EE8008CEAD70C664481EA080C0199A6620CEAE0
:100EF800010CDAF828108CEA080C59448D1901996C
:100F0800AC44019D4FEAF12181EAB51181EA75618E
:100F180001EB0C0542EA00014FEA703C05EB0E0BB1
:100F28008CEAB00C02EA000E01EA09018CEAB05C16
:100F380041EA0E01614429444FEAF34585EA7345C5
:100F480085EA9323256954F810CC2F443B444FEA93
:100F5800BC4787EAFC1787EADC0E03EB0E079DE81F
:100F680028005D4005EA0B055D40DAF82C304FEAB1
:100F7800713E9844B84445444FEAFB2888EABB18B8
:100F880088EA7B6808EB050303EB090540EA0108DA
:100F980002958EEAB10E00EA010508EA02088EEA17
:100FA800B15E48EA0508F04498444FEAF64E636992
:100FB8008EEA764E54F80C5C8EEA96260CEB030EFD
:100FC800019B764483EA0B0C4FEAB54E029B8EEAEE
:100FD800F51E8EEAD5090CEA030C019B06EB090EF7
:100FE800DAF830608CEA030C009B76441E44029BBE
:100FF800B444029E4FEAF32383EAB61383EA766386
:1010080003EB0C069319009341EA080301EA08026E
:10101800034013434FEAF74282EA7742E7624FEA16
:10102800783C82EA9727A2698CEAB80C54F8089CA5
:101038008CEAB85C1544029A634433442F448BEA23
:1010480002064FEAB945009A85EAF91585EAD905F5
:101058001640DAF834203D44019F2A443A4486EA8F
:101068000B061644009AC4F830E04FEAF22787EAE4
:10107800B21787EA7267BA1986184FEA733080EA9E
:10108800B30048EA030780EAB35C0F4008EA0300AC
:101098000743674417444FEAFE4282EA7E4282EAE7
:1010A8009E2EE26954F8040C91440EEB09024FEAB3
:1010B800B04989EAF01989EAD0099144029A65632E
:1010C8009646009AC4F838908EEA020CDAF838206E
:1010D8000CEA060C8CEA0E0C4A444FEAF62E5A44E7
:1010E8008EEAB61E62448EEA766E72444FEA773C08
:1010F80043EA070E01EB020B0EEA080E03EA0701AA
:101108008CEAB70C8CEAB75C4EEA010EE6449644CA
:101118004FEAF542216882EA754282EA9525039AE8
:101128004FEAB14C10448CEAF11CDAF83C20054433
:101138008CEAD1010D4402992A4402EB0109009A74
:101148004FEA7E3082EA060101EA0B0151404FEA7C
:10115800FB2282EABB12894482EA7B624A4447EA5C
:101168000E0980EABE0009EA030907EA0E0180EACF
:10117800BE5049EA0109814490449144049AE563C8
:101188000832302A04927FF41FAE009A09930D9218
:10119800CDF82880CDF82CB00C96CDF81890CDF865
:1011A8001CE008970023059A52F8041F059206AA26
:1011B80052F8232001330A440599082B0A60F2D11A
:1011C80000204FB0BDE8F08F2DE9F04104460E46EF
:1011D800154682B3036803F03F0013449A42236024
:1011E80082BF63680133636080B1C0F14007BA42CF
:1011F8001BD304F128083A4640440DF076FF4146D7
:101208002046FFF777FCB8B93E44ED1B2F46E91B93
:101218003F2F314405D92046FFF76CFC60B9403FA9
:10122800F5E747B13D460E46002028342A463146A8
:1012380020440DF05AFF0020BDE8F08170B5044647
:101248000368802203F03F03581C382823440D46C6
:1012580083F8282004F1280604D8C0F138020021B8
:1012680030440EE0C0F14002002130440DF063FF2D
:1012780031462046FFF73EFC002875D1014630462E
:1012880038220DF058FF236861685A0F42EAC102FC
:10129800110EDB0084F86010110C84F8611084F8DA
:1012A8006320110A1A0E84F864201A0C84F8652049
:1012B8001A0A84F8621084F8673084F86620314688
:1012C8002046FFF717FC034600284CD1E27A2A7023
:1012D80062896A70A268120AAA70A268EA70E27B40
:1012E8002A71E2896A71E268120AAA71E268EA71EF
:1012F800E27C2A72628A6A722269120AAA722269D6
:10130800EA72E27D2A73E28A6A736269120AAA7330
:101318006269EA73E27E2A74628B6A74A269120AAD
:10132800AA74A269EA74E27F2A75E28B6A75E26997
:10133800120AAA75E269EA7594F823202A76628C63
:101348006A76226A120AAA76226AEA76A06E50B9EA
:1013580094F827302B77E38C6B77636A1B0AAB779B
:10136800636AEB7770BD184670BDF0B51F469DB037
:10137800054601A80E461446FFF758FB394601A852
:10138800FFF768FB014658B92946324601A8FFF71E
:101398001BFF014620B9214601A8FFF74FFF014670
:1013A80001A8FFF747FB08461DB0F0BD2DE9F04F37
:1013B8000446A5B0006801930F469346309E04F09A
:1013C800DFFD81460023039301238DF80F300DF1D3
:1013D8005008002E5CD05A463946204604F018FDC5
:1013E800002856D12E9A0199204604F071FD002854
:1013F8004FD1042203A9204604F06AFD002848D1F1
:101408004146204604F074FD002842D104AD4A4606
:10141800414628460DF069FE4FF0010A2F9B9A4578
:101428001DD25A463946204604F0F2FC88BB4A468B
:101438002946204604F04CFD58BB2946204604F0B6
:1014480057FD30BB484507DA10F80820435D534084
:1014580000F808300130F5E70AF1010ADEE74E45E9
:10146800354628BF4D4641462A4631980DF03DFE87
:10147800319B761B2B44319304AA12F8013D0133AA
:10148800DBB21370002BA4D103AB9342F5D1A0E7D4
:10149800304625B0BDE8F08F2DE9F0431F46BBB0BC
:1014A8000023069307930993446883684FF004095F
:1014B80008931C4403680D46302B16468DF8169089
:1014C80040F0C98010AB0AAA214608A800F07BFBAF
:1014D800002858D10B9A092A4CD10C9961480DF073
:1014E800F5FD002846D1129B119A249303EB0208BC
:1014F800109B302B40F0AF804B4617AA414624A8DA
:1015080000F088FAF8B9249A179B189213444146B8
:1015180006AA24A8249300F0AAFAA0B9249B984507
:1015280022D007AA414624A800F0A1FA10B110F170
:10153800620F08D1249B984516D02CAA414624A8AE
:1015480000F089FB28B1A0F53C50002840F08680C7
:101558000AE00DF116012CA801F022FF50B9249BD6
:10156800984501D0404879E09DF8160004F0CEFB7C
:10157800814608B93D4871E013AB0DAA214608A879
:1015880000F021FB10B1A0F53C5067E00DF1170108
:101598000DA801F0D7FE0028ECD19DF8170000F047
:1015A8006BF880460028E5D04368DB080793139B57
:1015B800042B52D1C368149A9A424ED119A804F048
:1015C800B1FB2CA800F07AF8149A159924A80DF00C
:1015D8008CFD0122494619A804F0CAFB04460028DC
:1015E80031D1079B0DF170090293069BCDF80C9041
:1015F8000193179B3A4600933146189B19A8FFF7A9
:10160800D5FE0446F8B941462CA800F06DF804460A
:10161800C8B9079A6BB2D20049462CA800F07EF8E8
:10162800044680B909AB0293449B149A0193439BE7
:1016380024A900932CA8429B00F026F9A4F538545D
:10164800002808BF002419A804F071FB2CA800F09A
:1016580039F8204602E0064800E006483BB0BDE8FD
:10166800F08300BF78F30A089AD0FFFF80D1FFFF0C
:101678009ED0FFFF00D1FFFF054B53F8042C22B189
:10168800083313F8101C8142F7D11046704700BF89
:101698006C010B0830B5084C63685BB19D692D7807
:1016A800854205D15D688D4202D15D78954201D0B1
:1016B8000834F1E7184630BD64010B0838220021D0
:1016C8000DF039BD10B5044668B1406B18B12368F8
:1016D8009B695B69984704F138020023944202D061
:1016E80023700134FAE710BD38B504460D4661B1E0
:1016F80058B1382200210DF01EFDAB691B699847CF
:10170800606320B12560002038BD024838BD02481A
:1017180038BD00BF009FFFFF809EFFFF30B4C8B1F7
:101728000468BCB12569AD0702D46568954211D13A
:10173800012B4260037204D06578032D01D0052D7A
:1017480002D1A3699B6802E023B9A369DB68406BF7
:1017580030BC1847014830BC704700BF009FFFFFEE
:1017680038B50446B0B10368A3B199B1102A0FD8AF
:101778001869C00703D4DD68AA4201D20AE01546F9
:101788002A4604F120000DF0B0FC2563002038BD86
:10179800014838BD014838BD809FFFFF009FFFFF0B
:1017A80028B103681BB10023C3611846704701487C
:1017B800704700BF009FFFFF70B4039D144608B92F
:1017C8001D4836E00268002AFAD0002DF8D0002221
:1017D8002A6006680EB1726900E032467678012EFA
:1017E8000CD1944220D12C600268926954680A4650
:1017F800A44670BC90F90810406B6047062E06D1CD
:101808002C600A46406B214670BC04F09DB86AB152
:1018180099420DD1C369002BD2D1B4FBF2F102FB7E
:101828001144002CCCD103E0044802E0044800E055
:10183800044870BC704700BF009FFFFF809DFFFFFA
:10184800809CFFFF809FFFFF0346A0B1016891B114
:101858008AB1002010601A685278032A0ED0511FEE
:1018680002290BD9012A08D1DB698342A0F5C540BA
:1018780008BF00207047024870470248704700BF01
:10188800009FFFFF809FFFFFF0B585B005461F460C
:101898000B9E0C9CFFF764FFB0B92846FFF780FF4A
:1018A80090B9009433460A9A39462846FFF784FFD0
:1018B80050B9216803AA31442846FFF7C5FF18B973
:1018C8002268039B1344236005B0F0BD2DE9F04363
:1018D800076814467F78079D062F089E099ADDF849
:1018E80028E0DDF82C90DDF83080DDF834C012D126
:1018F800C9F800200893CDF83480CDF830C0CDF871
:101908002CE00A96099507940B46BDE8F04301219F
:10191800406B04F004B90148BDE8F083809FFFFFE5
:1019280030B5056887B06D780C46062D0C9917D12F
:101938000E9D29600D9D05950B9D0495109D0395A1
:101948000F9D02950A9D8DE828001346406B22469C
:1019580004F00AF9044B10F1120F08BF184600E012
:10196800024807B030BD00BF009DFFFF809FFFFF0A
:1019780030B50368CD1A002D02DC6FF05F0030BD72
:101988001C7814F0800F04D15C1C04601B78136071
:1019980036E004F07F04013C032C38D8DFE804F07B
:1019A80002091320012DE8D05B7813600368023325
:1019B80025E0022DE1DD5C789B7843EA042313607F
:1019C800036803331BE0032DD7DD9C785D78240280
:1019D800DB7844EA05441C431460036804330EE0D2
:1019E800042DCADD9C785D78240444EA05651C79D9
:1019F800DB782C4344EA0323136003680533036050
:101A08000368C91A13688B42B7D8002030BD6FF03D
:101A1800630030BD70B404680E1B002E07DD267805
:101A28009E4207D10134046070BCFFF7A1BF6FF07C
:101A38005F0001E06FF0610070BC704737B50123AB
:101A4800154601AA0446FFF7E5FF70B9019B012B73
:101A580009D123681B78003318BF01232B60236842
:101A68000133236001E06FF0630003B030BD37B588
:101A78000223154601AA0446FFF7CCFFC8B9019B0B
:101A8800013B032B13D8236893F90030002B0EDB9E
:101A980028600198431E019358B123682A681B786F
:101AA80043EA02232B60236801332360F1E76FF0D8
:101AB800630003B030BD37B50223154601AA0446BA
:101AC800FFF7A8FF40B9019A2168284607F0A9FC4A
:101AD8002268019B1344236003B030BD70B5032313
:101AE80004460E461546FFF795FFD8B91368A3B10B
:101AF800013B136023681B78072B137110D82368E8
:101B080001332360936022682B6813449E4223604C
:101B180014BF6FF06500002070BD6FF05F0070BDEE
:101B28006FF0630070BD38B5032304461546FFF710
:101B380071FF58B913685A1E012B2A6004D923680B
:101B48005A1C2260187808B16FF0670038BD2DE97B
:101B5800F34115461F4601AA302304460E46FFF7F7
:101B680059FF68BB2268019B13449E421DD06FF049
:101B7800650025E023689E421AD91B7842462B60EF
:101B880031463B462046FFF745FFC8B92368AB609E
:101B980022686B6813449E422360EBD91021012010
:101BA8000DF07EFAE86048B1054605F10408E1E762
:101BB8000020E86023689E4202D0D8E76FF06900F1
:101BC80002B0BDE8F081F7B517461D4601AA3023DB
:101BD80004460E46FFF71EFF00283AD12368F61A7E
:101BE800002E31DD3A461B78204642F8043B266831
:101BF800019B1E4431460623FFF70CFF48BB2368B0
:101C0800BB6022687B68D1188E42216006D105F13D
:101C18000C039D4216D028700135FAE7D35C2A469A
:101C280042F8043B23683146013323602046FFF71E
:101C38009FFE70B92368AB6022686B6813449E42AC
:101C4800236004D1002004E06FF05F0001E06FF032
:101C5800650003B0F0BD1FB5002301930293039301
:101C680001ABFFF7B0FF60B9019B052B00D033B97A
:101C7800029B002B14BF6FF06700002001E06FF09B
:101C8800670005B05DF804FB01F0EEBB01F0CCBBCA
:101C980010B5044601F0BEFB2046BDE810400CF02C
:101CA80031B910B55C2101200DF0FAF9044608B1EC
:101CB80001F0ACFB204610BD02F0C2BB02F086BBAF
:101CC80001F0B8BBFEF716BFFEF7BEBE10B504465E
:101CD800FEF7B0FE2046BDE810400CF013B910B571
:101CE8006C2101200DF0DCF9044608B1FEF79EFED8
:101CF800204610BD0123FFF738BB0023FFF735BB93
:101D0800FFF79CBAFFF760BA0121FEF7A3BE0021D6
:101D1800FEF7A0BE09F0C0BE09F01CBE10B504460F
:101D280009F00EFE2046BDE810400CF0EBB810B5E7
:101D3800D82101200DF0B4F9044608B109F0FCFDE2
:101D4800204610BD01230AF062BE00230AF05FBEE0
:101D58000AF02ABD0AF0E0BC012109F001BE002109
:101D680009F0FEBD01440023884202D0037001300F
:101D7800FAE770472DE9F04F95B01E9D04AE07466F
:101D88000C46914600214022304601930DF150083F
:101D98000DF0D1F90023286848F8443D04F0F0F824
:101DA80082467CB354452846A34628BFD34604F050
:101DB80001F8024638BB019A4946284604F004F85F
:101DC800024600BB04224146284603F0FDFF0246B6
:101DD800C8B93146284604F001F8024698B93B468E
:101DE8005A4507D013F8010BB15C0132414003F8A2
:101DF800011CF5E79DF80F30174401338DF80F30BB
:101E0800A41ACEE7224630464021FFF7ABFF104622
:101E180015B0BDE8F08F00002DE9F3471D460023FB
:101E28000E469146DDF8288000930193044628B3B6
:101E380003F06CFF0646002863D020466A4601A9D5
:101E480001F09AFA044600285BD1304604F098F86D
:101E5800009F0646074407F108037F2B51D810F16D
:101E68000A024ED207F10A039A424AD89D4248D341
:101E7800A5F10A03DF1B0A2F06D842E08D4240D3A2
:101E88006D1A0A2D3DD93EE0C246033F0AF8024BBF
:101E980001233A4688F80130FF2150460DF04BF9EE
:101EA8000AEB070330210AF807405970009FD970E0
:101EB80007F1080232449A70FAB2111D03F1070AB9
:101EC8001971062159719A7101993A4650460DF0D7
:101ED8000CF905220AEB07030AF8072004229F18C9
:101EE8009A70DE705C703246494638460DF0FDF84F
:101EF8003E4408EB05039E4219D029464046FFF7A9
:101F080031FF0D4C13E04346EF1E03F8020B01228C
:101F180088F80120FF213A4618460DF00CF90346CF
:101F2800C455A81E3246494618440DF0DEF820462E
:101F380002B0BDE8F08700BF80BFFFFFF8B500F131
:101F480008054768044628460E4607F064FA8742A3
:101F580017D16368B3F5806F13D80021284607F0BE
:101F68002BFC00280DDD0021284607F00AFA40B1B5
:101F7800EEB104F12C050021284607F01DFC0028CD
:101F880001DC1A48F8BD0021284607F0FAF90028B4
:101F9800F7D004F138050021284607F00DFC002889
:101FA800EFDD0021284607F0ECF90028E9D00021F0
:101FB80004F1140007F000FC0028E2DDA6B10021BE
:101FC80004F1440007F0F8FB0028DADD002104F1F1
:101FD800500007F0F1FB0028D3DD002104F15C007C
:101FE80007F0EAFB0028CCDD0020F8BD80BFFFFF2A
:101FF8002DE9F843099F044698460B9E0D9D49B16B
:1020080000F10809484607F00CFA50BB484607F0AB
:1020180002FA6060B8F1000F01D147B90EE0089AE2
:10202800414604F12C0007F0FCF9D0B9F5E70A9A0B
:10203800394604F1380007F0F4F990B936B10C9A32
:10204800314604F1200007F0ECF950B935B10E9A89
:10205800294604F1140007F0E4F910B90020BDE89E
:10206800F883A0F58140BDE8F88300002DE9F04F22
:1020780000F1080B87B007460021584607F09CFB83
:1020880007F12C0900218046484607F095FB07F127
:10209800380A05900021504607F08EFB07F120030F
:1020A800002105461846029307F086FB07F1140342
:1020B800049000211846039307F07EFB059B049AC1
:1020C8004BB125B12AB1061C18BF012613E02E46D4
:1020D80011E016460FE0B8F1000F03D1444646461A
:1020E800002224E0CDB91AB1F0B9064604460EE044
:1020F8002E462C460DE0ADB192B9041C18BF012440
:10210800B8F1000FECD0002BEAD1002DE8D1002A5D
:10211800E6D10028E4D0012209E01C461E46DFE78C
:102128000024EDE72C46DBE701262C4602E0002ED2
:102138003DD0002604940124B8F1000F0BD153B10F
:102148004DB152464946584607F055FC28BB5846FB
:1021580007F061F9786046B1CDF800A04B46029AC5
:10216800039958460AF024FD07E0049B33B1029B0B
:10217800039A514648460AF017FE70B984B107F130
:102188005C03019307F150030093029A07F144039B
:10219800514648460AF0ACFF10B1A0F581400CE06A
:1021A8002146384607B0BDE8F04FFFF7C7BE0CB967
:1021B80012B126460494BFE7014807B0BDE8F08F86
:1021C80080BFFFFF70B504460E4615460021AC22BD
:1021D8000CF0B1FFC4F8A460C4F8A85070BD406802
:1021E8007047000070B500210446FFF7A7FE0546BA
:1021F800B8B904F10806304607F0EDF87F2810D981
:1022080014342946204607F0BCF850B1204607F0A0
:10221800E2F8012805D93146204607F088FA002857
:1022280000DB014D284670BD00BEFFFFF0B585B04C
:102238000446FFF7D7FF28BB01212046FFF77EFEA3
:1022480000BB04F1140304F12C0504F1380604F171
:10225800200702900190009332463B46294604F13C
:1022680008000AF07FFE68B904F15C03019304F1E9
:10227800500300933A4604F14403314628460AF0D5
:10228800F1FD00B1014805B0F0BD00BF00BEFFFF81
:1022980038B505460C46FFF7A5FF50B92046FFF7AD
:1022A800C5FF30B904F1080105F1080007F03FFA4D
:1022B80008B1054838BD04F1140105F1140007F010
:1022C80036FA0028F5D138BD00BEFFFF2DE9F041F0
:1022D8000C4686B0002105461746FFF72FFE064636
:1022E80078BB03A806F0BEFF21466A6803A807F07A
:1022F80098F80446F0B905F10804214603A807F048
:1023080016FA002814DA05F1680303A9009305F109
:10231800140223460846D5F8048007F0DAFD04467F
:1023280040B94246394603A807F0B0F8044601E030
:102338006FF0030403A806F09CFF1CB1A4F58546C2
:1023480000E0024E304606B0BDE8F08180BFFFFFD6
:102358002DE9F04F0E46A5B00121044692461D46D0
:10236800FFF7ECFD0390002840F09B8106A806F0DB
:1023780079FF09A806F076FF0CA806F073FF0FA8EE
:1023880006F070FF2EB118A806F06CFF1BA806F027
:1023980069FF12A806F066FF15A806F063FF1EA8DD
:1023A80006F060FF21A806F05DFF6268294606A8CE
:1023B80007F037F80746002840F0508104F1080577
:1023C800294606A807F0B3F9002880F2438106A938
:1023D8001EA806F090FF0746002840F03F8104F150
:1023E800500304F144090493002E00F0C580D4F88A
:1023F800A03023B304F18C0842464146404607F01A
:10240800FAFA0746002840F029812A464146404604
:1024180007F02DFD0746002840F0208104F19808B8
:1024280042464146404607F0E6FA0746002840F093
:1024380015812A464146404607F019FD37E00C232E
:10244800059304F1980B04F18C08059B013B059357
:1024580000F02A816168534632460139584607F030
:10246800DCFF0746002840F0F9802A4659464046D6
:1024780007F04EFF0746002840F0F0800121404653
:1024880007F09AF90028E0D12A465946404607F055
:10249800E7FF0746002840F0E18004F16803009355
:1024A80004F114022B464146404607F012FD074648
:1024B800002840F0D38006A904F18C02084607F0F2
:1024C8009AFA0746002840F0C98006A92A46084615
:1024D80007F0CDFC0746002840F0C080012204F137
:1024E8002C0109A807F071FA0746002840F0B680C9
:1024F800012204F138010CA807F067FA0746002802
:1025080040F0AC80534632461C210FA807F085FFE7
:102518000746002840F0A2800FAA09A918A807F0CA
:102528006AFA0746002840F0998018A94A460846E2
:1025380007F0F2F90746002840F0908053463246EB
:102548001C210FA807F069FF0746002840F0868085
:102558000FAA0CA91BA807F04EFA074600287DD140
:102568001BA9049A084607F0D7F90746002875D131
:102578001BAB04930DF1600904F1740304F12C08FA
:1025880000934A46434606A912A807F0A2FC07464C
:10259800002863D104F1800304F138090093049AF8
:1025A8004B4606A915A807F094FC0746002855D104
:1025B80015AA12A906A807F0D0F9074600284DD198
:1025C80004F15C0206A912A807F015FA07460028CC
:1025D80044D1424612A906A807F049FC074600283C
:1025E8003CD14A4606A912A807F005FA0746002872
:1025F80034D112AA15A906A807F08EF9074668BBB8
:1026080066B904F16803009304F114022B4606A985
:1026180021A807F05EFC074600BB0FE006A904F1FD
:102628009802084607F0E7F90746B8B906A92A4606
:10263800084607F01CFC074680B9E2E71EA921A856
:1026480007F075F848B962682E9906A806F01EFFCB
:10265800074603E06FF0030700E0164F09A806F0ED
:1026680008FE0CA806F005FE0FA806F002FE2EB123
:1026780018A806F0FEFD1BA806F0FBFD06A806F04C
:10268800F8FD12A806F0F5FD15A806F0F2FD21A840
:1026980006F0EFFD1EA806F0ECFD3FB1A7F5864356
:1026A80000E0054B039301E0044FD7E7039825B0FA
:1026B800BDE8F08F80BCFFFF80BFFFFF80BBFFFF3E
:1026C8002DE9F04F012B8BB080468B460392049383
:1026D800169F189E05D1D0F8A430012B01D0404890
:1026E8007AE0BBF1000FFAD098F8A80003F00EFBCF
:1026F80002900028F3D0D8F8044003F041FC4300CE
:1027080005934200BB1C13449F420546E7D89C42F0
:10271800E5D32246002130460CF00DFD06F10109F3
:10272800002333702A4649460398D84710B1A0F5CC
:10273800894051E009EB050A5346159A1499029805
:1027480003F056FB002847D10590A01EC01B6B0064
:102758002844C01A01220AF80020104417993A4662
:10276800504407AF0CF0C1FC384603F0DBFA059B78
:1027780002991A46384603F0FBFA0246A8B905F151
:10278800010A013CB244641B4A4600972B46214685
:102798005046FFF7EFFA024638B9524600972346EB
:1027A80029464846FFF7E6FA024607A8029203F0D0
:1027B800BEFA029A7AB9049B2BB932463146404692
:1027C800FFF784FD08E000963346039A59464046D1
:1027D800FFF7BEFD00E010460BB0BDE8F08F00BF6C
:1027E80080BFFFFF2DE9F74F9A46BAF1010F074660
:1027F80089469346DDF830800D9B0E9E03D1D0F8B4
:10280800A420002A55D1B9F1000F52D0002B50D086
:10281800002E4ED018F10B027C684AD2944248D35D
:102828003546033C0022C8EB040405F8022BBAF134
:10283800000F18D1022272702C44A5421CD06422C9
:1028480000920122294658460193C8472A78019BDD
:102858008ABB009A013A009202D1A0F589402EE085
:102868000028EED0F9E7012272702C44FF22AC4216
:1028780002D005F8012BFAE72046002200F8012BC8
:10288800194642460CF031FCBAF1000F07D1324626
:102898003146384603B0BDE8F04FFFF717BD334661
:1028A8005A46494638460C9603B0BDE8F04FFFF744
:1028B8004FBD044803E00028CFD10135BDE703B080
:1028C800BDE8F08F80BFFFFFF0B587B0D0F8A470E7
:1028D8000CAC70CC57B1012F10D10294002404968F
:1028E800039501940094FFF7EBFE08E00E960D9512
:1028F8000C9407B0BDE8F040FFF774BF014807B07B
:10290800F0BD00BF00BFFFFF2DE9F04F012BADF276
:10291800644D06468A4603929B4605D1D0F8A430FA
:10292800012B01D05C48B2E07768A7F11003B3F53A
:102938007C7FF7D896F8A80003F0E8F90290002801
:10294800F0D003F01DFB00F101084FEA4805AF4243
:102958000446E7D30DF16009BBF1000F06D14A46E2
:10296800DDF894143046FFF7B1FC08E0CDF800908C
:10297800DDF89434039A51463046FFF7E9FC824665
:1029880000283CD105AE304603F0CCF952460299F6
:10299800304603F0EDF9824608B130463BE007F1D6
:1029A800FF3BC844C4EB0B0B00965B4642462146EE
:1029B8000DF16100FFF7DEF9824658BB0096234609
:1029C8000DF1610259464046FFF7D4F9824608BB2B
:1029D80024E0885C80F0010050EA0E0351D10132F6
:1029E800114418AA8A1ADDF89C04BA1A82424BD8F4
:1029F800DDF890040260DDF898040CF076FB4FF4E3
:102A0800806118A8FFF7AEF908A84021FFF7AAF9D6
:102A180050463CE005A803F08AF9F0E7304608AED6
:102A280003F085F93346DDF88C24DDF88814029824
:102A380003F0DEF982460028E1D150460DF161032A
:102A480099F800E01919A04208D2325C11F800C0C8
:102A5800013082EA0C0C4CEA0E0EF4E72144002403
:102A68000E4622467D1B0D44B542B2D016F8010B26
:102A7800044360422043C0F3C01080F001000244C8
:102A8800F2E7DFF818A0BAE7DFF814A0B7E70DF20D
:102A9800644DBDE8F08F00BF80BFFFFF00BFFFFFA0
:102AA80000BCFFFFF0B5012BADF20C4D1D4603D164
:102AB800D0F8A430002B7FD14768A7F11003B3F5F5
:102AC8007C7F79D802AE45B93246DDF82414FFF789
:102AD800FDFB0446002868D12FE00096DDF8243479
:102AE800FFF736FC044600285FD1012D327825D146
:102AF800014686467378FD1E83F002031343A942FC
:102B080012D272189078013142421043C0F3C010BB
:102B180080F001000443E4B262422243C2F3C012CF
:102B280082F001029644EAE70DF10A020EF1010172
:102B3800114412F80E2013431EE032787378FC1EFD
:102B480083F001031343002211469646A1420BD29B
:102B5800701880780131FF2818BF42F0010282F016
:102B68000100C0B28644F1E70DF10A0212F80E50D6
:102B78000EF1010111442B43BEF1070F8CBF1C4617
:102B880043F0010464B26CB98A1BDDF82C34BA1A1C
:102B98009A4209D8DDF82034DDF828041A600CF0D0
:102BA800A4FA02E0064C00E0064C30464FF480617F
:102BB800FFF7D8F8204600E003480DF20C4DF0BDB1
:102BC80000BFFFFF00BCFFFF80BFFFFFF0B587B06D
:102BD800D0F8A4E00CACF0CCBEF1000F0CD0BEF1E4
:102BE800010F12D1029400240597049603950194CD
:102BF8000094FFF789FE09E00F970E960D950C9447
:102C080007B0BDE8F040FFF74DBF014807B0F0BD81
:102C180000BFFFFF2DE9F04F012B9DB080468A468B
:102C2800049205939DF89800299C05D1D8F8A43002
:102C3800012B01D05848ABE0BAF1000FFAD0D8F810
:102C4800046030B103F062F80028F3D003F098F97B
:102C5800279098F8A80003F059F883460028E9D08F
:102C680003F08EF94500AB1C9E420746E2D332467C
:102C7800002120460CF05FFA3A460CA90498D04788
:102C880010B1A0F5894083E008F1080307901846C1
:102C9800039306F0A0FB751B05F1FF3901222544BB
:102CA800A14405F8022C0CA93A46069009AD4846FD
:102CB8000CF01BFA284603F035F8079B59461A46CC
:102CC800284603F055F8024600284AD1284603F062
:102CD80071F80246002844D109EB070B082259462F
:102CE800284603F071F8024600283AD1279A289915
:102CF800284603F069F8024698BB3A460CA92846CC
:102D080003F062F8024660BB5946284603F066F8AD
:102D1800024630BB069B711E013B13F0070F0CBF28
:102D280001200020C91B5A46091A00953B46204439
:102D3800FFF720F80246A0B90690039806F04BFB6F
:102D4800C0EBC60023780130FF2646FA00F0184091
:102D5800BC232070402109F817300CA8FFF702F8AF
:102D6800069A2846039202F0E2FF039A7AB9059B75
:102D78002BB9224621464046FFF7A8FA08E00094FE
:102D88002346049A51464046FFF7E2FA00E010460F
:102D98001DB0BDE8F08F00BF80BFFFFF2DE9F347EE
:102DA800012B89460BA90546924686C91C469DF803
:102DB800280003D1D5F8A430002B4BD100976B68BD
:102DC800FFF72AF8002849D13CB93A46394628463F
:102DD80002B0BDE8F047FFF779BA6C6801202146D8
:102DE8000CF05EF90646B8B3214601200CF058F9FC
:102DF800804618B930460BF085F82DE000963B4622
:102E0800524649462846FFF7A3FA0446D0B9424637
:102E180031462846FFF75AFA044698B9034602464F
:102E28006D68AA4207D018F80200B95C0132414027
:102E38000B43DBB2F5E723B9314638460CF055F9B8
:102E480000E0084C30460BF05DF840460BF05AF8AD
:102E5800204603E0044801E06FF00F0002B0BDE82F
:102E6800F08700BF00BDFFFF80BFFFFFF0B5D0F8BF
:102E7800A4E006AD9DF81440E0CDBEF1000F0AD0E5
:102E8800BEF1010F0FD10897079606950594BDE886
:102E9800F040FFF7BFBE0897079606950594BDE872
:102EA800F040FFF77BBF0148F0BD00BF00BFFFFF48
:102EB8002DE9F04F012BADF2644D05469DF888844D
:102EC80005D1D0F8A400012801D06148BBE06F68A3
:102ED800A7F11000B0F57C7FF7D818AE33B93246A9
:102EE800DDF89C142846FFF7F1F905E00096DDF8B7
:102EF8009C342846FFF72CFA002840F0A4807C1E5A
:102F0800335DBC2B40F09E80B8F1000F08D04046DE
:102F180002F0FCFE0028D8D003F032F8CDF88C047B
:102F28009DF8940402F0F2FE81460028CDD003F00B
:102F380027F80023824605F108000393049306F05E
:102F48004AFAFB0000F1FF383278C3F10803434422
:102F580052FA03F3B9D118F0070F08BF27460AF150
:102F680002030CBF0DF1610535469F42ADD305AC98
:102F7800204602F0D7FE00224946204602F0F8FE1D
:102F88008346002859D16FEA0A01394405EB010943
:102F9800009453464A462846FEF7ECFE834600282E
:102FA8004BD1C8EBC70733784FF0FF0848FA07F74B
:102FB8001F40377009F1FF329542294603D20B783A
:102FC8000135002BF8D00B78012B34D1DDF898347B
:102FD8004D1C5A1CC5EB090601D09E422BD1204638
:102FE80002F0E8FE834640BB082203A9204602F00F
:102FF800EBFE834608BBDDF88C24DDF890142046F0
:1030080002F0E2FE8346C0B932462946204602F065
:10301800DBFE834688B908A9204602F0DFFE834616
:1030280058B9524608A948460CF050F8094A0028F1
:1030380018BF934601E0DFF820B0204602F077FE83
:10304800584600E004480DF2644DBDE8F08F00BF1B
:1030580080BFFFFF80BCFFFF00BFFFFF70B5D0F847
:10306800A84086B09DF828500CB1E4B200E02C4688
:1030780003940C9C0D9E02940B9C05964FF0FF3612
:10308800049601940095FFF713FF06B070BD000089
:103098002DE9F74F012B80468A46934699464568A5
:1030A80002D1D0F8A430EBB9294601200BF0F8FF83
:1030B8000646C8B1294601200BF0F2FF0746C0B901
:1030C8006FF00F0430462946FEF74CFE30460AF0F2
:1030D80019FF67B138462946FEF744FE38460AF01C
:1030E80011FF04E01B4831E06FF00F002EE020468E
:1030F8002CE000902B460E9A0D999DF83000FEF7B3
:103108008BFE04460028DDD1B9F1000F05D1324607
:103118000F994046FFF7DAF806E000960F9B5A46EB
:1031280051464046FFF714F904460028CAD1034621
:103138009D4206D0F05CFA5C013350400443E4B28F
:10314800F6E7002C044C08BF0024BBE703B0BDE839
:10315800F08F00BF80BFFFFF80BCFFFFF0B5D0F845
:10316800A4E006AD9DF81440E0CDBEF1000F0AD0F2
:10317800BEF1010F0FD10897079606950594BDE893
:10318800F040FFF76BBF0897079606950594BDE8D2
:10319800F040FFF77DBF0148F0BD00BF00BFFFFF53
:1031A80010B504468C3006F064F804F1980006F077
:1031B80060F804F1680006F05CF804F1200006F0FD
:1031C80058F804F1380006F054F804F12C0006F021
:1031D80050F804F1140006F04CF804F1080006F069
:1031E80048F804F1800006F044F804F1740006F091
:1031F80040F804F15C0006F03CF804F1500006F0D9
:1032080038F804F14400BDE8104006F032B8000078
:1032180038B5054660B1084C206858B162686B68DB
:103228009A4203D1A9680BF051FF10B11434F3E7A7
:1032380038BD204638BD00BF84FF0A0870B50E4669
:10324800054660B1094C206848B162686B689A42CB
:1032580003D1A9680BF03AFF20B11434F3E76FF0FB
:103268002D0070BD2369336070BD00BF74F40A0877
:1032780070B50E46054660B1094C206848B16268D1
:103288006B689A4203D1A9680BF020FF20B114346F
:10329800F3E76FF02D0070BD2369336070BD00BF88
:1032A8009C000B0870B50E46054660B1094C2068B5
:1032B80048B162686B689A4203D1A9680BF006FFAF
:1032C80020B11034F3E76FF02D0070BDE368336070
:1032D80070BD00BF04F60A0810B50C46FFF798FF4A
:1032E80018B1C3680020236010BD6FF02D0010BD19
:1032F80038B50D461446FFF78BFF28B1037C2B70B9
:10330800437C0020237038BD6FF02D0038BD0000CD
:1033180070B50E46054660B1094C206848B1626830
:103328006B689A4203D1A9680BF0D0FE20B114341F
:10333800F3E76FF02D0070BD237C337070BD00BFC4
:1033480074F60A0870B50E46054660B1094C206847
:1033580048B162686B689A4203D1A9680BF0B6FE5F
:1033680020B11434F3E76FF02D0070BD237C337067
:1033780070BD00BFC4F60A0830B5084B1C684CB1D4
:103388001D7C854204D10C605B680020136030BD51
:103398001433F3E76FF02D0030BD00BF0CFF0A08AF
:1033A80070B50E46054660B1094C206848B16268A0
:1033B8006B689A4203D1A9680BF088FE20B11434D7
:1033C800F3E76FF02D0070BD237C337070BD00BF34
:1033D80024000B08F8B50F461646054660B10A4C9E
:1033E800206848B162686B689A4203D1A9680BF0FB
:1033F8006DFE20B11434F3E76FF02D00F8BD237C87
:103408003B70637C3370F8BDD0FE0A085C22002153
:103418000BF091BE38B100F15C020023904202D05B
:1034280003700130FAE7704708B55C220BF05DFEC7
:1034380008BD000003460A4A00209A6002F188325B
:10344800DA6002F12942A2F59612A2F68B621A619D
:10345800A2F188325A61034A186058609A6170472D
:1034680001234567F0E1D2C32DE9F04F4B780A7884
:103478001B0443EA0263CA7897B013438A7891F829
:1034880008C043EA022306934B790A791B0443EAEE
:103498000263CA7991F80C8013438A7991F814E091
:1034A80043EA022307934B7A0A7C1B0443EA0C6322
:1034B80091F80BC00F7E43EA0C0391F80AC0019003
:1034C80043EA0C2C4B7B1B0443EA086391F80F80FA
:1034D80043EA080391F80E8043EA08284B7C1B0452
:1034E80043EA0263CA7C13438A7C43EA02230E93AD
:1034F8004B7D1B0443EA0E6391F817E043EA0E0381
:1035080091F816E043EA0E230F934B7E1B0443EA1F
:103518000763CF7E0E7F3B438F7E91F8204043EABE
:10352800072310934B7F91F824201B0443EA06637A
:10353800CE7F91F82C0033438E7F43EA0623119304
:1035480091F821301B0443EA046391F82340234394
:1035580091F8224043EA0423099391F825301B048B
:1035680043EA026391F82720134391F8262043EA9F
:1035780002230A9391F8293091F828201B0443EA82
:10358800026391F82B20134391F82A2043EA02237F
:103598000B9391F82D301B0443EA006391F82F0038
:1035A800034391F82E0043EA00230C9391F831303D
:1035B80091F830001B0443EA006391F83300034399
:1035C80091F8320043EA00230D9391F8353091F8D1
:1035D80034901B0443EA096391F8379091F8382036
:1035E80043EA090391F8369043EA0923029391F8D4
:1035F80039301B0443EA026391F83B20134391F8E6
:103608003A2043EA0223039391F83D3091F83C2095
:103618001B0443EA026391F83F20134391F83E20CC
:1036280043EA02230493019B9B681293019BDB6886
:103638001493019B1B690593019B5B691393019B81
:10364800139A9B691593059B83EA020E149B1299A2
:103658000EEA030E8EEA020EDD4B159A119C1A44EF
:1036680002EBF1629644069A04EB030B9644149A13
:10367800099C4FEAB200059AC51882EA0007059A24
:103688000F405740139A4FEAB1011A441744079A5A
:1036980080EA01091744059A09EA0E091A4407EB5A
:1036A800FE6762444FEABE0E89EA0009914481EA46
:1036B8000E023A4009EBF7694A404FEAB70745441A
:1036C800C81815440E998EEA070202EA090205EBAA
:1036D800F96582EA0E024FEAB90908440F991044C5
:1036E80087EA0902CE182A407A40764400EBF56052
:1036F80016444FEAB505109A89EA050101401A44B3
:1037080006EBF06681EA09014FEAB0003A440A4440
:1037180085EA0001314002EBF66269404FEAB606DD
:10372800CB448B4480EA060111401C4441402C44A0
:103738000BEBF26B0C444FEAB2020A9986EA0205D7
:1037480005EA0B0519447540014404EBFB64294460
:103758004FEABB0B0B9D82EA0B0005EB030A2040E6
:1037680001EBF4610C9D4FEAB4045040B24482442A
:103778008BEA040005EB0309084080EA0B0091443A
:103788000AEBF16A81444FEAB1010D9884EA01021B
:1037980000EB030E02EA0A0209EBFA6902984FEA03
:1037A800BA0A6240DE44964481EA0A02C51802EA6F
:1037B80009020EEBF96E4A404FEAB909039825440D
:1037C80015448AEA090202EA0E02184405EBFE656E
:1037D80082EA0A024FEABE0E08440499104489EAB4
:1037E8000E02CF182A4082EA090257441744069A63
:1037F800099982EA0C024A40029900EBF5604A40B6
:103808004FEAB5058EEA05014FEAF27206920140C9
:103818001A4481EA0E014A440A4407990A9C81EA3B
:1038280008016140039C07EBF06761404FEAF171C2
:1038380007914FEAB000079C85EA0001E618394075
:10384800694076440E440E9902EBF7628CEA010C4B
:103858000B994FEAB7078CEA010C049906EBF2665C
:103868008CEA010C4FEAFC710891089C80EA070178
:1038780011401C4441402C440C440F994FEAB202B9
:1038880088EA01080C9987EA020588EA010806997E
:10389800354088EA01084FEAF87843447D400344FC
:1038A800E91810980E9B4B4D83EA000C0D9B04EB16
:1038B800F6648CEA030C079B4FEAB6068CEA030C05
:1038C8004FEAFC7C82EA06030CEB050B6340BB4421
:1038D80011989B440F9B01EBF46183EA000E029B55
:1038E8004FEAB4048EEA030E089B86EA04008EEAC7
:1038F800030E4FEAFE7E0EEB0503484013440344D3
:10390800109A09980BEBF16B82EA0007039A4FEAC9
:10391800B101574087EA08074FEAF77784EA0102BE
:1039280007EB050A82EA0B02B2440A989244119AFC
:1039380003EBFB6382EA0006049A4FEABB0B56408E
:1039480086EA0C064FEAF67681EA0B0206EB0509D1
:103958005A40A1440B989144099A0AEBF36A82EA07
:103968000004069A4FEAB303544084EA0E044FEA6F
:10397800F472099209988BEA0302284482EA0A023F
:10398800084410440C990A9A09EBFA694A400799C5
:103998004FEABA0A4A407A404FEAF2720A920A9902
:1039A80083EA0A02294482EA0902594411440B9A1B
:1039B80000EBF96014460D9A4FEAB9096240089C79
:1039C8008AEA090B624072404FEAF27204E000BFD3
:1039D8009979825AA1EBD96E0B922A44029C01EB89
:1039E800F0618BEA000B1A444FEAB0030C985A4472
:1039F8006040099C80EA080060404FEAF0700C9033
:103A08000C9C89EA030004EB050B4840DA44039C4C
:103A180082440D9802EBF16260400A9C80EA0C0037
:103A280060404FEAF070029C0D9028444844A1463B
:103A3800049C4FEAB10189EA04090B9C89EA0E0942
:103A480089EA04094FEAF97404EB0509029483EA48
:103A5800010B069C9944039B0AEBF26A63400C9C99
:103A68007B4063404FEAF37303938BEA020B4FEA00
:103A7800B202039C584481EA020B00EBFA608BEA1D
:103A88000A0B4FEABA0A82EA0A03D94404EB050B87
:103A980043405944079C1944049B09EBF06963406F
:103AA8000D9C734063404FEAF37304932B44089CC6
:103AB8001344069A4FEAB0006240099C8AEA000B58
:103AC8006240029C01EBF96162404FEAF272069291
:103AD800069C8BEA090B4FEAB90980EA09025B44A4
:103AE80004EB050B4A40079CDA4403EBF16392446C
:103AF8000AEBF36284EA080A0A9C4FEAB1018AEAEF
:103B0800040A039C88EA0E088AEA040A4FEAFA744F
:103B180004EB050B89EA010A58448AEA030A82443D
:103B2800089807940B9C80EA0C006040049C4FEABC
:103B3800B30360404FEAF0700890089C81EA0300E4
:103B480004EB050B0C9C504088EA0408069CD944F9
:103B580088EA04084FEAF87B0AEBF26A81444FEAE4
:103B6800B20209EBFA6083EA02080BEB050988EA5E
:103B78000A084944414401EBF0680D998CEA070CA6
:103B88008CEA010C07994FEABA0A8CEA010C4FEA51
:103B9800FC710E910E9C82EA0A0104EB050C41406F
:103BA80063440B4403EBF861029B8EEA060E8EEA2F
:103BB800030E089B4FEAB0008EEA030E4FEAFE732D
:103BC8000F930F9C8AEA000304EB050E83EA0803AF
:103BD80072441A4402EBF163099A4FEAB808574055
:103BE800039A574087EA0B074FEAF7721092109C26
:103BF80080EA080267190A9C4A406640049C4FEA1A
:103C0800B10166400E9CBA4466404FEAF6742544FA
:103C1800119428440B9C099D88EA010665402C46AE
:103C2800069D5E406C400F9D924430446C40D64ED9
:103C38000AEBF3624FEAF4744FEAB303099442EAD9
:103C48000305344400EBF2600D40A04402EA03048B
:103C58002C4308EBF0684FEAB20AA0440A9A0C9C7D
:103C68004FEAB00C6240079C6240109C62404FEAE9
:103C7800F2720A9240EA0A0202EA030400EA0A021D
:103C880022430A9C0D983444214411440B9A01EBB9
:103C9800F861424008984240119842404FEAF27257
:103CA8000B9248EA0C00324400EA0A00134408EA7E
:103CB8000C02024303EBF163134402980C9A4FEA97
:103CC800B8085040099A80EA0B0050404FEAF07259
:103CD80041EA08000C9200EA0C0001EA08021043CD
:103CE8000C9A4FEAB10132445244024402EBF36A9F
:103CF80003980D9A43EA010450400E9A04EA080416
:103D080050400A9A4FEAB30750404FEAF0729019B0
:103D18000D92604403EA0102224300EBFA6010446A
:103D2800029B049A4FEABA0953400F9A53400B9AE0
:103D380053404FEAF3730293029A4AEA070303EAED
:103D4800010E0AEA07034EEA030302EB060EF044EB
:103D58009844069A039B08EBF06E83EA0208109BCE
:103D680088EA03080C9B88EA03084FEAF8739C1951
:103D7800214440EA090403933C4000EA09031C4338
:103D8800049B079A4FEAB00083EA020C119B01EBEF
:103D9800FE618CEA030C0D9B0C448CEA030C4FEA81
:103DA800FC734EEA0001049301EA09010EEA0003DC
:103DB8001943049B089A33443B44CF18069B4FEAA7
:103DC800BE0183EA0208099B07EBF46788EA030847
:103DD800029B4FEAB70A88EA03084FEAF8739A1970
:103DE800914444EA01020693024004EA01031A439B
:103DF800079B4FEAB40483EA0B0C0A9B09EBF769AB
:103E08008CEA030C039B4A448CEA030C4FEAFC73CC
:103E18000793079D47EA040303EA010C07EA040332
:103E28004CEA030305EB060C6044184400EBF26C03
:103E3800089B0E9883EA00050B9B42EA0A005D4046
:103E4800049B20405D404FEAF577BB19194401EB0C
:103E5800FC6302EA0A01014319440F9B4FEAB202CC
:103E68008BEA03090C9B4FEABC0089EA0309069B0D
:103E780089EA03094CEA02034FEAF97E03EA0A05D4
:103E88000CEA02032B430EEB060525441D44109C47
:103E98000E9B05EBF16563400D9C6340079C6340F6
:103EA8004FEAF373089333449A440AEBF56341EA03
:103EB800000A01EA00040AEA020A4AEA040A9A44E1
:103EC800119C0F9B4FEAB1016340029C63407B4009
:103ED80045EA01044FEAF3730E93044005EA01032F
:103EE8001C430E9B4FEAB505334413442344109AF0
:103EF800099C03EBFA6382EA0408039A88EA020839
:103F080088EA0E084FEAF87202EB0608804408EBCC
:103F1800F3604AEA05080F9208EA01080AEA05026E
:103F280048EA02088044119A0A984FEABA0A82EAD3
:103F3800000C049A8CEA020C089A8CEA020C4FEAEC
:103F4800FC721092109843EA0A0202EA050C03EA8E
:103F58000A024CEA020200EB060C8C440B999444CA
:103F6800069A4C4054400E9A0CEBF86C54404FEAB9
:103F7800F472099232444FEAB303154405EBFC622C
:103F880048EA030502E000BFDCBC1B8F08EA030116
:103F980005EA0A050D4315440C990A9A4FEAB80830
:103FA80082EA010B079A0D998BEA020B0F9A8BEAAA
:103FB800020B4CEA08024FEAFB7B02EA03090CEA0F
:103FC800080249EA02020BEB0609D14491440B9A14
:103FD8004FEABC0C82EA010A8AEA070A8AEA000A5E
:103FE8004FEAFA720A92324409EBF56945EA0C0184
:103FF8001A4402EBF96301EA080105EA0C020A43D4
:104008001A4402990C9B4FEAB50583EA0100099B03
:1040180080EA0E0058404FEAF0730B930B9949EA77
:10402800050000EA0C0009EA05030E444644034370
:10403800981903990D9BD84E5940089B4FEAB90926
:10404800594081EA0B014FEAF1730C930C9985EA08
:1040580009033144534061441944029B049C00EB1A
:10406800F26063400E9C4FEAB20263400A9C01EB87
:10407800F06163404FEAF373029389EA0204334420
:1040880044402B442344069D039C4FEAB00084EA35
:1040980005080F9C82EA000588EA04080B9C4D403D
:1040A80088EA04084FEAF874039434444C442C44D6
:1040B800049D03EBF163AC46079D4FEAB1018CEA1E
:1040C800050C109D04EBF3648CEA050C0C9D8CEA3E
:1040D800050C4FEAFC75049580EA010585EA030C96
:1040E800049D4FEAB30305EB060A9244069AE2449C
:1040F80082EA0708099A0AEBF46A88EA0208029A2F
:1041080088EA02084FEAF8720692069D81EA0302DD
:1041180005EB0608624080449044079A4FEAB404CD
:1041280082EA0E0C039A8CEA0B0C8CEA020C4FEA1A
:10413800FC720792079883EA040200EB060C82EAF5
:104148000A028C449444089A08EBFA6887EA020544
:104158000A9A4FEABA0A5540049A0CEBF86C554093
:104168004FEAF575AF191F440E9B84EA0A028EEADE
:1041780003090B9B82EA080289EA0309069B4FEAB6
:10418800B80889EA03094FEAF9798AEA080309EBCA
:10419800060E83EA0C03A64417449E440F9A089B14
:1041A80007EBFC6753400C9A4FEABC0C5340434062
:1041B8004FEAF3730893089A88EA0C0332447B4069
:1041C800524410991A440E9B0EEBF76E4B4002991D
:1041D8004FEAB7074B406B404FEAF3730D930D99C5
:1041E8008CEA0703881983EA0E03404409991844A6
:1041F8000F9B02EBFE6283EA0108039B4FEABE0EA7
:1042080088EA030888EA09084FEAF87887EA0E037B
:1042180008EB0601534061441944109B00EBF2601F
:1042280083EA0B0C049B4FEAB2028CEA030C089B4E
:104238008EEA02048CEA030C4FEAFC7C0CEB0603C2
:1042480044403B4423440A9F099C01EBF0616740CA
:10425800069C4FEAB00067400D9C82EA000A67405E
:104268004FEAF7740B9F0994344474448BEA070EA1
:10427800079F03EBF1638EEA070E8EEA080E8AEABF
:10428800010A4FEAFE7E4FEAB1010A9F0EEB060BC8
:10429800544480EA010A8AEA030A5A445244BA4654
:1042A8000C9F04EBF3648AEA070A8AEA050585EAA3
:1042B8000C054FEAB3034FEAF57505EB060B81EAE7
:1042C800030A58448AEA040A029F82440B9802EBC4
:1042D800F462784080EA090909984FEAB40489EA47
:1042E80000074FEAF77707EB060983EA0400494419
:1042F800504008440C990A950D4603990AEBF26A56
:104308006940089D4FEAB202694081EA0E0E4FEA01
:10431800FE7E0EEB060984EA02014B4481EA0A019B
:10432800049D1944029B00EBFA606B400D9D4FEA17
:10433800BA0A6B400A9D82EA0A096B4006EBF373DE
:10434800069D1C44039B01EBF0616B4083EA08085F
:1043580089EA000988EA07084FEAB00006EBF8780E
:104368008AEA00054D4042442A44049B079D4C4478
:104378006B4083EA0C0C129B04EBF1641E444FEA79
:10438800B1018CEA0E0E80EA010506EBFE7E65405F
:10439800F24402EBF46201E0D6C162CA0AEB0503FB
:1043A800019D03EBF263AB60149B1A44059BEA6022
:1043B80003EBB404139B2C611944159B69611844E1
:1043C800A861002017B0BDE8F08F00BF2DE9F041CB
:1043D80004460E46154682B3036803F03F001344B3
:1043E8009A42236082BF63680133636080B1C0F181
:1043F8004007BA421BD304F11C083A4640440AF06D
:1044080074FE41462046FFF72FF8B8B93E44ED1B2D
:104418002F46E91B3F2F314405D92046FFF724F8E2
:1044280060B9403FF5E747B13D460E4600201C34D1
:104438002A46314620440AF058FE0020BDE8F081A3
:1044480070B504460368802203F03F03581C3828DF
:1044580023440D461A7704F11C0604D8C0F138022B
:10446800002130440EE0C0F14002002130440AF03F
:1044780062FE31462046FEF7F7FF002853D1014679
:10448800304638220AF057FE236861685A0F42EA1C
:10449800C102110EDB0084F85410110C84F8551079
:1044A80084F85720110A1A0E84F858201A0C84F838
:1044B80059201A0A84F8561084F85A2084F85B3078
:1044C80031462046FEF7D0FF00282CD1E37A2B7026
:1044D80063896B70A3681B0AAB70A368EB70E37BFE
:1044E8002B71E3896B71E3681B0AAB71E368EB71AD
:1044F800E37C2B72638A6B7223691B0AAB72236994
:10450800EB72E37D2B73E38A6B7363691B0AAB73EE
:104518006369EB73E37E2B74638B6B74A3691B0A6B
:10452800AB74A369EB7470BDF0B599B0064601A8E9
:104538000F461546FEF76AFF01A8FEF77BFF044603
:1045480058B93A46314601A8FFF740FF044620B95A
:10455800294601A8FFF774FF044601A8FEF75AFF91
:10456800204619B0F0BD13B50446002168460AF08C
:104578001BFE009B226861689A1A019B4FF47A70AF
:104588005B1A93FBF0F300FB023002B010BD38B5A4
:10459800044609F09FFB054609F0A4FB4FF47A7323
:1045A8002060B5FBF3F003FB105043436360002029
:1045B80038BD0162426212B100210AF0F5BD7047B0
:1045C80010B5436A044653B1FFF7CDFF636A8342CF
:1045D80008D9236A83428CBF0020012010BD4FF008
:1045E800FF3010BD022010BD10B5044601F0E8FAF6
:1045F8002046BDE8104009F085BC10B54FF4C071E5
:1046080001200AF04DFD044608B101F049F82046A2
:1046180010BD13460A46022101F047B810B50446FA
:1046280006F0A5FA2046BDE8104009F06BBC10B5AD
:104638004FF48C7101200AF033FD044608B106F0EE
:1046480091FA204610BD06F099BB06F09BBA06F019
:104658009FBF012802D0831F58425841704700006D
:104668000123064A0B700B73054B4A6000F10802E0
:1046780014308A600B614861704700BF6C020B08F8
:1046880072020B0810B50446FEF78AFD2046BDE805
:10469800104009F037BC10B5AC2101200AF000FD2C
:1046A800044618B100221146FDF78CFD204610BDC6
:1046B800FDF7EEBD08B5FDF792FDC00008BD00008E
:1046C8002DE9F14FDDF828B0DDF82CA00446884626
:1046D800174699460C9D0D9EFDF781FD5045CBF878
:1046E80000000DD83246294620460023CDF83090E8
:1046F800CDF82C800A9701B0BDE8F04FFEF7E4B87A
:10470800014801B0BDE8F08F00BCFFFF2DE9F14F73
:104718000A9F9346044688469946DDF82CA00C9DCE
:104728000D9EFDF75CFD58450FD1324629462046BF
:104738000123CDF834A0CDF83090CDF82C800A971D
:1047480001B0BDE8F04FFEF741BA024801B0BDE83C
:10475800F08F00BF80BFFFFF2DE9F14FDDF828A0E3
:104768000F46914698460446DDF82CB00C9D0D9EE8
:10477800FDF735FD3246CBF80000294620460123D7
:10478800CDF834A0CDF83090CDF82C800A9701B040
:10479800BDE8F04FFEF76ABB2DE9F04385B00D9CEC
:1047A80006460F4691469846FDF719FDA042054674
:1047B80010D80C9B8DE88003039300231A461946F2
:1047C8003046FEF7CBFC30B9A0F56450A54228BFAF
:1047D800002000E0014805B0BDE8F08380BCFFFF81
:1047E800054B1A681AB1824203D02033F9E7104604
:1047F80070471846704700BFF0020B08F8B50D4B1C
:104808001A681C46A2B90C490C4E01F1080756F863
:10481800045F4DB1B94207D22846FFF7E1FF0028EF
:10482800F5D00D600431F2E700230B60012323600B
:104838000148F8BDA8070020AC0700204C030B086E
:10484800002330B513600A2589B103681B78303B13
:10485800092B0ED8136801396B43136003685C1C7D
:1048680004601B781468303B23441360ECE7084667
:1048780030BD014830BD00BF00DCFFFF38B503681C
:104888001546CA1A002A044617DD1A7802F07F0274
:10489800022A14D15A1C02602A461B7842F8043BAB
:1048A800FDF766F810B1A0F50A5038BD2368AB6073
:1048B80022686B681344236038BD024838BD02483B
:1048C80038BD00BF20DDFFFF1EDDFFFF08B5FDF787
:1048D8007AF908B1A0F50C5008BD00002DE9F7439E
:1048E80004460F469146DFF8E08031236A46394690
:1048F8002046FDF78FF810B1A0F50E505AE04D464E
:104908002668009B1E44302301AA31462046FDF745
:1049180081F850BB2368F21A002A01DC274849E0D5
:104928002A461B78314642F8043B20460623FDF709
:1049380071F8D0B923686968AB6020684318F21A27
:10494800002A2360EADD425C1E2A1AD828FA02F2FD
:10495800D20716D501332360435C05F11002EB60E2
:1049680031462046FDF704F818B1A0F50E5050B1B5
:1049780020E023686B6122682B6913442360A861D7
:1049880001E00F4816E023689E4208D001202877EE
:1049980020210AF085FBA86158B10546B3E7B74264
:1049A80008D0202101200AF07BFB8146A86100285D
:1049B8009BD1044803B0BDE8F08300BF20DCFFFFB3
:1049C8001EDCFFFF80D7FFFF08105850F7B50368BB
:1049D8001446CA1A002A054640F3A1801A78172AF5
:1049E80004D0182A40F09D80042700E002270133F4
:1049F8002B6001AA2846FCF7BBFF10B1A0F51050A8
:104A080092E0019E07F108039E42C0F08C80224686
:104A180039462846FFF714FF002840F08580022F0A
:104A280008D12368312BDCBF64332360236803F289
:104A38006C732360221D02212846FFF701FF00281E
:104A480072D104F1080202212846FFF7F9FE002876
:104A58006AD104F10C0202212846FFF7F1FE002872
:104A680062D104F1100202212846FFF7E9FE00286E
:104A78005AD1F61BA6F10803012B54D904F11402EC
:104A880002212846FFF7DCFE00284DD1A6F10A03D3
:104A9800012B07D12B681A785A2A44D101332B608D
:104AA800A6F10B03002B3ED142F20F72236893420A
:104AB80039D8E268172A36D822693B2A33D862697E
:104AC8003B2A30D861680C292DD801228A4041F24E
:104AD800AA511140B9B912F4256F16D1510722D540
:104AE8009A0705D1642193FBF1F201FB123272B9E6
:104AF8004FF4C87193FBF1F201FB1233002B0CBF8A
:104B08001D231C2304E01F2302E01E2300E01D23B5
:104B1800A268002A07DD9A4205DC002004E0034869
:104B280002E0034800E0034803B0F0BDA0DBFFFF4C
:104B38009EDBFFFF00DCFFFF73B503681546CA1A4A
:104B4800002A044610DD01AA1E78FCF7ECFF10B11C
:104B5800A0F5125009E0019B2E606B602268AA60E4
:104B680022681344236000E0014802B070BD00BF12
:104B780020DBFFFF10B50C461146029A126882B975
:104B88001A46FEF7B5FB10B1A0F5185010BD236802
:104B9800052B00D03BB963680448002B08BF0020F0
:104BA80010BD034810BD014810BD00BF00DDFFFF68
:104BB80000D8FFFF73B51646026804468A421CD027
:104BC8001578324643F0A00342F8045BFCF722FF55
:104BD800B0B9236801AAB3602568736820461D44EC
:104BE80029463023FCF716FF10B1A0F5145007E052
:104BF8002268019B13449D4201D1002000E0014836
:104C080002B070BD9ADAFFFF2DE9F0470F469146D2
:104C18003D464E46C2B04FF0000A0DF108084FF469
:104C28008072514604464046CDF804A00AF083FA43
:104C380052464FF03F0A002E57D0B368002B52D08F
:104C48004E4511D02B4B2C492046002A14BF0A464A
:104C58001A46294609F06EF9002801DA274845E086
:104C68008542FBD92D1A044401A93046FEF7E6FA1D
:104C780030B9019B224A2946204609F05BF904E035
:104C8800204A2946204609F055F90028E6DB8542E6
:104C9800E4D92D1A044400233269934213D2FF2B1E
:104CA80011D07269D25C1F2A06D97F2A04D002F17A
:104CB8007F01C9B21E2902D808F803A001E008F84C
:104CC80003200133E8E7002208F803202946434679
:104CD8000D4A204609F02EF90028BFDB8542BDD9D0
:104CE800327F2D1A0444B669A5E7781B42B0BDE8A7
:104CF800F08700BFE0050B08DC050B0880D6FFFF36
:104D0800E3050B08E7050B08160A0B082DE9F74F12
:104D180080460F4691460C465668DFF87CA0212E47
:104D2800DFF878B028BF1C260025B5421CD0D9F87A
:104D380008301DB9012E01D01A789AB1721E954219
:104D480034BF52465A465B5D2146009240460F4AA0
:104D580009F0F0F8002801DA0D4814E08442FBD984
:104D6800241A80440135E0E7D9F804309D4209D07F
:104D7800084A2146404609F0DDF80028ECDB844269
:104D8800EAD9241A381B03B0BDE8F08FED050B08EB
:104D980080D6FFFFF4050B08EB050B08C8F80A08D6
:104DA80037B500230C4602A9054641F8043D1046D4
:104DB800FEF792FA28B10B4A2146284609F0BAF8BC
:104DC80005E0019B084A2146284609F0B3F8002867
:104DD80004DB064B844298BF184600E0034803B042
:104DE80030BD00BFF9050B08160A0B0880D6FFFF77
:104DF80010B51346064A0C4609F09CF8002805DB56
:104E0800044B844294BF1846002010BD014810BDD1
:104E1800FD050B0880D6FFFF002070470020704773
:104E2800F0B50C4615468FB007460BA804F01AFAE1
:104E3800302309AA61190AA80A94FCF7EBFD40B9C6
:104E4800099B0A9E08AA1E4431460AA8FCF70FFED1
:104E580010B1A0F57455D4E0089DDDB9022309AA64
:104E680031460AA8FCF7D6FD0446002840F0C58064
:104E780006900590049003900290019000900346DC
:104E8800099A0A993846FDF7B3F80446002840F015
:104E9800B48001E05C4DB4E00A9A099B31461344A2
:104EA8000A9309AA02230AA8FCF7B4FD04460028BD
:104EB80040F0A380099B049406930A9B03940593EE
:104EC8000294019400942346224621463846FDF771
:104ED8008FF80446002840F090800A9A099B3146D2
:104EE80013440A9309AA02230AA8FCF793FD04466F
:104EF800002840F08280099B069404930A9B05943D
:104F0800039302940194009423462246214638468E
:104F1800FDF76EF8044600286FD10A9A099B3146BE
:104F280013440A9309AA02230AA8FCF773FD04464E
:104F3800002862D1099B00220093069205920492F0
:104F48000392029201920A9B11463846FDF750F8E7
:104F58000446002851D10A9A099B314613440A9302
:104F680009AA02230AA8FCF755FD0446002844D1E3
:104F7800099B069402930A9B059404940394019355
:104F880000942346224621463846FDF731F8044668
:104F9800002832D10A9A099B384613440A93FDF730
:104FA80065F80446C8B90BAA31460AA8FCF783FD80
:104FB800044610BB0BAA31460AA8FCF77CFD044640
:104FC800D8B90BAA31460AA8FCF775FD0446A0B962
:104FD8000E4B0A9A964218BF1C460BA804F049F9D2
:104FE8007CB14FF68073234013B9A4F5745500E0E3
:104FF800074D3846FEF7D4F803E00BA804F039F95A
:10500800EFE728460FB0F0BD80C2FFFF9AC2FFFF4E
:1050180000C3FFFF30B5154685B000221A605A60FC
:105028009A6001AA1C46FCF7CEFD10B1A0F56A50A3
:1050380014E0294601A8FEF76BF960B92B78012B1B
:105048000CD12368052B00D03BB963680448002BBA
:1050580008BF002002E0034800E0014805B030BD69
:1050680080C5FFFF80C3FFFF30B5002389B0054628
:1050780004918DF807301144302303AA04A8FCF7E3
:10508800C9FCC8B9039B049C02AA1C44214604A875
:10509800FCF7EDFC80B9029B7BBB05AB0DF1070269
:1050A800214604A8FFF7B6FF30B9042303AA214616
:1050B80004A8FCF7AFFC10B1A0F5745022E0039BE4
:1050C800EBB19DF8070005F03FFB014608B90E4813
:1050D80018E0284605F040FBA0B99DF80730012BE1
:1050E800F5D1039A04996868FFF79AFE044640B11F
:1050F800284605F018FB204604E0044802E004486E
:1051080000E0002009B030BD80C3FFFF80C2FFFF70
:10511800A0C2FFFFF0B591B0169E099105461F4643
:105128001144002E66D0302308AA09A8FCF772FCA7
:1051380080B9089B099C0AAA1C4421460DAB09A802
:10514800FCF741FD30B9042308AA214609A8FCF759
:1051580061FC10B1A0F5745055E00DF11F010DF17F
:105168001E020AA8099CFEF735F90146A0B908985D
:105178009DF81F30039009989DF81E200290049412
:10518800019600970DA806F00BFB002836D010F505
:10519800F05F38D11D4836E00B9A0A2A14D10C99D1
:1051A8001B4809F093FF014630BB089B029401930A
:1051B800099B3A4600930DA8334606F013FA10BB34
:1051C8002378302B1AD0E5E7092A15D10C99114814
:1051D80009F07CFF014678B9089B02940193099B6A
:1051E8003A4600930DA83346FCF756F930B110F54E
:1051F800385FCEE7084806E0084804E0089A2146E8
:105208002846FFF731FF11B0F0BD00BF80C4FFFF93
:1052180009060B0814060B0800C4FFFF80C6FFFF31
:10522800F0B500238FB017468DF8233009AA302334
:105238000546FCF7EFFB10B1A0F5745090E0099B10
:105248002E680DF123021E4431460BAB2846FFF7AA
:10525800E1FE002840F0848009AA31462846FCF780
:1052680062FC10B1A0F56C507AE02A68099B1344DF
:105278009E4269D19DF8230005F066FA0146002890
:1052880064D0384605F068FA0446002860D19DF8D5
:105298002330012B62D130230AAA314628467C6884
:1052A800FCF7B8FB28BB2A680A9B13449E4246D1E8
:1052B80002230AAA31462846FCF7ACFBC8B90023EA
:1052C80006930593049303930293019300930A9A18
:1052D80029682046FCF78CFE00283DD12A680A9BE5
:1052E800314613442B600AAA02232846FCF792FB96
:1052F80018B1A0F56C54FCB122E00A9B0490069307
:105308002B68039005930290019000900346024693
:1053180001462046FCF76CFEF0B92A680A9B204635
:1053280013442B60FCF7A2FEB0B92046FCF75AFFE5
:1053380090B92B689E4202D12B689E420AD0094C34
:10534800384605F0F0F903E0064809E0064807E0AA
:10535800204605E0002003E0044CF1E7024CEFE7AB
:105368000FB0F0BD9AC4FFFF80C3FFFF00C5FFFF69
:105378002DE9F043164689B0054605A80C461F4698
:10538800DDF8408007F064FB002E00F0B88006F1DD
:10539800FF3914F809301BB114F809306BBB31E040
:1053A80004AB02938DE880012346574A574905A864
:1053B80007F054FB78B9012005F0C6F901462846E4
:1053C80005F0CAF90446002860D1069A059968686C
:1053D800FFF726FD58E010F59C5F01D14C488FE09F
:1053E80010F5985F00F0848010F5845F40F08880A5
:1053F800D2E710F5845F40F08380A31913F8013CCD
:10540800ABB92DE004AA029201930093414A2346C6
:10541800414905A807F022FB0028EAD1069A059918
:105428002846FFF721FE2FE010F5845F68D131464A
:10543800012009F035FE814600285BD0324621461E
:1054480009F053FE3B4632464946CDF800802846CF
:10545800FFF760FE09EB060107464B4600221DE0F8
:1054680004AA0292019300932C4A23462C4905A8CA
:1054780007F0F4FA0028D7D1CDF800803B46069A09
:1054880005992846FFF746FE044610B1284605F060
:105498004AF905A807F070FB204631E08B4202D09C
:1054A8001A700133FAE7484608F02CFD0FB90020BE
:1054B80026E0284605F037F917F56E5F8ED032469C
:1054C80021462846FFF7D0FD0028F0D0284605F0F1
:1054D8002AF9012005F038F90146284605F03CF97B
:1054E80050B9324621466868FFF79AFC20B9DEE7D2
:1054F8000C4805E00C4803E0284605F014F90B4871
:1055080009B0BDE8F08300BF1E060B083C060B0877
:1055180080C4FFFF5C060B0876060B0892060B0892
:10552800B6060B0800C4FFFF80C0FFFF00C3FFFFE3
:105538002DE9F04FCB7B93B003F00F0300EBC303CF
:10554800D3E92E67D3E90E45DFF850C101F1100306
:105558001093109B13F801ED10930EF00F031193A5
:10556800109B4FEA2E1EC1EB0308B8F10F0F3AD07B
:10557800230943EA057300932B0901933307099321
:1055880000230893119BDDE900AB00EBC305330949
:1055980043EA077304933B09DDE90889059348EA60
:1055A8000A0849EA0B09D5E92E67C246CB46DDE968
:1055B800048988EA0608464604F00F045CF834407B
:1055C80089EA070923040D9300234F460C93DDE96C
:1055D8000C3473401E467C402746D5E90E4584EAC4
:1055E8000A0485EA0B05230943EA057302932B098C
:1055F800039333070B9300230A93330943EA077392
:1056080006933B0900EBCE0E0793DEE92E67DDE932
:1056180002ABDDE90A8948EA0A0849EA0B09DDE92B
:1056280006AB8AEA060A56468BEA070B5F4604F081
:105638000F045CF8344023040F9300230E93DDE934
:105648000E3473401E46109B7C4099422746DEE983
:105658000E4584EA080485EA09057FF47AAF3B0E13
:1056680013703B0C53703B0A9370330E1371330C59
:105678005371330A93712B0E13722B0C53722B0A2E
:105688009372230E1373230C5373230AD770D671A6
:10569800D5729373D47313B0BDE8F08F10070B085D
:1056A8004FF4C072002109F046BD2DE9F04F0446C1
:1056B8008DB008469146194601229846FBF7EAFF45
:1056C800002800F0998045690290102D40F09480E0
:1056D8002046FBF7F7FF02992046FCF705F800285B
:1056E80040F08C800123424649462046FCF716F8D4
:1056F800002840F08380014607902A4608A809F050
:105708001AFD07AB009308AB2A4619462046FCF75A
:1057180053F8002872D10246099B08991DBA2A43FA
:105728000A9D0BBA0B9995FA85F991FA81FE4946BB
:1057380040EA0E004FF000084FF00009C4E91E01CE
:10574800C4E93E23C4E92E89C4E90E894FF0030E4B
:1057580004254FF0614C00F00108D70749084FEACB
:1057680030005B084FEA32020CFB08FB002604EB12
:10577800C50830433943724083EA0B03BEF1010E7A
:10578800C8E90E01C8E92E234FEA6505E3D10320D5
:10579800022104F1380804F1B80CCB0008EB030E21
:1057A8006344D3E90045CDE90245DEE90045CDE98A
:1057B8000445654644460122F5E90267DDE9029A97
:1057C80089EA06098AEA070A4E465746DDE9049A35
:1057D800E3E90267F4E9026789EA06098AEA070A3F
:1057E8004E46574601328A42EEE90267E4D1013853
:1057F8004FEA4201D1D101E06FF013000DB0BDE8CE
:10580800F08F2DE9F04F4FF000098BB004468B461E
:105818009046159ECDF814901D46002B00F08D8003
:1058280000F5AC7710224946384604F5B47A09F0F9
:1058380082FC49461022504609F07DFCC4F878B134
:10584800A3460020002104F59C730C2DC3E9000138
:10585800EBE950010DD1D8F80030C4F85831D8F828
:1058680004307B60D8F80830BB60012384F86731C6
:105878003AE01022494606A809F05DFCEB001A0E32
:105888008DF824201A0C8DF825201A0A8DF8262068
:105898008DF827302B4604F257194946102D28BF9A
:1058A80010234246984412F801EB11F8010F4245C3
:1058B8008EEA00000870F6D13A463946204603932E
:1058C800FFF736FE039BED1AE4D106AB19F8012F5A
:1058D8005B5D01355340102D89F80030F5D13A460B
:1058E80039462046FFF724FE05AB0093102204F545
:1058F800A47339462046FBF75FFF10BBC4F840612C
:10590800CBF80400E6B1149B35461946102E28BF83
:105918001025294404F26712149113F8010B12F8A8
:10592800011F4140117014999942F6D152465146CF
:105938002046FFF7FDFD761BE4E76FF0130000E05B
:1059480030460BB0BDE8F08F2DE9F04F1F468BB005
:105958000023974204460E469046059302D9BB1A87
:105968008B425CD32546F5E94E01821941F10003CB
:105978008B4208BF824252D30F216FF01F00994219
:1059880008BF90424BD3C5E9002304F5B2730293D4
:1059980004F5AC730DF1180A0393002E42D004F5F8
:1059A800B4752A46AB46102EB14628BF4FF01009F1
:1059B80012F8013D0133DBB2137013B9029B9A420E
:1059C800F6D105AB00931022534603992046FBF706
:1059D800F3FE40BB4246D4F878311BB929781378D6
:1059E8004B402B7012F8011B1AF8003001354B4060
:1059F8003B54D4F878110130012902BF15F8011C75
:105A08004B4005F8013C8145E5D15A4659462046A8
:105A1800FFF78EFDC9EB0606C8444F44BDE76FF09B
:105A2800130000E030460BB0BDE8F08F2DE9FF47CA
:105A38008846D0F83C11D0F83831CD00D0F8441160
:105A480045EA5375DC00D0F84031CF0047EA537778
:105A5800DE00131F0C2B814692465BD800F5A4711B
:105A6800404609F042FB54EA050304D156EA07030D
:105A780001D1002050E010220021684609F05BFBAC
:105A88003B0E8DF800303B0C8DF801303B0A8DF849
:105A98000230330E8DF80430330C8DF80530330A9C
:105AA8008DF806302B0E8DF808302B0C8DF8093048
:105AB8002B0A8DF80A30230E8DF80C30230C8DF844
:105AC8000D308DF80F40230A09F2671422468DF82D
